{
  "contractName": "dex",
  "abi": [
    {
      "inputs": [],
      "stateMutability": "nonpayable",
      "type": "constructor"
    },
    {
      "inputs": [
        {
          "internalType": "address",
          "name": "",
          "type": "address"
        }
      ],
      "name": "liquidityPool",
      "outputs": [
        {
          "internalType": "contract Token",
          "name": "token1",
          "type": "address"
        },
        {
          "internalType": "contract Token",
          "name": "token2",
          "type": "address"
        },
        {
          "internalType": "uint256",
          "name": "token1Balance",
          "type": "uint256"
        },
        {
          "internalType": "uint256",
          "name": "token2Balance",
          "type": "uint256"
        },
        {
          "internalType": "bool",
          "name": "isAdded",
          "type": "bool"
        }
      ],
      "stateMutability": "view",
      "type": "function",
      "constant": true
    },
    {
      "inputs": [
        {
          "internalType": "address",
          "name": "",
          "type": "address"
        }
      ],
      "name": "tokens",
      "outputs": [
        {
          "internalType": "contract Token",
          "name": "",
          "type": "address"
        }
      ],
      "stateMutability": "view",
      "type": "function",
      "constant": true
    },
    {
      "inputs": [
        {
          "internalType": "string",
          "name": "symbol",
          "type": "string"
        },
        {
          "internalType": "string",
          "name": "name",
          "type": "string"
        }
      ],
      "name": "addToken",
      "outputs": [
        {
          "internalType": "address",
          "name": "",
          "type": "address"
        }
      ],
      "stateMutability": "payable",
      "type": "function",
      "payable": true
    },
    {
      "inputs": [
        {
          "internalType": "address",
          "name": "token",
          "type": "address"
        }
      ],
      "name": "getBalances",
      "outputs": [
        {
          "internalType": "uint256",
          "name": "",
          "type": "uint256"
        }
      ],
      "stateMutability": "view",
      "type": "function",
      "constant": true
    },
    {
      "inputs": [
        {
          "internalType": "address payable",
          "name": "token1",
          "type": "address"
        },
        {
          "internalType": "address payable",
          "name": "token2",
          "type": "address"
        },
        {
          "internalType": "uint256",
          "name": "token1Amount",
          "type": "uint256"
        }
      ],
      "name": "fundLiquidityPool",
      "outputs": [
        {
          "internalType": "address",
          "name": "",
          "type": "address"
        }
      ],
      "stateMutability": "payable",
      "type": "function",
      "payable": true
    },
    {
      "inputs": [
        {
          "internalType": "address",
          "name": "token1",
          "type": "address"
        },
        {
          "internalType": "address",
          "name": "token2",
          "type": "address"
        },
        {
          "internalType": "uint256",
          "name": "token1Amount",
          "type": "uint256"
        },
        {
          "internalType": "uint256",
          "name": "token2Amount",
          "type": "uint256"
        }
      ],
      "name": "addLiquidityPool",
      "outputs": [
        {
          "internalType": "address",
          "name": "",
          "type": "address"
        }
      ],
      "stateMutability": "payable",
      "type": "function",
      "payable": true
    },
    {
      "inputs": [
        {
          "internalType": "uint256",
          "name": "x",
          "type": "uint256"
        },
        {
          "internalType": "uint256",
          "name": "y",
          "type": "uint256"
        },
        {
          "internalType": "uint256",
          "name": "amount",
          "type": "uint256"
        }
      ],
      "name": "computePrice",
      "outputs": [
        {
          "internalType": "uint256",
          "name": "",
          "type": "uint256"
        }
      ],
      "stateMutability": "pure",
      "type": "function",
      "constant": true
    },
    {
      "inputs": [
        {
          "internalType": "address",
          "name": "token1",
          "type": "address"
        },
        {
          "internalType": "address",
          "name": "token2",
          "type": "address"
        }
      ],
      "name": "generatePoolId",
      "outputs": [
        {
          "internalType": "address",
          "name": "",
          "type": "address"
        }
      ],
      "stateMutability": "pure",
      "type": "function",
      "constant": true
    },
    {
      "inputs": [],
      "name": "getAllToken",
      "outputs": [],
      "stateMutability": "view",
      "type": "function",
      "constant": true
    }
  ],
  "bytecode": "0x60806040523480156200001157600080fd5b5033600360006101000a81548173ffffffffffffffffffffffffffffffffffffffff021916908373ffffffffffffffffffffffffffffffffffffffff16021790555060006002620186a060405162000069906200011b565b6200007692919062000281565b604051809103906000f08015801562000093573d6000803e3d6000fd5b50905080600160008373ffffffffffffffffffffffffffffffffffffffff1673ffffffffffffffffffffffffffffffffffffffff16815260200190815260200160002060006101000a81548173ffffffffffffffffffffffffffffffffffffffff021916908373ffffffffffffffffffffffffffffffffffffffff16021790555050620002d8565b6115cc806200334f83390190565b600082825260208201905092915050565b7f4254430000000000000000000000000000000000000000000000000000000000600082015250565b60006200017260038362000129565b91506200017f826200013a565b602082019050919050565b7f42697420436f696e000000000000000000000000000000000000000000000000600082015250565b6000620001c260088362000129565b9150620001cf826200018a565b602082019050919050565b6000819050919050565b600060ff82169050919050565b6000819050919050565b60006200021c620002166200021084620001da565b620001f1565b620001e4565b9050919050565b6200022e81620001fb565b82525050565b6000819050919050565b6000819050919050565b600062000269620002636200025d8462000234565b620001f1565b6200023e565b9050919050565b6200027b8162000248565b82525050565b600060808201905081810360008301526200029c8162000163565b90508181036020830152620002b181620001b3565b9050620002c2604083018562000223565b620002d1606083018462000270565b9392505050565b61306780620002e86000396000f3fe608060405260043610620000925760003560e01c8063c0806db61162000061578063c0806db61462000161578063c84aae1714620001a9578063d874c85a14620001ed578063dc8696731462000231578063e486033914620002675762000092565b80635192a8f714620000975780637179394914620000cd57806374c3b433146200010357806385e3c1d41462000147575b600080fd5b620000b56004803603810190620000af919062000fef565b620002ab565b604051620000c49190620010b9565b60405180910390f35b620000eb6004803603810190620000e5919062001156565b62000411565b604051620000fa9190620010b9565b60405180910390f35b3480156200011057600080fd5b506200012f6004803603810190620001299190620011b2565b62000716565b6040516200013e91906200121f565b60405180910390f35b3480156200015457600080fd5b506200015f62000756565b005b3480156200016e57600080fd5b506200018d60048036038101906200018791906200126d565b62000758565b604051620001a095949392919062001327565b60405180910390f35b348015620001b657600080fd5b50620001d56004803603810190620001cf91906200126d565b620007db565b604051620001e491906200121f565b60405180910390f35b348015620001fa57600080fd5b5062000219600480360381019062000213919062001384565b620008c2565b604051620002289190620010b9565b60405180910390f35b6200024f6004803603810190620002499190620013cb565b620008fa565b6040516200025e9190620010b9565b60405180910390f35b3480156200027457600080fd5b506200029360048036038101906200028d91906200126d565b62000d01565b604051620002a291906200143d565b60405180910390f35b600033600360009054906101000a900473ffffffffffffffffffffffffffffffffffffffff1673ffffffffffffffffffffffffffffffffffffffff168173ffffffffffffffffffffffffffffffffffffffff161462000341576040517f08c379a00000000000000000000000000000000000000000000000000000000081526004016200033890620014e1565b60405180910390fd5b600084846002620186a0604051620003599062000e6b565b62000368949392919062001618565b604051809103906000f08015801562000385573d6000803e3d6000fd5b50905080600160008373ffffffffffffffffffffffffffffffffffffffff1673ffffffffffffffffffffffffffffffffffffffff16815260200190815260200160002060006101000a81548173ffffffffffffffffffffffffffffffffffffffff021916908373ffffffffffffffffffffffffffffffffffffffff160217905550809250505092915050565b60008273ffffffffffffffffffffffffffffffffffffffff168473ffffffffffffffffffffffffffffffffffffffff16141562000485576040517f08c379a00000000000000000000000000000000000000000000000000000000081526004016200047c90620016c3565b60405180910390fd5b6000620004938585620008c2565b9050620004a08162000d34565b620004e2576040517f08c379a0000000000000000000000000000000000000000000000000000000008152600401620004d9906200175b565b60405180910390fd5b62000573600260008373ffffffffffffffffffffffffffffffffffffffff1673ffffffffffffffffffffffffffffffffffffffff16815260200190815260200160002060020154600260008473ffffffffffffffffffffffffffffffffffffffff1673ffffffffffffffffffffffffffffffffffffffff168152602001908152602001600020600301548562000716565b600260008373ffffffffffffffffffffffffffffffffffffffff1673ffffffffffffffffffffffffffffffffffffffff1681526020019081526020016000206003016000828254620005c69190620017ac565b9250508190555082600260008373ffffffffffffffffffffffffffffffffffffffff1673ffffffffffffffffffffffffffffffffffffffff1681526020019081526020016000206002016000828254620006219190620017ac565b92505081905550600160008673ffffffffffffffffffffffffffffffffffffffff1673ffffffffffffffffffffffffffffffffffffffff16815260200190815260200160002060009054906101000a900473ffffffffffffffffffffffffffffffffffffffff1673ffffffffffffffffffffffffffffffffffffffff1663a9059cbb30856040518363ffffffff1660e01b8152600401620006c492919062001809565b6020604051808303816000875af1158015620006e4573d6000803e3d6000fd5b505050506040513d601f19601f820116820180604052508101906200070a919062001867565b50809150509392505050565b60008184620007269190620017ac565b838562000734919062001899565b62000740919062001929565b836200074d919062001961565b90509392505050565b565b60026020528060005260406000206000915090508060000160009054906101000a900473ffffffffffffffffffffffffffffffffffffffff16908060010160009054906101000a900473ffffffffffffffffffffffffffffffffffffffff16908060020154908060030154908060040160009054906101000a900460ff16905085565b6000600160008373ffffffffffffffffffffffffffffffffffffffff1673ffffffffffffffffffffffffffffffffffffffff16815260200190815260200160002060009054906101000a900473ffffffffffffffffffffffffffffffffffffffff1673ffffffffffffffffffffffffffffffffffffffff166370a08231336040518263ffffffff1660e01b8152600401620008779190620010b9565b602060405180830381865afa15801562000895573d6000803e3d6000fd5b505050506040513d601f19601f82011682018060405250810190620008bb9190620019b3565b9050919050565b60008282604051602001620008d992919062001a35565b6040516020818303038152906040528051906020012060001c905092915050565b600080600160008773ffffffffffffffffffffffffffffffffffffffff1673ffffffffffffffffffffffffffffffffffffffff16815260200190815260200160002060009054906101000a900473ffffffffffffffffffffffffffffffffffffffff1690506000600160008773ffffffffffffffffffffffffffffffffffffffff1673ffffffffffffffffffffffffffffffffffffffff16815260200190815260200160002060009054906101000a900473ffffffffffffffffffffffffffffffffffffffff1690506000620009d18888620008c2565b9050600160008973ffffffffffffffffffffffffffffffffffffffff1673ffffffffffffffffffffffffffffffffffffffff16815260200190815260200160002060009054906101000a900473ffffffffffffffffffffffffffffffffffffffff1673ffffffffffffffffffffffffffffffffffffffff1663a9059cbb30886040518363ffffffff1660e01b815260040162000a6f92919062001809565b6020604051808303816000875af115801562000a8f573d6000803e3d6000fd5b505050506040513d601f19601f8201168201806040525081019062000ab5919062001867565b50600160008873ffffffffffffffffffffffffffffffffffffffff1673ffffffffffffffffffffffffffffffffffffffff16815260200190815260200160002060009054906101000a900473ffffffffffffffffffffffffffffffffffffffff1673ffffffffffffffffffffffffffffffffffffffff1663a9059cbb30876040518363ffffffff1660e01b815260040162000b5292919062001809565b6020604051808303816000875af115801562000b72573d6000803e3d6000fd5b505050506040513d601f19601f8201168201806040525081019062000b98919062001867565b506040518060a001604052808473ffffffffffffffffffffffffffffffffffffffff1681526020018373ffffffffffffffffffffffffffffffffffffffff16815260200187815260200186815260200160011515815250600260008373ffffffffffffffffffffffffffffffffffffffff1673ffffffffffffffffffffffffffffffffffffffff16815260200190815260200160002060008201518160000160006101000a81548173ffffffffffffffffffffffffffffffffffffffff021916908373ffffffffffffffffffffffffffffffffffffffff16021790555060208201518160010160006101000a81548173ffffffffffffffffffffffffffffffffffffffff021916908373ffffffffffffffffffffffffffffffffffffffff160217905550604082015181600201556060820151816003015560808201518160040160006101000a81548160ff021916908315150217905550905050809350505050949350505050565b60016020528060005260406000206000915054906101000a900473ffffffffffffffffffffffffffffffffffffffff1681565b600080600260008473ffffffffffffffffffffffffffffffffffffffff1673ffffffffffffffffffffffffffffffffffffffff1681526020019081526020016000206040518060a00160405290816000820160009054906101000a900473ffffffffffffffffffffffffffffffffffffffff1673ffffffffffffffffffffffffffffffffffffffff1673ffffffffffffffffffffffffffffffffffffffff1681526020016001820160009054906101000a900473ffffffffffffffffffffffffffffffffffffffff1673ffffffffffffffffffffffffffffffffffffffff1673ffffffffffffffffffffffffffffffffffffffff16815260200160028201548152602001600382015481526020016004820160009054906101000a900460ff16151515158152505090508060800151915050919050565b6115cc8062001a6683390190565b6000604051905090565b600080fd5b600080fd5b600080fd5b600080fd5b6000601f19601f8301169050919050565b7f4e487b7100000000000000000000000000000000000000000000000000000000600052604160045260246000fd5b62000ee28262000e97565b810181811067ffffffffffffffff8211171562000f045762000f0362000ea8565b5b80604052505050565b600062000f1962000e79565b905062000f27828262000ed7565b919050565b600067ffffffffffffffff82111562000f4a5762000f4962000ea8565b5b62000f558262000e97565b9050602081019050919050565b82818337600083830152505050565b600062000f8862000f828462000f2c565b62000f0d565b90508281526020810184848401111562000fa75762000fa662000e92565b5b62000fb484828562000f62565b509392505050565b600082601f83011262000fd45762000fd362000e8d565b5b813562000fe684826020860162000f71565b91505092915050565b6000806040838503121562001009576200100862000e83565b5b600083013567ffffffffffffffff8111156200102a576200102962000e88565b5b620010388582860162000fbc565b925050602083013567ffffffffffffffff8111156200105c576200105b62000e88565b5b6200106a8582860162000fbc565b9150509250929050565b600073ffffffffffffffffffffffffffffffffffffffff82169050919050565b6000620010a18262001074565b9050919050565b620010b38162001094565b82525050565b6000602082019050620010d06000830184620010a8565b92915050565b6000620010e38262001074565b9050919050565b620010f581620010d6565b81146200110157600080fd5b50565b6000813590506200111581620010ea565b92915050565b6000819050919050565b62001130816200111b565b81146200113c57600080fd5b50565b600081359050620011508162001125565b92915050565b60008060006060848603121562001172576200117162000e83565b5b6000620011828682870162001104565b9350506020620011958682870162001104565b9250506040620011a8868287016200113f565b9150509250925092565b600080600060608486031215620011ce57620011cd62000e83565b5b6000620011de868287016200113f565b9350506020620011f1868287016200113f565b925050604062001204868287016200113f565b9150509250925092565b62001219816200111b565b82525050565b60006020820190506200123660008301846200120e565b92915050565b620012478162001094565b81146200125357600080fd5b50565b60008135905062001267816200123c565b92915050565b60006020828403121562001286576200128562000e83565b5b6000620012968482850162001256565b91505092915050565b6000819050919050565b6000620012ca620012c4620012be8462001074565b6200129f565b62001074565b9050919050565b6000620012de82620012a9565b9050919050565b6000620012f282620012d1565b9050919050565b6200130481620012e5565b82525050565b60008115159050919050565b62001321816200130a565b82525050565b600060a0820190506200133e6000830188620012f9565b6200134d6020830187620012f9565b6200135c60408301866200120e565b6200136b60608301856200120e565b6200137a608083018462001316565b9695505050505050565b600080604083850312156200139e576200139d62000e83565b5b6000620013ae8582860162001256565b9250506020620013c18582860162001256565b9150509250929050565b60008060008060808587031215620013e857620013e762000e83565b5b6000620013f88782880162001256565b94505060206200140b8782880162001256565b93505060406200141e878288016200113f565b925050606062001431878288016200113f565b91505092959194509250565b6000602082019050620014546000830184620012f9565b92915050565b600082825260208201905092915050565b7f4f6e6c79206f776e65722061626c6520746f206578656375746520746869732060008201527f616374696f6e2e00000000000000000000000000000000000000000000000000602082015250565b6000620014c96027836200145a565b9150620014d6826200146b565b604082019050919050565b60006020820190508181036000830152620014fc81620014ba565b9050919050565b600081519050919050565b60005b838110156200152e57808201518184015260208101905062001511565b838111156200153e576000848401525b50505050565b6000620015518262001503565b6200155d81856200145a565b93506200156f8185602086016200150e565b6200157a8162000e97565b840191505092915050565b6000819050919050565b600060ff82169050919050565b6000620015bd620015b7620015b18462001585565b6200129f565b6200158f565b9050919050565b620015cf816200159c565b82525050565b6000819050919050565b600062001600620015fa620015f484620015d5565b6200129f565b6200111b565b9050919050565b6200161281620015df565b82525050565b6000608082019050818103600083015262001634818762001544565b905081810360208301526200164a818662001544565b90506200165b6040830185620015c4565b6200166a606083018462001607565b95945050505050565b7f496e76616c696420706f6f6c0000000000000000000000000000000000000000600082015250565b6000620016ab600c836200145a565b9150620016b88262001673565b602082019050919050565b60006020820190508181036000830152620016de816200169c565b9050919050565b7f506f6f6c206973206e6f742065786973742c20706c656173652063726561746560008201527f2061206e657720706f6f6c2e0000000000000000000000000000000000000000602082015250565b600062001743602c836200145a565b91506200175082620016e5565b604082019050919050565b60006020820190508181036000830152620017768162001734565b9050919050565b7f4e487b7100000000000000000000000000000000000000000000000000000000600052601160045260246000fd5b6000620017b9826200111b565b9150620017c6836200111b565b9250827fffffffffffffffffffffffffffffffffffffffffffffffffffffffffffffffff03821115620017fe57620017fd6200177d565b5b828201905092915050565b6000604082019050620018206000830185620010a8565b6200182f60208301846200120e565b9392505050565b62001841816200130a565b81146200184d57600080fd5b50565b600081519050620018618162001836565b92915050565b60006020828403121562001880576200187f62000e83565b5b6000620018908482850162001850565b91505092915050565b6000620018a6826200111b565b9150620018b3836200111b565b9250817fffffffffffffffffffffffffffffffffffffffffffffffffffffffffffffffff0483118215151615620018ef57620018ee6200177d565b5b828202905092915050565b7f4e487b7100000000000000000000000000000000000000000000000000000000600052601260045260246000fd5b600062001936826200111b565b915062001943836200111b565b925082620019565762001955620018fa565b5b828204905092915050565b60006200196e826200111b565b91506200197b836200111b565b9250828210156200199157620019906200177d565b5b828203905092915050565b600081519050620019ad8162001125565b92915050565b600060208284031215620019cc57620019cb62000e83565b5b6000620019dc848285016200199c565b91505092915050565b60008160601b9050919050565b6000620019ff82620019e5565b9050919050565b600062001a1382620019f2565b9050919050565b62001a2f62001a298262001094565b62001a06565b82525050565b600062001a43828562001a1a565b60148201915062001a55828462001a1a565b601482019150819050939250505056fe60806040523480156200001157600080fd5b50604051620015cc380380620015cc83398181016040528101906200003791906200040b565b83600090805190602001906200004f92919062000145565b5082600190805190602001906200006892919062000145565b5081600260006101000a81548160ff021916908360ff16021790555080600381905550600354600460003273ffffffffffffffffffffffffffffffffffffffff1673ffffffffffffffffffffffffffffffffffffffff168152602001908152602001600020819055503273ffffffffffffffffffffffffffffffffffffffff16600073ffffffffffffffffffffffffffffffffffffffff167fddf252ad1be2c89b69c2b068fc378daa952ba7f163c4a11628f55a4df523b3ef600354604051620001339190620004cc565b60405180910390a3505050506200054e565b828054620001539062000518565b90600052602060002090601f016020900481019282620001775760008555620001c3565b82601f106200019257805160ff1916838001178555620001c3565b82800160010185558215620001c3579182015b82811115620001c2578251825591602001919060010190620001a5565b5b509050620001d29190620001d6565b5090565b5b80821115620001f1576000816000905550600101620001d7565b5090565b6000604051905090565b600080fd5b600080fd5b600080fd5b600080fd5b6000601f19601f8301169050919050565b7f4e487b7100000000000000000000000000000000000000000000000000000000600052604160045260246000fd5b6200025e8262000213565b810181811067ffffffffffffffff8211171562000280576200027f62000224565b5b80604052505050565b600062000295620001f5565b9050620002a3828262000253565b919050565b600067ffffffffffffffff821115620002c657620002c562000224565b5b620002d18262000213565b9050602081019050919050565b60005b83811015620002fe578082015181840152602081019050620002e1565b838111156200030e576000848401525b50505050565b60006200032b6200032584620002a8565b62000289565b9050828152602081018484840111156200034a57620003496200020e565b5b62000357848285620002de565b509392505050565b600082601f83011262000377576200037662000209565b5b81516200038984826020860162000314565b91505092915050565b600060ff82169050919050565b620003aa8162000392565b8114620003b657600080fd5b50565b600081519050620003ca816200039f565b92915050565b6000819050919050565b620003e581620003d0565b8114620003f157600080fd5b50565b6000815190506200040581620003da565b92915050565b60008060008060808587031215620004285762000427620001ff565b5b600085015167ffffffffffffffff81111562000449576200044862000204565b5b62000457878288016200035f565b945050602085015167ffffffffffffffff8111156200047b576200047a62000204565b5b62000489878288016200035f565b93505060406200049c87828801620003b9565b9250506060620004af87828801620003f4565b91505092959194509250565b620004c681620003d0565b82525050565b6000602082019050620004e36000830184620004bb565b92915050565b7f4e487b7100000000000000000000000000000000000000000000000000000000600052602260045260246000fd5b600060028204905060018216806200053157607f821691505b60208210811415620005485762000547620004e9565b5b50919050565b61106e806200055e6000396000f3fe608060405234801561001057600080fd5b50600436106100ea5760003560e01c806395d89b411161008c578063b5931f7c11610066578063b5931f7c14610275578063d05c78da146102a5578063dd62ed3e146102d5578063e6cb901314610305576100ea565b806395d89b41146101f7578063a293d1e814610215578063a9059cbb14610245576100ea565b806323b872dd116100c857806323b872dd1461015b578063313ce5671461018b5780633eaaf86b146101a957806370a08231146101c7576100ea565b806306fdde03146100ef578063095ea7b31461010d57806318160ddd1461013d575b600080fd5b6100f7610335565b6040516101049190610bd2565b60405180910390f35b61012760048036038101906101229190610c8d565b6103c3565b6040516101349190610ce8565b60405180910390f35b6101456104b5565b6040516101529190610d12565b60405180910390f35b61017560048036038101906101709190610d2d565b610509565b6040516101829190610ce8565b60405180910390f35b610193610799565b6040516101a09190610d9c565b60405180910390f35b6101b16107ac565b6040516101be9190610d12565b60405180910390f35b6101e160048036038101906101dc9190610db7565b6107b2565b6040516101ee9190610d12565b60405180910390f35b6101ff6107fb565b60405161020c9190610bd2565b60405180910390f35b61022f600480360381019061022a9190610de4565b610889565b60405161023c9190610d12565b60405180910390f35b61025f600480360381019061025a9190610c8d565b6108ac565b60405161026c9190610ce8565b60405180910390f35b61028f600480360381019061028a9190610de4565b610a35565b60405161029c9190610d12565b60405180910390f35b6102bf60048036038101906102ba9190610de4565b610a57565b6040516102cc9190610d12565b60405180910390f35b6102ef60048036038101906102ea9190610e24565b610a8f565b6040516102fc9190610d12565b60405180910390f35b61031f600480360381019061031a9190610de4565b610b16565b60405161032c9190610d12565b60405180910390f35b6001805461034290610e93565b80601f016020809104026020016040519081016040528092919081815260200182805461036e90610e93565b80156103bb5780601f10610390576101008083540402835291602001916103bb565b820191906000526020600020905b81548152906001019060200180831161039e57829003601f168201915b505050505081565b600081600560003373ffffffffffffffffffffffffffffffffffffffff1673ffffffffffffffffffffffffffffffffffffffff16815260200190815260200160002060008573ffffffffffffffffffffffffffffffffffffffff1673ffffffffffffffffffffffffffffffffffffffff168152602001908152602001600020819055508273ffffffffffffffffffffffffffffffffffffffff163373ffffffffffffffffffffffffffffffffffffffff167f8c5be1e5ebec7d5bd14f71427d1e84f3dd0314c0f7b2291e5b200ac8c7c3b925846040516104a39190610d12565b60405180910390a36001905092915050565b6000600460008073ffffffffffffffffffffffffffffffffffffffff1673ffffffffffffffffffffffffffffffffffffffff168152602001908152602001600020546003546105049190610ef4565b905090565b6000610554600460008673ffffffffffffffffffffffffffffffffffffffff1673ffffffffffffffffffffffffffffffffffffffff1681526020019081526020016000205483610889565b600460008673ffffffffffffffffffffffffffffffffffffffff1673ffffffffffffffffffffffffffffffffffffffff1681526020019081526020016000208190555061061d600560008673ffffffffffffffffffffffffffffffffffffffff1673ffffffffffffffffffffffffffffffffffffffff16815260200190815260200160002060003373ffffffffffffffffffffffffffffffffffffffff1673ffffffffffffffffffffffffffffffffffffffff1681526020019081526020016000205483610889565b600560008673ffffffffffffffffffffffffffffffffffffffff1673ffffffffffffffffffffffffffffffffffffffff16815260200190815260200160002060003373ffffffffffffffffffffffffffffffffffffffff1673ffffffffffffffffffffffffffffffffffffffff168152602001908152602001600020819055506106e6600460008573ffffffffffffffffffffffffffffffffffffffff1673ffffffffffffffffffffffffffffffffffffffff1681526020019081526020016000205483610b16565b600460008573ffffffffffffffffffffffffffffffffffffffff1673ffffffffffffffffffffffffffffffffffffffff168152602001908152602001600020819055508273ffffffffffffffffffffffffffffffffffffffff168473ffffffffffffffffffffffffffffffffffffffff167fddf252ad1be2c89b69c2b068fc378daa952ba7f163c4a11628f55a4df523b3ef846040516107869190610d12565b60405180910390a3600190509392505050565b600260009054906101000a900460ff1681565b60035481565b6000600460008373ffffffffffffffffffffffffffffffffffffffff1673ffffffffffffffffffffffffffffffffffffffff168152602001908152602001600020549050919050565b6000805461080890610e93565b80601f016020809104026020016040519081016040528092919081815260200182805461083490610e93565b80156108815780601f1061085657610100808354040283529160200191610881565b820191906000526020600020905b81548152906001019060200180831161086457829003601f168201915b505050505081565b60008282111561089857600080fd5b81836108a49190610ef4565b905092915050565b60006108f7600460003273ffffffffffffffffffffffffffffffffffffffff1673ffffffffffffffffffffffffffffffffffffffff1681526020019081526020016000205483610889565b600460003273ffffffffffffffffffffffffffffffffffffffff1673ffffffffffffffffffffffffffffffffffffffff16815260200190815260200160002081905550610983600460008573ffffffffffffffffffffffffffffffffffffffff1673ffffffffffffffffffffffffffffffffffffffff1681526020019081526020016000205483610b16565b600460008573ffffffffffffffffffffffffffffffffffffffff1673ffffffffffffffffffffffffffffffffffffffff168152602001908152602001600020819055508273ffffffffffffffffffffffffffffffffffffffff163273ffffffffffffffffffffffffffffffffffffffff167fddf252ad1be2c89b69c2b068fc378daa952ba7f163c4a11628f55a4df523b3ef84604051610a239190610d12565b60405180910390a36001905092915050565b6000808211610a4357600080fd5b8183610a4f9190610f57565b905092915050565b60008183610a659190610f88565b90506000831480610a805750818382610a7e9190610f57565b145b610a8957600080fd5b92915050565b6000600560008473ffffffffffffffffffffffffffffffffffffffff1673ffffffffffffffffffffffffffffffffffffffff16815260200190815260200160002060008373ffffffffffffffffffffffffffffffffffffffff1673ffffffffffffffffffffffffffffffffffffffff16815260200190815260200160002054905092915050565b60008183610b249190610fe2565b905082811015610b3357600080fd5b92915050565b600081519050919050565b600082825260208201905092915050565b60005b83811015610b73578082015181840152602081019050610b58565b83811115610b82576000848401525b50505050565b6000601f19601f8301169050919050565b6000610ba482610b39565b610bae8185610b44565b9350610bbe818560208601610b55565b610bc781610b88565b840191505092915050565b60006020820190508181036000830152610bec8184610b99565b905092915050565b600080fd5b600073ffffffffffffffffffffffffffffffffffffffff82169050919050565b6000610c2482610bf9565b9050919050565b610c3481610c19565b8114610c3f57600080fd5b50565b600081359050610c5181610c2b565b92915050565b6000819050919050565b610c6a81610c57565b8114610c7557600080fd5b50565b600081359050610c8781610c61565b92915050565b60008060408385031215610ca457610ca3610bf4565b5b6000610cb285828601610c42565b9250506020610cc385828601610c78565b9150509250929050565b60008115159050919050565b610ce281610ccd565b82525050565b6000602082019050610cfd6000830184610cd9565b92915050565b610d0c81610c57565b82525050565b6000602082019050610d276000830184610d03565b92915050565b600080600060608486031215610d4657610d45610bf4565b5b6000610d5486828701610c42565b9350506020610d6586828701610c42565b9250506040610d7686828701610c78565b9150509250925092565b600060ff82169050919050565b610d9681610d80565b82525050565b6000602082019050610db16000830184610d8d565b92915050565b600060208284031215610dcd57610dcc610bf4565b5b6000610ddb84828501610c42565b91505092915050565b60008060408385031215610dfb57610dfa610bf4565b5b6000610e0985828601610c78565b9250506020610e1a85828601610c78565b9150509250929050565b60008060408385031215610e3b57610e3a610bf4565b5b6000610e4985828601610c42565b9250506020610e5a85828601610c42565b9150509250929050565b7f4e487b7100000000000000000000000000000000000000000000000000000000600052602260045260246000fd5b60006002820490506001821680610eab57607f821691505b60208210811415610ebf57610ebe610e64565b5b50919050565b7f4e487b7100000000000000000000000000000000000000000000000000000000600052601160045260246000fd5b6000610eff82610c57565b9150610f0a83610c57565b925082821015610f1d57610f1c610ec5565b5b828203905092915050565b7f4e487b7100000000000000000000000000000000000000000000000000000000600052601260045260246000fd5b6000610f6282610c57565b9150610f6d83610c57565b925082610f7d57610f7c610f28565b5b828204905092915050565b6000610f9382610c57565b9150610f9e83610c57565b9250817fffffffffffffffffffffffffffffffffffffffffffffffffffffffffffffffff0483118215151615610fd757610fd6610ec5565b5b828202905092915050565b6000610fed82610c57565b9150610ff883610c57565b9250827fffffffffffffffffffffffffffffffffffffffffffffffffffffffffffffffff0382111561102d5761102c610ec5565b5b82820190509291505056fea26469706673582212206147317c9fe05cac804984f8bce1b8e852bcbadc15caf21bd9b91377c429a05764736f6c634300080a0033a264697066735822122042872643b98d55a740ce952c77f72224f52b9ad4f11b8431fd0a67d4f9b03bce64736f6c634300080a003360806040523480156200001157600080fd5b50604051620015cc380380620015cc83398181016040528101906200003791906200040b565b83600090805190602001906200004f92919062000145565b5082600190805190602001906200006892919062000145565b5081600260006101000a81548160ff021916908360ff16021790555080600381905550600354600460003273ffffffffffffffffffffffffffffffffffffffff1673ffffffffffffffffffffffffffffffffffffffff168152602001908152602001600020819055503273ffffffffffffffffffffffffffffffffffffffff16600073ffffffffffffffffffffffffffffffffffffffff167fddf252ad1be2c89b69c2b068fc378daa952ba7f163c4a11628f55a4df523b3ef600354604051620001339190620004cc565b60405180910390a3505050506200054e565b828054620001539062000518565b90600052602060002090601f016020900481019282620001775760008555620001c3565b82601f106200019257805160ff1916838001178555620001c3565b82800160010185558215620001c3579182015b82811115620001c2578251825591602001919060010190620001a5565b5b509050620001d29190620001d6565b5090565b5b80821115620001f1576000816000905550600101620001d7565b5090565b6000604051905090565b600080fd5b600080fd5b600080fd5b600080fd5b6000601f19601f8301169050919050565b7f4e487b7100000000000000000000000000000000000000000000000000000000600052604160045260246000fd5b6200025e8262000213565b810181811067ffffffffffffffff8211171562000280576200027f62000224565b5b80604052505050565b600062000295620001f5565b9050620002a3828262000253565b919050565b600067ffffffffffffffff821115620002c657620002c562000224565b5b620002d18262000213565b9050602081019050919050565b60005b83811015620002fe578082015181840152602081019050620002e1565b838111156200030e576000848401525b50505050565b60006200032b6200032584620002a8565b62000289565b9050828152602081018484840111156200034a57620003496200020e565b5b62000357848285620002de565b509392505050565b600082601f83011262000377576200037662000209565b5b81516200038984826020860162000314565b91505092915050565b600060ff82169050919050565b620003aa8162000392565b8114620003b657600080fd5b50565b600081519050620003ca816200039f565b92915050565b6000819050919050565b620003e581620003d0565b8114620003f157600080fd5b50565b6000815190506200040581620003da565b92915050565b60008060008060808587031215620004285762000427620001ff565b5b600085015167ffffffffffffffff81111562000449576200044862000204565b5b62000457878288016200035f565b945050602085015167ffffffffffffffff8111156200047b576200047a62000204565b5b62000489878288016200035f565b93505060406200049c87828801620003b9565b9250506060620004af87828801620003f4565b91505092959194509250565b620004c681620003d0565b82525050565b6000602082019050620004e36000830184620004bb565b92915050565b7f4e487b7100000000000000000000000000000000000000000000000000000000600052602260045260246000fd5b600060028204905060018216806200053157607f821691505b60208210811415620005485762000547620004e9565b5b50919050565b61106e806200055e6000396000f3fe608060405234801561001057600080fd5b50600436106100ea5760003560e01c806395d89b411161008c578063b5931f7c11610066578063b5931f7c14610275578063d05c78da146102a5578063dd62ed3e146102d5578063e6cb901314610305576100ea565b806395d89b41146101f7578063a293d1e814610215578063a9059cbb14610245576100ea565b806323b872dd116100c857806323b872dd1461015b578063313ce5671461018b5780633eaaf86b146101a957806370a08231146101c7576100ea565b806306fdde03146100ef578063095ea7b31461010d57806318160ddd1461013d575b600080fd5b6100f7610335565b6040516101049190610bd2565b60405180910390f35b61012760048036038101906101229190610c8d565b6103c3565b6040516101349190610ce8565b60405180910390f35b6101456104b5565b6040516101529190610d12565b60405180910390f35b61017560048036038101906101709190610d2d565b610509565b6040516101829190610ce8565b60405180910390f35b610193610799565b6040516101a09190610d9c565b60405180910390f35b6101b16107ac565b6040516101be9190610d12565b60405180910390f35b6101e160048036038101906101dc9190610db7565b6107b2565b6040516101ee9190610d12565b60405180910390f35b6101ff6107fb565b60405161020c9190610bd2565b60405180910390f35b61022f600480360381019061022a9190610de4565b610889565b60405161023c9190610d12565b60405180910390f35b61025f600480360381019061025a9190610c8d565b6108ac565b60405161026c9190610ce8565b60405180910390f35b61028f600480360381019061028a9190610de4565b610a35565b60405161029c9190610d12565b60405180910390f35b6102bf60048036038101906102ba9190610de4565b610a57565b6040516102cc9190610d12565b60405180910390f35b6102ef60048036038101906102ea9190610e24565b610a8f565b6040516102fc9190610d12565b60405180910390f35b61031f600480360381019061031a9190610de4565b610b16565b60405161032c9190610d12565b60405180910390f35b6001805461034290610e93565b80601f016020809104026020016040519081016040528092919081815260200182805461036e90610e93565b80156103bb5780601f10610390576101008083540402835291602001916103bb565b820191906000526020600020905b81548152906001019060200180831161039e57829003601f168201915b505050505081565b600081600560003373ffffffffffffffffffffffffffffffffffffffff1673ffffffffffffffffffffffffffffffffffffffff16815260200190815260200160002060008573ffffffffffffffffffffffffffffffffffffffff1673ffffffffffffffffffffffffffffffffffffffff168152602001908152602001600020819055508273ffffffffffffffffffffffffffffffffffffffff163373ffffffffffffffffffffffffffffffffffffffff167f8c5be1e5ebec7d5bd14f71427d1e84f3dd0314c0f7b2291e5b200ac8c7c3b925846040516104a39190610d12565b60405180910390a36001905092915050565b6000600460008073ffffffffffffffffffffffffffffffffffffffff1673ffffffffffffffffffffffffffffffffffffffff168152602001908152602001600020546003546105049190610ef4565b905090565b6000610554600460008673ffffffffffffffffffffffffffffffffffffffff1673ffffffffffffffffffffffffffffffffffffffff1681526020019081526020016000205483610889565b600460008673ffffffffffffffffffffffffffffffffffffffff1673ffffffffffffffffffffffffffffffffffffffff1681526020019081526020016000208190555061061d600560008673ffffffffffffffffffffffffffffffffffffffff1673ffffffffffffffffffffffffffffffffffffffff16815260200190815260200160002060003373ffffffffffffffffffffffffffffffffffffffff1673ffffffffffffffffffffffffffffffffffffffff1681526020019081526020016000205483610889565b600560008673ffffffffffffffffffffffffffffffffffffffff1673ffffffffffffffffffffffffffffffffffffffff16815260200190815260200160002060003373ffffffffffffffffffffffffffffffffffffffff1673ffffffffffffffffffffffffffffffffffffffff168152602001908152602001600020819055506106e6600460008573ffffffffffffffffffffffffffffffffffffffff1673ffffffffffffffffffffffffffffffffffffffff1681526020019081526020016000205483610b16565b600460008573ffffffffffffffffffffffffffffffffffffffff1673ffffffffffffffffffffffffffffffffffffffff168152602001908152602001600020819055508273ffffffffffffffffffffffffffffffffffffffff168473ffffffffffffffffffffffffffffffffffffffff167fddf252ad1be2c89b69c2b068fc378daa952ba7f163c4a11628f55a4df523b3ef846040516107869190610d12565b60405180910390a3600190509392505050565b600260009054906101000a900460ff1681565b60035481565b6000600460008373ffffffffffffffffffffffffffffffffffffffff1673ffffffffffffffffffffffffffffffffffffffff168152602001908152602001600020549050919050565b6000805461080890610e93565b80601f016020809104026020016040519081016040528092919081815260200182805461083490610e93565b80156108815780601f1061085657610100808354040283529160200191610881565b820191906000526020600020905b81548152906001019060200180831161086457829003601f168201915b505050505081565b60008282111561089857600080fd5b81836108a49190610ef4565b905092915050565b60006108f7600460003273ffffffffffffffffffffffffffffffffffffffff1673ffffffffffffffffffffffffffffffffffffffff1681526020019081526020016000205483610889565b600460003273ffffffffffffffffffffffffffffffffffffffff1673ffffffffffffffffffffffffffffffffffffffff16815260200190815260200160002081905550610983600460008573ffffffffffffffffffffffffffffffffffffffff1673ffffffffffffffffffffffffffffffffffffffff1681526020019081526020016000205483610b16565b600460008573ffffffffffffffffffffffffffffffffffffffff1673ffffffffffffffffffffffffffffffffffffffff168152602001908152602001600020819055508273ffffffffffffffffffffffffffffffffffffffff163273ffffffffffffffffffffffffffffffffffffffff167fddf252ad1be2c89b69c2b068fc378daa952ba7f163c4a11628f55a4df523b3ef84604051610a239190610d12565b60405180910390a36001905092915050565b6000808211610a4357600080fd5b8183610a4f9190610f57565b905092915050565b60008183610a659190610f88565b90506000831480610a805750818382610a7e9190610f57565b145b610a8957600080fd5b92915050565b6000600560008473ffffffffffffffffffffffffffffffffffffffff1673ffffffffffffffffffffffffffffffffffffffff16815260200190815260200160002060008373ffffffffffffffffffffffffffffffffffffffff1673ffffffffffffffffffffffffffffffffffffffff16815260200190815260200160002054905092915050565b60008183610b249190610fe2565b905082811015610b3357600080fd5b92915050565b600081519050919050565b600082825260208201905092915050565b60005b83811015610b73578082015181840152602081019050610b58565b83811115610b82576000848401525b50505050565b6000601f19601f8301169050919050565b6000610ba482610b39565b610bae8185610b44565b9350610bbe818560208601610b55565b610bc781610b88565b840191505092915050565b60006020820190508181036000830152610bec8184610b99565b905092915050565b600080fd5b600073ffffffffffffffffffffffffffffffffffffffff82169050919050565b6000610c2482610bf9565b9050919050565b610c3481610c19565b8114610c3f57600080fd5b50565b600081359050610c5181610c2b565b92915050565b6000819050919050565b610c6a81610c57565b8114610c7557600080fd5b50565b600081359050610c8781610c61565b92915050565b60008060408385031215610ca457610ca3610bf4565b5b6000610cb285828601610c42565b9250506020610cc385828601610c78565b9150509250929050565b60008115159050919050565b610ce281610ccd565b82525050565b6000602082019050610cfd6000830184610cd9565b92915050565b610d0c81610c57565b82525050565b6000602082019050610d276000830184610d03565b92915050565b600080600060608486031215610d4657610d45610bf4565b5b6000610d5486828701610c42565b9350506020610d6586828701610c42565b9250506040610d7686828701610c78565b9150509250925092565b600060ff82169050919050565b610d9681610d80565b82525050565b6000602082019050610db16000830184610d8d565b92915050565b600060208284031215610dcd57610dcc610bf4565b5b6000610ddb84828501610c42565b91505092915050565b60008060408385031215610dfb57610dfa610bf4565b5b6000610e0985828601610c78565b9250506020610e1a85828601610c78565b9150509250929050565b60008060408385031215610e3b57610e3a610bf4565b5b6000610e4985828601610c42565b9250506020610e5a85828601610c42565b9150509250929050565b7f4e487b7100000000000000000000000000000000000000000000000000000000600052602260045260246000fd5b60006002820490506001821680610eab57607f821691505b60208210811415610ebf57610ebe610e64565b5b50919050565b7f4e487b7100000000000000000000000000000000000000000000000000000000600052601160045260246000fd5b6000610eff82610c57565b9150610f0a83610c57565b925082821015610f1d57610f1c610ec5565b5b828203905092915050565b7f4e487b7100000000000000000000000000000000000000000000000000000000600052601260045260246000fd5b6000610f6282610c57565b9150610f6d83610c57565b925082610f7d57610f7c610f28565b5b828204905092915050565b6000610f9382610c57565b9150610f9e83610c57565b9250817fffffffffffffffffffffffffffffffffffffffffffffffffffffffffffffffff0483118215151615610fd757610fd6610ec5565b5b828202905092915050565b6000610fed82610c57565b9150610ff883610c57565b9250827fffffffffffffffffffffffffffffffffffffffffffffffffffffffffffffffff0382111561102d5761102c610ec5565b5b82820190509291505056fea26469706673582212206147317c9fe05cac804984f8bce1b8e852bcbadc15caf21bd9b91377c429a05764736f6c634300080a0033",
  "immutableReferences": {},
  "source": "//SPDX-License-Identifier:MIT\r\npragma solidity ^0.8.0;\r\n\r\nimport './token.sol';\r\ncontract dex{\r\n    \r\n    struct Pool{\r\n        Token token1;\r\n        Token token2;\r\n        uint256 token1Balance;\r\n        uint256 token2Balance;\r\n        bool isAdded;\r\n    }\r\n\r\n    mapping(address => mapping(address => uint256)) balances;\r\n    mapping(address => Token) public tokens;\r\n    mapping(address => Pool) public liquidityPool;\r\n    address private owner;\r\n\r\n    constructor(){\r\n        owner = msg.sender;\r\n        Token token = new Token(\"BTC\",\"Bit Coin\",2,100000);\r\n        tokens[address(token)] = token;\r\n    }\r\n    \r\n    function addToken(string memory symbol, string memory name)public payable onlyOwner(msg.sender) returns(address){\r\n         Token token = new Token(symbol,name,2,100000);\r\n         tokens[address(token)] = token;\r\n         return address(token);\r\n    }\r\n\r\n    function getBalances(address token)public view returns(uint){\r\n        return tokens[token].balanceOf(msg.sender);\r\n    }\r\n\r\n    function fundLiquidityPool(address payable token1, address payable token2, uint token1Amount) public payable returns(address){//isValidToken(token1) isValidToken(token2)\r\n        require(token1 != token2,\"Invalid pool\");    \r\n        address poolAddress = generatePoolId(token1,token2);\r\n        require(isPoolExist(poolAddress),\"Pool is not exist, please create a new pool.\");        \r\n        liquidityPool[poolAddress].token2Balance += computePrice(liquidityPool[poolAddress].token1Balance,liquidityPool[poolAddress].token2Balance,token1Amount);  \r\n        liquidityPool[poolAddress].token1Balance += token1Amount;\r\n\r\n        tokens[token1].transfer(address(this),token1Amount);\r\n        return poolAddress;\r\n    }\r\n\r\n    function addLiquidityPool(address token1, address token2, uint token1Amount, uint token2Amount) public payable returns(address){\r\n        Token from = tokens[token1];\r\n        Token to = tokens[token2];\r\n        address poolAddress = generatePoolId(token1,token2);\r\n\r\n        tokens[token1].transfer(address(this),token1Amount);\r\n        tokens[token2].transfer(address(this),token2Amount);\r\n        liquidityPool[poolAddress] = Pool(from,to,token1Amount,token2Amount,true);\r\n        return poolAddress;\r\n    }\r\n\r\n    function computePrice(uint256 x, uint256 y, uint256 amount) public pure returns(uint256){\r\n        return y - ((x * y) / (x + amount)); //XYKModel\r\n    }\r\n\r\n    // function isTokenExist(address tokenAdd)private view returns(bool){\r\n    //     return tokens[tokenAdd];\r\n    // }\r\n\r\n    function isPoolExist(address _address) private view returns(bool){\r\n        Pool memory pool = liquidityPool[_address];\r\n        return pool.isAdded;        \r\n    }\r\n\r\n    function generatePoolId(address token1, address token2) public pure returns (address){\r\n        return address(uint160(uint256(keccak256(abi.encodePacked(token1, token2)))));  \r\n    }\r\n\r\n    function getAllToken() public view{\r\n        //PENDING return in JSON FORM \r\n    }\r\n\r\n    // modifier isValidToken(address tokenAdd){\r\n    //     require(isTokenExist(tokenAdd),\"Invalid Token.\");\r\n    //     _;\r\n    // }\r\n\r\n    modifier onlyOwner(address sender){\r\n        require(sender == owner,\"Only owner able to execute this action.\");\r\n        _;\r\n    }\r\n}",
  "sourcePath": "B:\\Degree Material\\Year 3 Sem 2\\Block Chain Application\\Assignment\\Dex Platform\\deployment\\contracts\\Dex.sol",
  "compiler": {
    "name": "solc",
    "version": "0.8.10+commit.fc410830.Emscripten.clang"
  },
  "schemaVersion": "3.4.3",
  "updatedAt": "2021-12-05T09:31:51.772Z",
  "networkType": "ethereum",
  "devdoc": {
    "kind": "dev",
    "methods": {},
    "version": 1
  },
  "userdoc": {
    "kind": "user",
    "methods": {},
    "version": 1
  }
}