{
  "contractName": "Token",
  "abi": [
    {
      "inputs": [
        {
          "internalType": "string",
          "name": "_symbol",
          "type": "string"
        },
        {
          "internalType": "string",
          "name": "_name",
          "type": "string"
        },
        {
          "internalType": "uint8",
          "name": "_decimal",
          "type": "uint8"
        },
        {
          "internalType": "uint256",
          "name": "_total",
          "type": "uint256"
        }
      ],
      "stateMutability": "nonpayable",
      "type": "constructor"
    },
    {
      "anonymous": false,
      "inputs": [
        {
          "indexed": true,
          "internalType": "address",
          "name": "tokenOwner",
          "type": "address"
        },
        {
          "indexed": true,
          "internalType": "address",
          "name": "spender",
          "type": "address"
        },
        {
          "indexed": false,
          "internalType": "uint256",
          "name": "tokens",
          "type": "uint256"
        }
      ],
      "name": "Approval",
      "type": "event"
    },
    {
      "anonymous": false,
      "inputs": [
        {
          "indexed": true,
          "internalType": "address",
          "name": "from",
          "type": "address"
        },
        {
          "indexed": true,
          "internalType": "address",
          "name": "to",
          "type": "address"
        },
        {
          "indexed": false,
          "internalType": "uint256",
          "name": "tokens",
          "type": "uint256"
        }
      ],
      "name": "Transfer",
      "type": "event"
    },
    {
      "inputs": [],
      "name": "_totalSupply",
      "outputs": [
        {
          "internalType": "uint256",
          "name": "",
          "type": "uint256"
        }
      ],
      "stateMutability": "view",
      "type": "function"
    },
    {
      "inputs": [],
      "name": "decimals",
      "outputs": [
        {
          "internalType": "uint8",
          "name": "",
          "type": "uint8"
        }
      ],
      "stateMutability": "view",
      "type": "function"
    },
    {
      "inputs": [],
      "name": "name",
      "outputs": [
        {
          "internalType": "string",
          "name": "",
          "type": "string"
        }
      ],
      "stateMutability": "view",
      "type": "function"
    },
    {
      "inputs": [
        {
          "internalType": "uint256",
          "name": "a",
          "type": "uint256"
        },
        {
          "internalType": "uint256",
          "name": "b",
          "type": "uint256"
        }
      ],
      "name": "safeAdd",
      "outputs": [
        {
          "internalType": "uint256",
          "name": "c",
          "type": "uint256"
        }
      ],
      "stateMutability": "pure",
      "type": "function"
    },
    {
      "inputs": [
        {
          "internalType": "uint256",
          "name": "a",
          "type": "uint256"
        },
        {
          "internalType": "uint256",
          "name": "b",
          "type": "uint256"
        }
      ],
      "name": "safeDiv",
      "outputs": [
        {
          "internalType": "uint256",
          "name": "c",
          "type": "uint256"
        }
      ],
      "stateMutability": "pure",
      "type": "function"
    },
    {
      "inputs": [
        {
          "internalType": "uint256",
          "name": "a",
          "type": "uint256"
        },
        {
          "internalType": "uint256",
          "name": "b",
          "type": "uint256"
        }
      ],
      "name": "safeMul",
      "outputs": [
        {
          "internalType": "uint256",
          "name": "c",
          "type": "uint256"
        }
      ],
      "stateMutability": "pure",
      "type": "function"
    },
    {
      "inputs": [
        {
          "internalType": "uint256",
          "name": "a",
          "type": "uint256"
        },
        {
          "internalType": "uint256",
          "name": "b",
          "type": "uint256"
        }
      ],
      "name": "safeSub",
      "outputs": [
        {
          "internalType": "uint256",
          "name": "c",
          "type": "uint256"
        }
      ],
      "stateMutability": "pure",
      "type": "function"
    },
    {
      "inputs": [],
      "name": "symbol",
      "outputs": [
        {
          "internalType": "string",
          "name": "",
          "type": "string"
        }
      ],
      "stateMutability": "view",
      "type": "function"
    },
    {
      "inputs": [],
      "name": "totalSupply",
      "outputs": [
        {
          "internalType": "uint256",
          "name": "",
          "type": "uint256"
        }
      ],
      "stateMutability": "view",
      "type": "function"
    },
    {
      "inputs": [
        {
          "internalType": "address",
          "name": "tokenOwner",
          "type": "address"
        }
      ],
      "name": "balanceOf",
      "outputs": [
        {
          "internalType": "uint256",
          "name": "",
          "type": "uint256"
        }
      ],
      "stateMutability": "view",
      "type": "function"
    },
    {
      "inputs": [
        {
          "internalType": "address",
          "name": "to",
          "type": "address"
        },
        {
          "internalType": "uint256",
          "name": "tokens",
          "type": "uint256"
        }
      ],
      "name": "transfer",
      "outputs": [
        {
          "internalType": "bool",
          "name": "",
          "type": "bool"
        }
      ],
      "stateMutability": "nonpayable",
      "type": "function"
    },
    {
      "inputs": [
        {
          "internalType": "address",
          "name": "spender",
          "type": "address"
        },
        {
          "internalType": "uint256",
          "name": "tokens",
          "type": "uint256"
        }
      ],
      "name": "approve",
      "outputs": [
        {
          "internalType": "bool",
          "name": "",
          "type": "bool"
        }
      ],
      "stateMutability": "nonpayable",
      "type": "function"
    },
    {
      "inputs": [
        {
          "internalType": "address",
          "name": "from",
          "type": "address"
        },
        {
          "internalType": "address",
          "name": "to",
          "type": "address"
        },
        {
          "internalType": "uint256",
          "name": "tokens",
          "type": "uint256"
        }
      ],
      "name": "transferFrom",
      "outputs": [
        {
          "internalType": "bool",
          "name": "",
          "type": "bool"
        }
      ],
      "stateMutability": "nonpayable",
      "type": "function"
    },
    {
      "inputs": [
        {
          "internalType": "address",
          "name": "tokenOwner",
          "type": "address"
        },
        {
          "internalType": "address",
          "name": "spender",
          "type": "address"
        }
      ],
      "name": "allowance",
      "outputs": [
        {
          "internalType": "uint256",
          "name": "",
          "type": "uint256"
        }
      ],
      "stateMutability": "view",
      "type": "function"
    }
  ],
  "bytecode": "0x60806040523480156200001157600080fd5b50604051620015cc380380620015cc83398181016040528101906200003791906200040b565b83600090805190602001906200004f92919062000145565b5082600190805190602001906200006892919062000145565b5081600260006101000a81548160ff021916908360ff16021790555080600381905550600354600460003273ffffffffffffffffffffffffffffffffffffffff1673ffffffffffffffffffffffffffffffffffffffff168152602001908152602001600020819055503273ffffffffffffffffffffffffffffffffffffffff16600073ffffffffffffffffffffffffffffffffffffffff167fddf252ad1be2c89b69c2b068fc378daa952ba7f163c4a11628f55a4df523b3ef600354604051620001339190620004cc565b60405180910390a3505050506200054e565b828054620001539062000518565b90600052602060002090601f016020900481019282620001775760008555620001c3565b82601f106200019257805160ff1916838001178555620001c3565b82800160010185558215620001c3579182015b82811115620001c2578251825591602001919060010190620001a5565b5b509050620001d29190620001d6565b5090565b5b80821115620001f1576000816000905550600101620001d7565b5090565b6000604051905090565b600080fd5b600080fd5b600080fd5b600080fd5b6000601f19601f8301169050919050565b7f4e487b7100000000000000000000000000000000000000000000000000000000600052604160045260246000fd5b6200025e8262000213565b810181811067ffffffffffffffff8211171562000280576200027f62000224565b5b80604052505050565b600062000295620001f5565b9050620002a3828262000253565b919050565b600067ffffffffffffffff821115620002c657620002c562000224565b5b620002d18262000213565b9050602081019050919050565b60005b83811015620002fe578082015181840152602081019050620002e1565b838111156200030e576000848401525b50505050565b60006200032b6200032584620002a8565b62000289565b9050828152602081018484840111156200034a57620003496200020e565b5b62000357848285620002de565b509392505050565b600082601f83011262000377576200037662000209565b5b81516200038984826020860162000314565b91505092915050565b600060ff82169050919050565b620003aa8162000392565b8114620003b657600080fd5b50565b600081519050620003ca816200039f565b92915050565b6000819050919050565b620003e581620003d0565b8114620003f157600080fd5b50565b6000815190506200040581620003da565b92915050565b60008060008060808587031215620004285762000427620001ff565b5b600085015167ffffffffffffffff81111562000449576200044862000204565b5b62000457878288016200035f565b945050602085015167ffffffffffffffff8111156200047b576200047a62000204565b5b62000489878288016200035f565b93505060406200049c87828801620003b9565b9250506060620004af87828801620003f4565b91505092959194509250565b620004c681620003d0565b82525050565b6000602082019050620004e36000830184620004bb565b92915050565b7f4e487b7100000000000000000000000000000000000000000000000000000000600052602260045260246000fd5b600060028204905060018216806200053157607f821691505b60208210811415620005485762000547620004e9565b5b50919050565b61106e806200055e6000396000f3fe608060405234801561001057600080fd5b50600436106100ea5760003560e01c806395d89b411161008c578063b5931f7c11610066578063b5931f7c14610275578063d05c78da146102a5578063dd62ed3e146102d5578063e6cb901314610305576100ea565b806395d89b41146101f7578063a293d1e814610215578063a9059cbb14610245576100ea565b806323b872dd116100c857806323b872dd1461015b578063313ce5671461018b5780633eaaf86b146101a957806370a08231146101c7576100ea565b806306fdde03146100ef578063095ea7b31461010d57806318160ddd1461013d575b600080fd5b6100f7610335565b6040516101049190610bd2565b60405180910390f35b61012760048036038101906101229190610c8d565b6103c3565b6040516101349190610ce8565b60405180910390f35b6101456104b5565b6040516101529190610d12565b60405180910390f35b61017560048036038101906101709190610d2d565b610509565b6040516101829190610ce8565b60405180910390f35b610193610799565b6040516101a09190610d9c565b60405180910390f35b6101b16107ac565b6040516101be9190610d12565b60405180910390f35b6101e160048036038101906101dc9190610db7565b6107b2565b6040516101ee9190610d12565b60405180910390f35b6101ff6107fb565b60405161020c9190610bd2565b60405180910390f35b61022f600480360381019061022a9190610de4565b610889565b60405161023c9190610d12565b60405180910390f35b61025f600480360381019061025a9190610c8d565b6108ac565b60405161026c9190610ce8565b60405180910390f35b61028f600480360381019061028a9190610de4565b610a35565b60405161029c9190610d12565b60405180910390f35b6102bf60048036038101906102ba9190610de4565b610a57565b6040516102cc9190610d12565b60405180910390f35b6102ef60048036038101906102ea9190610e24565b610a8f565b6040516102fc9190610d12565b60405180910390f35b61031f600480360381019061031a9190610de4565b610b16565b60405161032c9190610d12565b60405180910390f35b6001805461034290610e93565b80601f016020809104026020016040519081016040528092919081815260200182805461036e90610e93565b80156103bb5780601f10610390576101008083540402835291602001916103bb565b820191906000526020600020905b81548152906001019060200180831161039e57829003601f168201915b505050505081565b600081600560003373ffffffffffffffffffffffffffffffffffffffff1673ffffffffffffffffffffffffffffffffffffffff16815260200190815260200160002060008573ffffffffffffffffffffffffffffffffffffffff1673ffffffffffffffffffffffffffffffffffffffff168152602001908152602001600020819055508273ffffffffffffffffffffffffffffffffffffffff163373ffffffffffffffffffffffffffffffffffffffff167f8c5be1e5ebec7d5bd14f71427d1e84f3dd0314c0f7b2291e5b200ac8c7c3b925846040516104a39190610d12565b60405180910390a36001905092915050565b6000600460008073ffffffffffffffffffffffffffffffffffffffff1673ffffffffffffffffffffffffffffffffffffffff168152602001908152602001600020546003546105049190610ef4565b905090565b6000610554600460008673ffffffffffffffffffffffffffffffffffffffff1673ffffffffffffffffffffffffffffffffffffffff1681526020019081526020016000205483610889565b600460008673ffffffffffffffffffffffffffffffffffffffff1673ffffffffffffffffffffffffffffffffffffffff1681526020019081526020016000208190555061061d600560008673ffffffffffffffffffffffffffffffffffffffff1673ffffffffffffffffffffffffffffffffffffffff16815260200190815260200160002060003373ffffffffffffffffffffffffffffffffffffffff1673ffffffffffffffffffffffffffffffffffffffff1681526020019081526020016000205483610889565b600560008673ffffffffffffffffffffffffffffffffffffffff1673ffffffffffffffffffffffffffffffffffffffff16815260200190815260200160002060003373ffffffffffffffffffffffffffffffffffffffff1673ffffffffffffffffffffffffffffffffffffffff168152602001908152602001600020819055506106e6600460008573ffffffffffffffffffffffffffffffffffffffff1673ffffffffffffffffffffffffffffffffffffffff1681526020019081526020016000205483610b16565b600460008573ffffffffffffffffffffffffffffffffffffffff1673ffffffffffffffffffffffffffffffffffffffff168152602001908152602001600020819055508273ffffffffffffffffffffffffffffffffffffffff168473ffffffffffffffffffffffffffffffffffffffff167fddf252ad1be2c89b69c2b068fc378daa952ba7f163c4a11628f55a4df523b3ef846040516107869190610d12565b60405180910390a3600190509392505050565b600260009054906101000a900460ff1681565b60035481565b6000600460008373ffffffffffffffffffffffffffffffffffffffff1673ffffffffffffffffffffffffffffffffffffffff168152602001908152602001600020549050919050565b6000805461080890610e93565b80601f016020809104026020016040519081016040528092919081815260200182805461083490610e93565b80156108815780601f1061085657610100808354040283529160200191610881565b820191906000526020600020905b81548152906001019060200180831161086457829003601f168201915b505050505081565b60008282111561089857600080fd5b81836108a49190610ef4565b905092915050565b60006108f7600460003273ffffffffffffffffffffffffffffffffffffffff1673ffffffffffffffffffffffffffffffffffffffff1681526020019081526020016000205483610889565b600460003273ffffffffffffffffffffffffffffffffffffffff1673ffffffffffffffffffffffffffffffffffffffff16815260200190815260200160002081905550610983600460008573ffffffffffffffffffffffffffffffffffffffff1673ffffffffffffffffffffffffffffffffffffffff1681526020019081526020016000205483610b16565b600460008573ffffffffffffffffffffffffffffffffffffffff1673ffffffffffffffffffffffffffffffffffffffff168152602001908152602001600020819055508273ffffffffffffffffffffffffffffffffffffffff163273ffffffffffffffffffffffffffffffffffffffff167fddf252ad1be2c89b69c2b068fc378daa952ba7f163c4a11628f55a4df523b3ef84604051610a239190610d12565b60405180910390a36001905092915050565b6000808211610a4357600080fd5b8183610a4f9190610f57565b905092915050565b60008183610a659190610f88565b90506000831480610a805750818382610a7e9190610f57565b145b610a8957600080fd5b92915050565b6000600560008473ffffffffffffffffffffffffffffffffffffffff1673ffffffffffffffffffffffffffffffffffffffff16815260200190815260200160002060008373ffffffffffffffffffffffffffffffffffffffff1673ffffffffffffffffffffffffffffffffffffffff16815260200190815260200160002054905092915050565b60008183610b249190610fe2565b905082811015610b3357600080fd5b92915050565b600081519050919050565b600082825260208201905092915050565b60005b83811015610b73578082015181840152602081019050610b58565b83811115610b82576000848401525b50505050565b6000601f19601f8301169050919050565b6000610ba482610b39565b610bae8185610b44565b9350610bbe818560208601610b55565b610bc781610b88565b840191505092915050565b60006020820190508181036000830152610bec8184610b99565b905092915050565b600080fd5b600073ffffffffffffffffffffffffffffffffffffffff82169050919050565b6000610c2482610bf9565b9050919050565b610c3481610c19565b8114610c3f57600080fd5b50565b600081359050610c5181610c2b565b92915050565b6000819050919050565b610c6a81610c57565b8114610c7557600080fd5b50565b600081359050610c8781610c61565b92915050565b60008060408385031215610ca457610ca3610bf4565b5b6000610cb285828601610c42565b9250506020610cc385828601610c78565b9150509250929050565b60008115159050919050565b610ce281610ccd565b82525050565b6000602082019050610cfd6000830184610cd9565b92915050565b610d0c81610c57565b82525050565b6000602082019050610d276000830184610d03565b92915050565b600080600060608486031215610d4657610d45610bf4565b5b6000610d5486828701610c42565b9350506020610d6586828701610c42565b9250506040610d7686828701610c78565b9150509250925092565b600060ff82169050919050565b610d9681610d80565b82525050565b6000602082019050610db16000830184610d8d565b92915050565b600060208284031215610dcd57610dcc610bf4565b5b6000610ddb84828501610c42565b91505092915050565b60008060408385031215610dfb57610dfa610bf4565b5b6000610e0985828601610c78565b9250506020610e1a85828601610c78565b9150509250929050565b60008060408385031215610e3b57610e3a610bf4565b5b6000610e4985828601610c42565b9250506020610e5a85828601610c42565b9150509250929050565b7f4e487b7100000000000000000000000000000000000000000000000000000000600052602260045260246000fd5b60006002820490506001821680610eab57607f821691505b60208210811415610ebf57610ebe610e64565b5b50919050565b7f4e487b7100000000000000000000000000000000000000000000000000000000600052601160045260246000fd5b6000610eff82610c57565b9150610f0a83610c57565b925082821015610f1d57610f1c610ec5565b5b828203905092915050565b7f4e487b7100000000000000000000000000000000000000000000000000000000600052601260045260246000fd5b6000610f6282610c57565b9150610f6d83610c57565b925082610f7d57610f7c610f28565b5b828204905092915050565b6000610f9382610c57565b9150610f9e83610c57565b9250817fffffffffffffffffffffffffffffffffffffffffffffffffffffffffffffffff0483118215151615610fd757610fd6610ec5565b5b828202905092915050565b6000610fed82610c57565b9150610ff883610c57565b9250827fffffffffffffffffffffffffffffffffffffffffffffffffffffffffffffffff0382111561102d5761102c610ec5565b5b82820190509291505056fea26469706673582212206147317c9fe05cac804984f8bce1b8e852bcbadc15caf21bd9b91377c429a05764736f6c634300080a0033",
  "immutableReferences": {},
  "source": "//SPDX-License-Identifier:MIT\r\npragma solidity ^0.8.0;\r\n\r\n//Safe Math Interface\r\n \r\ncontract SafeMath {\r\n \r\n    function safeAdd(uint a, uint b) public pure returns (uint c) {\r\n        c = a + b;\r\n        require(c >= a);\r\n    }\r\n \r\n    function safeSub(uint a, uint b) public pure returns (uint c) {\r\n        require(b <= a);\r\n        c = a - b;\r\n    }\r\n \r\n    function safeMul(uint a, uint b) public pure returns (uint c) {\r\n        c = a * b;\r\n        require(a == 0 || c / a == b);\r\n    }\r\n \r\n    function safeDiv(uint a, uint b) public pure returns (uint c) {\r\n        require(b > 0);\r\n        c = a / b;\r\n    }\r\n}\r\n \r\n \r\n//ERC Token Standard #20 Interface\r\n \r\ninterface ERC20Interface {\r\n    function totalSupply() external view returns (uint);\r\n    function balanceOf(address tokenOwner) external view returns (uint balance);\r\n    function allowance(address tokenOwner, address spender) external view returns (uint remaining);\r\n    function transfer(address to, uint tokens) external returns (bool success);\r\n    function approve(address spender, uint tokens) external returns (bool success);\r\n    function transferFrom(address from, address to, uint tokens) external returns (bool success);\r\n \r\n    event Transfer(address indexed from, address indexed to, uint tokens);\r\n    event Approval(address indexed tokenOwner, address indexed spender, uint tokens);\r\n}\r\n \r\n// //Contract function to receive approval and execute function in one call\r\n \r\n// contract ApproveAndCallFallBack {\r\n//     function receiveApproval(address from, uint256 tokens, address token, bytes memory data) public;\r\n// }\r\n \r\n//Actual token contract\r\n \r\ncontract Token is ERC20Interface, SafeMath {\r\n    string public symbol;\r\n    string public  name;\r\n    uint8 public decimals;\r\n    uint public _totalSupply;\r\n \r\n    mapping(address => uint) balances;\r\n    mapping(address => mapping(address => uint)) allowed;\r\n    \r\n    constructor(string memory _symbol, string memory _name, uint8 _decimal, uint _total) {\r\n        symbol = _symbol;\r\n        name = _name;\r\n        decimals = _decimal;\r\n        _totalSupply = _total;\r\n        balances[tx.origin] = _totalSupply;\r\n        emit Transfer(address(0), tx.origin, _totalSupply);\r\n    }\r\n \r\n    function totalSupply() public view override returns (uint) {\r\n        return _totalSupply  - balances[address(0)];\r\n    }\r\n \r\n    function balanceOf(address tokenOwner) public view override returns (uint) {\r\n        return balances[tokenOwner];\r\n    }\r\n \r\n    function transfer(address to, uint tokens) public override returns (bool) {\r\n        balances[tx.origin] = safeSub(balances[tx.origin], tokens);        \r\n        balances[to] = safeAdd(balances[to], tokens);\r\n        emit Transfer(tx.origin, to, tokens);\r\n        return true;\r\n    }\r\n \r\n    function approve(address spender, uint tokens) public override returns (bool) {\r\n        allowed[msg.sender][spender] = tokens;\r\n        emit Approval(msg.sender, spender, tokens);\r\n        return true;\r\n    }\r\n \r\n    function transferFrom(address from, address to, uint tokens) public override returns (bool) {\r\n        balances[from] = safeSub(balances[from], tokens);\r\n        allowed[from][msg.sender] = safeSub(allowed[from][msg.sender], tokens);\r\n        balances[to] = safeAdd(balances[to], tokens);\r\n        emit Transfer(from, to, tokens);\r\n        return true;\r\n    }\r\n \r\n    function allowance(address tokenOwner, address spender) public view override returns (uint) {\r\n        return allowed[tokenOwner][spender];\r\n    }\r\n \r\n    // function approveAndCall(address spender, uint tokens, bytes memory data) public virtual returns (bool) {\r\n    //     allowed[msg.sender][spender] = tokens;\r\n    //     emit Approval(msg.sender, spender, tokens);\r\n    //     ApproveAndCallFallBack(spender).receiveApproval(msg.sender, tokens, this, data);\r\n    //     return true;\r\n    // }\r\n\r\n}",
  "sourcePath": "B:\\Degree Material\\Year 3 Sem 2\\Block Chain Application\\Assignment\\Token\\BTC\\contracts\\token.sol",
  "compiler": {
    "name": "solc",
    "version": "0.8.10+commit.fc410830.Emscripten.clang"
  },
  "schemaVersion": "3.4.3",
  "updatedAt": "2021-12-05T09:08:17.013Z",
  "devdoc": {
    "kind": "dev",
    "methods": {},
    "version": 1
  },
  "userdoc": {
    "kind": "user",
    "methods": {},
    "version": 1
  }
}