{
  "contractName": "dex",
  "abi": [
    {
      "inputs": [],
      "stateMutability": "nonpayable",
      "type": "constructor"
    },
    {
      "inputs": [
        {
          "internalType": "address",
          "name": "",
          "type": "address"
        }
      ],
      "name": "liquidityPool",
      "outputs": [
        {
          "internalType": "address",
          "name": "poolToken",
          "type": "address"
        },
        {
          "internalType": "address",
          "name": "token1",
          "type": "address"
        },
        {
          "internalType": "address",
          "name": "token2",
          "type": "address"
        },
        {
          "internalType": "uint256",
          "name": "token1Balance",
          "type": "uint256"
        },
        {
          "internalType": "uint256",
          "name": "token2Balance",
          "type": "uint256"
        },
        {
          "internalType": "bool",
          "name": "isAdded",
          "type": "bool"
        }
      ],
      "stateMutability": "view",
      "type": "function",
      "constant": true
    },
    {
      "inputs": [
        {
          "internalType": "address",
          "name": "token",
          "type": "address"
        }
      ],
      "name": "checkBalances",
      "outputs": [
        {
          "internalType": "uint256",
          "name": "",
          "type": "uint256"
        }
      ],
      "stateMutability": "view",
      "type": "function",
      "constant": true
    },
    {
      "inputs": [
        {
          "internalType": "address payable",
          "name": "token1",
          "type": "address"
        },
        {
          "internalType": "address payable",
          "name": "token2",
          "type": "address"
        },
        {
          "internalType": "uint256",
          "name": "token1Amount",
          "type": "uint256"
        }
      ],
      "name": "fundLiquidityPool",
      "outputs": [
        {
          "internalType": "address",
          "name": "",
          "type": "address"
        }
      ],
      "stateMutability": "payable",
      "type": "function",
      "payable": true
    },
    {
      "inputs": [
        {
          "internalType": "address payable",
          "name": "token1",
          "type": "address"
        },
        {
          "internalType": "address payable",
          "name": "token2",
          "type": "address"
        },
        {
          "internalType": "uint256",
          "name": "token1Amount",
          "type": "uint256"
        },
        {
          "internalType": "uint256",
          "name": "token2Amount",
          "type": "uint256"
        }
      ],
      "name": "addLiquidityPool",
      "outputs": [
        {
          "internalType": "address",
          "name": "",
          "type": "address"
        },
        {
          "internalType": "address",
          "name": "",
          "type": "address"
        }
      ],
      "stateMutability": "payable",
      "type": "function",
      "payable": true
    },
    {
      "inputs": [
        {
          "internalType": "uint256",
          "name": "lpAmount",
          "type": "uint256"
        },
        {
          "internalType": "uint256",
          "name": "totalSupply",
          "type": "uint256"
        },
        {
          "internalType": "uint256",
          "name": "tokenReserve",
          "type": "uint256"
        }
      ],
      "name": "convertLPTokenToToken",
      "outputs": [
        {
          "internalType": "uint256",
          "name": "",
          "type": "uint256"
        }
      ],
      "stateMutability": "pure",
      "type": "function",
      "constant": true
    },
    {
      "inputs": [
        {
          "internalType": "address",
          "name": "pool",
          "type": "address"
        },
        {
          "internalType": "uint256",
          "name": "amount",
          "type": "uint256"
        }
      ],
      "name": "withdrawFund",
      "outputs": [
        {
          "internalType": "uint256",
          "name": "",
          "type": "uint256"
        },
        {
          "internalType": "uint256",
          "name": "",
          "type": "uint256"
        }
      ],
      "stateMutability": "payable",
      "type": "function",
      "payable": true
    },
    {
      "inputs": [
        {
          "internalType": "address",
          "name": "tokenA",
          "type": "address"
        },
        {
          "internalType": "address",
          "name": "tokenB",
          "type": "address"
        }
      ],
      "name": "isPoolExist",
      "outputs": [
        {
          "internalType": "bool",
          "name": "",
          "type": "bool"
        },
        {
          "internalType": "address",
          "name": "",
          "type": "address"
        }
      ],
      "stateMutability": "view",
      "type": "function",
      "constant": true
    },
    {
      "inputs": [
        {
          "internalType": "uint256",
          "name": "x",
          "type": "uint256"
        },
        {
          "internalType": "uint256",
          "name": "y",
          "type": "uint256"
        },
        {
          "internalType": "uint256",
          "name": "amount",
          "type": "uint256"
        }
      ],
      "name": "computePrice",
      "outputs": [
        {
          "internalType": "uint256",
          "name": "",
          "type": "uint256"
        }
      ],
      "stateMutability": "pure",
      "type": "function",
      "constant": true
    },
    {
      "inputs": [
        {
          "internalType": "address",
          "name": "tokenA",
          "type": "address"
        },
        {
          "internalType": "address",
          "name": "tokenB",
          "type": "address"
        }
      ],
      "name": "generatePoolId",
      "outputs": [
        {
          "internalType": "address",
          "name": "",
          "type": "address"
        }
      ],
      "stateMutability": "pure",
      "type": "function",
      "constant": true
    },
    {
      "inputs": [
        {
          "internalType": "uint256",
          "name": "tokenAmount",
          "type": "uint256"
        },
        {
          "internalType": "uint256",
          "name": "poolAmount",
          "type": "uint256"
        },
        {
          "internalType": "uint256",
          "name": "accumulatedInterest",
          "type": "uint256"
        }
      ],
      "name": "calculateInterest",
      "outputs": [
        {
          "internalType": "uint256",
          "name": "",
          "type": "uint256"
        }
      ],
      "stateMutability": "pure",
      "type": "function",
      "constant": true
    },
    {
      "inputs": [
        {
          "internalType": "bool",
          "name": "isInitiator",
          "type": "bool"
        },
        {
          "internalType": "uint256",
          "name": "token1Amount",
          "type": "uint256"
        },
        {
          "internalType": "uint256",
          "name": "token2Amount",
          "type": "uint256"
        },
        {
          "internalType": "uint256",
          "name": "token1Reserve",
          "type": "uint256"
        },
        {
          "internalType": "uint256",
          "name": "token2Reserve",
          "type": "uint256"
        },
        {
          "internalType": "uint256",
          "name": "totalSupply",
          "type": "uint256"
        }
      ],
      "name": "calculateLPToken",
      "outputs": [
        {
          "internalType": "uint256",
          "name": "",
          "type": "uint256"
        }
      ],
      "stateMutability": "pure",
      "type": "function",
      "constant": true
    },
    {
      "inputs": [
        {
          "internalType": "address",
          "name": "fromToken",
          "type": "address"
        },
        {
          "internalType": "address",
          "name": "toToken",
          "type": "address"
        },
        {
          "internalType": "uint256",
          "name": "tokenX",
          "type": "uint256"
        }
      ],
      "name": "swap",
      "outputs": [],
      "stateMutability": "payable",
      "type": "function",
      "payable": true
    },
    {
      "inputs": [
        {
          "internalType": "address",
          "name": "fromToken",
          "type": "address"
        },
        {
          "internalType": "address",
          "name": "toToken",
          "type": "address"
        },
        {
          "internalType": "uint256",
          "name": "tokenX",
          "type": "uint256"
        }
      ],
      "name": "estSwap",
      "outputs": [
        {
          "internalType": "uint256",
          "name": "",
          "type": "uint256"
        }
      ],
      "stateMutability": "view",
      "type": "function",
      "constant": true
    },
    {
      "inputs": [
        {
          "internalType": "address",
          "name": "tokenA",
          "type": "address"
        },
        {
          "internalType": "address",
          "name": "tokenB",
          "type": "address"
        },
        {
          "internalType": "uint256",
          "name": "amount",
          "type": "uint256"
        }
      ],
      "name": "estFundPool",
      "outputs": [
        {
          "internalType": "uint256",
          "name": "amount2",
          "type": "uint256"
        },
        {
          "internalType": "address",
          "name": "token2",
          "type": "address"
        },
        {
          "internalType": "uint256",
          "name": "share",
          "type": "uint256"
        }
      ],
      "stateMutability": "view",
      "type": "function",
      "constant": true
    },
    {
      "inputs": [
        {
          "internalType": "address",
          "name": "pool",
          "type": "address"
        },
        {
          "internalType": "uint256",
          "name": "amount",
          "type": "uint256"
        }
      ],
      "name": "estWithdrawFund",
      "outputs": [
        {
          "internalType": "uint256",
          "name": "amount1",
          "type": "uint256"
        },
        {
          "internalType": "uint256",
          "name": "amount2",
          "type": "uint256"
        },
        {
          "internalType": "address",
          "name": "token1",
          "type": "address"
        },
        {
          "internalType": "address",
          "name": "token2",
          "type": "address"
        }
      ],
      "stateMutability": "view",
      "type": "function",
      "constant": true
    }
  ],
  "bytecode": "0x608060405234801561001057600080fd5b5033600160006101000a81548173ffffffffffffffffffffffffffffffffffffffff021916908373ffffffffffffffffffffffffffffffffffffffff160217905550615af0806100616000396000f3fe608060405260043610620000fe5760003560e01c8063ac0ebe961162000097578063df791e501162000061578063df791e5014620003df578063e1d2e3ee14620003ff578063f7c8d2211462000443578063ff41a2d2146200047a57620000fe565b8063ac0ebe9614620002d7578063c0806db6146200031b578063d874c85a1462000364578063dc86967314620003a857620000fe565b80637179394911620000d95780637179394914620001d257806374c3b43314620002085780637d93c52c146200024c578063841bdb9e146200029257620000fe565b806305e1bd8c146200010357806311cd682d146200014757806341ba2805146200018b575b600080fd5b3480156200011057600080fd5b506200012f600480360381019062000129919062002cd7565b620004be565b6040516200013e919062002d44565b60405180910390f35b3480156200015457600080fd5b506200017360048036038101906200016d919062002dc6565b620004e4565b60405162000182919062002d44565b60405180910390f35b3480156200019857600080fd5b50620001b76004803603810190620001b1919062002df8565b6200056c565b604051620001c9949392919062002e50565b60405180910390f35b620001f06004803603810190620001ea919062002ee2565b62000885565b604051620001ff919062002f3e565b60405180910390f35b3480156200021557600080fd5b506200023460048036038101906200022e919062002cd7565b62000df6565b60405162000243919062002d44565b60405180910390f35b3480156200025957600080fd5b5062000278600480360381019062000272919062002f5b565b62000e3c565b604051620002899392919062002fb7565b60405180910390f35b3480156200029f57600080fd5b50620002be6004803603810190620002b8919062002ff4565b620011b4565b604051620002ce92919062003058565b60405180910390f35b348015620002e457600080fd5b50620003036004803603810190620002fd9190620030b6565b62001251565b60405162000312919062002d44565b60405180910390f35b3480156200032857600080fd5b5062000347600480360381019062000341919062002dc6565b620012d7565b6040516200035b9695949392919062003152565b60405180910390f35b3480156200037157600080fd5b506200039060048036038101906200038a919062002ff4565b62001380565b6040516200039f919062002f3e565b60405180910390f35b620003c66004803603810190620003c09190620031bf565b62001400565b604051620003d692919062003231565b60405180910390f35b620003fd6004803603810190620003f7919062002f5b565b62001cc4565b005b3480156200040c57600080fd5b506200042b600480360381019062000425919062002f5b565b620021c1565b6040516200043a919062002d44565b60405180910390f35b6200046160048036038101906200045b919062002df8565b620023b2565b604051620004719291906200325e565b60405180910390f35b3480156200048757600080fd5b50620004a66004803603810190620004a0919062002cd7565b62002a0e565b604051620004b5919062002d44565b60405180910390f35b6000828285620004cf9190620032ba565b620004db91906200334a565b90509392505050565b60008173ffffffffffffffffffffffffffffffffffffffff166370a08231336040518263ffffffff1660e01b815260040162000521919062002f3e565b602060405180830381865afa1580156200053f573d6000803e3d6000fd5b505050506040513d601f19601f8201168201806040525081019062000565919062003399565b9050919050565b6000806000806200057d8662002a34565b620005bf576040517f08c379a0000000000000000000000000000000000000000000000000000000008152600401620005b6906200342c565b60405180910390fd5b60008060008873ffffffffffffffffffffffffffffffffffffffff1673ffffffffffffffffffffffffffffffffffffffff16815260200190815260200160002060000160009054906101000a900473ffffffffffffffffffffffffffffffffffffffff1690506000620006e6878373ffffffffffffffffffffffffffffffffffffffff166318160ddd6040518163ffffffff1660e01b8152600401602060405180830381865afa15801562000678573d6000803e3d6000fd5b505050506040513d601f19601f820116820180604052508101906200069e919062003399565b6000808c73ffffffffffffffffffffffffffffffffffffffff1673ffffffffffffffffffffffffffffffffffffffff1681526020019081526020016000206003015462002a0e565b90506000620007a9888473ffffffffffffffffffffffffffffffffffffffff166318160ddd6040518163ffffffff1660e01b8152600401602060405180830381865afa1580156200073b573d6000803e3d6000fd5b505050506040513d601f19601f8201168201806040525081019062000761919062003399565b6000808d73ffffffffffffffffffffffffffffffffffffffff1673ffffffffffffffffffffffffffffffffffffffff1681526020019081526020016000206004015462002a0e565b905081816000808c73ffffffffffffffffffffffffffffffffffffffff1673ffffffffffffffffffffffffffffffffffffffff16815260200190815260200160002060010160009054906101000a900473ffffffffffffffffffffffffffffffffffffffff166000808d73ffffffffffffffffffffffffffffffffffffffff1673ffffffffffffffffffffffffffffffffffffffff16815260200190815260200160002060020160009054906101000a900473ffffffffffffffffffffffffffffffffffffffff16965096509650965050505092959194509250565b60008273ffffffffffffffffffffffffffffffffffffffff168473ffffffffffffffffffffffffffffffffffffffff161415620008f9576040517f08c379a0000000000000000000000000000000000000000000000000000000008152600401620008f0906200349e565b60405180910390fd5b600062000907858562001380565b9050620009148162002a34565b62000956576040517f08c379a00000000000000000000000000000000000000000000000000000000081526004016200094d9062003536565b60405180910390fd5b6000620009e76000808473ffffffffffffffffffffffffffffffffffffffff1673ffffffffffffffffffffffffffffffffffffffff168152602001908152602001600020600301546000808573ffffffffffffffffffffffffffffffffffffffff1673ffffffffffffffffffffffffffffffffffffffff168152602001908152602001600020600401548662000df6565b9050806000808473ffffffffffffffffffffffffffffffffffffffff1673ffffffffffffffffffffffffffffffffffffffff168152602001908152602001600020600401600082825462000a3c919062003558565b92505081905550836000808473ffffffffffffffffffffffffffffffffffffffff1673ffffffffffffffffffffffffffffffffffffffff168152602001908152602001600020600301600082825462000a96919062003558565b9250508190555060008060008473ffffffffffffffffffffffffffffffffffffffff1673ffffffffffffffffffffffffffffffffffffffff16815260200190815260200160002060000160009054906101000a900473ffffffffffffffffffffffffffffffffffffffff169050600062000c09600087856000808973ffffffffffffffffffffffffffffffffffffffff1673ffffffffffffffffffffffffffffffffffffffff168152602001908152602001600020600301546000808a73ffffffffffffffffffffffffffffffffffffffff1673ffffffffffffffffffffffffffffffffffffffff168152602001908152602001600020600401548773ffffffffffffffffffffffffffffffffffffffff166318160ddd6040518163ffffffff1660e01b8152600401602060405180830381865afa15801562000bdd573d6000803e3d6000fd5b505050506040513d601f19601f8201168201806040525081019062000c03919062003399565b62001251565b90508173ffffffffffffffffffffffffffffffffffffffff166340c10f1933836040518363ffffffff1660e01b815260040162000c48929190620035b5565b6020604051808303816000875af115801562000c68573d6000803e3d6000fd5b505050506040513d601f19601f8201168201806040525081019062000c8e9190620035f9565b62000cd0576040517f08c379a000000000000000000000000000000000000000000000000000000000815260040162000cc7906200367b565b60405180910390fd5b600088905060008890508173ffffffffffffffffffffffffffffffffffffffff166323b872dd33308b6040518463ffffffff1660e01b815260040162000d19939291906200369d565b6020604051808303816000875af115801562000d39573d6000803e3d6000fd5b505050506040513d601f19601f8201168201806040525081019062000d5f9190620035f9565b508073ffffffffffffffffffffffffffffffffffffffff166323b872dd3330886040518463ffffffff1660e01b815260040162000d9f939291906200369d565b6020604051808303816000875af115801562000dbf573d6000803e3d6000fd5b505050506040513d601f19601f8201168201806040525081019062000de59190620035f9565b508596505050505050509392505050565b6000808414801562000e085750600083145b1562000e175781905062000e35565b82848362000e269190620032ba565b62000e3291906200334a565b90505b9392505050565b60008060008473ffffffffffffffffffffffffffffffffffffffff168673ffffffffffffffffffffffffffffffffffffffff16141562000eb3576040517f08c379a000000000000000000000000000000000000000000000000000000000815260040162000eaa906200372a565b60405180910390fd5b600062000ec1878762001380565b905062000ece8162002a34565b62000f10576040517f08c379a000000000000000000000000000000000000000000000000000000000815260040162000f07906200379c565b60405180910390fd5b600062000fa16000808473ffffffffffffffffffffffffffffffffffffffff1673ffffffffffffffffffffffffffffffffffffffff168152602001908152602001600020600301546000808573ffffffffffffffffffffffffffffffffffffffff1673ffffffffffffffffffffffffffffffffffffffff168152602001908152602001600020600401548862000df6565b905060008060008473ffffffffffffffffffffffffffffffffffffffff1673ffffffffffffffffffffffffffffffffffffffff16815260200190815260200160002060000160009054906101000a900473ffffffffffffffffffffffffffffffffffffffff16905060006200110f600089856000808973ffffffffffffffffffffffffffffffffffffffff1673ffffffffffffffffffffffffffffffffffffffff168152602001908152602001600020600301546000808a73ffffffffffffffffffffffffffffffffffffffff1673ffffffffffffffffffffffffffffffffffffffff168152602001908152602001600020600401548773ffffffffffffffffffffffffffffffffffffffff166318160ddd6040518163ffffffff1660e01b8152600401602060405180830381865afa158015620010e3573d6000803e3d6000fd5b505050506040513d601f19601f8201168201806040525081019062001109919062003399565b62001251565b905082898373ffffffffffffffffffffffffffffffffffffffff166318160ddd6040518163ffffffff1660e01b8152600401602060405180830381865afa1580156200115f573d6000803e3d6000fd5b505050506040513d601f19601f8201168201806040525081019062001185919062003399565b6103e884620011959190620032ba565b620011a191906200334a565b9650965096505050505093509350939050565b6000808273ffffffffffffffffffffffffffffffffffffffff168473ffffffffffffffffffffffffffffffffffffffff16141562001229576040517f08c379a000000000000000000000000000000000000000000000000000000000815260040162001220906200380e565b60405180910390fd5b600062001237858562001380565b9050620012448162002a34565b8192509250509250929050565b600086620012b25760008483886200126a9190620032ba565b6200127691906200334a565b90506000848488620012899190620032ba565b6200129591906200334a565b9050808211620012a65781620012a8565b805b92505050620012cd565b620012ca8587620012c49190620032ba565b62002bc0565b90505b9695505050505050565b60006020528060005260406000206000915090508060000160009054906101000a900473ffffffffffffffffffffffffffffffffffffffff16908060010160009054906101000a900473ffffffffffffffffffffffffffffffffffffffff16908060020160009054906101000a900473ffffffffffffffffffffffffffffffffffffffff16908060030154908060040154908060050160009054906101000a900460ff16905086565b60008060008373ffffffffffffffffffffffffffffffffffffffff168573ffffffffffffffffffffffffffffffffffffffff1610620013c1578385620013c4565b84845b915091508181604051602001620013dd92919062003880565b6040516020818303038152906040528051906020012060001c9250505092915050565b6000808473ffffffffffffffffffffffffffffffffffffffff168673ffffffffffffffffffffffffffffffffffffffff16141562001475576040517f08c379a00000000000000000000000000000000000000000000000000000000081526004016200146c9062003900565b60405180910390fd5b600062001483878762001380565b90506000808273ffffffffffffffffffffffffffffffffffffffff1673ffffffffffffffffffffffffffffffffffffffff16815260200190815260200160002060050160009054906101000a900460ff161562001517576040517f08c379a00000000000000000000000000000000000000000000000000000000081526004016200150e9062003972565b60405180910390fd5b60008790506000879050868273ffffffffffffffffffffffffffffffffffffffff1663dd62ed3e33306040518363ffffffff1660e01b81526004016200155f92919062003231565b602060405180830381865afa1580156200157d573d6000803e3d6000fd5b505050506040513d601f19601f82011682018060405250810190620015a3919062003399565b1015620015e7576040517f08c379a0000000000000000000000000000000000000000000000000000000008152600401620015de9062003a0a565b60405180910390fd5b858173ffffffffffffffffffffffffffffffffffffffff1663dd62ed3e33306040518363ffffffff1660e01b81526004016200162592919062003231565b602060405180830381865afa15801562001643573d6000803e3d6000fd5b505050506040513d601f19601f8201168201806040525081019062001669919062003399565b1015620016ad576040517f08c379a0000000000000000000000000000000000000000000000000000000008152600401620016a49062003a0a565b60405180910390fd5b8173ffffffffffffffffffffffffffffffffffffffff166323b872dd33308a6040518463ffffffff1660e01b8152600401620016ec939291906200369d565b6020604051808303816000875af11580156200170c573d6000803e3d6000fd5b505050506040513d601f19601f82011682018060405250810190620017329190620035f9565b62001774576040517f08c379a00000000000000000000000000000000000000000000000000000000081526004016200176b906200367b565b60405180910390fd5b8073ffffffffffffffffffffffffffffffffffffffff166323b872dd3330896040518463ffffffff1660e01b8152600401620017b3939291906200369d565b6020604051808303816000875af1158015620017d3573d6000803e3d6000fd5b505050506040513d601f19601f82011682018060405250810190620017f99190620035f9565b6200183b576040517f08c379a000000000000000000000000000000000000000000000000000000000815260040162001832906200367b565b60405180910390fd5b60006200196b8373ffffffffffffffffffffffffffffffffffffffff166395d89b416040518163ffffffff1660e01b8152600401600060405180830381865afa1580156200188d573d6000803e3d6000fd5b505050506040513d6000823e3d601f19601f82011682018060405250810190620018b8919062003bb5565b6040518060400160405280600181526020017f2d000000000000000000000000000000000000000000000000000000000000008152508473ffffffffffffffffffffffffffffffffffffffff166395d89b416040518163ffffffff1660e01b8152600401600060405180830381865afa1580156200193a573d6000803e3d6000fd5b505050506040513d6000823e3d601f19601f8201168201806040525081019062001965919062003bb5565b62002c49565b60086040516200197b9062002c7a565b6200198892919062003cfc565b604051809103906000f080158015620019a5573d6000803e3d6000fd5b509050600062001a2d60018a8a6000808773ffffffffffffffffffffffffffffffffffffffff166318160ddd6040518163ffffffff1660e01b8152600401602060405180830381865afa15801562001a01573d6000803e3d6000fd5b505050506040513d601f19601f8201168201806040525081019062001a27919062003399565b62001251565b90506040518060c001604052808373ffffffffffffffffffffffffffffffffffffffff1681526020018c73ffffffffffffffffffffffffffffffffffffffff1681526020018b73ffffffffffffffffffffffffffffffffffffffff1681526020018a8152602001898152602001600115158152506000808773ffffffffffffffffffffffffffffffffffffffff1673ffffffffffffffffffffffffffffffffffffffff16815260200190815260200160002060008201518160000160006101000a81548173ffffffffffffffffffffffffffffffffffffffff021916908373ffffffffffffffffffffffffffffffffffffffff16021790555060208201518160010160006101000a81548173ffffffffffffffffffffffffffffffffffffffff021916908373ffffffffffffffffffffffffffffffffffffffff16021790555060408201518160020160006101000a81548173ffffffffffffffffffffffffffffffffffffffff021916908373ffffffffffffffffffffffffffffffffffffffff160217905550606082015181600301556080820151816004015560a08201518160050160006101000a81548160ff0219169083151502179055509050508173ffffffffffffffffffffffffffffffffffffffff166340c10f1933836040518363ffffffff1660e01b815260040162001c28929190620035b5565b6020604051808303816000875af115801562001c48573d6000803e3d6000fd5b505050506040513d601f19601f8201168201806040525081019062001c6e9190620035f9565b62001cb0576040517f08c379a000000000000000000000000000000000000000000000000000000000815260040162001ca7906200367b565b60405180910390fd5b848296509650505050505094509492505050565b600062001cd2848462001380565b90506000808273ffffffffffffffffffffffffffffffffffffffff1673ffffffffffffffffffffffffffffffffffffffff16815260200190815260200160002060050160009054906101000a900460ff1662001d65576040517f08c379a000000000000000000000000000000000000000000000000000000000815260040162001d5c9062003d95565b60405180910390fd5b60008060008373ffffffffffffffffffffffffffffffffffffffff1673ffffffffffffffffffffffffffffffffffffffff168152602001908152602001600020600401546000808473ffffffffffffffffffffffffffffffffffffffff1673ffffffffffffffffffffffffffffffffffffffff1681526020019081526020016000206003015462001df79190620032ba565b9050600085905060008590508173ffffffffffffffffffffffffffffffffffffffff1663dd62ed3e33306040518363ffffffff1660e01b815260040162001e4092919062003231565b602060405180830381865afa15801562001e5e573d6000803e3d6000fd5b505050506040513d601f19601f8201168201806040525081019062001e84919062003399565b85111562001ec9576040517f08c379a000000000000000000000000000000000000000000000000000000000815260040162001ec09062003e07565b60405180910390fd5b6000856000808773ffffffffffffffffffffffffffffffffffffffff1673ffffffffffffffffffffffffffffffffffffffff1681526020019081526020016000206003015462001f1a919062003558565b8462001f2791906200334a565b6000808773ffffffffffffffffffffffffffffffffffffffff1673ffffffffffffffffffffffffffffffffffffffff1681526020019081526020016000206004015462001f75919062003e29565b90508173ffffffffffffffffffffffffffffffffffffffff1663a9059cbb33836040518363ffffffff1660e01b815260040162001fb4929190620035b5565b6020604051808303816000875af115801562001fd4573d6000803e3d6000fd5b505050506040513d601f19601f8201168201806040525081019062001ffa9190620035f9565b6200203c576040517f08c379a000000000000000000000000000000000000000000000000000000000815260040162002033906200367b565b60405180910390fd5b8273ffffffffffffffffffffffffffffffffffffffff166323b872dd3330896040518463ffffffff1660e01b81526004016200207b939291906200369d565b6020604051808303816000875af11580156200209b573d6000803e3d6000fd5b505050506040513d601f19601f82011682018060405250810190620020c19190620035f9565b62002103576040517f08c379a0000000000000000000000000000000000000000000000000000000008152600401620020fa9062003eb4565b60405180910390fd5b856000808773ffffffffffffffffffffffffffffffffffffffff1673ffffffffffffffffffffffffffffffffffffffff168152602001908152602001600020600301600082825462002156919062003558565b92505081905550806000808773ffffffffffffffffffffffffffffffffffffffff1673ffffffffffffffffffffffffffffffffffffffff1681526020019081526020016000206004016000828254620021b0919062003e29565b925050819055505050505050505050565b600080620021d0858562001380565b90506000808273ffffffffffffffffffffffffffffffffffffffff1673ffffffffffffffffffffffffffffffffffffffff16815260200190815260200160002060050160009054906101000a900460ff1662002263576040517f08c379a00000000000000000000000000000000000000000000000000000000081526004016200225a9062003d95565b60405180910390fd5b60008060008373ffffffffffffffffffffffffffffffffffffffff1673ffffffffffffffffffffffffffffffffffffffff168152602001908152602001600020600401546000808473ffffffffffffffffffffffffffffffffffffffff1673ffffffffffffffffffffffffffffffffffffffff16815260200190815260200160002060030154620022f59190620032ba565b90506000846000808573ffffffffffffffffffffffffffffffffffffffff1673ffffffffffffffffffffffffffffffffffffffff1681526020019081526020016000206003015462002348919062003558565b826200235591906200334a565b6000808573ffffffffffffffffffffffffffffffffffffffff1673ffffffffffffffffffffffffffffffffffffffff16815260200190815260200160002060040154620023a3919062003e29565b90508093505050509392505050565b60008060008060008673ffffffffffffffffffffffffffffffffffffffff1673ffffffffffffffffffffffffffffffffffffffff16815260200190815260200160002060000160009054906101000a900473ffffffffffffffffffffffffffffffffffffffff169050838173ffffffffffffffffffffffffffffffffffffffff166370a08231336040518263ffffffff1660e01b815260040162002457919062002f3e565b602060405180830381865afa15801562002475573d6000803e3d6000fd5b505050506040513d601f19601f820116820180604052508101906200249b919062003399565b1015620024df576040517f08c379a0000000000000000000000000000000000000000000000000000000008152600401620024d69062003f26565b60405180910390fd5b6000620025a0858373ffffffffffffffffffffffffffffffffffffffff166318160ddd6040518163ffffffff1660e01b8152600401602060405180830381865afa15801562002532573d6000803e3d6000fd5b505050506040513d601f19601f8201168201806040525081019062002558919062003399565b6000808a73ffffffffffffffffffffffffffffffffffffffff1673ffffffffffffffffffffffffffffffffffffffff1681526020019081526020016000206003015462002a0e565b9050600062002663868473ffffffffffffffffffffffffffffffffffffffff166318160ddd6040518163ffffffff1660e01b8152600401602060405180830381865afa158015620025f5573d6000803e3d6000fd5b505050506040513d601f19601f820116820180604052508101906200261b919062003399565b6000808b73ffffffffffffffffffffffffffffffffffffffff1673ffffffffffffffffffffffffffffffffffffffff1681526020019081526020016000206004015462002a0e565b9050816000808973ffffffffffffffffffffffffffffffffffffffff1673ffffffffffffffffffffffffffffffffffffffff1681526020019081526020016000206003016000828254620026b8919062003e29565b92505081905550806000808973ffffffffffffffffffffffffffffffffffffffff1673ffffffffffffffffffffffffffffffffffffffff168152602001908152602001600020600401600082825462002712919062003e29565b9250508190555060008060008973ffffffffffffffffffffffffffffffffffffffff1673ffffffffffffffffffffffffffffffffffffffff16815260200190815260200160002060010160009054906101000a900473ffffffffffffffffffffffffffffffffffffffff16905060008060008a73ffffffffffffffffffffffffffffffffffffffff1673ffffffffffffffffffffffffffffffffffffffff16815260200190815260200160002060020160009054906101000a900473ffffffffffffffffffffffffffffffffffffffff1690508173ffffffffffffffffffffffffffffffffffffffff1663a9059cbb33866040518363ffffffff1660e01b815260040162002822929190620035b5565b6020604051808303816000875af115801562002842573d6000803e3d6000fd5b505050506040513d601f19601f82011682018060405250810190620028689190620035f9565b620028aa576040517f08c379a0000000000000000000000000000000000000000000000000000000008152600401620028a1906200367b565b60405180910390fd5b8073ffffffffffffffffffffffffffffffffffffffff1663a9059cbb33856040518363ffffffff1660e01b8152600401620028e7929190620035b5565b6020604051808303816000875af115801562002907573d6000803e3d6000fd5b505050506040513d601f19601f820116820180604052508101906200292d9190620035f9565b6200296f576040517f08c379a000000000000000000000000000000000000000000000000000000000815260040162002966906200367b565b60405180910390fd5b8473ffffffffffffffffffffffffffffffffffffffff16639dc29fac338a6040518363ffffffff1660e01b8152600401620029ac929190620035b5565b6020604051808303816000875af1158015620029cc573d6000803e3d6000fd5b505050506040513d601f19601f82011682018060405250810190620029f29190620035f9565b620029fc57600080fd5b83839650965050505050509250929050565b600082848362002a1f9190620032ba565b62002a2b91906200334a565b90509392505050565b6000806000808473ffffffffffffffffffffffffffffffffffffffff1673ffffffffffffffffffffffffffffffffffffffff1681526020019081526020016000206040518060c00160405290816000820160009054906101000a900473ffffffffffffffffffffffffffffffffffffffff1673ffffffffffffffffffffffffffffffffffffffff1673ffffffffffffffffffffffffffffffffffffffff1681526020016001820160009054906101000a900473ffffffffffffffffffffffffffffffffffffffff1673ffffffffffffffffffffffffffffffffffffffff1673ffffffffffffffffffffffffffffffffffffffff1681526020016002820160009054906101000a900473ffffffffffffffffffffffffffffffffffffffff1673ffffffffffffffffffffffffffffffffffffffff1673ffffffffffffffffffffffffffffffffffffffff16815260200160038201548152602001600482015481526020016005820160009054906101000a900460ff16151515158152505090508060a00151915050919050565b6000600382111562002c35578190506000600160028462002be291906200334a565b62002bee919062003558565b90505b8181101562002c2e57809150600281828562002c0e91906200334a565b62002c1a919062003558565b62002c2691906200334a565b905062002bf1565b5062002c44565b6000821462002c4357600190505b5b919050565b606083838360405160200162002c629392919062003f8a565b60405160208183030381529060405290509392505050565b611af98062003fc283390190565b6000604051905090565b600080fd5b600080fd5b6000819050919050565b62002cb18162002c9c565b811462002cbd57600080fd5b50565b60008135905062002cd18162002ca6565b92915050565b60008060006060848603121562002cf35762002cf262002c92565b5b600062002d038682870162002cc0565b935050602062002d168682870162002cc0565b925050604062002d298682870162002cc0565b9150509250925092565b62002d3e8162002c9c565b82525050565b600060208201905062002d5b600083018462002d33565b92915050565b600073ffffffffffffffffffffffffffffffffffffffff82169050919050565b600062002d8e8262002d61565b9050919050565b62002da08162002d81565b811462002dac57600080fd5b50565b60008135905062002dc08162002d95565b92915050565b60006020828403121562002ddf5762002dde62002c92565b5b600062002def8482850162002daf565b91505092915050565b6000806040838503121562002e125762002e1162002c92565b5b600062002e228582860162002daf565b925050602062002e358582860162002cc0565b9150509250929050565b62002e4a8162002d81565b82525050565b600060808201905062002e67600083018762002d33565b62002e76602083018662002d33565b62002e85604083018562002e3f565b62002e94606083018462002e3f565b95945050505050565b600062002eaa8262002d61565b9050919050565b62002ebc8162002e9d565b811462002ec857600080fd5b50565b60008135905062002edc8162002eb1565b92915050565b60008060006060848603121562002efe5762002efd62002c92565b5b600062002f0e8682870162002ecb565b935050602062002f218682870162002ecb565b925050604062002f348682870162002cc0565b9150509250925092565b600060208201905062002f55600083018462002e3f565b92915050565b60008060006060848603121562002f775762002f7662002c92565b5b600062002f878682870162002daf565b935050602062002f9a8682870162002daf565b925050604062002fad8682870162002cc0565b9150509250925092565b600060608201905062002fce600083018662002d33565b62002fdd602083018562002e3f565b62002fec604083018462002d33565b949350505050565b600080604083850312156200300e576200300d62002c92565b5b60006200301e8582860162002daf565b9250506020620030318582860162002daf565b9150509250929050565b60008115159050919050565b62003052816200303b565b82525050565b60006040820190506200306f600083018562003047565b6200307e602083018462002e3f565b9392505050565b62003090816200303b565b81146200309c57600080fd5b50565b600081359050620030b08162003085565b92915050565b60008060008060008060c08789031215620030d657620030d562002c92565b5b6000620030e689828a016200309f565b9650506020620030f989828a0162002cc0565b95505060406200310c89828a0162002cc0565b94505060606200311f89828a0162002cc0565b93505060806200313289828a0162002cc0565b92505060a06200314589828a0162002cc0565b9150509295509295509295565b600060c08201905062003169600083018962002e3f565b62003178602083018862002e3f565b62003187604083018762002e3f565b62003196606083018662002d33565b620031a5608083018562002d33565b620031b460a083018462003047565b979650505050505050565b60008060008060808587031215620031dc57620031db62002c92565b5b6000620031ec8782880162002ecb565b9450506020620031ff8782880162002ecb565b9350506040620032128782880162002cc0565b9250506060620032258782880162002cc0565b91505092959194509250565b600060408201905062003248600083018562002e3f565b62003257602083018462002e3f565b9392505050565b600060408201905062003275600083018562002d33565b62003284602083018462002d33565b9392505050565b7f4e487b7100000000000000000000000000000000000000000000000000000000600052601160045260246000fd5b6000620032c78262002c9c565b9150620032d48362002c9c565b9250817fffffffffffffffffffffffffffffffffffffffffffffffffffffffffffffffff048311821515161562003310576200330f6200328b565b5b828202905092915050565b7f4e487b7100000000000000000000000000000000000000000000000000000000600052601260045260246000fd5b6000620033578262002c9c565b9150620033648362002c9c565b9250826200337757620033766200331b565b5b828204905092915050565b600081519050620033938162002ca6565b92915050565b600060208284031215620033b257620033b162002c92565b5b6000620033c28482850162003382565b91505092915050565b600082825260208201905092915050565b7f496e76616c696420506f6f6c2e00000000000000000000000000000000000000600082015250565b600062003414600d83620033cb565b91506200342182620033dc565b602082019050919050565b60006020820190508181036000830152620034478162003405565b9050919050565b7f496e76616c696420706f6f6c0000000000000000000000000000000000000000600082015250565b600062003486600c83620033cb565b915062003493826200344e565b602082019050919050565b60006020820190508181036000830152620034b98162003477565b9050919050565b7f506f6f6c206973206e6f742065786973742c20706c656173652063726561746560008201527f2061206e657720706f6f6c2e0000000000000000000000000000000000000000602082015250565b60006200351e602c83620033cb565b91506200352b82620034c0565b604082019050919050565b6000602082019050818103600083015262003551816200350f565b9050919050565b6000620035658262002c9c565b9150620035728362002c9c565b9250827fffffffffffffffffffffffffffffffffffffffffffffffffffffffffffffffff03821115620035aa57620035a96200328b565b5b828201905092915050565b6000604082019050620035cc600083018562002e3f565b620035db602083018462002d33565b9392505050565b600081519050620035f38162003085565b92915050565b60006020828403121562003612576200361162002c92565b5b60006200362284828501620035e2565b91505092915050565b7f5472616e73616374696f6e206661696c65642e00000000000000000000000000600082015250565b600062003663601383620033cb565b915062003670826200362b565b602082019050919050565b60006020820190508181036000830152620036968162003654565b9050919050565b6000606082019050620036b4600083018662002e3f565b620036c3602083018562002e3f565b620036d2604083018462002d33565b949350505050565b7f496e76616c696420506f6f6c0000000000000000000000000000000000000000600082015250565b600062003712600c83620033cb565b91506200371f82620036da565b602082019050919050565b60006020820190508181036000830152620037458162003703565b9050919050565b7f506f6f6c206973206e6f742065786973742e0000000000000000000000000000600082015250565b600062003784601283620033cb565b915062003791826200374c565b602082019050919050565b60006020820190508181036000830152620037b78162003775565b9050919050565b7f496e76616c696420546f6b656e20506169720000000000000000000000000000600082015250565b6000620037f6601283620033cb565b91506200380382620037be565b602082019050919050565b600060208201905081810360008301526200382981620037e7565b9050919050565b60008160601b9050919050565b60006200384a8262003830565b9050919050565b60006200385e826200383d565b9050919050565b6200387a620038748262002d81565b62003851565b82525050565b60006200388e828562003865565b601482019150620038a0828462003865565b6014820191508190509392505050565b7f496e76616c6964206c697175696469747920706f6f6c2e000000000000000000600082015250565b6000620038e8601783620033cb565b9150620038f582620038b0565b602082019050919050565b600060208201905081810360008301526200391b81620038d9565b9050919050565b7f506f6f6c20616c72656164792065786973740000000000000000000000000000600082015250565b60006200395a601283620033cb565b9150620039678262003922565b602082019050919050565b600060208201905081810360008301526200398d816200394b565b9050919050565b7f4e6f7420656e6f75676820746f6b656e2061726520616c6c6f77656420746f2060008201527f706572666f726d207468697320616374696f6e2e000000000000000000000000602082015250565b6000620039f2603483620033cb565b9150620039ff8262003994565b604082019050919050565b6000602082019050818103600083015262003a2581620039e3565b9050919050565b600080fd5b600080fd5b6000601f19601f8301169050919050565b7f4e487b7100000000000000000000000000000000000000000000000000000000600052604160045260246000fd5b62003a818262003a36565b810181811067ffffffffffffffff8211171562003aa35762003aa262003a47565b5b80604052505050565b600062003ab862002c88565b905062003ac6828262003a76565b919050565b600067ffffffffffffffff82111562003ae95762003ae862003a47565b5b62003af48262003a36565b9050602081019050919050565b60005b8381101562003b2157808201518184015260208101905062003b04565b8381111562003b31576000848401525b50505050565b600062003b4e62003b488462003acb565b62003aac565b90508281526020810184848401111562003b6d5762003b6c62003a31565b5b62003b7a84828562003b01565b509392505050565b600082601f83011262003b9a5762003b9962003a2c565b5b815162003bac84826020860162003b37565b91505092915050565b60006020828403121562003bce5762003bcd62002c92565b5b600082015167ffffffffffffffff81111562003bef5762003bee62002c97565b5b62003bfd8482850162003b82565b91505092915050565b7f4c50540000000000000000000000000000000000000000000000000000000000600082015250565b600062003c3e600383620033cb565b915062003c4b8262003c06565b602082019050919050565b600081519050919050565b600062003c6e8262003c56565b62003c7a8185620033cb565b935062003c8c81856020860162003b01565b62003c978162003a36565b840191505092915050565b6000819050919050565b600060ff82169050919050565b6000819050919050565b600062003ce462003cde62003cd88462003ca2565b62003cb9565b62003cac565b9050919050565b62003cf68162003cc3565b82525050565b6000606082019050818103600083015262003d178162003c2f565b9050818103602083015262003d2d818562003c61565b905062003d3e604083018462003ceb565b9392505050565b7f4c697175696469747920506f6f6c206e6f7420666f756e642e00000000000000600082015250565b600062003d7d601983620033cb565b915062003d8a8262003d45565b602082019050919050565b6000602082019050818103600083015262003db08162003d6e565b9050919050565b7f4e6f7420656e6f75676820746f6b656e00000000000000000000000000000000600082015250565b600062003def601083620033cb565b915062003dfc8262003db7565b602082019050919050565b6000602082019050818103600083015262003e228162003de0565b9050919050565b600062003e368262002c9c565b915062003e438362002c9c565b92508282101562003e595762003e586200328b565b5b828203905092915050565b7f5472616e73616374696f6e206661696c65640000000000000000000000000000600082015250565b600062003e9c601283620033cb565b915062003ea98262003e64565b602082019050919050565b6000602082019050818103600083015262003ecf8162003e8d565b9050919050565b7f4e6f7420656e6f75676820616d6f756e74000000000000000000000000000000600082015250565b600062003f0e601183620033cb565b915062003f1b8262003ed6565b602082019050919050565b6000602082019050818103600083015262003f418162003eff565b9050919050565b600081905092915050565b600062003f608262003c56565b62003f6c818562003f48565b935062003f7e81856020860162003b01565b80840191505092915050565b600062003f98828662003f53565b915062003fa6828562003f53565b915062003fb4828462003f53565b915081905094935050505056fe60806040523480156200001157600080fd5b5060405162001af938038062001af983398181016040528101906200003791906200045d565b8282826000836000908051906020019062000054929190620001d2565b5082600190805190602001906200006d929190620001d2565b5081600260006101000a81548160ff021916908360ff1602179055508060038190555033600460006101000a81548173ffffffffffffffffffffffffffffffffffffffff021916908373ffffffffffffffffffffffffffffffffffffffff16021790555060035460056000600460009054906101000a900473ffffffffffffffffffffffffffffffffffffffff1673ffffffffffffffffffffffffffffffffffffffff1673ffffffffffffffffffffffffffffffffffffffff16815260200190815260200160002081905550600460009054906101000a900473ffffffffffffffffffffffffffffffffffffffff1673ffffffffffffffffffffffffffffffffffffffff16600073ffffffffffffffffffffffffffffffffffffffff167fddf252ad1be2c89b69c2b068fc378daa952ba7f163c4a11628f55a4df523b3ef600354604051620001bd919062000512565b60405180910390a35050505050505062000594565b828054620001e0906200055e565b90600052602060002090601f01602090048101928262000204576000855562000250565b82601f106200021f57805160ff191683800117855562000250565b8280016001018555821562000250579182015b828111156200024f57825182559160200191906001019062000232565b5b5090506200025f919062000263565b5090565b5b808211156200027e57600081600090555060010162000264565b5090565b6000604051905090565b600080fd5b600080fd5b600080fd5b600080fd5b6000601f19601f8301169050919050565b7f4e487b7100000000000000000000000000000000000000000000000000000000600052604160045260246000fd5b620002eb82620002a0565b810181811067ffffffffffffffff821117156200030d576200030c620002b1565b5b80604052505050565b60006200032262000282565b9050620003308282620002e0565b919050565b600067ffffffffffffffff821115620003535762000352620002b1565b5b6200035e82620002a0565b9050602081019050919050565b60005b838110156200038b5780820151818401526020810190506200036e565b838111156200039b576000848401525b50505050565b6000620003b8620003b28462000335565b62000316565b905082815260208101848484011115620003d757620003d66200029b565b5b620003e48482856200036b565b509392505050565b600082601f83011262000404576200040362000296565b5b815162000416848260208601620003a1565b91505092915050565b600060ff82169050919050565b62000437816200041f565b81146200044357600080fd5b50565b60008151905062000457816200042c565b92915050565b6000806000606084860312156200047957620004786200028c565b5b600084015167ffffffffffffffff8111156200049a576200049962000291565b5b620004a886828701620003ec565b935050602084015167ffffffffffffffff811115620004cc57620004cb62000291565b5b620004da86828701620003ec565b9250506040620004ed8682870162000446565b9150509250925092565b6000819050919050565b6200050c81620004f7565b82525050565b600060208201905062000529600083018462000501565b92915050565b7f4e487b7100000000000000000000000000000000000000000000000000000000600052602260045260246000fd5b600060028204905060018216806200057757607f821691505b602082108114156200058e576200058d6200052f565b5b50919050565b61155580620005a46000396000f3fe608060405234801561001057600080fd5b50600436106101005760003560e01c806395d89b4111610097578063b5931f7c11610066578063b5931f7c146102eb578063d05c78da1461031b578063dd62ed3e1461034b578063e6cb90131461037b57610100565b806395d89b411461023d5780639dc29fac1461025b578063a293d1e81461028b578063a9059cbb146102bb57610100565b8063313ce567116100d3578063313ce567146101a15780633eaaf86b146101bf57806340c10f19146101dd57806370a082311461020d57610100565b806306fdde0314610105578063095ea7b31461012357806318160ddd1461015357806323b872dd14610171575b600080fd5b61010d6103ab565b60405161011a9190610f95565b60405180910390f35b61013d60048036038101906101389190611050565b610439565b60405161014a91906110ab565b60405180910390f35b61015b61052b565b60405161016891906110d5565b60405180910390f35b61018b600480360381019061018691906110f0565b610535565b60405161019891906110ab565b60405180910390f35b6101a96107c5565b6040516101b6919061115f565b60405180910390f35b6101c76107d8565b6040516101d491906110d5565b60405180910390f35b6101f760048036038101906101f29190611050565b6107de565b60405161020491906110ab565b60405180910390f35b6102276004803603810190610222919061117a565b610950565b60405161023491906110d5565b60405180910390f35b610245610999565b6040516102529190610f95565b60405180910390f35b61027560048036038101906102709190611050565b610a27565b60405161028291906110ab565b60405180910390f35b6102a560048036038101906102a091906111a7565b610c4c565b6040516102b291906110d5565b60405180910390f35b6102d560048036038101906102d09190611050565b610c6f565b6040516102e291906110ab565b60405180910390f35b610305600480360381019061030091906111a7565b610df8565b60405161031291906110d5565b60405180910390f35b610335600480360381019061033091906111a7565b610e1a565b60405161034291906110d5565b60405180910390f35b610365600480360381019061036091906111e7565b610e52565b60405161037291906110d5565b60405180910390f35b610395600480360381019061039091906111a7565b610ed9565b6040516103a291906110d5565b60405180910390f35b600180546103b890611256565b80601f01602080910402602001604051908101604052809291908181526020018280546103e490611256565b80156104315780601f1061040657610100808354040283529160200191610431565b820191906000526020600020905b81548152906001019060200180831161041457829003601f168201915b505050505081565b600081600660003373ffffffffffffffffffffffffffffffffffffffff1673ffffffffffffffffffffffffffffffffffffffff16815260200190815260200160002060008573ffffffffffffffffffffffffffffffffffffffff1673ffffffffffffffffffffffffffffffffffffffff168152602001908152602001600020819055508273ffffffffffffffffffffffffffffffffffffffff163373ffffffffffffffffffffffffffffffffffffffff167f8c5be1e5ebec7d5bd14f71427d1e84f3dd0314c0f7b2291e5b200ac8c7c3b9258460405161051991906110d5565b60405180910390a36001905092915050565b6000600354905090565b6000610580600560008673ffffffffffffffffffffffffffffffffffffffff1673ffffffffffffffffffffffffffffffffffffffff1681526020019081526020016000205483610c4c565b600560008673ffffffffffffffffffffffffffffffffffffffff1673ffffffffffffffffffffffffffffffffffffffff16815260200190815260200160002081905550610649600660008673ffffffffffffffffffffffffffffffffffffffff1673ffffffffffffffffffffffffffffffffffffffff16815260200190815260200160002060003373ffffffffffffffffffffffffffffffffffffffff1673ffffffffffffffffffffffffffffffffffffffff1681526020019081526020016000205483610c4c565b600660008673ffffffffffffffffffffffffffffffffffffffff1673ffffffffffffffffffffffffffffffffffffffff16815260200190815260200160002060003373ffffffffffffffffffffffffffffffffffffffff1673ffffffffffffffffffffffffffffffffffffffff16815260200190815260200160002081905550610712600560008573ffffffffffffffffffffffffffffffffffffffff1673ffffffffffffffffffffffffffffffffffffffff1681526020019081526020016000205483610ed9565b600560008573ffffffffffffffffffffffffffffffffffffffff1673ffffffffffffffffffffffffffffffffffffffff168152602001908152602001600020819055508273ffffffffffffffffffffffffffffffffffffffff168473ffffffffffffffffffffffffffffffffffffffff167fddf252ad1be2c89b69c2b068fc378daa952ba7f163c4a11628f55a4df523b3ef846040516107b291906110d5565b60405180910390a3600190509392505050565b600260009054906101000a900460ff1681565b60035481565b6000338073ffffffffffffffffffffffffffffffffffffffff16600460009054906101000a900473ffffffffffffffffffffffffffffffffffffffff1673ffffffffffffffffffffffffffffffffffffffff161461083b57600080fd5b826003600082825461084d91906112b7565b9250508190555061089d600560008673ffffffffffffffffffffffffffffffffffffffff1673ffffffffffffffffffffffffffffffffffffffff1681526020019081526020016000205484610ed9565b600560008673ffffffffffffffffffffffffffffffffffffffff1673ffffffffffffffffffffffffffffffffffffffff168152602001908152602001600020819055508373ffffffffffffffffffffffffffffffffffffffff163373ffffffffffffffffffffffffffffffffffffffff167fddf252ad1be2c89b69c2b068fc378daa952ba7f163c4a11628f55a4df523b3ef8560405161093d91906110d5565b60405180910390a3600191505092915050565b6000600560008373ffffffffffffffffffffffffffffffffffffffff1673ffffffffffffffffffffffffffffffffffffffff168152602001908152602001600020549050919050565b600080546109a690611256565b80601f01602080910402602001604051908101604052809291908181526020018280546109d290611256565b8015610a1f5780601f106109f457610100808354040283529160200191610a1f565b820191906000526020600020905b815481529060010190602001808311610a0257829003601f168201915b505050505081565b6000338073ffffffffffffffffffffffffffffffffffffffff16600460009054906101000a900473ffffffffffffffffffffffffffffffffffffffff1673ffffffffffffffffffffffffffffffffffffffff1614610a8457600080fd5b600073ffffffffffffffffffffffffffffffffffffffff168473ffffffffffffffffffffffffffffffffffffffff161415610af4576040517f08c379a0000000000000000000000000000000000000000000000000000000008152600401610aeb9061137f565b60405180910390fd5b6000600560008673ffffffffffffffffffffffffffffffffffffffff1673ffffffffffffffffffffffffffffffffffffffff16815260200190815260200160002054905083811015610b7b576040517f08c379a0000000000000000000000000000000000000000000000000000000008152600401610b7290611411565b60405180910390fd5b610b858185610c4c565b600560008773ffffffffffffffffffffffffffffffffffffffff1673ffffffffffffffffffffffffffffffffffffffff16815260200190815260200160002081905550610bd460035485610c4c565b600381905550600073ffffffffffffffffffffffffffffffffffffffff168573ffffffffffffffffffffffffffffffffffffffff167fddf252ad1be2c89b69c2b068fc378daa952ba7f163c4a11628f55a4df523b3ef86604051610c3891906110d5565b60405180910390a360019250505092915050565b600082821115610c5b57600080fd5b8183610c679190611431565b905092915050565b6000610cba600560003373ffffffffffffffffffffffffffffffffffffffff1673ffffffffffffffffffffffffffffffffffffffff1681526020019081526020016000205483610c4c565b600560003373ffffffffffffffffffffffffffffffffffffffff1673ffffffffffffffffffffffffffffffffffffffff16815260200190815260200160002081905550610d46600560008573ffffffffffffffffffffffffffffffffffffffff1673ffffffffffffffffffffffffffffffffffffffff1681526020019081526020016000205483610ed9565b600560008573ffffffffffffffffffffffffffffffffffffffff1673ffffffffffffffffffffffffffffffffffffffff168152602001908152602001600020819055508273ffffffffffffffffffffffffffffffffffffffff163373ffffffffffffffffffffffffffffffffffffffff167fddf252ad1be2c89b69c2b068fc378daa952ba7f163c4a11628f55a4df523b3ef84604051610de691906110d5565b60405180910390a36001905092915050565b6000808211610e0657600080fd5b8183610e129190611494565b905092915050565b60008183610e2891906114c5565b90506000831480610e435750818382610e419190611494565b145b610e4c57600080fd5b92915050565b6000600660008473ffffffffffffffffffffffffffffffffffffffff1673ffffffffffffffffffffffffffffffffffffffff16815260200190815260200160002060008373ffffffffffffffffffffffffffffffffffffffff1673ffffffffffffffffffffffffffffffffffffffff16815260200190815260200160002054905092915050565b60008183610ee791906112b7565b905082811015610ef657600080fd5b92915050565b600081519050919050565b600082825260208201905092915050565b60005b83811015610f36578082015181840152602081019050610f1b565b83811115610f45576000848401525b50505050565b6000601f19601f8301169050919050565b6000610f6782610efc565b610f718185610f07565b9350610f81818560208601610f18565b610f8a81610f4b565b840191505092915050565b60006020820190508181036000830152610faf8184610f5c565b905092915050565b600080fd5b600073ffffffffffffffffffffffffffffffffffffffff82169050919050565b6000610fe782610fbc565b9050919050565b610ff781610fdc565b811461100257600080fd5b50565b60008135905061101481610fee565b92915050565b6000819050919050565b61102d8161101a565b811461103857600080fd5b50565b60008135905061104a81611024565b92915050565b6000806040838503121561106757611066610fb7565b5b600061107585828601611005565b92505060206110868582860161103b565b9150509250929050565b60008115159050919050565b6110a581611090565b82525050565b60006020820190506110c0600083018461109c565b92915050565b6110cf8161101a565b82525050565b60006020820190506110ea60008301846110c6565b92915050565b60008060006060848603121561110957611108610fb7565b5b600061111786828701611005565b935050602061112886828701611005565b92505060406111398682870161103b565b9150509250925092565b600060ff82169050919050565b61115981611143565b82525050565b60006020820190506111746000830184611150565b92915050565b6000602082840312156111905761118f610fb7565b5b600061119e84828501611005565b91505092915050565b600080604083850312156111be576111bd610fb7565b5b60006111cc8582860161103b565b92505060206111dd8582860161103b565b9150509250929050565b600080604083850312156111fe576111fd610fb7565b5b600061120c85828601611005565b925050602061121d85828601611005565b9150509250929050565b7f4e487b7100000000000000000000000000000000000000000000000000000000600052602260045260246000fd5b6000600282049050600182168061126e57607f821691505b6020821081141561128257611281611227565b5b50919050565b7f4e487b7100000000000000000000000000000000000000000000000000000000600052601160045260246000fd5b60006112c28261101a565b91506112cd8361101a565b9250827fffffffffffffffffffffffffffffffffffffffffffffffffffffffffffffffff0382111561130257611301611288565b5b828201905092915050565b7f45524332303a206275726e2066726f6d20746865207a65726f2061646472657360008201527f7300000000000000000000000000000000000000000000000000000000000000602082015250565b6000611369602183610f07565b91506113748261130d565b604082019050919050565b600060208201905081810360008301526113988161135c565b9050919050565b7f45524332303a206275726e20616d6f756e7420657863656564732062616c616e60008201527f6365000000000000000000000000000000000000000000000000000000000000602082015250565b60006113fb602283610f07565b91506114068261139f565b604082019050919050565b6000602082019050818103600083015261142a816113ee565b9050919050565b600061143c8261101a565b91506114478361101a565b92508282101561145a57611459611288565b5b828203905092915050565b7f4e487b7100000000000000000000000000000000000000000000000000000000600052601260045260246000fd5b600061149f8261101a565b91506114aa8361101a565b9250826114ba576114b9611465565b5b828204905092915050565b60006114d08261101a565b91506114db8361101a565b9250817fffffffffffffffffffffffffffffffffffffffffffffffffffffffffffffffff048311821515161561151457611513611288565b5b82820290509291505056fea26469706673582212205bcc85e670f793b72093c1d1ae580b1f9e04c9aec846c969e8a6ed82ac7bf4be64736f6c634300080a0033a2646970667358221220f3d0ed5734da0b6de0adf604946a25fc7216bf840776490bf1ae57acf7d1803d64736f6c634300080a0033",
  "immutableReferences": {},
  "source": "//SPDX-License-Identifier:MIT\r\npragma solidity ^0.8.0;\r\n\r\nimport \"./token.sol\";\r\n//import \"hardhat/console.sol\";\r\n\r\ncontract dex{\r\n    struct Pool{\r\n        address poolToken;\r\n        address token1;\r\n        address token2;\r\n        uint256 token1Balance;\r\n        uint256 token2Balance;                      \r\n        bool isAdded;\r\n    }\r\n\r\n    mapping(address => Pool) public liquidityPool;\r\n    address private owner;        \r\n\r\n    constructor(){                                                                          \r\n        owner = msg.sender;\r\n    }\r\n\r\n    function checkBalances(address token)public view returns(uint){\r\n        return ERC20Interface(token).balanceOf(msg.sender);\r\n    }\r\n\r\n    function isPoolExist(address tokenA, address tokenB)public view returns(bool,address){\r\n        require(tokenA != tokenB,\"Invalid Token Pair\");\r\n        address poolId = generatePoolId(tokenA,tokenB);\r\n        return (isPoolExist(poolId),poolId);\r\n    }\r\n    //END\r\n\r\n    function fundLiquidityPool(address payable token1, address payable token2, uint token1Amount) public payable returns(address){\r\n        require(token1 != token2,\"Invalid pool\");    \r\n        address poolAddress = generatePoolId(token1,token2);\r\n        require(isPoolExist(poolAddress),\"Pool is not exist, please create a new pool.\");        \r\n        \r\n        uint token2Amount = computePrice(liquidityPool[poolAddress].token1Balance,liquidityPool[poolAddress].token2Balance,token1Amount);  \r\n\r\n        liquidityPool[poolAddress].token2Balance += token2Amount;\r\n        liquidityPool[poolAddress].token1Balance += token1Amount;\r\n\r\n        //Add liquidity\r\n        ERC20Interface poolToken = ERC20Interface(liquidityPool[poolAddress].poolToken);\r\n        \r\n        uint tokenReceived = calculateLPToken(false,token1Amount,token2Amount,liquidityPool[poolAddress].token1Balance,liquidityPool[poolAddress].token2Balance,poolToken.totalSupply());\r\n              \r\n        require(poolToken.mint(msg.sender,tokenReceived),\"Transaction failed.\");\r\n        //require(poolToken.transfer(msg.sender,tokenReceived),\"Transaction failed.\");\r\n\r\n        ERC20Interface tokenA = ERC20Interface(token1);\r\n        ERC20Interface tokenB = ERC20Interface(token2);\r\n\r\n        tokenA.transferFrom(msg.sender, address(this),token1Amount);\r\n        tokenB.transferFrom(msg.sender, address(this),token2Amount);\r\n        return poolAddress;\r\n    }\r\n\r\n    function addLiquidityPool(address payable token1, address payable token2, uint token1Amount, uint token2Amount) public payable returns(address,address){\r\n        require(token1 != token2,\"Invalid liquidity pool.\");\r\n        address poolAddress = generatePoolId(token1,token2);\r\n\r\n        require(!liquidityPool[poolAddress].isAdded,\"Pool already exist\");\r\n        //need to call approve first\r\n        ERC20Interface tokenA = ERC20Interface(token1);\r\n        ERC20Interface tokenB = ERC20Interface(token2);\r\n\r\n        require(tokenA.allowance(msg.sender, address(this)) >= token1Amount,\"Not enough token are allowed to perform this action.\");        \r\n        require(tokenB.allowance(msg.sender,address(this)) >= token2Amount, \"Not enough token are allowed to perform this action.\");\r\n\r\n        //console.log(\"Progress\", \"Gained Approval\");\r\n        \r\n        require(tokenA.transferFrom(msg.sender,address(this),token1Amount),\"Transaction failed.\");\r\n        require(tokenB.transferFrom(msg.sender,address(this),token2Amount),\"Transaction failed.\");\r\n        //console.log(\"Progress\", \"Token Transfer completed\");\r\n\r\n        MintableToken poolToken = new MintableToken(\"LPT\",concat(tokenA.symbol(),\"-\",tokenB.symbol()),8);        \r\n        \r\n        uint tokenReceived = calculateLPToken(true,token1Amount,token2Amount,0,0,poolToken.totalSupply()); //By Default Pool is empty\r\n        liquidityPool[poolAddress] = Pool(address(poolToken),token1,token2,token1Amount,token2Amount,true);        \r\n        require(poolToken.mint(msg.sender,tokenReceived),\"Transaction failed.\");\r\n        \r\n        //console.log(\"Progress\", \"Liquidity Pool created.\");\r\n        return (poolAddress,address(poolToken));\r\n    }\r\n\r\n    function convertLPTokenToToken(uint lpAmount, uint totalSupply, uint tokenReserve)public pure returns(uint){\r\n        return tokenReserve * lpAmount / totalSupply;\r\n    }\r\n\r\n    function withdrawFund(address pool, uint amount)public payable returns(uint,uint){   \r\n        ERC20Interface poolToken = ERC20Interface(liquidityPool[pool].poolToken);\r\n        require(poolToken.balanceOf(msg.sender) >= amount,\"Not enough amount\");\r\n    \r\n        uint token1Received = convertLPTokenToToken(amount,poolToken.totalSupply(),liquidityPool[pool].token1Balance);\r\n        uint token2Received = convertLPTokenToToken(amount,poolToken.totalSupply(),liquidityPool[pool].token2Balance);        \r\n\r\n        liquidityPool[pool].token1Balance -= token1Received;\r\n        liquidityPool[pool].token2Balance -= token2Received;  \r\n\r\n        ERC20Interface tokenA = ERC20Interface(liquidityPool[pool].token1);\r\n        ERC20Interface tokenB = ERC20Interface(liquidityPool[pool].token2);\r\n\r\n        require(tokenA.transfer(msg.sender,token1Received),\"Transaction failed.\");\r\n        require(tokenB.transfer(msg.sender,token2Received),\"Transaction failed.\");\r\n\r\n        require(poolToken.burn(msg.sender,amount));                \r\n        return (token1Received,token2Received);       \r\n    }\r\n\r\n    function isPoolExist(address _address) private view returns(bool){\r\n        Pool memory pool = liquidityPool[_address];\r\n        return pool.isAdded;        \r\n    }\r\n\r\n    //PURE FUNCTION\r\n    //Retrieve amount of y \r\n    function computePrice(uint256 x, uint256 y, uint256 amount) public pure returns(uint256){\r\n        if(x == 0 && y == 0){   \r\n            return amount;\r\n        }\r\n        else{\r\n            return amount * x / y;     \r\n        }        \r\n    }\r\n\r\n    function generatePoolId(address tokenA, address tokenB) public pure returns (address){\r\n        (address token0, address token1) = tokenA < tokenB ? (tokenA, tokenB) : (tokenB, tokenA);        \r\n        return address(uint160(uint256(keccak256(abi.encodePacked(token0, token1)))));  \r\n    }\r\n\r\n    \r\n    function calculateInterest(uint tokenAmount,uint poolAmount,uint accumulatedInterest)public pure returns(uint){\r\n        return tokenAmount * accumulatedInterest / poolAmount;        \r\n    }\r\n\r\n    function calculateLPToken(bool isInitiator, uint token1Amount, uint token2Amount, uint token1Reserve, uint token2Reserve, uint totalSupply)public pure returns(uint){\r\n        if(!isInitiator){\r\n            uint resultA = token1Amount * totalSupply / token1Reserve;\r\n            uint resultB = token2Amount * totalSupply / token2Reserve;\r\n            return resultA > resultB ? resultB : resultA;\r\n        }\r\n        else{\r\n            return sqrt(token1Amount * token2Amount);\r\n        }\r\n    }\r\n\r\n    function sqrt(uint y) internal pure returns (uint z) {\r\n        if (y > 3) {\r\n            z = y;\r\n            uint x = y / 2 + 1;\r\n            while (x < z) {\r\n                z = x;\r\n                x = (y / x + x) / 2;\r\n            }\r\n        } else if (y != 0) {\r\n            z = 1;\r\n        }\r\n    }\r\n\r\n    modifier onlyOwner(address sender){\r\n        require(sender == owner,\"Only owner able to execute this action.\");\r\n        _;\r\n    }\r\n\r\n    function swap(address fromToken, address toToken, uint256 tokenX) public payable{\r\n        //Step 1: Select pool\r\n        address poolID = generatePoolId(fromToken, toToken);\r\n        require(liquidityPool[poolID].isAdded,\"Liquidity Pool not found.\");\r\n\r\n        //Step 2: Calculate K (here got no K value, we calculate manually)\r\n        uint k = liquidityPool[poolID].token1Balance * liquidityPool[poolID].token2Balance;\r\n\r\n        //Step 3: SWAP_X_to_Y        \r\n        ERC20Interface tokenFrom = ERC20Interface(fromToken);\r\n        ERC20Interface tokenTo = ERC20Interface(toToken);\r\n\r\n        require(tokenX <= tokenFrom.allowance(msg.sender,address(this)),\"Not enough token\");\r\n\r\n        //Step 3.1: Calculate different between y-(k/x)\r\n        uint difference = liquidityPool[poolID].token2Balance - (k/(liquidityPool[poolID].token1Balance+tokenX));\r\n                \r\n        //Step 3.2: Transfer the amount of difference from pool to user account\r\n        require(tokenTo.transfer(msg.sender, difference),\"Transaction failed.\"); //transfer\r\n\r\n        //Step 3.3: Transfer amount of TokenX (fromToken) from user account to pool\r\n        require(tokenFrom.transferFrom(msg.sender, address(this), tokenX),\"Transaction failed\"); //transferfrom\r\n            \r\n\t    //Step 3.4: update pool's token value\r\n        liquidityPool[poolID].token1Balance += tokenX; //plus because we add in the tokenX into Pool\r\n        liquidityPool[poolID].token2Balance -= difference; //minus because we already take the tokenY        \r\n    }\r\n\r\n    function estSwap(address fromToken,address toToken, uint256 tokenX)public view returns(uint){\r\n        address poolID = generatePoolId(fromToken, toToken);\r\n        require(liquidityPool[poolID].isAdded,\"Liquidity Pool not found.\");\r\n        \r\n        uint k = liquidityPool[poolID].token1Balance * liquidityPool[poolID].token2Balance;\r\n                \r\n        uint difference = liquidityPool[poolID].token2Balance - (k/(liquidityPool[poolID].token1Balance+tokenX));\r\n        return difference;\r\n    }\r\n\r\n    function estFundPool(address tokenA, address tokenB, uint amount)public view returns(uint amount2,address token2, uint share){\r\n        require(tokenA != tokenB,\"Invalid Pool\");\r\n        address poolAddress = generatePoolId(tokenA,tokenB);\r\n        require(isPoolExist(poolAddress),\"Pool is not exist.\");        \r\n        \r\n        uint token2Amount = computePrice(liquidityPool[poolAddress].token1Balance,liquidityPool[poolAddress].token2Balance,amount);  \r\n\r\n        ERC20Interface poolToken = ERC20Interface(liquidityPool[poolAddress].poolToken);\r\n        uint tokenReceived = calculateLPToken(false,amount,token2Amount,liquidityPool[poolAddress].token1Balance,liquidityPool[poolAddress].token2Balance,poolToken.totalSupply());\r\n\r\n        return (token2Amount,tokenB,tokenReceived * 1000 / poolToken.totalSupply());\r\n        //Return Amount Need To import for B, Address of B, And share in percentage (0 stands for < 0.01%)\r\n    }\r\n\r\n    function estWithdrawFund(address pool, uint amount)public view returns(uint amount1,uint amount2,address token1,address token2){\r\n        require(isPoolExist(pool),\"Invalid Pool.\");\r\n        \r\n        ERC20Interface poolToken = ERC20Interface(liquidityPool[pool].poolToken);\r\n    \r\n        uint token1Received = convertLPTokenToToken(amount,poolToken.totalSupply(),liquidityPool[pool].token1Balance);\r\n        uint token2Received = convertLPTokenToToken(amount,poolToken.totalSupply(),liquidityPool[pool].token2Balance);        \r\n              \r\n        return (token1Received,token2Received,liquidityPool[pool].token1,liquidityPool[pool].token2);\r\n    }\r\n\r\n    function concat(string memory a, string memory b, string memory c)private pure returns(string memory){\r\n        return string(abi.encodePacked(a, b,c));\r\n    }    \r\n}\r\n",
  "sourcePath": "B:\\Degree Material\\Year 3 Sem 2\\Block Chain Application\\Assignment\\Dex Platform\\contracts\\dex.sol",
  "compiler": {
    "name": "solc",
    "version": "0.8.10+commit.fc410830.Emscripten.clang"
  },
  "schemaVersion": "3.4.3",
  "updatedAt": "2021-12-09T06:23:29.617Z",
  "networkType": "ethereum",
  "devdoc": {
    "kind": "dev",
    "methods": {},
    "version": 1
  },
  "userdoc": {
    "kind": "user",
    "methods": {},
    "version": 1
  }
}