{
  "contractName": "dex",
  "abi": [
    {
      "inputs": [],
      "stateMutability": "nonpayable",
      "type": "constructor"
    },
    {
      "inputs": [
        {
          "internalType": "address",
          "name": "",
          "type": "address"
        }
      ],
      "name": "liquidityPool",
      "outputs": [
        {
          "internalType": "address",
          "name": "poolToken",
          "type": "address"
        },
        {
          "internalType": "address",
          "name": "token1",
          "type": "address"
        },
        {
          "internalType": "address",
          "name": "token2",
          "type": "address"
        },
        {
          "internalType": "uint256",
          "name": "token1Balance",
          "type": "uint256"
        },
        {
          "internalType": "uint256",
          "name": "token2Balance",
          "type": "uint256"
        },
        {
          "internalType": "bool",
          "name": "isAdded",
          "type": "bool"
        }
      ],
      "stateMutability": "view",
      "type": "function",
      "constant": true
    },
    {
      "inputs": [
        {
          "internalType": "address",
          "name": "token",
          "type": "address"
        }
      ],
      "name": "checkBalances",
      "outputs": [
        {
          "internalType": "uint256",
          "name": "",
          "type": "uint256"
        }
      ],
      "stateMutability": "view",
      "type": "function",
      "constant": true
    },
    {
      "inputs": [
        {
          "internalType": "address payable",
          "name": "token1",
          "type": "address"
        },
        {
          "internalType": "address payable",
          "name": "token2",
          "type": "address"
        },
        {
          "internalType": "uint256",
          "name": "token1Amount",
          "type": "uint256"
        }
      ],
      "name": "fundLiquidityPool",
      "outputs": [],
      "stateMutability": "payable",
      "type": "function",
      "payable": true
    },
    {
      "inputs": [
        {
          "internalType": "address payable",
          "name": "token1",
          "type": "address"
        },
        {
          "internalType": "address payable",
          "name": "token2",
          "type": "address"
        },
        {
          "internalType": "uint256",
          "name": "token1Amount",
          "type": "uint256"
        },
        {
          "internalType": "uint256",
          "name": "token2Amount",
          "type": "uint256"
        }
      ],
      "name": "addLiquidityPool",
      "outputs": [],
      "stateMutability": "payable",
      "type": "function",
      "payable": true
    },
    {
      "inputs": [
        {
          "internalType": "uint256",
          "name": "lpAmount",
          "type": "uint256"
        },
        {
          "internalType": "uint256",
          "name": "totalSupply",
          "type": "uint256"
        },
        {
          "internalType": "uint256",
          "name": "tokenReserve",
          "type": "uint256"
        }
      ],
      "name": "convertLPTokenToToken",
      "outputs": [
        {
          "internalType": "uint256",
          "name": "",
          "type": "uint256"
        }
      ],
      "stateMutability": "pure",
      "type": "function",
      "constant": true
    },
    {
      "inputs": [
        {
          "internalType": "address",
          "name": "pool",
          "type": "address"
        },
        {
          "internalType": "uint256",
          "name": "amount",
          "type": "uint256"
        }
      ],
      "name": "withdrawFund",
      "outputs": [
        {
          "internalType": "uint256",
          "name": "",
          "type": "uint256"
        },
        {
          "internalType": "uint256",
          "name": "",
          "type": "uint256"
        }
      ],
      "stateMutability": "payable",
      "type": "function",
      "payable": true
    },
    {
      "inputs": [
        {
          "internalType": "address",
          "name": "tokenA",
          "type": "address"
        },
        {
          "internalType": "address",
          "name": "tokenB",
          "type": "address"
        }
      ],
      "name": "isPoolExist",
      "outputs": [
        {
          "internalType": "bool",
          "name": "",
          "type": "bool"
        },
        {
          "internalType": "address",
          "name": "",
          "type": "address"
        }
      ],
      "stateMutability": "view",
      "type": "function",
      "constant": true
    },
    {
      "inputs": [
        {
          "internalType": "uint256",
          "name": "x",
          "type": "uint256"
        },
        {
          "internalType": "uint256",
          "name": "y",
          "type": "uint256"
        },
        {
          "internalType": "uint256",
          "name": "amount",
          "type": "uint256"
        }
      ],
      "name": "computePrice",
      "outputs": [
        {
          "internalType": "uint256",
          "name": "",
          "type": "uint256"
        }
      ],
      "stateMutability": "pure",
      "type": "function",
      "constant": true
    },
    {
      "inputs": [
        {
          "internalType": "address",
          "name": "tokenA",
          "type": "address"
        },
        {
          "internalType": "address",
          "name": "tokenB",
          "type": "address"
        }
      ],
      "name": "generatePoolId",
      "outputs": [
        {
          "internalType": "address",
          "name": "",
          "type": "address"
        }
      ],
      "stateMutability": "pure",
      "type": "function",
      "constant": true
    },
    {
      "inputs": [
        {
          "internalType": "bool",
          "name": "isInitiator",
          "type": "bool"
        },
        {
          "internalType": "uint256",
          "name": "token1Amount",
          "type": "uint256"
        },
        {
          "internalType": "uint256",
          "name": "token2Amount",
          "type": "uint256"
        },
        {
          "internalType": "uint256",
          "name": "token1Reserve",
          "type": "uint256"
        },
        {
          "internalType": "uint256",
          "name": "token2Reserve",
          "type": "uint256"
        },
        {
          "internalType": "uint256",
          "name": "totalSupply",
          "type": "uint256"
        }
      ],
      "name": "calculateLPToken",
      "outputs": [
        {
          "internalType": "uint256",
          "name": "",
          "type": "uint256"
        }
      ],
      "stateMutability": "pure",
      "type": "function",
      "constant": true
    },
    {
      "inputs": [
        {
          "internalType": "address",
          "name": "fromToken",
          "type": "address"
        },
        {
          "internalType": "address",
          "name": "toToken",
          "type": "address"
        },
        {
          "internalType": "uint256",
          "name": "tokenX",
          "type": "uint256"
        }
      ],
      "name": "swap",
      "outputs": [],
      "stateMutability": "payable",
      "type": "function",
      "payable": true
    },
    {
      "inputs": [
        {
          "internalType": "address",
          "name": "fromToken",
          "type": "address"
        },
        {
          "internalType": "address",
          "name": "toToken",
          "type": "address"
        },
        {
          "internalType": "uint256",
          "name": "tokenX",
          "type": "uint256"
        }
      ],
      "name": "estSwap",
      "outputs": [
        {
          "internalType": "uint256",
          "name": "",
          "type": "uint256"
        }
      ],
      "stateMutability": "view",
      "type": "function",
      "constant": true
    },
    {
      "inputs": [
        {
          "internalType": "address",
          "name": "tokenA",
          "type": "address"
        },
        {
          "internalType": "address",
          "name": "tokenB",
          "type": "address"
        },
        {
          "internalType": "uint256",
          "name": "amount",
          "type": "uint256"
        }
      ],
      "name": "estFundPool",
      "outputs": [
        {
          "internalType": "uint256",
          "name": "amount2",
          "type": "uint256"
        },
        {
          "internalType": "uint256",
          "name": "share",
          "type": "uint256"
        }
      ],
      "stateMutability": "view",
      "type": "function",
      "constant": true
    },
    {
      "inputs": [
        {
          "internalType": "address",
          "name": "pool",
          "type": "address"
        },
        {
          "internalType": "uint256",
          "name": "amount",
          "type": "uint256"
        }
      ],
      "name": "estWithdrawFund",
      "outputs": [
        {
          "internalType": "uint256",
          "name": "amount1",
          "type": "uint256"
        },
        {
          "internalType": "uint256",
          "name": "amount2",
          "type": "uint256"
        },
        {
          "internalType": "address",
          "name": "token1",
          "type": "address"
        },
        {
          "internalType": "address",
          "name": "token2",
          "type": "address"
        }
      ],
      "stateMutability": "view",
      "type": "function",
      "constant": true
    }
  ],
  "bytecode": "0x608060405234801561001057600080fd5b5033600160006101000a81548173ffffffffffffffffffffffffffffffffffffffff021916908373ffffffffffffffffffffffffffffffffffffffff160217905550615f82806100616000396000f3fe608060405260043610620000f25760003560e01c8063c0806db6116200008b578063df791e501162000061578063df791e501462000361578063e1d2e3ee1462000381578063f7c8d22114620003c5578063ff41a2d214620003fc57620000f2565b8063c0806db614620002b4578063d874c85a14620002fd578063dc869673146200034157620000f2565b806374c3b43311620000cd57806374c3b43314620001a25780637d93c52c14620001e6578063841bdb9e146200022b578063ac0ebe96146200027057620000f2565b806311cd682d14620000f757806341ba2805146200013b578063717939491462000182575b600080fd5b3480156200010457600080fd5b506200012360048036038101906200011d9190620030c6565b62000440565b60405162000132919062003113565b60405180910390f35b3480156200014857600080fd5b5062000167600480360381019062000161919062003161565b620004c8565b604051620001799493929190620031b9565b60405180910390f35b620001a060048036038101906200019a91906200324b565b620007e1565b005b348015620001af57600080fd5b50620001ce6004803603810190620001c89190620032a7565b62000f8b565b604051620001dd919062003113565b60405180910390f35b348015620001f357600080fd5b506200021260048036038101906200020c919062003303565b62000fce565b604051620002229291906200335f565b60405180910390f35b3480156200023857600080fd5b506200025760048036038101906200025191906200338c565b6200129c565b60405162000267929190620033f0565b60405180910390f35b3480156200027d57600080fd5b506200029c60048036038101906200029691906200344e565b62001339565b604051620002ab919062003113565b60405180910390f35b348015620002c157600080fd5b50620002e06004803603810190620002da9190620030c6565b620013bf565b604051620002f496959493929190620034ea565b60405180910390f35b3480156200030a57600080fd5b506200032960048036038101906200032391906200338c565b62001468565b60405162000338919062003557565b60405180910390f35b6200035f600480360381019062000359919062003574565b620014e8565b005b6200037f600480360381019062000379919062003303565b62001da0565b005b3480156200038e57600080fd5b50620003ad6004803603810190620003a7919062003303565b62002590565b604051620003bc919062003113565b60405180910390f35b620003e36004803603810190620003dd919062003161565b620028ab565b604051620003f39291906200335f565b60405180910390f35b3480156200040957600080fd5b50620004286004803603810190620004229190620032a7565b62002f07565b60405162000437919062003113565b60405180910390f35b60008173ffffffffffffffffffffffffffffffffffffffff166370a08231336040518263ffffffff1660e01b81526004016200047d919062003557565b602060405180830381865afa1580156200049b573d6000803e3d6000fd5b505050506040513d601f19601f82011682018060405250810190620004c19190620035fd565b9050919050565b600080600080620004d98662002f2d565b6200051b576040517f08c379a0000000000000000000000000000000000000000000000000000000008152600401620005129062003690565b60405180910390fd5b60008060008873ffffffffffffffffffffffffffffffffffffffff1673ffffffffffffffffffffffffffffffffffffffff16815260200190815260200160002060000160009054906101000a900473ffffffffffffffffffffffffffffffffffffffff169050600062000642878373ffffffffffffffffffffffffffffffffffffffff166318160ddd6040518163ffffffff1660e01b8152600401602060405180830381865afa158015620005d4573d6000803e3d6000fd5b505050506040513d601f19601f82011682018060405250810190620005fa9190620035fd565b6000808c73ffffffffffffffffffffffffffffffffffffffff1673ffffffffffffffffffffffffffffffffffffffff1681526020019081526020016000206003015462002f07565b9050600062000705888473ffffffffffffffffffffffffffffffffffffffff166318160ddd6040518163ffffffff1660e01b8152600401602060405180830381865afa15801562000697573d6000803e3d6000fd5b505050506040513d601f19601f82011682018060405250810190620006bd9190620035fd565b6000808d73ffffffffffffffffffffffffffffffffffffffff1673ffffffffffffffffffffffffffffffffffffffff1681526020019081526020016000206004015462002f07565b905081816000808c73ffffffffffffffffffffffffffffffffffffffff1673ffffffffffffffffffffffffffffffffffffffff16815260200190815260200160002060010160009054906101000a900473ffffffffffffffffffffffffffffffffffffffff166000808d73ffffffffffffffffffffffffffffffffffffffff1673ffffffffffffffffffffffffffffffffffffffff16815260200190815260200160002060020160009054906101000a900473ffffffffffffffffffffffffffffffffffffffff16965096509650965050505092959194509250565b8173ffffffffffffffffffffffffffffffffffffffff168373ffffffffffffffffffffffffffffffffffffffff16141562000853576040517f08c379a00000000000000000000000000000000000000000000000000000000081526004016200084a9062003702565b60405180910390fd5b600062000861848462001468565b90506200086e8162002f2d565b620008b0576040517f08c379a0000000000000000000000000000000000000000000000000000000008152600401620008a7906200379a565b60405180910390fd5b60008211620008f6576040517f08c379a0000000000000000000000000000000000000000000000000000000008152600401620008ed9062003832565b60405180910390fd5b60008060008373ffffffffffffffffffffffffffffffffffffffff1673ffffffffffffffffffffffffffffffffffffffff16815260200190815260200160002060010160009054906101000a900473ffffffffffffffffffffffffffffffffffffffff1673ffffffffffffffffffffffffffffffffffffffff168573ffffffffffffffffffffffffffffffffffffffff16141562000ae55760008060008473ffffffffffffffffffffffffffffffffffffffff1673ffffffffffffffffffffffffffffffffffffffff16815260200190815260200160002060030154905060008060008573ffffffffffffffffffffffffffffffffffffffff1673ffffffffffffffffffffffffffffffffffffffff16815260200190815260200160002060040154905062000a2782828762000f8b565b9250846000808673ffffffffffffffffffffffffffffffffffffffff1673ffffffffffffffffffffffffffffffffffffffff168152602001908152602001600020600301600082825462000a7c919062003883565b92505081905550826000808673ffffffffffffffffffffffffffffffffffffffff1673ffffffffffffffffffffffffffffffffffffffff168152602001908152602001600020600401600082825462000ad6919062003883565b92505081905550505062000c37565b60008060008473ffffffffffffffffffffffffffffffffffffffff1673ffffffffffffffffffffffffffffffffffffffff16815260200190815260200160002060040154905060008060008573ffffffffffffffffffffffffffffffffffffffff1673ffffffffffffffffffffffffffffffffffffffff16815260200190815260200160002060030154905062000b7e82828762000f8b565b9250846000808673ffffffffffffffffffffffffffffffffffffffff1673ffffffffffffffffffffffffffffffffffffffff168152602001908152602001600020600401600082825462000bd3919062003883565b92505081905550826000808673ffffffffffffffffffffffffffffffffffffffff1673ffffffffffffffffffffffffffffffffffffffff168152602001908152602001600020600301600082825462000c2d919062003883565b9250508190555050505b60008060008473ffffffffffffffffffffffffffffffffffffffff1673ffffffffffffffffffffffffffffffffffffffff16815260200190815260200160002060000160009054906101000a900473ffffffffffffffffffffffffffffffffffffffff169050600062000da3600086856000808973ffffffffffffffffffffffffffffffffffffffff1673ffffffffffffffffffffffffffffffffffffffff168152602001908152602001600020600301546000808a73ffffffffffffffffffffffffffffffffffffffff1673ffffffffffffffffffffffffffffffffffffffff168152602001908152602001600020600401548773ffffffffffffffffffffffffffffffffffffffff166318160ddd6040518163ffffffff1660e01b8152600401602060405180830381865afa15801562000d77573d6000803e3d6000fd5b505050506040513d601f19601f8201168201806040525081019062000d9d9190620035fd565b62001339565b90508173ffffffffffffffffffffffffffffffffffffffff166340c10f1933836040518363ffffffff1660e01b815260040162000de2929190620038e0565b6020604051808303816000875af115801562000e02573d6000803e3d6000fd5b505050506040513d601f19601f8201168201806040525081019062000e28919062003924565b62000e6a576040517f08c379a000000000000000000000000000000000000000000000000000000000815260040162000e6190620039a6565b60405180910390fd5b600087905060008790508173ffffffffffffffffffffffffffffffffffffffff166323b872dd33308a6040518463ffffffff1660e01b815260040162000eb393929190620039c8565b6020604051808303816000875af115801562000ed3573d6000803e3d6000fd5b505050506040513d601f19601f8201168201806040525081019062000ef9919062003924565b508073ffffffffffffffffffffffffffffffffffffffff166323b872dd3330886040518463ffffffff1660e01b815260040162000f3993929190620039c8565b6020604051808303816000875af115801562000f59573d6000803e3d6000fd5b505050506040513d601f19601f8201168201806040525081019062000f7f919062003924565b50505050505050505050565b6000808414801562000f9d5750600083145b62000fc35783838362000fb1919062003a05565b62000fbd919062003a95565b62000fc5565b815b90509392505050565b6000808373ffffffffffffffffffffffffffffffffffffffff168573ffffffffffffffffffffffffffffffffffffffff16141562001043576040517f08c379a00000000000000000000000000000000000000000000000000000000081526004016200103a9062003b1d565b60405180910390fd5b600062001051868662001468565b90506200105e8162002f2d565b620010a0576040517f08c379a0000000000000000000000000000000000000000000000000000000008152600401620010979062003b8f565b60405180910390fd5b6000806000808473ffffffffffffffffffffffffffffffffffffffff1673ffffffffffffffffffffffffffffffffffffffff16815260200190815260200160002060010160009054906101000a900473ffffffffffffffffffffffffffffffffffffffff1673ffffffffffffffffffffffffffffffffffffffff168873ffffffffffffffffffffffffffffffffffffffff161415620011c7576000808473ffffffffffffffffffffffffffffffffffffffff1673ffffffffffffffffffffffffffffffffffffffff1681526020019081526020016000206003015491506000808473ffffffffffffffffffffffffffffffffffffffff1673ffffffffffffffffffffffffffffffffffffffff16815260200190815260200160002060040154905062001250565b6000808473ffffffffffffffffffffffffffffffffffffffff1673ffffffffffffffffffffffffffffffffffffffff1681526020019081526020016000206004015491506000808473ffffffffffffffffffffffffffffffffffffffff1673ffffffffffffffffffffffffffffffffffffffff1681526020019081526020016000206003015490505b60006200125f83838962000f8b565b905080878462001270919062003883565b6127108962001280919062003a05565b6200128c919062003a95565b9550955050505050935093915050565b6000808273ffffffffffffffffffffffffffffffffffffffff168473ffffffffffffffffffffffffffffffffffffffff16141562001311576040517f08c379a0000000000000000000000000000000000000000000000000000000008152600401620013089062003c01565b60405180910390fd5b60006200131f858562001468565b90506200132c8162002f2d565b8192509250509250929050565b6000866200139a57600084838862001352919062003a05565b6200135e919062003a95565b9050600084848862001371919062003a05565b6200137d919062003a95565b90508082116200138e578162001390565b805b92505050620013b5565b620013b28587620013ac919062003a05565b62002f85565b90505b9695505050505050565b60006020528060005260406000206000915090508060000160009054906101000a900473ffffffffffffffffffffffffffffffffffffffff16908060010160009054906101000a900473ffffffffffffffffffffffffffffffffffffffff16908060020160009054906101000a900473ffffffffffffffffffffffffffffffffffffffff16908060030154908060040154908060050160009054906101000a900460ff16905086565b60008060008373ffffffffffffffffffffffffffffffffffffffff168573ffffffffffffffffffffffffffffffffffffffff1610620014a9578385620014ac565b84845b915091508181604051602001620014c592919062003c73565b6040516020818303038152906040528051906020012060001c9250505092915050565b8273ffffffffffffffffffffffffffffffffffffffff168473ffffffffffffffffffffffffffffffffffffffff1614156200155a576040517f08c379a0000000000000000000000000000000000000000000000000000000008152600401620015519062003cf3565b60405180910390fd5b600062001568858562001468565b90506000808273ffffffffffffffffffffffffffffffffffffffff1673ffffffffffffffffffffffffffffffffffffffff16815260200190815260200160002060050160009054906101000a900460ff1615620015fc576040517f08c379a0000000000000000000000000000000000000000000000000000000008152600401620015f39062003d65565b60405180910390fd5b60008590506000859050848273ffffffffffffffffffffffffffffffffffffffff1663dd62ed3e33306040518363ffffffff1660e01b81526004016200164492919062003d87565b602060405180830381865afa15801562001662573d6000803e3d6000fd5b505050506040513d601f19601f82011682018060405250810190620016889190620035fd565b1015620016cc576040517f08c379a0000000000000000000000000000000000000000000000000000000008152600401620016c39062003e2a565b60405180910390fd5b838173ffffffffffffffffffffffffffffffffffffffff1663dd62ed3e33306040518363ffffffff1660e01b81526004016200170a92919062003d87565b602060405180830381865afa15801562001728573d6000803e3d6000fd5b505050506040513d601f19601f820116820180604052508101906200174e9190620035fd565b101562001792576040517f08c379a0000000000000000000000000000000000000000000000000000000008152600401620017899062003e2a565b60405180910390fd5b8173ffffffffffffffffffffffffffffffffffffffff166323b872dd3330886040518463ffffffff1660e01b8152600401620017d193929190620039c8565b6020604051808303816000875af1158015620017f1573d6000803e3d6000fd5b505050506040513d601f19601f8201168201806040525081019062001817919062003924565b62001859576040517f08c379a00000000000000000000000000000000000000000000000000000000081526004016200185090620039a6565b60405180910390fd5b8073ffffffffffffffffffffffffffffffffffffffff166323b872dd3330876040518463ffffffff1660e01b81526004016200189893929190620039c8565b6020604051808303816000875af1158015620018b8573d6000803e3d6000fd5b505050506040513d601f19601f82011682018060405250810190620018de919062003924565b62001920576040517f08c379a00000000000000000000000000000000000000000000000000000000081526004016200191790620039a6565b60405180910390fd5b600062001a508373ffffffffffffffffffffffffffffffffffffffff166395d89b416040518163ffffffff1660e01b8152600401600060405180830381865afa15801562001972573d6000803e3d6000fd5b505050506040513d6000823e3d601f19601f820116820180604052508101906200199d919062003fd5565b6040518060400160405280600181526020017f2d000000000000000000000000000000000000000000000000000000000000008152508473ffffffffffffffffffffffffffffffffffffffff166395d89b416040518163ffffffff1660e01b8152600401600060405180830381865afa15801562001a1f573d6000803e3d6000fd5b505050506040513d6000823e3d601f19601f8201168201806040525081019062001a4a919062003fd5565b6200300e565b600860405162001a60906200303f565b62001a6d9291906200411c565b604051809103906000f08015801562001a8a573d6000803e3d6000fd5b509050600062001b12600188886000808773ffffffffffffffffffffffffffffffffffffffff166318160ddd6040518163ffffffff1660e01b8152600401602060405180830381865afa15801562001ae6573d6000803e3d6000fd5b505050506040513d601f19601f8201168201806040525081019062001b0c9190620035fd565b62001339565b90506040518060c001604052808373ffffffffffffffffffffffffffffffffffffffff1681526020018a73ffffffffffffffffffffffffffffffffffffffff1681526020018973ffffffffffffffffffffffffffffffffffffffff168152602001888152602001878152602001600115158152506000808773ffffffffffffffffffffffffffffffffffffffff1673ffffffffffffffffffffffffffffffffffffffff16815260200190815260200160002060008201518160000160006101000a81548173ffffffffffffffffffffffffffffffffffffffff021916908373ffffffffffffffffffffffffffffffffffffffff16021790555060208201518160010160006101000a81548173ffffffffffffffffffffffffffffffffffffffff021916908373ffffffffffffffffffffffffffffffffffffffff16021790555060408201518160020160006101000a81548173ffffffffffffffffffffffffffffffffffffffff021916908373ffffffffffffffffffffffffffffffffffffffff160217905550606082015181600301556080820151816004015560a08201518160050160006101000a81548160ff0219169083151502179055509050508173ffffffffffffffffffffffffffffffffffffffff166340c10f1933836040518363ffffffff1660e01b815260040162001d0d929190620038e0565b6020604051808303816000875af115801562001d2d573d6000803e3d6000fd5b505050506040513d601f19601f8201168201806040525081019062001d53919062003924565b62001d95576040517f08c379a000000000000000000000000000000000000000000000000000000000815260040162001d8c90620039a6565b60405180910390fd5b505050505050505050565b8173ffffffffffffffffffffffffffffffffffffffff168373ffffffffffffffffffffffffffffffffffffffff16141562001e12576040517f08c379a000000000000000000000000000000000000000000000000000000000815260040162001e0990620041b5565b60405180910390fd5b600062001e20848462001468565b90506000808273ffffffffffffffffffffffffffffffffffffffff1673ffffffffffffffffffffffffffffffffffffffff16815260200190815260200160002060050160009054906101000a900460ff1662001eb3576040517f08c379a000000000000000000000000000000000000000000000000000000000815260040162001eaa9062004227565b60405180910390fd5b60008060008373ffffffffffffffffffffffffffffffffffffffff1673ffffffffffffffffffffffffffffffffffffffff168152602001908152602001600020600401546000808473ffffffffffffffffffffffffffffffffffffffff1673ffffffffffffffffffffffffffffffffffffffff1681526020019081526020016000206003015462001f45919062003a05565b9050600085905060008590508173ffffffffffffffffffffffffffffffffffffffff1663dd62ed3e33306040518363ffffffff1660e01b815260040162001f8e92919062003d87565b602060405180830381865afa15801562001fac573d6000803e3d6000fd5b505050506040513d601f19601f8201168201806040525081019062001fd29190620035fd565b85111562002017576040517f08c379a00000000000000000000000000000000000000000000000000000000081526004016200200e9062004299565b60405180910390fd5b6000808873ffffffffffffffffffffffffffffffffffffffff166000808873ffffffffffffffffffffffffffffffffffffffff1673ffffffffffffffffffffffffffffffffffffffff16815260200190815260200160002060010160009054906101000a900473ffffffffffffffffffffffffffffffffffffffff1673ffffffffffffffffffffffffffffffffffffffff1614156200213e576000808773ffffffffffffffffffffffffffffffffffffffff1673ffffffffffffffffffffffffffffffffffffffff1681526020019081526020016000206003015491506000808773ffffffffffffffffffffffffffffffffffffffff1673ffffffffffffffffffffffffffffffffffffffff168152602001908152602001600020600401549050620021c7565b6000808773ffffffffffffffffffffffffffffffffffffffff1673ffffffffffffffffffffffffffffffffffffffff1681526020019081526020016000206004015491506000808773ffffffffffffffffffffffffffffffffffffffff1673ffffffffffffffffffffffffffffffffffffffff1681526020019081526020016000206003015490505b60008783620021d7919062003883565b86620021e4919062003a95565b82620021f19190620042bb565b90508373ffffffffffffffffffffffffffffffffffffffff1663a9059cbb33836040518363ffffffff1660e01b815260040162002230929190620038e0565b6020604051808303816000875af115801562002250573d6000803e3d6000fd5b505050506040513d601f19601f8201168201806040525081019062002276919062003924565b620022b8576040517f08c379a0000000000000000000000000000000000000000000000000000000008152600401620022af90620039a6565b60405180910390fd5b8473ffffffffffffffffffffffffffffffffffffffff166323b872dd33308b6040518463ffffffff1660e01b8152600401620022f793929190620039c8565b6020604051808303816000875af115801562002317573d6000803e3d6000fd5b505050506040513d601f19601f820116820180604052508101906200233d919062003924565b6200237f576040517f08c379a0000000000000000000000000000000000000000000000000000000008152600401620023769062004346565b60405180910390fd5b8973ffffffffffffffffffffffffffffffffffffffff166000808973ffffffffffffffffffffffffffffffffffffffff1673ffffffffffffffffffffffffffffffffffffffff16815260200190815260200160002060010160009054906101000a900473ffffffffffffffffffffffffffffffffffffffff1673ffffffffffffffffffffffffffffffffffffffff161415620024cf57876000808973ffffffffffffffffffffffffffffffffffffffff1673ffffffffffffffffffffffffffffffffffffffff168152602001908152602001600020600301600082825462002468919062003883565b92505081905550806000808973ffffffffffffffffffffffffffffffffffffffff1673ffffffffffffffffffffffffffffffffffffffff1681526020019081526020016000206004016000828254620024c29190620042bb565b9250508190555062002584565b876000808973ffffffffffffffffffffffffffffffffffffffff1673ffffffffffffffffffffffffffffffffffffffff168152602001908152602001600020600401600082825462002522919062003883565b92505081905550806000808973ffffffffffffffffffffffffffffffffffffffff1673ffffffffffffffffffffffffffffffffffffffff16815260200190815260200160002060030160008282546200257c9190620042bb565b925050819055505b50505050505050505050565b6000806200259f858562001468565b90506000808273ffffffffffffffffffffffffffffffffffffffff1673ffffffffffffffffffffffffffffffffffffffff16815260200190815260200160002060050160009054906101000a900460ff1662002632576040517f08c379a0000000000000000000000000000000000000000000000000000000008152600401620026299062004227565b60405180910390fd5b60008060008373ffffffffffffffffffffffffffffffffffffffff1673ffffffffffffffffffffffffffffffffffffffff168152602001908152602001600020600401546000808473ffffffffffffffffffffffffffffffffffffffff1673ffffffffffffffffffffffffffffffffffffffff16815260200190815260200160002060030154620026c4919062003a05565b90506000808773ffffffffffffffffffffffffffffffffffffffff166000808673ffffffffffffffffffffffffffffffffffffffff1673ffffffffffffffffffffffffffffffffffffffff16815260200190815260200160002060010160009054906101000a900473ffffffffffffffffffffffffffffffffffffffff1673ffffffffffffffffffffffffffffffffffffffff161415620027ed576000808573ffffffffffffffffffffffffffffffffffffffff1673ffffffffffffffffffffffffffffffffffffffff1681526020019081526020016000206003015491506000808573ffffffffffffffffffffffffffffffffffffffff1673ffffffffffffffffffffffffffffffffffffffff16815260200190815260200160002060040154905062002876565b6000808573ffffffffffffffffffffffffffffffffffffffff1673ffffffffffffffffffffffffffffffffffffffff1681526020019081526020016000206004015491506000808573ffffffffffffffffffffffffffffffffffffffff1673ffffffffffffffffffffffffffffffffffffffff1681526020019081526020016000206003015490505b858262002884919062003883565b8362002891919062003a95565b816200289e9190620042bb565b9450505050509392505050565b60008060008060008673ffffffffffffffffffffffffffffffffffffffff1673ffffffffffffffffffffffffffffffffffffffff16815260200190815260200160002060000160009054906101000a900473ffffffffffffffffffffffffffffffffffffffff169050838173ffffffffffffffffffffffffffffffffffffffff166370a08231336040518263ffffffff1660e01b815260040162002950919062003557565b602060405180830381865afa1580156200296e573d6000803e3d6000fd5b505050506040513d601f19601f82011682018060405250810190620029949190620035fd565b1015620029d8576040517f08c379a0000000000000000000000000000000000000000000000000000000008152600401620029cf90620043b8565b60405180910390fd5b600062002a99858373ffffffffffffffffffffffffffffffffffffffff166318160ddd6040518163ffffffff1660e01b8152600401602060405180830381865afa15801562002a2b573d6000803e3d6000fd5b505050506040513d601f19601f8201168201806040525081019062002a519190620035fd565b6000808a73ffffffffffffffffffffffffffffffffffffffff1673ffffffffffffffffffffffffffffffffffffffff1681526020019081526020016000206003015462002f07565b9050600062002b5c868473ffffffffffffffffffffffffffffffffffffffff166318160ddd6040518163ffffffff1660e01b8152600401602060405180830381865afa15801562002aee573d6000803e3d6000fd5b505050506040513d601f19601f8201168201806040525081019062002b149190620035fd565b6000808b73ffffffffffffffffffffffffffffffffffffffff1673ffffffffffffffffffffffffffffffffffffffff1681526020019081526020016000206004015462002f07565b9050816000808973ffffffffffffffffffffffffffffffffffffffff1673ffffffffffffffffffffffffffffffffffffffff168152602001908152602001600020600301600082825462002bb19190620042bb565b92505081905550806000808973ffffffffffffffffffffffffffffffffffffffff1673ffffffffffffffffffffffffffffffffffffffff168152602001908152602001600020600401600082825462002c0b9190620042bb565b9250508190555060008060008973ffffffffffffffffffffffffffffffffffffffff1673ffffffffffffffffffffffffffffffffffffffff16815260200190815260200160002060010160009054906101000a900473ffffffffffffffffffffffffffffffffffffffff16905060008060008a73ffffffffffffffffffffffffffffffffffffffff1673ffffffffffffffffffffffffffffffffffffffff16815260200190815260200160002060020160009054906101000a900473ffffffffffffffffffffffffffffffffffffffff1690508173ffffffffffffffffffffffffffffffffffffffff1663a9059cbb33866040518363ffffffff1660e01b815260040162002d1b929190620038e0565b6020604051808303816000875af115801562002d3b573d6000803e3d6000fd5b505050506040513d601f19601f8201168201806040525081019062002d61919062003924565b62002da3576040517f08c379a000000000000000000000000000000000000000000000000000000000815260040162002d9a90620039a6565b60405180910390fd5b8073ffffffffffffffffffffffffffffffffffffffff1663a9059cbb33856040518363ffffffff1660e01b815260040162002de0929190620038e0565b6020604051808303816000875af115801562002e00573d6000803e3d6000fd5b505050506040513d601f19601f8201168201806040525081019062002e26919062003924565b62002e68576040517f08c379a000000000000000000000000000000000000000000000000000000000815260040162002e5f90620039a6565b60405180910390fd5b8473ffffffffffffffffffffffffffffffffffffffff16639dc29fac338a6040518363ffffffff1660e01b815260040162002ea5929190620038e0565b6020604051808303816000875af115801562002ec5573d6000803e3d6000fd5b505050506040513d601f19601f8201168201806040525081019062002eeb919062003924565b62002ef557600080fd5b83839650965050505050509250929050565b600082848362002f18919062003a05565b62002f24919062003a95565b90509392505050565b60008060008373ffffffffffffffffffffffffffffffffffffffff1673ffffffffffffffffffffffffffffffffffffffff16815260200190815260200160002060050160009054906101000a900460ff169050919050565b6000600382111562002ffa578190506000600160028462002fa7919062003a95565b62002fb3919062003883565b90505b8181101562002ff357809150600281828562002fd3919062003a95565b62002fdf919062003883565b62002feb919062003a95565b905062002fb6565b5062003009565b600082146200300857600190505b5b919050565b606083838360405160200162003027939291906200441c565b60405160208183030381529060405290509392505050565b611af9806200445483390190565b6000604051905090565b600080fd5b600080fd5b600073ffffffffffffffffffffffffffffffffffffffff82169050919050565b60006200308e8262003061565b9050919050565b620030a08162003081565b8114620030ac57600080fd5b50565b600081359050620030c08162003095565b92915050565b600060208284031215620030df57620030de62003057565b5b6000620030ef84828501620030af565b91505092915050565b6000819050919050565b6200310d81620030f8565b82525050565b60006020820190506200312a600083018462003102565b92915050565b6200313b81620030f8565b81146200314757600080fd5b50565b6000813590506200315b8162003130565b92915050565b600080604083850312156200317b576200317a62003057565b5b60006200318b85828601620030af565b92505060206200319e858286016200314a565b9150509250929050565b620031b38162003081565b82525050565b6000608082019050620031d0600083018762003102565b620031df602083018662003102565b620031ee6040830185620031a8565b620031fd6060830184620031a8565b95945050505050565b6000620032138262003061565b9050919050565b620032258162003206565b81146200323157600080fd5b50565b60008135905062003245816200321a565b92915050565b60008060006060848603121562003267576200326662003057565b5b6000620032778682870162003234565b93505060206200328a8682870162003234565b92505060406200329d868287016200314a565b9150509250925092565b600080600060608486031215620032c357620032c262003057565b5b6000620032d3868287016200314a565b9350506020620032e6868287016200314a565b9250506040620032f9868287016200314a565b9150509250925092565b6000806000606084860312156200331f576200331e62003057565b5b60006200332f86828701620030af565b93505060206200334286828701620030af565b925050604062003355868287016200314a565b9150509250925092565b600060408201905062003376600083018562003102565b62003385602083018462003102565b9392505050565b60008060408385031215620033a657620033a562003057565b5b6000620033b685828601620030af565b9250506020620033c985828601620030af565b9150509250929050565b60008115159050919050565b620033ea81620033d3565b82525050565b6000604082019050620034076000830185620033df565b620034166020830184620031a8565b9392505050565b6200342881620033d3565b81146200343457600080fd5b50565b60008135905062003448816200341d565b92915050565b60008060008060008060c087890312156200346e576200346d62003057565b5b60006200347e89828a0162003437565b96505060206200349189828a016200314a565b9550506040620034a489828a016200314a565b9450506060620034b789828a016200314a565b9350506080620034ca89828a016200314a565b92505060a0620034dd89828a016200314a565b9150509295509295509295565b600060c082019050620035016000830189620031a8565b620035106020830188620031a8565b6200351f6040830187620031a8565b6200352e606083018662003102565b6200353d608083018562003102565b6200354c60a0830184620033df565b979650505050505050565b60006020820190506200356e6000830184620031a8565b92915050565b6000806000806080858703121562003591576200359062003057565b5b6000620035a18782880162003234565b9450506020620035b48782880162003234565b9350506040620035c7878288016200314a565b9250506060620035da878288016200314a565b91505092959194509250565b600081519050620035f78162003130565b92915050565b60006020828403121562003616576200361562003057565b5b60006200362684828501620035e6565b91505092915050565b600082825260208201905092915050565b7f496e76616c696420506f6f6c2e00000000000000000000000000000000000000600082015250565b600062003678600d836200362f565b9150620036858262003640565b602082019050919050565b60006020820190508181036000830152620036ab8162003669565b9050919050565b7f496e76616c696420706f6f6c0000000000000000000000000000000000000000600082015250565b6000620036ea600c836200362f565b9150620036f782620036b2565b602082019050919050565b600060208201905081810360008301526200371d81620036db565b9050919050565b7f506f6f6c206973206e6f742065786973742c20706c656173652063726561746560008201527f2061206e657720706f6f6c2e0000000000000000000000000000000000000000602082015250565b600062003782602c836200362f565b91506200378f8262003724565b604082019050919050565b60006020820190508181036000830152620037b58162003773565b9050919050565b7f416d6f756e7420746f2066756e64206d7573742067726561746572207468616e60008201527f20302e0000000000000000000000000000000000000000000000000000000000602082015250565b60006200381a6023836200362f565b91506200382782620037bc565b604082019050919050565b600060208201905081810360008301526200384d816200380b565b9050919050565b7f4e487b7100000000000000000000000000000000000000000000000000000000600052601160045260246000fd5b60006200389082620030f8565b91506200389d83620030f8565b9250827fffffffffffffffffffffffffffffffffffffffffffffffffffffffffffffffff03821115620038d557620038d462003854565b5b828201905092915050565b6000604082019050620038f76000830185620031a8565b62003906602083018462003102565b9392505050565b6000815190506200391e816200341d565b92915050565b6000602082840312156200393d576200393c62003057565b5b60006200394d848285016200390d565b91505092915050565b7f5472616e73616374696f6e206661696c65642e00000000000000000000000000600082015250565b60006200398e6013836200362f565b91506200399b8262003956565b602082019050919050565b60006020820190508181036000830152620039c1816200397f565b9050919050565b6000606082019050620039df6000830186620031a8565b620039ee6020830185620031a8565b620039fd604083018462003102565b949350505050565b600062003a1282620030f8565b915062003a1f83620030f8565b9250817fffffffffffffffffffffffffffffffffffffffffffffffffffffffffffffffff048311821515161562003a5b5762003a5a62003854565b5b828202905092915050565b7f4e487b7100000000000000000000000000000000000000000000000000000000600052601260045260246000fd5b600062003aa282620030f8565b915062003aaf83620030f8565b92508262003ac25762003ac162003a66565b5b828204905092915050565b7f496e76616c696420506f6f6c0000000000000000000000000000000000000000600082015250565b600062003b05600c836200362f565b915062003b128262003acd565b602082019050919050565b6000602082019050818103600083015262003b388162003af6565b9050919050565b7f506f6f6c206973206e6f742065786973742e0000000000000000000000000000600082015250565b600062003b776012836200362f565b915062003b848262003b3f565b602082019050919050565b6000602082019050818103600083015262003baa8162003b68565b9050919050565b7f496e76616c696420546f6b656e20506169720000000000000000000000000000600082015250565b600062003be96012836200362f565b915062003bf68262003bb1565b602082019050919050565b6000602082019050818103600083015262003c1c8162003bda565b9050919050565b60008160601b9050919050565b600062003c3d8262003c23565b9050919050565b600062003c518262003c30565b9050919050565b62003c6d62003c678262003081565b62003c44565b82525050565b600062003c81828562003c58565b60148201915062003c93828462003c58565b6014820191508190509392505050565b7f496e76616c6964206c697175696469747920706f6f6c2e000000000000000000600082015250565b600062003cdb6017836200362f565b915062003ce88262003ca3565b602082019050919050565b6000602082019050818103600083015262003d0e8162003ccc565b9050919050565b7f506f6f6c20616c72656164792065786973740000000000000000000000000000600082015250565b600062003d4d6012836200362f565b915062003d5a8262003d15565b602082019050919050565b6000602082019050818103600083015262003d808162003d3e565b9050919050565b600060408201905062003d9e6000830185620031a8565b62003dad6020830184620031a8565b9392505050565b7f4e6f7420656e6f75676820746f6b656e2061726520616c6c6f77656420746f2060008201527f706572666f726d207468697320616374696f6e2e000000000000000000000000602082015250565b600062003e126034836200362f565b915062003e1f8262003db4565b604082019050919050565b6000602082019050818103600083015262003e458162003e03565b9050919050565b600080fd5b600080fd5b6000601f19601f8301169050919050565b7f4e487b7100000000000000000000000000000000000000000000000000000000600052604160045260246000fd5b62003ea18262003e56565b810181811067ffffffffffffffff8211171562003ec35762003ec262003e67565b5b80604052505050565b600062003ed86200304d565b905062003ee6828262003e96565b919050565b600067ffffffffffffffff82111562003f095762003f0862003e67565b5b62003f148262003e56565b9050602081019050919050565b60005b8381101562003f4157808201518184015260208101905062003f24565b8381111562003f51576000848401525b50505050565b600062003f6e62003f688462003eeb565b62003ecc565b90508281526020810184848401111562003f8d5762003f8c62003e51565b5b62003f9a84828562003f21565b509392505050565b600082601f83011262003fba5762003fb962003e4c565b5b815162003fcc84826020860162003f57565b91505092915050565b60006020828403121562003fee5762003fed62003057565b5b600082015167ffffffffffffffff8111156200400f576200400e6200305c565b5b6200401d8482850162003fa2565b91505092915050565b7f4c50540000000000000000000000000000000000000000000000000000000000600082015250565b60006200405e6003836200362f565b91506200406b8262004026565b602082019050919050565b600081519050919050565b60006200408e8262004076565b6200409a81856200362f565b9350620040ac81856020860162003f21565b620040b78162003e56565b840191505092915050565b6000819050919050565b600060ff82169050919050565b6000819050919050565b600062004104620040fe620040f884620040c2565b620040d9565b620040cc565b9050919050565b6200411681620040e3565b82525050565b6000606082019050818103600083015262004137816200404f565b905081810360208301526200414d818562004081565b90506200415e60408301846200410b565b9392505050565b7f496e76616c69642050616972206f6620546f6b656e0000000000000000000000600082015250565b60006200419d6015836200362f565b9150620041aa8262004165565b602082019050919050565b60006020820190508181036000830152620041d0816200418e565b9050919050565b7f4c697175696469747920506f6f6c206e6f7420666f756e642e00000000000000600082015250565b60006200420f6019836200362f565b91506200421c82620041d7565b602082019050919050565b60006020820190508181036000830152620042428162004200565b9050919050565b7f4e6f7420656e6f75676820746f6b656e00000000000000000000000000000000600082015250565b6000620042816010836200362f565b91506200428e8262004249565b602082019050919050565b60006020820190508181036000830152620042b48162004272565b9050919050565b6000620042c882620030f8565b9150620042d583620030f8565b925082821015620042eb57620042ea62003854565b5b828203905092915050565b7f5472616e73616374696f6e206661696c65640000000000000000000000000000600082015250565b60006200432e6012836200362f565b91506200433b82620042f6565b602082019050919050565b6000602082019050818103600083015262004361816200431f565b9050919050565b7f4e6f7420656e6f75676820616d6f756e74000000000000000000000000000000600082015250565b6000620043a06011836200362f565b9150620043ad8262004368565b602082019050919050565b60006020820190508181036000830152620043d38162004391565b9050919050565b600081905092915050565b6000620043f28262004076565b620043fe8185620043da565b93506200441081856020860162003f21565b80840191505092915050565b60006200442a8286620043e5565b9150620044388285620043e5565b9150620044468284620043e5565b915081905094935050505056fe60806040523480156200001157600080fd5b5060405162001af938038062001af983398181016040528101906200003791906200045d565b8282826000836000908051906020019062000054929190620001d2565b5082600190805190602001906200006d929190620001d2565b5081600260006101000a81548160ff021916908360ff1602179055508060038190555033600460006101000a81548173ffffffffffffffffffffffffffffffffffffffff021916908373ffffffffffffffffffffffffffffffffffffffff16021790555060035460056000600460009054906101000a900473ffffffffffffffffffffffffffffffffffffffff1673ffffffffffffffffffffffffffffffffffffffff1673ffffffffffffffffffffffffffffffffffffffff16815260200190815260200160002081905550600460009054906101000a900473ffffffffffffffffffffffffffffffffffffffff1673ffffffffffffffffffffffffffffffffffffffff16600073ffffffffffffffffffffffffffffffffffffffff167fddf252ad1be2c89b69c2b068fc378daa952ba7f163c4a11628f55a4df523b3ef600354604051620001bd919062000512565b60405180910390a35050505050505062000594565b828054620001e0906200055e565b90600052602060002090601f01602090048101928262000204576000855562000250565b82601f106200021f57805160ff191683800117855562000250565b8280016001018555821562000250579182015b828111156200024f57825182559160200191906001019062000232565b5b5090506200025f919062000263565b5090565b5b808211156200027e57600081600090555060010162000264565b5090565b6000604051905090565b600080fd5b600080fd5b600080fd5b600080fd5b6000601f19601f8301169050919050565b7f4e487b7100000000000000000000000000000000000000000000000000000000600052604160045260246000fd5b620002eb82620002a0565b810181811067ffffffffffffffff821117156200030d576200030c620002b1565b5b80604052505050565b60006200032262000282565b9050620003308282620002e0565b919050565b600067ffffffffffffffff821115620003535762000352620002b1565b5b6200035e82620002a0565b9050602081019050919050565b60005b838110156200038b5780820151818401526020810190506200036e565b838111156200039b576000848401525b50505050565b6000620003b8620003b28462000335565b62000316565b905082815260208101848484011115620003d757620003d66200029b565b5b620003e48482856200036b565b509392505050565b600082601f83011262000404576200040362000296565b5b815162000416848260208601620003a1565b91505092915050565b600060ff82169050919050565b62000437816200041f565b81146200044357600080fd5b50565b60008151905062000457816200042c565b92915050565b6000806000606084860312156200047957620004786200028c565b5b600084015167ffffffffffffffff8111156200049a576200049962000291565b5b620004a886828701620003ec565b935050602084015167ffffffffffffffff811115620004cc57620004cb62000291565b5b620004da86828701620003ec565b9250506040620004ed8682870162000446565b9150509250925092565b6000819050919050565b6200050c81620004f7565b82525050565b600060208201905062000529600083018462000501565b92915050565b7f4e487b7100000000000000000000000000000000000000000000000000000000600052602260045260246000fd5b600060028204905060018216806200057757607f821691505b602082108114156200058e576200058d6200052f565b5b50919050565b61155580620005a46000396000f3fe608060405234801561001057600080fd5b50600436106101005760003560e01c806395d89b4111610097578063b5931f7c11610066578063b5931f7c146102eb578063d05c78da1461031b578063dd62ed3e1461034b578063e6cb90131461037b57610100565b806395d89b411461023d5780639dc29fac1461025b578063a293d1e81461028b578063a9059cbb146102bb57610100565b8063313ce567116100d3578063313ce567146101a15780633eaaf86b146101bf57806340c10f19146101dd57806370a082311461020d57610100565b806306fdde0314610105578063095ea7b31461012357806318160ddd1461015357806323b872dd14610171575b600080fd5b61010d6103ab565b60405161011a9190610f95565b60405180910390f35b61013d60048036038101906101389190611050565b610439565b60405161014a91906110ab565b60405180910390f35b61015b61052b565b60405161016891906110d5565b60405180910390f35b61018b600480360381019061018691906110f0565b610535565b60405161019891906110ab565b60405180910390f35b6101a96107c5565b6040516101b6919061115f565b60405180910390f35b6101c76107d8565b6040516101d491906110d5565b60405180910390f35b6101f760048036038101906101f29190611050565b6107de565b60405161020491906110ab565b60405180910390f35b6102276004803603810190610222919061117a565b610950565b60405161023491906110d5565b60405180910390f35b610245610999565b6040516102529190610f95565b60405180910390f35b61027560048036038101906102709190611050565b610a27565b60405161028291906110ab565b60405180910390f35b6102a560048036038101906102a091906111a7565b610c4c565b6040516102b291906110d5565b60405180910390f35b6102d560048036038101906102d09190611050565b610c6f565b6040516102e291906110ab565b60405180910390f35b610305600480360381019061030091906111a7565b610df8565b60405161031291906110d5565b60405180910390f35b610335600480360381019061033091906111a7565b610e1a565b60405161034291906110d5565b60405180910390f35b610365600480360381019061036091906111e7565b610e52565b60405161037291906110d5565b60405180910390f35b610395600480360381019061039091906111a7565b610ed9565b6040516103a291906110d5565b60405180910390f35b600180546103b890611256565b80601f01602080910402602001604051908101604052809291908181526020018280546103e490611256565b80156104315780601f1061040657610100808354040283529160200191610431565b820191906000526020600020905b81548152906001019060200180831161041457829003601f168201915b505050505081565b600081600660003373ffffffffffffffffffffffffffffffffffffffff1673ffffffffffffffffffffffffffffffffffffffff16815260200190815260200160002060008573ffffffffffffffffffffffffffffffffffffffff1673ffffffffffffffffffffffffffffffffffffffff168152602001908152602001600020819055508273ffffffffffffffffffffffffffffffffffffffff163373ffffffffffffffffffffffffffffffffffffffff167f8c5be1e5ebec7d5bd14f71427d1e84f3dd0314c0f7b2291e5b200ac8c7c3b9258460405161051991906110d5565b60405180910390a36001905092915050565b6000600354905090565b6000610580600560008673ffffffffffffffffffffffffffffffffffffffff1673ffffffffffffffffffffffffffffffffffffffff1681526020019081526020016000205483610c4c565b600560008673ffffffffffffffffffffffffffffffffffffffff1673ffffffffffffffffffffffffffffffffffffffff16815260200190815260200160002081905550610649600660008673ffffffffffffffffffffffffffffffffffffffff1673ffffffffffffffffffffffffffffffffffffffff16815260200190815260200160002060003373ffffffffffffffffffffffffffffffffffffffff1673ffffffffffffffffffffffffffffffffffffffff1681526020019081526020016000205483610c4c565b600660008673ffffffffffffffffffffffffffffffffffffffff1673ffffffffffffffffffffffffffffffffffffffff16815260200190815260200160002060003373ffffffffffffffffffffffffffffffffffffffff1673ffffffffffffffffffffffffffffffffffffffff16815260200190815260200160002081905550610712600560008573ffffffffffffffffffffffffffffffffffffffff1673ffffffffffffffffffffffffffffffffffffffff1681526020019081526020016000205483610ed9565b600560008573ffffffffffffffffffffffffffffffffffffffff1673ffffffffffffffffffffffffffffffffffffffff168152602001908152602001600020819055508273ffffffffffffffffffffffffffffffffffffffff168473ffffffffffffffffffffffffffffffffffffffff167fddf252ad1be2c89b69c2b068fc378daa952ba7f163c4a11628f55a4df523b3ef846040516107b291906110d5565b60405180910390a3600190509392505050565b600260009054906101000a900460ff1681565b60035481565b6000338073ffffffffffffffffffffffffffffffffffffffff16600460009054906101000a900473ffffffffffffffffffffffffffffffffffffffff1673ffffffffffffffffffffffffffffffffffffffff161461083b57600080fd5b826003600082825461084d91906112b7565b9250508190555061089d600560008673ffffffffffffffffffffffffffffffffffffffff1673ffffffffffffffffffffffffffffffffffffffff1681526020019081526020016000205484610ed9565b600560008673ffffffffffffffffffffffffffffffffffffffff1673ffffffffffffffffffffffffffffffffffffffff168152602001908152602001600020819055508373ffffffffffffffffffffffffffffffffffffffff163373ffffffffffffffffffffffffffffffffffffffff167fddf252ad1be2c89b69c2b068fc378daa952ba7f163c4a11628f55a4df523b3ef8560405161093d91906110d5565b60405180910390a3600191505092915050565b6000600560008373ffffffffffffffffffffffffffffffffffffffff1673ffffffffffffffffffffffffffffffffffffffff168152602001908152602001600020549050919050565b600080546109a690611256565b80601f01602080910402602001604051908101604052809291908181526020018280546109d290611256565b8015610a1f5780601f106109f457610100808354040283529160200191610a1f565b820191906000526020600020905b815481529060010190602001808311610a0257829003601f168201915b505050505081565b6000338073ffffffffffffffffffffffffffffffffffffffff16600460009054906101000a900473ffffffffffffffffffffffffffffffffffffffff1673ffffffffffffffffffffffffffffffffffffffff1614610a8457600080fd5b600073ffffffffffffffffffffffffffffffffffffffff168473ffffffffffffffffffffffffffffffffffffffff161415610af4576040517f08c379a0000000000000000000000000000000000000000000000000000000008152600401610aeb9061137f565b60405180910390fd5b6000600560008673ffffffffffffffffffffffffffffffffffffffff1673ffffffffffffffffffffffffffffffffffffffff16815260200190815260200160002054905083811015610b7b576040517f08c379a0000000000000000000000000000000000000000000000000000000008152600401610b7290611411565b60405180910390fd5b610b858185610c4c565b600560008773ffffffffffffffffffffffffffffffffffffffff1673ffffffffffffffffffffffffffffffffffffffff16815260200190815260200160002081905550610bd460035485610c4c565b600381905550600073ffffffffffffffffffffffffffffffffffffffff168573ffffffffffffffffffffffffffffffffffffffff167fddf252ad1be2c89b69c2b068fc378daa952ba7f163c4a11628f55a4df523b3ef86604051610c3891906110d5565b60405180910390a360019250505092915050565b600082821115610c5b57600080fd5b8183610c679190611431565b905092915050565b6000610cba600560003373ffffffffffffffffffffffffffffffffffffffff1673ffffffffffffffffffffffffffffffffffffffff1681526020019081526020016000205483610c4c565b600560003373ffffffffffffffffffffffffffffffffffffffff1673ffffffffffffffffffffffffffffffffffffffff16815260200190815260200160002081905550610d46600560008573ffffffffffffffffffffffffffffffffffffffff1673ffffffffffffffffffffffffffffffffffffffff1681526020019081526020016000205483610ed9565b600560008573ffffffffffffffffffffffffffffffffffffffff1673ffffffffffffffffffffffffffffffffffffffff168152602001908152602001600020819055508273ffffffffffffffffffffffffffffffffffffffff163373ffffffffffffffffffffffffffffffffffffffff167fddf252ad1be2c89b69c2b068fc378daa952ba7f163c4a11628f55a4df523b3ef84604051610de691906110d5565b60405180910390a36001905092915050565b6000808211610e0657600080fd5b8183610e129190611494565b905092915050565b60008183610e2891906114c5565b90506000831480610e435750818382610e419190611494565b145b610e4c57600080fd5b92915050565b6000600660008473ffffffffffffffffffffffffffffffffffffffff1673ffffffffffffffffffffffffffffffffffffffff16815260200190815260200160002060008373ffffffffffffffffffffffffffffffffffffffff1673ffffffffffffffffffffffffffffffffffffffff16815260200190815260200160002054905092915050565b60008183610ee791906112b7565b905082811015610ef657600080fd5b92915050565b600081519050919050565b600082825260208201905092915050565b60005b83811015610f36578082015181840152602081019050610f1b565b83811115610f45576000848401525b50505050565b6000601f19601f8301169050919050565b6000610f6782610efc565b610f718185610f07565b9350610f81818560208601610f18565b610f8a81610f4b565b840191505092915050565b60006020820190508181036000830152610faf8184610f5c565b905092915050565b600080fd5b600073ffffffffffffffffffffffffffffffffffffffff82169050919050565b6000610fe782610fbc565b9050919050565b610ff781610fdc565b811461100257600080fd5b50565b60008135905061101481610fee565b92915050565b6000819050919050565b61102d8161101a565b811461103857600080fd5b50565b60008135905061104a81611024565b92915050565b6000806040838503121561106757611066610fb7565b5b600061107585828601611005565b92505060206110868582860161103b565b9150509250929050565b60008115159050919050565b6110a581611090565b82525050565b60006020820190506110c0600083018461109c565b92915050565b6110cf8161101a565b82525050565b60006020820190506110ea60008301846110c6565b92915050565b60008060006060848603121561110957611108610fb7565b5b600061111786828701611005565b935050602061112886828701611005565b92505060406111398682870161103b565b9150509250925092565b600060ff82169050919050565b61115981611143565b82525050565b60006020820190506111746000830184611150565b92915050565b6000602082840312156111905761118f610fb7565b5b600061119e84828501611005565b91505092915050565b600080604083850312156111be576111bd610fb7565b5b60006111cc8582860161103b565b92505060206111dd8582860161103b565b9150509250929050565b600080604083850312156111fe576111fd610fb7565b5b600061120c85828601611005565b925050602061121d85828601611005565b9150509250929050565b7f4e487b7100000000000000000000000000000000000000000000000000000000600052602260045260246000fd5b6000600282049050600182168061126e57607f821691505b6020821081141561128257611281611227565b5b50919050565b7f4e487b7100000000000000000000000000000000000000000000000000000000600052601160045260246000fd5b60006112c28261101a565b91506112cd8361101a565b9250827fffffffffffffffffffffffffffffffffffffffffffffffffffffffffffffffff0382111561130257611301611288565b5b828201905092915050565b7f45524332303a206275726e2066726f6d20746865207a65726f2061646472657360008201527f7300000000000000000000000000000000000000000000000000000000000000602082015250565b6000611369602183610f07565b91506113748261130d565b604082019050919050565b600060208201905081810360008301526113988161135c565b9050919050565b7f45524332303a206275726e20616d6f756e7420657863656564732062616c616e60008201527f6365000000000000000000000000000000000000000000000000000000000000602082015250565b60006113fb602283610f07565b91506114068261139f565b604082019050919050565b6000602082019050818103600083015261142a816113ee565b9050919050565b600061143c8261101a565b91506114478361101a565b92508282101561145a57611459611288565b5b828203905092915050565b7f4e487b7100000000000000000000000000000000000000000000000000000000600052601260045260246000fd5b600061149f8261101a565b91506114aa8361101a565b9250826114ba576114b9611465565b5b828204905092915050565b60006114d08261101a565b91506114db8361101a565b9250817fffffffffffffffffffffffffffffffffffffffffffffffffffffffffffffffff048311821515161561151457611513611288565b5b82820290509291505056fea26469706673582212205bcc85e670f793b72093c1d1ae580b1f9e04c9aec846c969e8a6ed82ac7bf4be64736f6c634300080a0033a2646970667358221220055c890ed11f51c2587bd30f7c8258ddb899d8bbe567ef78a1ba5933f67c5a1564736f6c634300080a0033",
  "immutableReferences": {},
  "source": "//SPDX-License-Identifier:MIT\r\npragma solidity ^0.8.0;\r\n\r\nimport \"./token.sol\";\r\n\r\ncontract dex{\r\n    struct Pool{\r\n        address poolToken;\r\n        address token1;\r\n        address token2;\r\n        uint256 token1Balance;\r\n        uint256 token2Balance;                      \r\n        bool isAdded;\r\n    }\r\n\r\n    mapping(address => Pool) public liquidityPool;\r\n    address private owner;        \r\n\r\n    constructor(){                                                                          \r\n        owner = msg.sender;\r\n    }\r\n\r\n    function checkBalances(address token)public view returns(uint){\r\n        return ERC20Interface(token).balanceOf(msg.sender);\r\n    }\r\n\r\n    function isPoolExist(address tokenA, address tokenB)public view returns(bool,address){\r\n        require(tokenA != tokenB,\"Invalid Token Pair\");\r\n        address poolId = generatePoolId(tokenA,tokenB);\r\n        return (isPoolExist(poolId),poolId);\r\n    }\r\n    \r\n\r\n    function fundLiquidityPool(address payable token1, address payable token2, uint token1Amount) public payable{\r\n        require(token1 != token2,\"Invalid pool\");    \r\n        address poolAddress = generatePoolId(token1,token2);\r\n        require(isPoolExist(poolAddress),\"Pool is not exist, please create a new pool.\");        \r\n        require(token1Amount > 0, \"Amount to fund must greater than 0.\");\r\n                \r\n        uint token2Amount;\r\n        if(token1 == liquidityPool[poolAddress].token1){\r\n            uint tokenABalance = liquidityPool[poolAddress].token1Balance;\r\n            uint tokenBBalance = liquidityPool[poolAddress].token2Balance;\r\n\r\n            token2Amount = computePrice(tokenABalance,tokenBBalance,token1Amount); \r\n                     \r\n            liquidityPool[poolAddress].token1Balance += token1Amount;                    \r\n            liquidityPool[poolAddress].token2Balance += token2Amount;   \r\n        }\r\n        else{\r\n            uint tokenABalance = liquidityPool[poolAddress].token2Balance;\r\n            uint tokenBBalance = liquidityPool[poolAddress].token1Balance;            \r\n\r\n            token2Amount = computePrice(tokenABalance,tokenBBalance,token1Amount);\r\n\r\n            liquidityPool[poolAddress].token2Balance += token1Amount;            \r\n            liquidityPool[poolAddress].token1Balance += token2Amount;\r\n        } \r\n\r\n        //Add liquidity\r\n        ERC20Interface poolToken = ERC20Interface(liquidityPool[poolAddress].poolToken);\r\n                \r\n        uint tokenReceived = calculateLPToken(false,token1Amount,token2Amount,liquidityPool[poolAddress].token1Balance,liquidityPool[poolAddress].token2Balance,poolToken.totalSupply());\r\n              \r\n        require(poolToken.mint(msg.sender,tokenReceived),\"Transaction failed.\");\r\n\r\n        ERC20Interface tokenA = ERC20Interface(token1);\r\n        ERC20Interface tokenB = ERC20Interface(token2);\r\n\r\n        tokenA.transferFrom(msg.sender, address(this),token1Amount);\r\n        tokenB.transferFrom(msg.sender, address(this),token2Amount);\r\n    }\r\n\r\n    function addLiquidityPool(address payable token1, address payable token2, uint token1Amount, uint token2Amount) public payable{\r\n        require(token1 != token2,\"Invalid liquidity pool.\");\r\n        address poolAddress = generatePoolId(token1,token2);\r\n\r\n        require(!liquidityPool[poolAddress].isAdded,\"Pool already exist\");\r\n        //need to call approve first\r\n        ERC20Interface tokenA = ERC20Interface(token1);\r\n        ERC20Interface tokenB = ERC20Interface(token2);\r\n\r\n        require(tokenA.allowance(msg.sender, address(this)) >= token1Amount,\"Not enough token are allowed to perform this action.\");        \r\n        require(tokenB.allowance(msg.sender,address(this)) >= token2Amount, \"Not enough token are allowed to perform this action.\");\r\n\r\n        //console.log(\"Progress\", \"Gained Approval\");\r\n        \r\n        require(tokenA.transferFrom(msg.sender,address(this),token1Amount),\"Transaction failed.\");\r\n        require(tokenB.transferFrom(msg.sender,address(this),token2Amount),\"Transaction failed.\");\r\n        //console.log(\"Progress\", \"Token Transfer completed\");\r\n\r\n        MintableToken poolToken = new MintableToken(\"LPT\",concat(tokenA.symbol(),\"-\",tokenB.symbol()),8);        \r\n        \r\n        uint tokenReceived = calculateLPToken(true,token1Amount,token2Amount,0,0,poolToken.totalSupply()); //By Default Pool is empty\r\n        liquidityPool[poolAddress] = Pool(address(poolToken),token1,token2,token1Amount,token2Amount,true);        \r\n        require(poolToken.mint(msg.sender,tokenReceived),\"Transaction failed.\");\r\n        \r\n    }\r\n\r\n    function convertLPTokenToToken(uint lpAmount, uint totalSupply, uint tokenReserve)public pure returns(uint){\r\n        return tokenReserve * lpAmount / totalSupply;\r\n    }\r\n\r\n    function withdrawFund(address pool, uint amount)public payable returns(uint,uint){   \r\n        ERC20Interface poolToken = ERC20Interface(liquidityPool[pool].poolToken);\r\n        require(poolToken.balanceOf(msg.sender) >= amount,\"Not enough amount\");\r\n    \r\n        uint token1Received = convertLPTokenToToken(amount,poolToken.totalSupply(),liquidityPool[pool].token1Balance);\r\n        uint token2Received = convertLPTokenToToken(amount,poolToken.totalSupply(),liquidityPool[pool].token2Balance);        \r\n\r\n        liquidityPool[pool].token1Balance -= token1Received;\r\n        liquidityPool[pool].token2Balance -= token2Received;  \r\n\r\n        ERC20Interface tokenA = ERC20Interface(liquidityPool[pool].token1);\r\n        ERC20Interface tokenB = ERC20Interface(liquidityPool[pool].token2);\r\n\r\n        require(tokenA.transfer(msg.sender,token1Received),\"Transaction failed.\");\r\n        require(tokenB.transfer(msg.sender,token2Received),\"Transaction failed.\");\r\n\r\n        require(poolToken.burn(msg.sender,amount));                \r\n        return (token1Received,token2Received);       \r\n    }\r\n\r\n    function isPoolExist(address _address) private view returns(bool){        \r\n        return liquidityPool[_address].isAdded;        \r\n    }\r\n\r\n    //PURE FUNCTION\r\n    //Retrieve amount of y \r\n    function computePrice(uint256 x, uint256 y, uint256 amount) public pure returns(uint256){\r\n        return (x == 0 && y == 0 ) ? amount : amount * y / x;     \r\n    }\r\n\r\n    function generatePoolId(address tokenA, address tokenB) public pure returns (address){\r\n        (address token0, address token1) = tokenA < tokenB ? (tokenA, tokenB) : (tokenB, tokenA);        \r\n        return address(uint160(uint256(keccak256(abi.encodePacked(token0, token1)))));  \r\n    }\r\n\r\n    function calculateLPToken(bool isInitiator, uint token1Amount, uint token2Amount, uint token1Reserve, uint token2Reserve, uint totalSupply)public pure returns(uint){\r\n        if(!isInitiator){\r\n            uint resultA = token1Amount * totalSupply / token1Reserve;\r\n            uint resultB = token2Amount * totalSupply / token2Reserve;\r\n            return resultA > resultB ? resultB : resultA;\r\n        }\r\n        else{\r\n            return sqrt(token1Amount * token2Amount);\r\n        }\r\n    }\r\n\r\n    function sqrt(uint y) internal pure returns (uint z) {\r\n        if (y > 3) {\r\n            z = y;\r\n            uint x = y / 2 + 1;\r\n            while (x < z) {\r\n                z = x;\r\n                x = (y / x + x) / 2;\r\n            }\r\n        } else if (y != 0) {\r\n            z = 1;\r\n        }\r\n    }\r\n\r\n    modifier onlyOwner(address sender){\r\n        require(sender == owner,\"Only owner able to execute this action.\");\r\n        _;\r\n    }\r\n\r\n    function swap(address fromToken, address toToken, uint256 tokenX) public payable{\r\n        //Step 1: Select pool\r\n        require(fromToken != toToken,\"Invalid Pair of Token\");\r\n        address poolID = generatePoolId(fromToken, toToken);\r\n        require(liquidityPool[poolID].isAdded,\"Liquidity Pool not found.\");\r\n\r\n        //Step 2: Calculate K (here got no K value, we calculate manually)\r\n        uint k = liquidityPool[poolID].token1Balance * liquidityPool[poolID].token2Balance;\r\n\r\n        //Step 3: SWAP_X_to_Y        \r\n        ERC20Interface tokenFrom = ERC20Interface(fromToken);\r\n        ERC20Interface tokenTo = ERC20Interface(toToken);\r\n\r\n        require(tokenX <= tokenFrom.allowance(msg.sender,address(this)),\"Not enough token\");\r\n\r\n        //Step 3.1: Calculate different between y-(k/x)\r\n        uint balanceFrom;\r\n        uint balanceTo; \r\n        if(liquidityPool[poolID].token1 == fromToken){\r\n            balanceFrom = liquidityPool[poolID].token1Balance;\r\n            balanceTo = liquidityPool[poolID].token2Balance;\r\n        }\r\n        else{\r\n            balanceFrom = liquidityPool[poolID].token2Balance;\r\n            balanceTo = liquidityPool[poolID].token1Balance;\r\n        }\r\n\r\n        uint difference = balanceTo - (k/(balanceFrom+tokenX));\r\n                \r\n        //Step 3.2: Transfer the amount of difference from pool to user account\r\n        require(tokenTo.transfer(msg.sender, difference),\"Transaction failed.\"); //transfer\r\n\r\n        //Step 3.3: Transfer amount of TokenX (fromToken) from user account to pool\r\n        require(tokenFrom.transferFrom(msg.sender, address(this), tokenX),\"Transaction failed\"); //transferfrom\r\n            \r\n\t    //Step 3.4: update pool's token value\r\n        if(liquidityPool[poolID].token1 == fromToken){\r\n            liquidityPool[poolID].token1Balance += tokenX; //plus because we add in the tokenX into Pool\r\n            liquidityPool[poolID].token2Balance -= difference; //minus because we already take the tokenY       \r\n        }\r\n        else{\r\n            liquidityPool[poolID].token2Balance += tokenX;\r\n            liquidityPool[poolID].token1Balance -= difference;     \r\n        }         \r\n    }\r\n\r\n    function estSwap(address fromToken,address toToken, uint256 tokenX)public view returns(uint){\r\n        address poolID = generatePoolId(fromToken, toToken);\r\n        require(liquidityPool[poolID].isAdded,\"Liquidity Pool not found.\");\r\n        \r\n\r\n        uint k = liquidityPool[poolID].token1Balance * liquidityPool[poolID].token2Balance;\r\n\r\n        uint balanceFrom;\r\n        uint balanceTo; \r\n        if(liquidityPool[poolID].token1 == fromToken){\r\n            balanceFrom = liquidityPool[poolID].token1Balance;\r\n            balanceTo = liquidityPool[poolID].token2Balance;\r\n        }\r\n        else{\r\n            balanceFrom = liquidityPool[poolID].token2Balance;\r\n            balanceTo = liquidityPool[poolID].token1Balance;\r\n        }\r\n\r\n        return (balanceTo - (k/(balanceFrom+tokenX)));        \r\n    }\r\n\r\n    function estFundPool(address tokenA, address tokenB, uint amount)public view returns(uint amount2, uint share){\r\n        require(tokenA != tokenB,\"Invalid Pool\");\r\n        address poolAddress = generatePoolId(tokenA,tokenB);\r\n        require(isPoolExist(poolAddress),\"Pool is not exist.\");        \r\n\r\n        uint tokenABalance;\r\n        uint tokenBBalance;        \r\n        if(tokenA == liquidityPool[poolAddress].token1){\r\n            tokenABalance = liquidityPool[poolAddress].token1Balance;\r\n            tokenBBalance = liquidityPool[poolAddress].token2Balance;         \r\n        }\r\n        else{\r\n            tokenABalance = liquidityPool[poolAddress].token2Balance;\r\n            tokenBBalance = liquidityPool[poolAddress].token1Balance;            \r\n        }        \r\n        uint token2Amount = computePrice(tokenABalance,tokenBBalance,amount);  \r\n        return (token2Amount,(amount * 10000) / (tokenABalance + amount));\r\n        //Return Amount Need To import for B, share in percentage (0 stands for < 0.01%)\r\n    }\r\n\r\n    function estWithdrawFund(address pool, uint amount)public view returns(uint amount1,uint amount2,address token1,address token2){\r\n        require(isPoolExist(pool),\"Invalid Pool.\");\r\n        \r\n        ERC20Interface poolToken = ERC20Interface(liquidityPool[pool].poolToken);\r\n    \r\n        uint token1Received = convertLPTokenToToken(amount,poolToken.totalSupply(),liquidityPool[pool].token1Balance);\r\n        uint token2Received = convertLPTokenToToken(amount,poolToken.totalSupply(),liquidityPool[pool].token2Balance);        \r\n              \r\n        return (token1Received,token2Received,liquidityPool[pool].token1,liquidityPool[pool].token2);\r\n    }\r\n\r\n    function concat(string memory a, string memory b, string memory c)private pure returns(string memory){\r\n        return string(abi.encodePacked(a, b,c));\r\n    }    \r\n}\r\n",
  "sourcePath": "B:\\Degree Material\\Year 3 Sem 2\\Block Chain Application\\Assignment\\Dex Platform\\contracts\\dex.sol",
  "compiler": {
    "name": "solc",
    "version": "0.8.10+commit.fc410830.Emscripten.clang"
  },
  "schemaVersion": "3.4.3",
  "updatedAt": "2021-12-10T16:59:19.527Z",
  "networkType": "ethereum",
  "devdoc": {
    "kind": "dev",
    "methods": {},
    "version": 1
  },
  "userdoc": {
    "kind": "user",
    "methods": {},
    "version": 1
  }
}