{
  "contractName": "dex",
  "abi": [
    {
      "inputs": [],
      "stateMutability": "nonpayable",
      "type": "constructor"
    },
    {
      "anonymous": false,
      "inputs": [
        {
          "components": [
            {
              "internalType": "address",
              "name": "poolToken",
              "type": "address"
            },
            {
              "internalType": "address",
              "name": "token1",
              "type": "address"
            },
            {
              "internalType": "address",
              "name": "token2",
              "type": "address"
            },
            {
              "internalType": "uint256",
              "name": "token1Balance",
              "type": "uint256"
            },
            {
              "internalType": "uint256",
              "name": "token2Balance",
              "type": "uint256"
            },
            {
              "internalType": "bool",
              "name": "isAdded",
              "type": "bool"
            }
          ],
          "indexed": false,
          "internalType": "struct dex.Pool",
          "name": "",
          "type": "tuple"
        }
      ],
      "name": "PoolDetails",
      "type": "event"
    },
    {
      "inputs": [
        {
          "internalType": "address",
          "name": "",
          "type": "address"
        }
      ],
      "name": "liquidityPool",
      "outputs": [
        {
          "internalType": "address",
          "name": "poolToken",
          "type": "address"
        },
        {
          "internalType": "address",
          "name": "token1",
          "type": "address"
        },
        {
          "internalType": "address",
          "name": "token2",
          "type": "address"
        },
        {
          "internalType": "uint256",
          "name": "token1Balance",
          "type": "uint256"
        },
        {
          "internalType": "uint256",
          "name": "token2Balance",
          "type": "uint256"
        },
        {
          "internalType": "bool",
          "name": "isAdded",
          "type": "bool"
        }
      ],
      "stateMutability": "view",
      "type": "function",
      "constant": true
    },
    {
      "inputs": [
        {
          "internalType": "address",
          "name": "token",
          "type": "address"
        },
        {
          "internalType": "uint256",
          "name": "amount",
          "type": "uint256"
        }
      ],
      "name": "checkBalances",
      "outputs": [
        {
          "internalType": "bool",
          "name": "",
          "type": "bool"
        }
      ],
      "stateMutability": "view",
      "type": "function",
      "constant": true
    },
    {
      "inputs": [
        {
          "internalType": "address",
          "name": "pool",
          "type": "address"
        }
      ],
      "name": "getLPTokenAddress",
      "outputs": [
        {
          "internalType": "address",
          "name": "",
          "type": "address"
        }
      ],
      "stateMutability": "view",
      "type": "function",
      "constant": true
    },
    {
      "inputs": [
        {
          "internalType": "address payable",
          "name": "token1",
          "type": "address"
        },
        {
          "internalType": "address payable",
          "name": "token2",
          "type": "address"
        },
        {
          "internalType": "uint256",
          "name": "token1Amount",
          "type": "uint256"
        }
      ],
      "name": "fundLiquidityPool",
      "outputs": [
        {
          "internalType": "address",
          "name": "",
          "type": "address"
        }
      ],
      "stateMutability": "payable",
      "type": "function",
      "payable": true
    },
    {
      "inputs": [
        {
          "internalType": "address payable",
          "name": "token1",
          "type": "address"
        },
        {
          "internalType": "address payable",
          "name": "token2",
          "type": "address"
        },
        {
          "internalType": "uint256",
          "name": "token1Amount",
          "type": "uint256"
        },
        {
          "internalType": "uint256",
          "name": "token2Amount",
          "type": "uint256"
        }
      ],
      "name": "addLiquidityPool",
      "outputs": [
        {
          "internalType": "address",
          "name": "",
          "type": "address"
        },
        {
          "internalType": "address",
          "name": "",
          "type": "address"
        }
      ],
      "stateMutability": "payable",
      "type": "function",
      "payable": true
    },
    {
      "inputs": [
        {
          "internalType": "uint256",
          "name": "lpAmount",
          "type": "uint256"
        },
        {
          "internalType": "uint256",
          "name": "totalSupply",
          "type": "uint256"
        },
        {
          "internalType": "uint256",
          "name": "tokenReserve",
          "type": "uint256"
        }
      ],
      "name": "convertLPTokenToToken",
      "outputs": [
        {
          "internalType": "uint256",
          "name": "",
          "type": "uint256"
        }
      ],
      "stateMutability": "pure",
      "type": "function",
      "constant": true
    },
    {
      "inputs": [
        {
          "internalType": "address",
          "name": "pool",
          "type": "address"
        },
        {
          "internalType": "uint256",
          "name": "amount",
          "type": "uint256"
        }
      ],
      "name": "withdrawFund",
      "outputs": [
        {
          "internalType": "uint256",
          "name": "",
          "type": "uint256"
        },
        {
          "internalType": "uint256",
          "name": "",
          "type": "uint256"
        }
      ],
      "stateMutability": "payable",
      "type": "function",
      "payable": true
    },
    {
      "inputs": [
        {
          "internalType": "address",
          "name": "tokenA",
          "type": "address"
        },
        {
          "internalType": "address",
          "name": "tokenB",
          "type": "address"
        }
      ],
      "name": "isPoolExist",
      "outputs": [
        {
          "internalType": "bool",
          "name": "",
          "type": "bool"
        }
      ],
      "stateMutability": "view",
      "type": "function",
      "constant": true
    },
    {
      "inputs": [
        {
          "internalType": "uint256",
          "name": "x",
          "type": "uint256"
        },
        {
          "internalType": "uint256",
          "name": "y",
          "type": "uint256"
        },
        {
          "internalType": "uint256",
          "name": "amount",
          "type": "uint256"
        }
      ],
      "name": "computePrice",
      "outputs": [
        {
          "internalType": "uint256",
          "name": "",
          "type": "uint256"
        }
      ],
      "stateMutability": "pure",
      "type": "function",
      "constant": true
    },
    {
      "inputs": [
        {
          "internalType": "address",
          "name": "tokenA",
          "type": "address"
        },
        {
          "internalType": "address",
          "name": "tokenB",
          "type": "address"
        }
      ],
      "name": "generatePoolId",
      "outputs": [
        {
          "internalType": "address",
          "name": "",
          "type": "address"
        }
      ],
      "stateMutability": "pure",
      "type": "function",
      "constant": true
    },
    {
      "inputs": [
        {
          "internalType": "uint256",
          "name": "tokenAmount",
          "type": "uint256"
        },
        {
          "internalType": "uint256",
          "name": "poolAmount",
          "type": "uint256"
        },
        {
          "internalType": "uint256",
          "name": "accumulatedInterest",
          "type": "uint256"
        }
      ],
      "name": "calculateInterest",
      "outputs": [
        {
          "internalType": "uint256",
          "name": "",
          "type": "uint256"
        }
      ],
      "stateMutability": "pure",
      "type": "function",
      "constant": true
    },
    {
      "inputs": [
        {
          "internalType": "bool",
          "name": "isInitiator",
          "type": "bool"
        },
        {
          "internalType": "uint256",
          "name": "token1Amount",
          "type": "uint256"
        },
        {
          "internalType": "uint256",
          "name": "token2Amount",
          "type": "uint256"
        },
        {
          "internalType": "uint256",
          "name": "token1Reserve",
          "type": "uint256"
        },
        {
          "internalType": "uint256",
          "name": "token2Reserve",
          "type": "uint256"
        },
        {
          "internalType": "uint256",
          "name": "totalSupply",
          "type": "uint256"
        }
      ],
      "name": "calculateLPToken",
      "outputs": [
        {
          "internalType": "uint256",
          "name": "",
          "type": "uint256"
        }
      ],
      "stateMutability": "pure",
      "type": "function",
      "constant": true
    },
    {
      "inputs": [
        {
          "internalType": "address",
          "name": "fromToken",
          "type": "address"
        },
        {
          "internalType": "address",
          "name": "toToken",
          "type": "address"
        },
        {
          "internalType": "uint256",
          "name": "tokenX",
          "type": "uint256"
        }
      ],
      "name": "swap",
      "outputs": [],
      "stateMutability": "payable",
      "type": "function",
      "payable": true
    },
    {
      "inputs": [
        {
          "internalType": "address",
          "name": "fromToken",
          "type": "address"
        },
        {
          "internalType": "address",
          "name": "toToken",
          "type": "address"
        },
        {
          "internalType": "uint256",
          "name": "tokenX",
          "type": "uint256"
        }
      ],
      "name": "estSwap",
      "outputs": [
        {
          "internalType": "uint256",
          "name": "",
          "type": "uint256"
        }
      ],
      "stateMutability": "view",
      "type": "function",
      "constant": true
    },
    {
      "inputs": [
        {
          "internalType": "address",
          "name": "tokenA",
          "type": "address"
        },
        {
          "internalType": "address",
          "name": "tokenB",
          "type": "address"
        },
        {
          "internalType": "uint256",
          "name": "amount",
          "type": "uint256"
        }
      ],
      "name": "estFundPool",
      "outputs": [
        {
          "internalType": "uint256",
          "name": "amount2",
          "type": "uint256"
        },
        {
          "internalType": "address",
          "name": "token2",
          "type": "address"
        },
        {
          "internalType": "uint256",
          "name": "share",
          "type": "uint256"
        }
      ],
      "stateMutability": "view",
      "type": "function",
      "constant": true
    },
    {
      "inputs": [
        {
          "internalType": "address",
          "name": "tokenA",
          "type": "address"
        },
        {
          "internalType": "address",
          "name": "tokenB",
          "type": "address"
        },
        {
          "internalType": "uint256",
          "name": "amountA",
          "type": "uint256"
        },
        {
          "internalType": "uint256",
          "name": "amountB",
          "type": "uint256"
        }
      ],
      "name": "estAddNewPool",
      "outputs": [
        {
          "internalType": "uint256",
          "name": "amountReceived",
          "type": "uint256"
        },
        {
          "internalType": "uint256",
          "name": "decimal",
          "type": "uint256"
        }
      ],
      "stateMutability": "view",
      "type": "function",
      "constant": true
    },
    {
      "inputs": [
        {
          "internalType": "address",
          "name": "pool",
          "type": "address"
        },
        {
          "internalType": "uint256",
          "name": "amount",
          "type": "uint256"
        }
      ],
      "name": "estWithdrawFund",
      "outputs": [
        {
          "internalType": "uint256",
          "name": "amount1",
          "type": "uint256"
        },
        {
          "internalType": "uint256",
          "name": "amount2",
          "type": "uint256"
        },
        {
          "internalType": "address",
          "name": "token1",
          "type": "address"
        },
        {
          "internalType": "address",
          "name": "token2",
          "type": "address"
        }
      ],
      "stateMutability": "view",
      "type": "function",
      "constant": true
    },
    {
      "inputs": [
        {
          "internalType": "address",
          "name": "pool",
          "type": "address"
        }
      ],
      "name": "getPoolDetails",
      "outputs": [
        {
          "internalType": "bool",
          "name": "",
          "type": "bool"
        }
      ],
      "stateMutability": "nonpayable",
      "type": "function"
    }
  ],
  "bytecode": "0x608060405234801561001057600080fd5b5033600160006101000a81548173ffffffffffffffffffffffffffffffffffffffff021916908373ffffffffffffffffffffffffffffffffffffffff160217905550615e2d806100616000396000f3fe608060405260043610620001225760003560e01c8063c0806db611620000a3578063df791e50116200006d578063df791e50146200048b578063e1d2e3ee14620004ab578063e5e2496e14620004ef578063f7c8d2211462000533578063ff41a2d2146200056a5762000122565b8063c0806db61462000383578063d3e90fa014620003cc578063d874c85a1462000410578063dc86967314620004545762000122565b80637179394911620000f157806371793949146200023b57806374c3b43314620002715780637d93c52c14620002b5578063841bdb9e14620002fb578063ac0ebe96146200033f5762000122565b806305e1bd8c1462000127578063208f54bd146200016b57806341ba280514620001b05780634939ea4d14620001f7575b600080fd5b3480156200013457600080fd5b506200015360048036038101906200014d919062003008565b620005ae565b60405162000162919062003075565b60405180910390f35b3480156200017857600080fd5b50620001976004803603810190620001919190620030f7565b620005d4565b604051620001a792919062003169565b60405180910390f35b348015620001bd57600080fd5b50620001dc6004803603810190620001d6919062003196565b62000714565b604051620001ee9493929190620031ee565b60405180910390f35b3480156200020457600080fd5b506200022360048036038101906200021d91906200323b565b62000a2d565b6040516200023291906200326d565b60405180910390f35b620002596004803603810190620002539190620032cf565b62000c07565b6040516200026891906200326d565b60405180910390f35b3480156200027e57600080fd5b506200029d600480360381019062000297919062003008565b62001178565b604051620002ac919062003075565b60405180910390f35b348015620002c257600080fd5b50620002e16004803603810190620002db91906200332b565b620011be565b604051620002f29392919062003387565b60405180910390f35b3480156200030857600080fd5b50620003276004803603810190620003219190620033c4565b62001536565b60405162000336919062003428565b60405180910390f35b3480156200034c57600080fd5b506200036b600480360381019062000365919062003476565b620015c8565b6040516200037a919062003075565b60405180910390f35b3480156200039057600080fd5b50620003af6004803603810190620003a991906200323b565b6200164e565b604051620003c39695949392919062003512565b60405180910390f35b348015620003d957600080fd5b50620003f86004803603810190620003f291906200323b565b620016f7565b60405162000407919062003428565b60405180910390f35b3480156200041d57600080fd5b506200043c6004803603810190620004369190620033c4565b62001794565b6040516200044b91906200326d565b60405180910390f35b6200047260048036038101906200046c91906200357f565b62001814565b60405162000482929190620035f1565b60405180910390f35b620004a96004803603810190620004a391906200332b565b62001fa9565b005b348015620004b857600080fd5b50620004d76004803603810190620004d191906200332b565b620024a6565b604051620004e6919062003075565b60405180910390f35b348015620004fc57600080fd5b506200051b600480360381019062000515919062003196565b62002697565b6040516200052a919062003428565b60405180910390f35b6200055160048036038101906200054b919062003196565b62002723565b6040516200056192919062003169565b60405180910390f35b3480156200057757600080fd5b5062000596600480360381019062000590919062003008565b62002d7f565b604051620005a5919062003075565b60405180910390f35b6000828285620005bf91906200364d565b620005cb9190620036dd565b90509392505050565b6000808473ffffffffffffffffffffffffffffffffffffffff168673ffffffffffffffffffffffffffffffffffffffff16141562000649576040517f08c379a0000000000000000000000000000000000000000000000000000000008152600401620006409062003776565b60405180910390fd5b600062000657878762001794565b90506000808273ffffffffffffffffffffffffffffffffffffffff1673ffffffffffffffffffffffffffffffffffffffff16815260200190815260200160002060050160009054906101000a900460ff1615620006eb576040517f08c379a0000000000000000000000000000000000000000000000000000000008152600401620006e290620037e8565b60405180910390fd5b600062000700600187876000806000620015c8565b905080600893509350505094509492505050565b600080600080620007258662002da5565b62000767576040517f08c379a00000000000000000000000000000000000000000000000000000000081526004016200075e906200385a565b60405180910390fd5b60008060008873ffffffffffffffffffffffffffffffffffffffff1673ffffffffffffffffffffffffffffffffffffffff16815260200190815260200160002060000160009054906101000a900473ffffffffffffffffffffffffffffffffffffffff16905060006200088e878373ffffffffffffffffffffffffffffffffffffffff166318160ddd6040518163ffffffff1660e01b8152600401602060405180830381865afa15801562000820573d6000803e3d6000fd5b505050506040513d601f19601f8201168201806040525081019062000846919062003893565b6000808c73ffffffffffffffffffffffffffffffffffffffff1673ffffffffffffffffffffffffffffffffffffffff1681526020019081526020016000206003015462002d7f565b9050600062000951888473ffffffffffffffffffffffffffffffffffffffff166318160ddd6040518163ffffffff1660e01b8152600401602060405180830381865afa158015620008e3573d6000803e3d6000fd5b505050506040513d601f19601f8201168201806040525081019062000909919062003893565b6000808d73ffffffffffffffffffffffffffffffffffffffff1673ffffffffffffffffffffffffffffffffffffffff1681526020019081526020016000206004015462002d7f565b905081816000808c73ffffffffffffffffffffffffffffffffffffffff1673ffffffffffffffffffffffffffffffffffffffff16815260200190815260200160002060010160009054906101000a900473ffffffffffffffffffffffffffffffffffffffff166000808d73ffffffffffffffffffffffffffffffffffffffff1673ffffffffffffffffffffffffffffffffffffffff16815260200190815260200160002060020160009054906101000a900473ffffffffffffffffffffffffffffffffffffffff16965096509650965050505092959194509250565b600062000a3a8262002da5565b62000a7c576040517f08c379a000000000000000000000000000000000000000000000000000000000815260040162000a739062003915565b60405180910390fd5b60008060008473ffffffffffffffffffffffffffffffffffffffff1673ffffffffffffffffffffffffffffffffffffffff1681526020019081526020016000206040518060c00160405290816000820160009054906101000a900473ffffffffffffffffffffffffffffffffffffffff1673ffffffffffffffffffffffffffffffffffffffff1673ffffffffffffffffffffffffffffffffffffffff1681526020016001820160009054906101000a900473ffffffffffffffffffffffffffffffffffffffff1673ffffffffffffffffffffffffffffffffffffffff1673ffffffffffffffffffffffffffffffffffffffff1681526020016002820160009054906101000a900473ffffffffffffffffffffffffffffffffffffffff1673ffffffffffffffffffffffffffffffffffffffff1673ffffffffffffffffffffffffffffffffffffffff16815260200160038201548152602001600482015481526020016005820160009054906101000a900460ff16151515158152505090508060000151915050919050565b60008273ffffffffffffffffffffffffffffffffffffffff168473ffffffffffffffffffffffffffffffffffffffff16141562000c7b576040517f08c379a000000000000000000000000000000000000000000000000000000000815260040162000c729062003987565b60405180910390fd5b600062000c89858562001794565b905062000c968162002da5565b62000cd8576040517f08c379a000000000000000000000000000000000000000000000000000000000815260040162000ccf9062003a1f565b60405180910390fd5b600062000d696000808473ffffffffffffffffffffffffffffffffffffffff1673ffffffffffffffffffffffffffffffffffffffff168152602001908152602001600020600301546000808573ffffffffffffffffffffffffffffffffffffffff1673ffffffffffffffffffffffffffffffffffffffff168152602001908152602001600020600401548662001178565b9050806000808473ffffffffffffffffffffffffffffffffffffffff1673ffffffffffffffffffffffffffffffffffffffff168152602001908152602001600020600401600082825462000dbe919062003a41565b92505081905550836000808473ffffffffffffffffffffffffffffffffffffffff1673ffffffffffffffffffffffffffffffffffffffff168152602001908152602001600020600301600082825462000e18919062003a41565b9250508190555060008060008473ffffffffffffffffffffffffffffffffffffffff1673ffffffffffffffffffffffffffffffffffffffff16815260200190815260200160002060000160009054906101000a900473ffffffffffffffffffffffffffffffffffffffff169050600062000f8b600087856000808973ffffffffffffffffffffffffffffffffffffffff1673ffffffffffffffffffffffffffffffffffffffff168152602001908152602001600020600301546000808a73ffffffffffffffffffffffffffffffffffffffff1673ffffffffffffffffffffffffffffffffffffffff168152602001908152602001600020600401548773ffffffffffffffffffffffffffffffffffffffff166318160ddd6040518163ffffffff1660e01b8152600401602060405180830381865afa15801562000f5f573d6000803e3d6000fd5b505050506040513d601f19601f8201168201806040525081019062000f85919062003893565b620015c8565b90508173ffffffffffffffffffffffffffffffffffffffff166340c10f1933836040518363ffffffff1660e01b815260040162000fca92919062003a9e565b6020604051808303816000875af115801562000fea573d6000803e3d6000fd5b505050506040513d601f19601f8201168201806040525081019062001010919062003ae2565b62001052576040517f08c379a0000000000000000000000000000000000000000000000000000000008152600401620010499062003b64565b60405180910390fd5b600088905060008890508173ffffffffffffffffffffffffffffffffffffffff166323b872dd33308b6040518463ffffffff1660e01b81526004016200109b9392919062003b86565b6020604051808303816000875af1158015620010bb573d6000803e3d6000fd5b505050506040513d601f19601f82011682018060405250810190620010e1919062003ae2565b508073ffffffffffffffffffffffffffffffffffffffff166323b872dd3330886040518463ffffffff1660e01b8152600401620011219392919062003b86565b6020604051808303816000875af115801562001141573d6000803e3d6000fd5b505050506040513d601f19601f8201168201806040525081019062001167919062003ae2565b508596505050505050509392505050565b600080841480156200118a5750600083145b156200119957819050620011b7565b828483620011a891906200364d565b620011b49190620036dd565b90505b9392505050565b60008060008473ffffffffffffffffffffffffffffffffffffffff168673ffffffffffffffffffffffffffffffffffffffff16141562001235576040517f08c379a00000000000000000000000000000000000000000000000000000000081526004016200122c9062003915565b60405180910390fd5b600062001243878762001794565b9050620012508162002da5565b62001292576040517f08c379a0000000000000000000000000000000000000000000000000000000008152600401620012899062003c13565b60405180910390fd5b6000620013236000808473ffffffffffffffffffffffffffffffffffffffff1673ffffffffffffffffffffffffffffffffffffffff168152602001908152602001600020600301546000808573ffffffffffffffffffffffffffffffffffffffff1673ffffffffffffffffffffffffffffffffffffffff168152602001908152602001600020600401548862001178565b905060008060008473ffffffffffffffffffffffffffffffffffffffff1673ffffffffffffffffffffffffffffffffffffffff16815260200190815260200160002060000160009054906101000a900473ffffffffffffffffffffffffffffffffffffffff169050600062001491600089856000808973ffffffffffffffffffffffffffffffffffffffff1673ffffffffffffffffffffffffffffffffffffffff168152602001908152602001600020600301546000808a73ffffffffffffffffffffffffffffffffffffffff1673ffffffffffffffffffffffffffffffffffffffff168152602001908152602001600020600401548773ffffffffffffffffffffffffffffffffffffffff166318160ddd6040518163ffffffff1660e01b8152600401602060405180830381865afa15801562001465573d6000803e3d6000fd5b505050506040513d601f19601f820116820180604052508101906200148b919062003893565b620015c8565b905082898373ffffffffffffffffffffffffffffffffffffffff166318160ddd6040518163ffffffff1660e01b8152600401602060405180830381865afa158015620014e1573d6000803e3d6000fd5b505050506040513d601f19601f8201168201806040525081019062001507919062003893565b6103e8846200151791906200364d565b620015239190620036dd565b9650965096505050505093509350939050565b60008173ffffffffffffffffffffffffffffffffffffffff168373ffffffffffffffffffffffffffffffffffffffff161415620015aa576040517f08c379a0000000000000000000000000000000000000000000000000000000008152600401620015a19062003c85565b60405180910390fd5b620015c0620015ba848462001794565b62002da5565b905092915050565b60008662001629576000848388620015e191906200364d565b620015ed9190620036dd565b905060008484886200160091906200364d565b6200160c9190620036dd565b90508082116200161d57816200161f565b805b9250505062001644565b6200164185876200163b91906200364d565b62002f31565b90505b9695505050505050565b60006020528060005260406000206000915090508060000160009054906101000a900473ffffffffffffffffffffffffffffffffffffffff16908060010160009054906101000a900473ffffffffffffffffffffffffffffffffffffffff16908060020160009054906101000a900473ffffffffffffffffffffffffffffffffffffffff16908060030154908060040154908060050160009054906101000a900460ff16905086565b6000620017048262002da5565b156200178a577f1635fffd0150a022028a84b9b887776809b1ac9e391380fd10008dfdd7bbf9e86000808473ffffffffffffffffffffffffffffffffffffffff1673ffffffffffffffffffffffffffffffffffffffff16815260200190815260200160002060405162001778919062003e4f565b60405180910390a1600190506200178f565b600090505b919050565b60008060008373ffffffffffffffffffffffffffffffffffffffff168573ffffffffffffffffffffffffffffffffffffffff1610620017d5578385620017d8565b84845b915091508181604051602001620017f192919062003ebc565b6040516020818303038152906040528051906020012060001c9250505092915050565b6000808473ffffffffffffffffffffffffffffffffffffffff168673ffffffffffffffffffffffffffffffffffffffff16141562001889576040517f08c379a0000000000000000000000000000000000000000000000000000000008152600401620018809062003776565b60405180910390fd5b600062001897878762001794565b90506000808273ffffffffffffffffffffffffffffffffffffffff1673ffffffffffffffffffffffffffffffffffffffff16815260200190815260200160002060050160009054906101000a900460ff16156200192b576040517f08c379a00000000000000000000000000000000000000000000000000000000081526004016200192290620037e8565b60405180910390fd5b60008790506000879050868273ffffffffffffffffffffffffffffffffffffffff1663dd62ed3e33306040518363ffffffff1660e01b815260040162001973929190620035f1565b602060405180830381865afa15801562001991573d6000803e3d6000fd5b505050506040513d601f19601f82011682018060405250810190620019b7919062003893565b1015620019fb576040517f08c379a0000000000000000000000000000000000000000000000000000000008152600401620019f29062003f62565b60405180910390fd5b858173ffffffffffffffffffffffffffffffffffffffff1663dd62ed3e33306040518363ffffffff1660e01b815260040162001a39929190620035f1565b602060405180830381865afa15801562001a57573d6000803e3d6000fd5b505050506040513d601f19601f8201168201806040525081019062001a7d919062003893565b101562001ac1576040517f08c379a000000000000000000000000000000000000000000000000000000000815260040162001ab89062003f62565b60405180910390fd5b8173ffffffffffffffffffffffffffffffffffffffff166323b872dd33308a6040518463ffffffff1660e01b815260040162001b009392919062003b86565b6020604051808303816000875af115801562001b20573d6000803e3d6000fd5b505050506040513d601f19601f8201168201806040525081019062001b46919062003ae2565b62001b88576040517f08c379a000000000000000000000000000000000000000000000000000000000815260040162001b7f9062003b64565b60405180910390fd5b8073ffffffffffffffffffffffffffffffffffffffff166323b872dd3330896040518463ffffffff1660e01b815260040162001bc79392919062003b86565b6020604051808303816000875af115801562001be7573d6000803e3d6000fd5b505050506040513d601f19601f8201168201806040525081019062001c0d919062003ae2565b62001c4f576040517f08c379a000000000000000000000000000000000000000000000000000000000815260040162001c469062003b64565b60405180910390fd5b6000600860405162001c619062002fba565b62001c6d91906200407e565b604051809103906000f08015801562001c8a573d6000803e3d6000fd5b509050600062001d1260018a8a6000808773ffffffffffffffffffffffffffffffffffffffff166318160ddd6040518163ffffffff1660e01b8152600401602060405180830381865afa15801562001ce6573d6000803e3d6000fd5b505050506040513d601f19601f8201168201806040525081019062001d0c919062003893565b620015c8565b90506040518060c001604052808373ffffffffffffffffffffffffffffffffffffffff1681526020018c73ffffffffffffffffffffffffffffffffffffffff1681526020018b73ffffffffffffffffffffffffffffffffffffffff1681526020018a8152602001898152602001600115158152506000808773ffffffffffffffffffffffffffffffffffffffff1673ffffffffffffffffffffffffffffffffffffffff16815260200190815260200160002060008201518160000160006101000a81548173ffffffffffffffffffffffffffffffffffffffff021916908373ffffffffffffffffffffffffffffffffffffffff16021790555060208201518160010160006101000a81548173ffffffffffffffffffffffffffffffffffffffff021916908373ffffffffffffffffffffffffffffffffffffffff16021790555060408201518160020160006101000a81548173ffffffffffffffffffffffffffffffffffffffff021916908373ffffffffffffffffffffffffffffffffffffffff160217905550606082015181600301556080820151816004015560a08201518160050160006101000a81548160ff0219169083151502179055509050508173ffffffffffffffffffffffffffffffffffffffff166340c10f1933836040518363ffffffff1660e01b815260040162001f0d92919062003a9e565b6020604051808303816000875af115801562001f2d573d6000803e3d6000fd5b505050506040513d601f19601f8201168201806040525081019062001f53919062003ae2565b62001f95576040517f08c379a000000000000000000000000000000000000000000000000000000000815260040162001f8c9062003b64565b60405180910390fd5b848296509650505050505094509492505050565b600062001fb7848462001794565b90506000808273ffffffffffffffffffffffffffffffffffffffff1673ffffffffffffffffffffffffffffffffffffffff16815260200190815260200160002060050160009054906101000a900460ff166200204a576040517f08c379a0000000000000000000000000000000000000000000000000000000008152600401620020419062004115565b60405180910390fd5b60008060008373ffffffffffffffffffffffffffffffffffffffff1673ffffffffffffffffffffffffffffffffffffffff168152602001908152602001600020600401546000808473ffffffffffffffffffffffffffffffffffffffff1673ffffffffffffffffffffffffffffffffffffffff16815260200190815260200160002060030154620020dc91906200364d565b9050600085905060008590508173ffffffffffffffffffffffffffffffffffffffff1663dd62ed3e33306040518363ffffffff1660e01b815260040162002125929190620035f1565b602060405180830381865afa15801562002143573d6000803e3d6000fd5b505050506040513d601f19601f8201168201806040525081019062002169919062003893565b851115620021ae576040517f08c379a0000000000000000000000000000000000000000000000000000000008152600401620021a59062004187565b60405180910390fd5b6000856000808773ffffffffffffffffffffffffffffffffffffffff1673ffffffffffffffffffffffffffffffffffffffff16815260200190815260200160002060030154620021ff919062003a41565b846200220c9190620036dd565b6000808773ffffffffffffffffffffffffffffffffffffffff1673ffffffffffffffffffffffffffffffffffffffff168152602001908152602001600020600401546200225a9190620041a9565b90508173ffffffffffffffffffffffffffffffffffffffff1663a9059cbb33836040518363ffffffff1660e01b81526004016200229992919062003a9e565b6020604051808303816000875af1158015620022b9573d6000803e3d6000fd5b505050506040513d601f19601f82011682018060405250810190620022df919062003ae2565b62002321576040517f08c379a0000000000000000000000000000000000000000000000000000000008152600401620023189062003b64565b60405180910390fd5b8273ffffffffffffffffffffffffffffffffffffffff166323b872dd3330896040518463ffffffff1660e01b8152600401620023609392919062003b86565b6020604051808303816000875af115801562002380573d6000803e3d6000fd5b505050506040513d601f19601f82011682018060405250810190620023a6919062003ae2565b620023e8576040517f08c379a0000000000000000000000000000000000000000000000000000000008152600401620023df9062004234565b60405180910390fd5b856000808773ffffffffffffffffffffffffffffffffffffffff1673ffffffffffffffffffffffffffffffffffffffff16815260200190815260200160002060030160008282546200243b919062003a41565b92505081905550806000808773ffffffffffffffffffffffffffffffffffffffff1673ffffffffffffffffffffffffffffffffffffffff1681526020019081526020016000206004016000828254620024959190620041a9565b925050819055505050505050505050565b600080620024b5858562001794565b90506000808273ffffffffffffffffffffffffffffffffffffffff1673ffffffffffffffffffffffffffffffffffffffff16815260200190815260200160002060050160009054906101000a900460ff1662002548576040517f08c379a00000000000000000000000000000000000000000000000000000000081526004016200253f9062004115565b60405180910390fd5b60008060008373ffffffffffffffffffffffffffffffffffffffff1673ffffffffffffffffffffffffffffffffffffffff168152602001908152602001600020600401546000808473ffffffffffffffffffffffffffffffffffffffff1673ffffffffffffffffffffffffffffffffffffffff16815260200190815260200160002060030154620025da91906200364d565b90506000846000808573ffffffffffffffffffffffffffffffffffffffff1673ffffffffffffffffffffffffffffffffffffffff168152602001908152602001600020600301546200262d919062003a41565b826200263a9190620036dd565b6000808573ffffffffffffffffffffffffffffffffffffffff1673ffffffffffffffffffffffffffffffffffffffff16815260200190815260200160002060040154620026889190620041a9565b90508093505050509392505050565b6000818373ffffffffffffffffffffffffffffffffffffffff166370a08231336040518263ffffffff1660e01b8152600401620026d591906200326d565b602060405180830381865afa158015620026f3573d6000803e3d6000fd5b505050506040513d601f19601f8201168201806040525081019062002719919062003893565b1015905092915050565b60008060008060008673ffffffffffffffffffffffffffffffffffffffff1673ffffffffffffffffffffffffffffffffffffffff16815260200190815260200160002060000160009054906101000a900473ffffffffffffffffffffffffffffffffffffffff169050838173ffffffffffffffffffffffffffffffffffffffff166370a08231336040518263ffffffff1660e01b8152600401620027c891906200326d565b602060405180830381865afa158015620027e6573d6000803e3d6000fd5b505050506040513d601f19601f820116820180604052508101906200280c919062003893565b101562002850576040517f08c379a00000000000000000000000000000000000000000000000000000000081526004016200284790620042a6565b60405180910390fd5b600062002911858373ffffffffffffffffffffffffffffffffffffffff166318160ddd6040518163ffffffff1660e01b8152600401602060405180830381865afa158015620028a3573d6000803e3d6000fd5b505050506040513d601f19601f82011682018060405250810190620028c9919062003893565b6000808a73ffffffffffffffffffffffffffffffffffffffff1673ffffffffffffffffffffffffffffffffffffffff1681526020019081526020016000206003015462002d7f565b90506000620029d4868473ffffffffffffffffffffffffffffffffffffffff166318160ddd6040518163ffffffff1660e01b8152600401602060405180830381865afa15801562002966573d6000803e3d6000fd5b505050506040513d601f19601f820116820180604052508101906200298c919062003893565b6000808b73ffffffffffffffffffffffffffffffffffffffff1673ffffffffffffffffffffffffffffffffffffffff1681526020019081526020016000206004015462002d7f565b9050816000808973ffffffffffffffffffffffffffffffffffffffff1673ffffffffffffffffffffffffffffffffffffffff168152602001908152602001600020600301600082825462002a299190620041a9565b92505081905550806000808973ffffffffffffffffffffffffffffffffffffffff1673ffffffffffffffffffffffffffffffffffffffff168152602001908152602001600020600401600082825462002a839190620041a9565b9250508190555060008060008973ffffffffffffffffffffffffffffffffffffffff1673ffffffffffffffffffffffffffffffffffffffff16815260200190815260200160002060010160009054906101000a900473ffffffffffffffffffffffffffffffffffffffff16905060008060008a73ffffffffffffffffffffffffffffffffffffffff1673ffffffffffffffffffffffffffffffffffffffff16815260200190815260200160002060020160009054906101000a900473ffffffffffffffffffffffffffffffffffffffff1690508173ffffffffffffffffffffffffffffffffffffffff1663a9059cbb33866040518363ffffffff1660e01b815260040162002b9392919062003a9e565b6020604051808303816000875af115801562002bb3573d6000803e3d6000fd5b505050506040513d601f19601f8201168201806040525081019062002bd9919062003ae2565b62002c1b576040517f08c379a000000000000000000000000000000000000000000000000000000000815260040162002c129062003b64565b60405180910390fd5b8073ffffffffffffffffffffffffffffffffffffffff1663a9059cbb33856040518363ffffffff1660e01b815260040162002c5892919062003a9e565b6020604051808303816000875af115801562002c78573d6000803e3d6000fd5b505050506040513d601f19601f8201168201806040525081019062002c9e919062003ae2565b62002ce0576040517f08c379a000000000000000000000000000000000000000000000000000000000815260040162002cd79062003b64565b60405180910390fd5b8473ffffffffffffffffffffffffffffffffffffffff16639dc29fac338a6040518363ffffffff1660e01b815260040162002d1d92919062003a9e565b6020604051808303816000875af115801562002d3d573d6000803e3d6000fd5b505050506040513d601f19601f8201168201806040525081019062002d63919062003ae2565b62002d6d57600080fd5b83839650965050505050509250929050565b600082848362002d9091906200364d565b62002d9c9190620036dd565b90509392505050565b6000806000808473ffffffffffffffffffffffffffffffffffffffff1673ffffffffffffffffffffffffffffffffffffffff1681526020019081526020016000206040518060c00160405290816000820160009054906101000a900473ffffffffffffffffffffffffffffffffffffffff1673ffffffffffffffffffffffffffffffffffffffff1673ffffffffffffffffffffffffffffffffffffffff1681526020016001820160009054906101000a900473ffffffffffffffffffffffffffffffffffffffff1673ffffffffffffffffffffffffffffffffffffffff1673ffffffffffffffffffffffffffffffffffffffff1681526020016002820160009054906101000a900473ffffffffffffffffffffffffffffffffffffffff1673ffffffffffffffffffffffffffffffffffffffff1673ffffffffffffffffffffffffffffffffffffffff16815260200160038201548152602001600482015481526020016005820160009054906101000a900460ff16151515158152505090508060a00151915050919050565b6000600382111562002fa6578190506000600160028462002f539190620036dd565b62002f5f919062003a41565b90505b8181101562002f9f57809150600281828562002f7f9190620036dd565b62002f8b919062003a41565b62002f979190620036dd565b905062002f62565b5062002fb5565b6000821462002fb457600190505b5b919050565b611b2f80620042c983390190565b600080fd5b6000819050919050565b62002fe28162002fcd565b811462002fee57600080fd5b50565b600081359050620030028162002fd7565b92915050565b60008060006060848603121562003024576200302362002fc8565b5b6000620030348682870162002ff1565b9350506020620030478682870162002ff1565b92505060406200305a8682870162002ff1565b9150509250925092565b6200306f8162002fcd565b82525050565b60006020820190506200308c600083018462003064565b92915050565b600073ffffffffffffffffffffffffffffffffffffffff82169050919050565b6000620030bf8262003092565b9050919050565b620030d181620030b2565b8114620030dd57600080fd5b50565b600081359050620030f181620030c6565b92915050565b6000806000806080858703121562003114576200311362002fc8565b5b60006200312487828801620030e0565b94505060206200313787828801620030e0565b93505060406200314a8782880162002ff1565b92505060606200315d8782880162002ff1565b91505092959194509250565b600060408201905062003180600083018562003064565b6200318f602083018462003064565b9392505050565b60008060408385031215620031b057620031af62002fc8565b5b6000620031c085828601620030e0565b9250506020620031d38582860162002ff1565b9150509250929050565b620031e881620030b2565b82525050565b600060808201905062003205600083018762003064565b62003214602083018662003064565b620032236040830185620031dd565b620032326060830184620031dd565b95945050505050565b60006020828403121562003254576200325362002fc8565b5b60006200326484828501620030e0565b91505092915050565b6000602082019050620032846000830184620031dd565b92915050565b6000620032978262003092565b9050919050565b620032a9816200328a565b8114620032b557600080fd5b50565b600081359050620032c9816200329e565b92915050565b600080600060608486031215620032eb57620032ea62002fc8565b5b6000620032fb86828701620032b8565b93505060206200330e86828701620032b8565b9250506040620033218682870162002ff1565b9150509250925092565b60008060006060848603121562003347576200334662002fc8565b5b60006200335786828701620030e0565b93505060206200336a86828701620030e0565b92505060406200337d8682870162002ff1565b9150509250925092565b60006060820190506200339e600083018662003064565b620033ad6020830185620031dd565b620033bc604083018462003064565b949350505050565b60008060408385031215620033de57620033dd62002fc8565b5b6000620033ee85828601620030e0565b92505060206200340185828601620030e0565b9150509250929050565b60008115159050919050565b62003422816200340b565b82525050565b60006020820190506200343f600083018462003417565b92915050565b62003450816200340b565b81146200345c57600080fd5b50565b600081359050620034708162003445565b92915050565b60008060008060008060c0878903121562003496576200349562002fc8565b5b6000620034a689828a016200345f565b9650506020620034b989828a0162002ff1565b9550506040620034cc89828a0162002ff1565b9450506060620034df89828a0162002ff1565b9350506080620034f289828a0162002ff1565b92505060a06200350589828a0162002ff1565b9150509295509295509295565b600060c082019050620035296000830189620031dd565b620035386020830188620031dd565b620035476040830187620031dd565b62003556606083018662003064565b62003565608083018562003064565b6200357460a083018462003417565b979650505050505050565b600080600080608085870312156200359c576200359b62002fc8565b5b6000620035ac87828801620032b8565b9450506020620035bf87828801620032b8565b9350506040620035d28782880162002ff1565b9250506060620035e58782880162002ff1565b91505092959194509250565b6000604082019050620036086000830185620031dd565b620036176020830184620031dd565b9392505050565b7f4e487b7100000000000000000000000000000000000000000000000000000000600052601160045260246000fd5b60006200365a8262002fcd565b9150620036678362002fcd565b9250817fffffffffffffffffffffffffffffffffffffffffffffffffffffffffffffffff0483118215151615620036a357620036a26200361e565b5b828202905092915050565b7f4e487b7100000000000000000000000000000000000000000000000000000000600052601260045260246000fd5b6000620036ea8262002fcd565b9150620036f78362002fcd565b9250826200370a5762003709620036ae565b5b828204905092915050565b600082825260208201905092915050565b7f496e76616c6964206c697175696469747920706f6f6c2e000000000000000000600082015250565b60006200375e60178362003715565b91506200376b8262003726565b602082019050919050565b6000602082019050818103600083015262003791816200374f565b9050919050565b7f506f6f6c20616c72656164792065786973740000000000000000000000000000600082015250565b6000620037d060128362003715565b9150620037dd8262003798565b602082019050919050565b600060208201905081810360008301526200380381620037c1565b9050919050565b7f496e76616c696420506f6f6c2e00000000000000000000000000000000000000600082015250565b600062003842600d8362003715565b91506200384f826200380a565b602082019050919050565b60006020820190508181036000830152620038758162003833565b9050919050565b6000815190506200388d8162002fd7565b92915050565b600060208284031215620038ac57620038ab62002fc8565b5b6000620038bc848285016200387c565b91505092915050565b7f496e76616c696420506f6f6c0000000000000000000000000000000000000000600082015250565b6000620038fd600c8362003715565b91506200390a82620038c5565b602082019050919050565b600060208201905081810360008301526200393081620038ee565b9050919050565b7f496e76616c696420706f6f6c0000000000000000000000000000000000000000600082015250565b60006200396f600c8362003715565b91506200397c8262003937565b602082019050919050565b60006020820190508181036000830152620039a28162003960565b9050919050565b7f506f6f6c206973206e6f742065786973742c20706c656173652063726561746560008201527f2061206e657720706f6f6c2e0000000000000000000000000000000000000000602082015250565b600062003a07602c8362003715565b915062003a1482620039a9565b604082019050919050565b6000602082019050818103600083015262003a3a81620039f8565b9050919050565b600062003a4e8262002fcd565b915062003a5b8362002fcd565b9250827fffffffffffffffffffffffffffffffffffffffffffffffffffffffffffffffff0382111562003a935762003a926200361e565b5b828201905092915050565b600060408201905062003ab56000830185620031dd565b62003ac4602083018462003064565b9392505050565b60008151905062003adc8162003445565b92915050565b60006020828403121562003afb5762003afa62002fc8565b5b600062003b0b8482850162003acb565b91505092915050565b7f5472616e73616374696f6e206661696c65642e00000000000000000000000000600082015250565b600062003b4c60138362003715565b915062003b598262003b14565b602082019050919050565b6000602082019050818103600083015262003b7f8162003b3d565b9050919050565b600060608201905062003b9d6000830186620031dd565b62003bac6020830185620031dd565b62003bbb604083018462003064565b949350505050565b7f506f6f6c206973206e6f742065786973742e0000000000000000000000000000600082015250565b600062003bfb60128362003715565b915062003c088262003bc3565b602082019050919050565b6000602082019050818103600083015262003c2e8162003bec565b9050919050565b7f496e76616c696420546f6b656e20506169720000000000000000000000000000600082015250565b600062003c6d60128362003715565b915062003c7a8262003c35565b602082019050919050565b6000602082019050818103600083015262003ca08162003c5e565b9050919050565b60008160001c9050919050565b600073ffffffffffffffffffffffffffffffffffffffff82169050919050565b600062003ceb62003ce58362003ca7565b62003cb4565b9050919050565b62003cfd81620030b2565b82525050565b6000819050919050565b600062003d2462003d1e8362003ca7565b62003d03565b9050919050565b62003d368162002fcd565b82525050565b600060ff82169050919050565b600062003d6062003d5a8362003ca7565b62003d3c565b9050919050565b62003d72816200340b565b82525050565b60c08201600080830154905062003d8f8162003cd4565b62003d9e600086018262003cf2565b506001830154905062003db18162003cd4565b62003dc0602086018262003cf2565b506002830154905062003dd38162003cd4565b62003de2604086018262003cf2565b506003830154905062003df58162003d0d565b62003e04606086018262003d2b565b506004830154905062003e178162003d0d565b62003e26608086018262003d2b565b506005830154905062003e398162003d49565b62003e4860a086018262003d67565b5050505050565b600060c08201905062003e66600083018462003d78565b92915050565b60008160601b9050919050565b600062003e868262003e6c565b9050919050565b600062003e9a8262003e79565b9050919050565b62003eb662003eb082620030b2565b62003e8d565b82525050565b600062003eca828562003ea1565b60148201915062003edc828462003ea1565b6014820191508190509392505050565b7f4e6f7420656e6f75676820746f6b656e2061726520616c6c6f77656420746f2060008201527f706572666f726d207468697320616374696f6e2e000000000000000000000000602082015250565b600062003f4a60348362003715565b915062003f578262003eec565b604082019050919050565b6000602082019050818103600083015262003f7d8162003f3b565b9050919050565b7f4c50540000000000000000000000000000000000000000000000000000000000600082015250565b600062003fbc60038362003715565b915062003fc98262003f84565b602082019050919050565b7f504f4f4c00000000000000000000000000000000000000000000000000000000600082015250565b60006200400c60048362003715565b9150620040198262003fd4565b602082019050919050565b6000819050919050565b600060ff82169050919050565b6000819050919050565b600062004066620040606200405a8462004024565b6200403b565b6200402e565b9050919050565b620040788162004045565b82525050565b60006060820190508181036000830152620040998162003fad565b90508181036020830152620040ae8162003ffd565b9050620040bf60408301846200406d565b92915050565b7f4c697175696469747920506f6f6c206e6f7420666f756e642e00000000000000600082015250565b6000620040fd60198362003715565b91506200410a82620040c5565b602082019050919050565b600060208201905081810360008301526200413081620040ee565b9050919050565b7f4e6f7420656e6f75676820746f6b656e00000000000000000000000000000000600082015250565b60006200416f60108362003715565b91506200417c8262004137565b602082019050919050565b60006020820190508181036000830152620041a28162004160565b9050919050565b6000620041b68262002fcd565b9150620041c38362002fcd565b925082821015620041d957620041d86200361e565b5b828203905092915050565b7f5472616e73616374696f6e206661696c65640000000000000000000000000000600082015250565b60006200421c60128362003715565b91506200422982620041e4565b602082019050919050565b600060208201905081810360008301526200424f816200420d565b9050919050565b7f4e6f7420656e6f75676820616d6f756e74000000000000000000000000000000600082015250565b60006200428e60118362003715565b91506200429b8262004256565b602082019050919050565b60006020820190508181036000830152620042c1816200427f565b905091905056fe60806040526000600460146101000a81548160ff0219169083151502179055503480156200002c57600080fd5b5060405162001b2f38038062001b2f833981810160405281019062000052919062000493565b828282600083600090805190602001906200006f92919062000208565b5082600190805190602001906200008892919062000208565b5081600260006101000a81548160ff021916908360ff1602179055508060038190555033600460006101000a81548173ffffffffffffffffffffffffffffffffffffffff021916908373ffffffffffffffffffffffffffffffffffffffff16021790555060035460056000600460009054906101000a900473ffffffffffffffffffffffffffffffffffffffff1673ffffffffffffffffffffffffffffffffffffffff1673ffffffffffffffffffffffffffffffffffffffff168152602001908152602001600020819055506001600460146101000a81548160ff021916908315150217905550600460009054906101000a900473ffffffffffffffffffffffffffffffffffffffff1673ffffffffffffffffffffffffffffffffffffffff16600073ffffffffffffffffffffffffffffffffffffffff167fddf252ad1be2c89b69c2b068fc378daa952ba7f163c4a11628f55a4df523b3ef600354604051620001f3919062000548565b60405180910390a350505050505050620005ca565b828054620002169062000594565b90600052602060002090601f0160209004810192826200023a576000855562000286565b82601f106200025557805160ff191683800117855562000286565b8280016001018555821562000286579182015b828111156200028557825182559160200191906001019062000268565b5b50905062000295919062000299565b5090565b5b80821115620002b45760008160009055506001016200029a565b5090565b6000604051905090565b600080fd5b600080fd5b600080fd5b600080fd5b6000601f19601f8301169050919050565b7f4e487b7100000000000000000000000000000000000000000000000000000000600052604160045260246000fd5b6200032182620002d6565b810181811067ffffffffffffffff82111715620003435762000342620002e7565b5b80604052505050565b600062000358620002b8565b905062000366828262000316565b919050565b600067ffffffffffffffff821115620003895762000388620002e7565b5b6200039482620002d6565b9050602081019050919050565b60005b83811015620003c1578082015181840152602081019050620003a4565b83811115620003d1576000848401525b50505050565b6000620003ee620003e8846200036b565b6200034c565b9050828152602081018484840111156200040d576200040c620002d1565b5b6200041a848285620003a1565b509392505050565b600082601f8301126200043a5762000439620002cc565b5b81516200044c848260208601620003d7565b91505092915050565b600060ff82169050919050565b6200046d8162000455565b81146200047957600080fd5b50565b6000815190506200048d8162000462565b92915050565b600080600060608486031215620004af57620004ae620002c2565b5b600084015167ffffffffffffffff811115620004d057620004cf620002c7565b5b620004de8682870162000422565b935050602084015167ffffffffffffffff811115620005025762000501620002c7565b5b620005108682870162000422565b925050604062000523868287016200047c565b9150509250925092565b6000819050919050565b62000542816200052d565b82525050565b60006020820190506200055f600083018462000537565b92915050565b7f4e487b7100000000000000000000000000000000000000000000000000000000600052602260045260246000fd5b60006002820490506001821680620005ad57607f821691505b60208210811415620005c457620005c362000565565b5b50919050565b61155580620005da6000396000f3fe608060405234801561001057600080fd5b50600436106101005760003560e01c806395d89b4111610097578063b5931f7c11610066578063b5931f7c146102eb578063d05c78da1461031b578063dd62ed3e1461034b578063e6cb90131461037b57610100565b806395d89b411461023d5780639dc29fac1461025b578063a293d1e81461028b578063a9059cbb146102bb57610100565b8063313ce567116100d3578063313ce567146101a15780633eaaf86b146101bf57806340c10f19146101dd57806370a082311461020d57610100565b806306fdde0314610105578063095ea7b31461012357806318160ddd1461015357806323b872dd14610171575b600080fd5b61010d6103ab565b60405161011a9190610f95565b60405180910390f35b61013d60048036038101906101389190611050565b610439565b60405161014a91906110ab565b60405180910390f35b61015b61052b565b60405161016891906110d5565b60405180910390f35b61018b600480360381019061018691906110f0565b610535565b60405161019891906110ab565b60405180910390f35b6101a96107c5565b6040516101b6919061115f565b60405180910390f35b6101c76107d8565b6040516101d491906110d5565b60405180910390f35b6101f760048036038101906101f29190611050565b6107de565b60405161020491906110ab565b60405180910390f35b6102276004803603810190610222919061117a565b610950565b60405161023491906110d5565b60405180910390f35b610245610999565b6040516102529190610f95565b60405180910390f35b61027560048036038101906102709190611050565b610a27565b60405161028291906110ab565b60405180910390f35b6102a560048036038101906102a091906111a7565b610c4c565b6040516102b291906110d5565b60405180910390f35b6102d560048036038101906102d09190611050565b610c6f565b6040516102e291906110ab565b60405180910390f35b610305600480360381019061030091906111a7565b610df8565b60405161031291906110d5565b60405180910390f35b610335600480360381019061033091906111a7565b610e1a565b60405161034291906110d5565b60405180910390f35b610365600480360381019061036091906111e7565b610e52565b60405161037291906110d5565b60405180910390f35b610395600480360381019061039091906111a7565b610ed9565b6040516103a291906110d5565b60405180910390f35b600180546103b890611256565b80601f01602080910402602001604051908101604052809291908181526020018280546103e490611256565b80156104315780601f1061040657610100808354040283529160200191610431565b820191906000526020600020905b81548152906001019060200180831161041457829003601f168201915b505050505081565b600081600660003373ffffffffffffffffffffffffffffffffffffffff1673ffffffffffffffffffffffffffffffffffffffff16815260200190815260200160002060008573ffffffffffffffffffffffffffffffffffffffff1673ffffffffffffffffffffffffffffffffffffffff168152602001908152602001600020819055508273ffffffffffffffffffffffffffffffffffffffff163373ffffffffffffffffffffffffffffffffffffffff167f8c5be1e5ebec7d5bd14f71427d1e84f3dd0314c0f7b2291e5b200ac8c7c3b9258460405161051991906110d5565b60405180910390a36001905092915050565b6000600354905090565b6000610580600560008673ffffffffffffffffffffffffffffffffffffffff1673ffffffffffffffffffffffffffffffffffffffff1681526020019081526020016000205483610c4c565b600560008673ffffffffffffffffffffffffffffffffffffffff1673ffffffffffffffffffffffffffffffffffffffff16815260200190815260200160002081905550610649600660008673ffffffffffffffffffffffffffffffffffffffff1673ffffffffffffffffffffffffffffffffffffffff16815260200190815260200160002060003373ffffffffffffffffffffffffffffffffffffffff1673ffffffffffffffffffffffffffffffffffffffff1681526020019081526020016000205483610c4c565b600660008673ffffffffffffffffffffffffffffffffffffffff1673ffffffffffffffffffffffffffffffffffffffff16815260200190815260200160002060003373ffffffffffffffffffffffffffffffffffffffff1673ffffffffffffffffffffffffffffffffffffffff16815260200190815260200160002081905550610712600560008573ffffffffffffffffffffffffffffffffffffffff1673ffffffffffffffffffffffffffffffffffffffff1681526020019081526020016000205483610ed9565b600560008573ffffffffffffffffffffffffffffffffffffffff1673ffffffffffffffffffffffffffffffffffffffff168152602001908152602001600020819055508273ffffffffffffffffffffffffffffffffffffffff168473ffffffffffffffffffffffffffffffffffffffff167fddf252ad1be2c89b69c2b068fc378daa952ba7f163c4a11628f55a4df523b3ef846040516107b291906110d5565b60405180910390a3600190509392505050565b600260009054906101000a900460ff1681565b60035481565b6000338073ffffffffffffffffffffffffffffffffffffffff16600460009054906101000a900473ffffffffffffffffffffffffffffffffffffffff1673ffffffffffffffffffffffffffffffffffffffff161461083b57600080fd5b826003600082825461084d91906112b7565b9250508190555061089d600560008673ffffffffffffffffffffffffffffffffffffffff1673ffffffffffffffffffffffffffffffffffffffff1681526020019081526020016000205484610ed9565b600560008673ffffffffffffffffffffffffffffffffffffffff1673ffffffffffffffffffffffffffffffffffffffff168152602001908152602001600020819055508373ffffffffffffffffffffffffffffffffffffffff163373ffffffffffffffffffffffffffffffffffffffff167fddf252ad1be2c89b69c2b068fc378daa952ba7f163c4a11628f55a4df523b3ef8560405161093d91906110d5565b60405180910390a3600191505092915050565b6000600560008373ffffffffffffffffffffffffffffffffffffffff1673ffffffffffffffffffffffffffffffffffffffff168152602001908152602001600020549050919050565b600080546109a690611256565b80601f01602080910402602001604051908101604052809291908181526020018280546109d290611256565b8015610a1f5780601f106109f457610100808354040283529160200191610a1f565b820191906000526020600020905b815481529060010190602001808311610a0257829003601f168201915b505050505081565b6000338073ffffffffffffffffffffffffffffffffffffffff16600460009054906101000a900473ffffffffffffffffffffffffffffffffffffffff1673ffffffffffffffffffffffffffffffffffffffff1614610a8457600080fd5b600073ffffffffffffffffffffffffffffffffffffffff168473ffffffffffffffffffffffffffffffffffffffff161415610af4576040517f08c379a0000000000000000000000000000000000000000000000000000000008152600401610aeb9061137f565b60405180910390fd5b6000600560008673ffffffffffffffffffffffffffffffffffffffff1673ffffffffffffffffffffffffffffffffffffffff16815260200190815260200160002054905083811015610b7b576040517f08c379a0000000000000000000000000000000000000000000000000000000008152600401610b7290611411565b60405180910390fd5b610b858185610c4c565b600560008773ffffffffffffffffffffffffffffffffffffffff1673ffffffffffffffffffffffffffffffffffffffff16815260200190815260200160002081905550610bd460035485610c4c565b600381905550600073ffffffffffffffffffffffffffffffffffffffff168573ffffffffffffffffffffffffffffffffffffffff167fddf252ad1be2c89b69c2b068fc378daa952ba7f163c4a11628f55a4df523b3ef86604051610c3891906110d5565b60405180910390a360019250505092915050565b600082821115610c5b57600080fd5b8183610c679190611431565b905092915050565b6000610cba600560003373ffffffffffffffffffffffffffffffffffffffff1673ffffffffffffffffffffffffffffffffffffffff1681526020019081526020016000205483610c4c565b600560003373ffffffffffffffffffffffffffffffffffffffff1673ffffffffffffffffffffffffffffffffffffffff16815260200190815260200160002081905550610d46600560008573ffffffffffffffffffffffffffffffffffffffff1673ffffffffffffffffffffffffffffffffffffffff1681526020019081526020016000205483610ed9565b600560008573ffffffffffffffffffffffffffffffffffffffff1673ffffffffffffffffffffffffffffffffffffffff168152602001908152602001600020819055508273ffffffffffffffffffffffffffffffffffffffff163373ffffffffffffffffffffffffffffffffffffffff167fddf252ad1be2c89b69c2b068fc378daa952ba7f163c4a11628f55a4df523b3ef84604051610de691906110d5565b60405180910390a36001905092915050565b6000808211610e0657600080fd5b8183610e129190611494565b905092915050565b60008183610e2891906114c5565b90506000831480610e435750818382610e419190611494565b145b610e4c57600080fd5b92915050565b6000600660008473ffffffffffffffffffffffffffffffffffffffff1673ffffffffffffffffffffffffffffffffffffffff16815260200190815260200160002060008373ffffffffffffffffffffffffffffffffffffffff1673ffffffffffffffffffffffffffffffffffffffff16815260200190815260200160002054905092915050565b60008183610ee791906112b7565b905082811015610ef657600080fd5b92915050565b600081519050919050565b600082825260208201905092915050565b60005b83811015610f36578082015181840152602081019050610f1b565b83811115610f45576000848401525b50505050565b6000601f19601f8301169050919050565b6000610f6782610efc565b610f718185610f07565b9350610f81818560208601610f18565b610f8a81610f4b565b840191505092915050565b60006020820190508181036000830152610faf8184610f5c565b905092915050565b600080fd5b600073ffffffffffffffffffffffffffffffffffffffff82169050919050565b6000610fe782610fbc565b9050919050565b610ff781610fdc565b811461100257600080fd5b50565b60008135905061101481610fee565b92915050565b6000819050919050565b61102d8161101a565b811461103857600080fd5b50565b60008135905061104a81611024565b92915050565b6000806040838503121561106757611066610fb7565b5b600061107585828601611005565b92505060206110868582860161103b565b9150509250929050565b60008115159050919050565b6110a581611090565b82525050565b60006020820190506110c0600083018461109c565b92915050565b6110cf8161101a565b82525050565b60006020820190506110ea60008301846110c6565b92915050565b60008060006060848603121561110957611108610fb7565b5b600061111786828701611005565b935050602061112886828701611005565b92505060406111398682870161103b565b9150509250925092565b600060ff82169050919050565b61115981611143565b82525050565b60006020820190506111746000830184611150565b92915050565b6000602082840312156111905761118f610fb7565b5b600061119e84828501611005565b91505092915050565b600080604083850312156111be576111bd610fb7565b5b60006111cc8582860161103b565b92505060206111dd8582860161103b565b9150509250929050565b600080604083850312156111fe576111fd610fb7565b5b600061120c85828601611005565b925050602061121d85828601611005565b9150509250929050565b7f4e487b7100000000000000000000000000000000000000000000000000000000600052602260045260246000fd5b6000600282049050600182168061126e57607f821691505b6020821081141561128257611281611227565b5b50919050565b7f4e487b7100000000000000000000000000000000000000000000000000000000600052601160045260246000fd5b60006112c28261101a565b91506112cd8361101a565b9250827fffffffffffffffffffffffffffffffffffffffffffffffffffffffffffffffff0382111561130257611301611288565b5b828201905092915050565b7f45524332303a206275726e2066726f6d20746865207a65726f2061646472657360008201527f7300000000000000000000000000000000000000000000000000000000000000602082015250565b6000611369602183610f07565b91506113748261130d565b604082019050919050565b600060208201905081810360008301526113988161135c565b9050919050565b7f45524332303a206275726e20616d6f756e7420657863656564732062616c616e60008201527f6365000000000000000000000000000000000000000000000000000000000000602082015250565b60006113fb602283610f07565b91506114068261139f565b604082019050919050565b6000602082019050818103600083015261142a816113ee565b9050919050565b600061143c8261101a565b91506114478361101a565b92508282101561145a57611459611288565b5b828203905092915050565b7f4e487b7100000000000000000000000000000000000000000000000000000000600052601260045260246000fd5b600061149f8261101a565b91506114aa8361101a565b9250826114ba576114b9611465565b5b828204905092915050565b60006114d08261101a565b91506114db8361101a565b9250817fffffffffffffffffffffffffffffffffffffffffffffffffffffffffffffffff048311821515161561151457611513611288565b5b82820290509291505056fea26469706673582212204578e802141015992bfaa562fc5e5e26581e88369193313ce3c5b466eec871bc64736f6c634300080a0033a2646970667358221220ac5892ba80de460bdaf221e47884be5dbf8b9b31b595777dca2c1a93b780649c64736f6c634300080a0033",
  "immutableReferences": {},
  "source": "//SPDX-License-Identifier:MIT\r\npragma solidity ^0.8.0;\r\n\r\nimport \"./token.sol\";\r\n//import \"hardhat/console.sol\";\r\n\r\ncontract dex{\r\n    struct Pool{\r\n        address poolToken;\r\n        address token1;\r\n        address token2;\r\n        uint256 token1Balance;\r\n        uint256 token2Balance;                      \r\n        bool isAdded;\r\n    }\r\n\r\n    mapping(address => Pool) public liquidityPool;\r\n    address private owner;        \r\n\r\n    constructor(){                                                                          \r\n        owner = msg.sender;\r\n    }\r\n    \r\n    event PoolDetails(Pool);\r\n\r\n    function checkBalances(address token, uint amount)public view returns(bool){\r\n        return ERC20Interface(token).balanceOf(msg.sender) >= amount;\r\n    }\r\n\r\n    function isPoolExist(address tokenA, address tokenB)public view returns(bool){\r\n        require(tokenA != tokenB,\"Invalid Token Pair\");\r\n        return isPoolExist(generatePoolId(tokenA,tokenB));\r\n    }\r\n\r\n    //END\r\n\r\n    //Or Connect To Token Contract Via FrontEnd\r\n    function getLPTokenAddress(address pool)public view returns(address) {\r\n        require(isPoolExist(pool),\"Invalid Pool\");\r\n        Pool memory poolSelected = liquidityPool[pool];\r\n        return poolSelected.poolToken;        \r\n    }\r\n    \r\n    function fundLiquidityPool(address payable token1, address payable token2, uint token1Amount) public payable returns(address){\r\n        require(token1 != token2,\"Invalid pool\");    \r\n        address poolAddress = generatePoolId(token1,token2);\r\n        require(isPoolExist(poolAddress),\"Pool is not exist, please create a new pool.\");        \r\n        \r\n        uint token2Amount = computePrice(liquidityPool[poolAddress].token1Balance,liquidityPool[poolAddress].token2Balance,token1Amount);  \r\n\r\n        liquidityPool[poolAddress].token2Balance += token2Amount;\r\n        liquidityPool[poolAddress].token1Balance += token1Amount;\r\n\r\n        //Add liquidity\r\n        ERC20Interface poolToken = ERC20Interface(liquidityPool[poolAddress].poolToken);\r\n        \r\n        uint tokenReceived = calculateLPToken(false,token1Amount,token2Amount,liquidityPool[poolAddress].token1Balance,liquidityPool[poolAddress].token2Balance,poolToken.totalSupply());\r\n              \r\n        require(poolToken.mint(msg.sender,tokenReceived),\"Transaction failed.\");\r\n        //require(poolToken.transfer(msg.sender,tokenReceived),\"Transaction failed.\");\r\n\r\n        ERC20Interface tokenA = ERC20Interface(token1);\r\n        ERC20Interface tokenB = ERC20Interface(token2);\r\n\r\n        tokenA.transferFrom(msg.sender, address(this),token1Amount);\r\n        tokenB.transferFrom(msg.sender, address(this),token2Amount);\r\n        return poolAddress;\r\n    }\r\n\r\n    function addLiquidityPool(address payable token1, address payable token2, uint token1Amount, uint token2Amount) public payable returns(address,address){\r\n        require(token1 != token2,\"Invalid liquidity pool.\");\r\n        address poolAddress = generatePoolId(token1,token2);\r\n\r\n        require(!liquidityPool[poolAddress].isAdded,\"Pool already exist\");\r\n        //need to call approve first\r\n        ERC20Interface tokenA = ERC20Interface(token1);\r\n        ERC20Interface tokenB = ERC20Interface(token2);\r\n\r\n        require(tokenA.allowance(msg.sender, address(this)) >= token1Amount,\"Not enough token are allowed to perform this action.\");        \r\n        require(tokenB.allowance(msg.sender,address(this)) >= token2Amount, \"Not enough token are allowed to perform this action.\");\r\n\r\n        //console.log(\"Progress\", \"Gained Approval\");\r\n        \r\n        require(tokenA.transferFrom(msg.sender,address(this),token1Amount),\"Transaction failed.\");\r\n        require(tokenB.transferFrom(msg.sender,address(this),token2Amount),\"Transaction failed.\");\r\n        //console.log(\"Progress\", \"Token Transfer completed\");\r\n\r\n        MintableToken poolToken = new MintableToken(\"LPT\",\"POOL\",8);        \r\n        \r\n        uint tokenReceived = calculateLPToken(true,token1Amount,token2Amount,0,0,poolToken.totalSupply()); //By Default Pool is empty\r\n        liquidityPool[poolAddress] = Pool(address(poolToken),token1,token2,token1Amount,token2Amount,true);        \r\n        require(poolToken.mint(msg.sender,tokenReceived),\"Transaction failed.\");\r\n        \r\n        //console.log(\"Progress\", \"Liquidity Pool created.\");\r\n        return (poolAddress,address(poolToken));\r\n    }\r\n\r\n    function convertLPTokenToToken(uint lpAmount, uint totalSupply, uint tokenReserve)public pure returns(uint){\r\n        return tokenReserve * lpAmount / totalSupply;\r\n    }\r\n\r\n    function withdrawFund(address pool, uint amount)public payable returns(uint,uint){   \r\n        ERC20Interface poolToken = ERC20Interface(liquidityPool[pool].poolToken);\r\n        require(poolToken.balanceOf(msg.sender) >= amount,\"Not enough amount\");\r\n    \r\n        uint token1Received = convertLPTokenToToken(amount,poolToken.totalSupply(),liquidityPool[pool].token1Balance);\r\n        uint token2Received = convertLPTokenToToken(amount,poolToken.totalSupply(),liquidityPool[pool].token2Balance);        \r\n\r\n        liquidityPool[pool].token1Balance -= token1Received;\r\n        liquidityPool[pool].token2Balance -= token2Received;  \r\n\r\n        ERC20Interface tokenA = ERC20Interface(liquidityPool[pool].token1);\r\n        ERC20Interface tokenB = ERC20Interface(liquidityPool[pool].token2);\r\n\r\n        require(tokenA.transfer(msg.sender,token1Received),\"Transaction failed.\");\r\n        require(tokenB.transfer(msg.sender,token2Received),\"Transaction failed.\");\r\n\r\n        require(poolToken.burn(msg.sender,amount));                \r\n        return (token1Received,token2Received);       \r\n    }\r\n\r\n    function isPoolExist(address _address) private view returns(bool){\r\n        Pool memory pool = liquidityPool[_address];\r\n        return pool.isAdded;        \r\n    }\r\n\r\n    //PURE FUNCTION\r\n    //Retrieve amount of y \r\n    function computePrice(uint256 x, uint256 y, uint256 amount) public pure returns(uint256){\r\n        if(x == 0 && y == 0){   \r\n            return amount;\r\n        }\r\n        else{\r\n            return amount * x / y;     \r\n        }        \r\n    }\r\n\r\n    function generatePoolId(address tokenA, address tokenB) public pure returns (address){\r\n        (address token0, address token1) = tokenA < tokenB ? (tokenA, tokenB) : (tokenB, tokenA);        \r\n        return address(uint160(uint256(keccak256(abi.encodePacked(token0, token1)))));  \r\n    }\r\n\r\n    \r\n    function calculateInterest(uint tokenAmount,uint poolAmount,uint accumulatedInterest)public pure returns(uint){\r\n        return tokenAmount * accumulatedInterest / poolAmount;        \r\n    }\r\n\r\n    function calculateLPToken(bool isInitiator, uint token1Amount, uint token2Amount, uint token1Reserve, uint token2Reserve, uint totalSupply)public pure returns(uint){\r\n        if(!isInitiator){\r\n            uint resultA = token1Amount * totalSupply / token1Reserve;\r\n            uint resultB = token2Amount * totalSupply / token2Reserve;\r\n            return resultA > resultB ? resultB : resultA;\r\n        }\r\n        else{\r\n            return sqrt(token1Amount * token2Amount);\r\n        }\r\n    }\r\n\r\n    function sqrt(uint y) internal pure returns (uint z) {\r\n        if (y > 3) {\r\n            z = y;\r\n            uint x = y / 2 + 1;\r\n            while (x < z) {\r\n                z = x;\r\n                x = (y / x + x) / 2;\r\n            }\r\n        } else if (y != 0) {\r\n            z = 1;\r\n        }\r\n    }\r\n\r\n    modifier onlyOwner(address sender){\r\n        require(sender == owner,\"Only owner able to execute this action.\");\r\n        _;\r\n    }\r\n\r\n    function swap(address fromToken, address toToken, uint256 tokenX) public payable{\r\n        //Step 1: Select pool\r\n        address poolID = generatePoolId(fromToken, toToken);\r\n        require(liquidityPool[poolID].isAdded,\"Liquidity Pool not found.\");\r\n\r\n        //Step 2: Calculate K (here got no K value, we calculate manually)\r\n        uint k = liquidityPool[poolID].token1Balance * liquidityPool[poolID].token2Balance;\r\n\r\n        //Step 3: SWAP_X_to_Y        \r\n        ERC20Interface tokenFrom = ERC20Interface(fromToken);\r\n        ERC20Interface tokenTo = ERC20Interface(toToken);\r\n\r\n        require(tokenX <= tokenFrom.allowance(msg.sender,address(this)),\"Not enough token\");\r\n\r\n        //Step 3.1: Calculate different between y-(k/x)\r\n        uint difference = liquidityPool[poolID].token2Balance - (k/(liquidityPool[poolID].token1Balance+tokenX));\r\n                \r\n        //Step 3.2: Transfer the amount of difference from pool to user account\r\n        require(tokenTo.transfer(msg.sender, difference),\"Transaction failed.\"); //transfer\r\n\r\n        //Step 3.3: Transfer amount of TokenX (fromToken) from user account to pool\r\n        require(tokenFrom.transferFrom(msg.sender, address(this), tokenX),\"Transaction failed\"); //transferfrom\r\n            \r\n\t    //Step 3.4: update pool's token value\r\n        liquidityPool[poolID].token1Balance += tokenX; //plus because we add in the tokenX into Pool\r\n        liquidityPool[poolID].token2Balance -= difference; //minus because we already take the tokenY        \r\n    }\r\n\r\n    function estSwap(address fromToken,address toToken, uint256 tokenX)public view returns(uint){\r\n        address poolID = generatePoolId(fromToken, toToken);\r\n        require(liquidityPool[poolID].isAdded,\"Liquidity Pool not found.\");\r\n        \r\n        uint k = liquidityPool[poolID].token1Balance * liquidityPool[poolID].token2Balance;\r\n                \r\n        uint difference = liquidityPool[poolID].token2Balance - (k/(liquidityPool[poolID].token1Balance+tokenX));\r\n        return difference;\r\n    }\r\n\r\n    function estFundPool(address tokenA, address tokenB, uint amount)public view returns(uint amount2,address token2, uint share){\r\n        require(tokenA != tokenB,\"Invalid Pool\");\r\n        address poolAddress = generatePoolId(tokenA,tokenB);\r\n        require(isPoolExist(poolAddress),\"Pool is not exist.\");        \r\n        \r\n        uint token2Amount = computePrice(liquidityPool[poolAddress].token1Balance,liquidityPool[poolAddress].token2Balance,amount);  \r\n\r\n        ERC20Interface poolToken = ERC20Interface(liquidityPool[poolAddress].poolToken);\r\n        uint tokenReceived = calculateLPToken(false,amount,token2Amount,liquidityPool[poolAddress].token1Balance,liquidityPool[poolAddress].token2Balance,poolToken.totalSupply());\r\n\r\n        return (token2Amount,tokenB,tokenReceived * 1000 / poolToken.totalSupply());\r\n        //Return Amount Need To import for B, Address of B, And share in percentage (0 stands for < 0.01%)\r\n    }\r\n\r\n    function estAddNewPool(address tokenA, address tokenB, uint amountA,uint amountB)public view returns(uint amountReceived,uint decimal){\r\n        require(tokenA != tokenB,\"Invalid liquidity pool.\");\r\n        address poolAddress = generatePoolId(tokenA,tokenB);\r\n\r\n        require(!liquidityPool[poolAddress].isAdded,\"Pool already exist\");\r\n\r\n        uint tokenReceived = calculateLPToken(true,amountA,amountB,0,0,0); //By Default Pool is empty\r\n\r\n        return (tokenReceived,8);\r\n    }\r\n\r\n    function estWithdrawFund(address pool, uint amount)public view returns(uint amount1,uint amount2,address token1,address token2){\r\n        require(isPoolExist(pool),\"Invalid Pool.\");\r\n        \r\n        ERC20Interface poolToken = ERC20Interface(liquidityPool[pool].poolToken);\r\n    \r\n        uint token1Received = convertLPTokenToToken(amount,poolToken.totalSupply(),liquidityPool[pool].token1Balance);\r\n        uint token2Received = convertLPTokenToToken(amount,poolToken.totalSupply(),liquidityPool[pool].token2Balance);        \r\n              \r\n        return (token1Received,token2Received,liquidityPool[pool].token1,liquidityPool[pool].token2);\r\n    }\r\n\r\n    function getPoolDetails(address pool)public returns(bool){\r\n        if(isPoolExist(pool)){            \r\n            emit PoolDetails(liquidityPool[pool]);\r\n            return true;\r\n        }\r\n        return false;\r\n    }\r\n}\r\n",
  "sourcePath": "B:\\Degree Material\\Year 3 Sem 2\\Block Chain Application\\Assignment\\Dex Platform\\contracts\\dex.sol",
  "compiler": {
    "name": "solc",
    "version": "0.8.10+commit.fc410830.Emscripten.clang"
  },
  "schemaVersion": "3.4.3",
  "updatedAt": "2021-12-07T16:33:31.433Z",
  "networkType": "ethereum",
  "devdoc": {
    "kind": "dev",
    "methods": {},
    "version": 1
  },
  "userdoc": {
    "kind": "user",
    "methods": {},
    "version": 1
  }
}