{
  "contractName": "dex",
  "abi": [
    {
      "inputs": [],
      "stateMutability": "nonpayable",
      "type": "constructor"
    },
    {
      "inputs": [
        {
          "internalType": "address",
          "name": "",
          "type": "address"
        }
      ],
      "name": "liquidityPool",
      "outputs": [
        {
          "internalType": "address",
          "name": "poolToken",
          "type": "address"
        },
        {
          "internalType": "address",
          "name": "token1",
          "type": "address"
        },
        {
          "internalType": "address",
          "name": "token2",
          "type": "address"
        },
        {
          "internalType": "uint256",
          "name": "token1Balance",
          "type": "uint256"
        },
        {
          "internalType": "uint256",
          "name": "token2Balance",
          "type": "uint256"
        },
        {
          "internalType": "bool",
          "name": "isAdded",
          "type": "bool"
        }
      ],
      "stateMutability": "view",
      "type": "function",
      "constant": true
    },
    {
      "inputs": [
        {
          "internalType": "address",
          "name": "token",
          "type": "address"
        }
      ],
      "name": "checkBalances",
      "outputs": [
        {
          "internalType": "uint256",
          "name": "",
          "type": "uint256"
        }
      ],
      "stateMutability": "view",
      "type": "function",
      "constant": true
    },
    {
      "inputs": [
        {
          "internalType": "address payable",
          "name": "token1",
          "type": "address"
        },
        {
          "internalType": "address payable",
          "name": "token2",
          "type": "address"
        },
        {
          "internalType": "uint256",
          "name": "token1Amount",
          "type": "uint256"
        }
      ],
      "name": "fundLiquidityPool",
      "outputs": [],
      "stateMutability": "payable",
      "type": "function",
      "payable": true
    },
    {
      "inputs": [
        {
          "internalType": "address payable",
          "name": "token1",
          "type": "address"
        },
        {
          "internalType": "address payable",
          "name": "token2",
          "type": "address"
        },
        {
          "internalType": "uint256",
          "name": "token1Amount",
          "type": "uint256"
        },
        {
          "internalType": "uint256",
          "name": "token2Amount",
          "type": "uint256"
        }
      ],
      "name": "addLiquidityPool",
      "outputs": [],
      "stateMutability": "payable",
      "type": "function",
      "payable": true
    },
    {
      "inputs": [
        {
          "internalType": "uint256",
          "name": "lpAmount",
          "type": "uint256"
        },
        {
          "internalType": "uint256",
          "name": "totalSupply",
          "type": "uint256"
        },
        {
          "internalType": "uint256",
          "name": "tokenReserve",
          "type": "uint256"
        }
      ],
      "name": "convertLPTokenToToken",
      "outputs": [
        {
          "internalType": "uint256",
          "name": "",
          "type": "uint256"
        }
      ],
      "stateMutability": "pure",
      "type": "function",
      "constant": true
    },
    {
      "inputs": [
        {
          "internalType": "address",
          "name": "pool",
          "type": "address"
        },
        {
          "internalType": "uint256",
          "name": "amount",
          "type": "uint256"
        }
      ],
      "name": "withdrawFund",
      "outputs": [],
      "stateMutability": "payable",
      "type": "function",
      "payable": true
    },
    {
      "inputs": [
        {
          "internalType": "address",
          "name": "tokenA",
          "type": "address"
        },
        {
          "internalType": "address",
          "name": "tokenB",
          "type": "address"
        }
      ],
      "name": "isPoolExist",
      "outputs": [
        {
          "internalType": "bool",
          "name": "",
          "type": "bool"
        },
        {
          "internalType": "address",
          "name": "",
          "type": "address"
        }
      ],
      "stateMutability": "view",
      "type": "function",
      "constant": true
    },
    {
      "inputs": [
        {
          "internalType": "uint256",
          "name": "x",
          "type": "uint256"
        },
        {
          "internalType": "uint256",
          "name": "y",
          "type": "uint256"
        },
        {
          "internalType": "uint256",
          "name": "amount",
          "type": "uint256"
        }
      ],
      "name": "computePrice",
      "outputs": [
        {
          "internalType": "uint256",
          "name": "",
          "type": "uint256"
        }
      ],
      "stateMutability": "pure",
      "type": "function",
      "constant": true
    },
    {
      "inputs": [
        {
          "internalType": "address",
          "name": "tokenA",
          "type": "address"
        },
        {
          "internalType": "address",
          "name": "tokenB",
          "type": "address"
        }
      ],
      "name": "generatePoolId",
      "outputs": [
        {
          "internalType": "address",
          "name": "",
          "type": "address"
        }
      ],
      "stateMutability": "pure",
      "type": "function",
      "constant": true
    },
    {
      "inputs": [
        {
          "internalType": "bool",
          "name": "isInitiator",
          "type": "bool"
        },
        {
          "internalType": "uint256",
          "name": "token1Amount",
          "type": "uint256"
        },
        {
          "internalType": "uint256",
          "name": "token2Amount",
          "type": "uint256"
        },
        {
          "internalType": "uint256",
          "name": "token1Reserve",
          "type": "uint256"
        },
        {
          "internalType": "uint256",
          "name": "token2Reserve",
          "type": "uint256"
        },
        {
          "internalType": "uint256",
          "name": "totalSupply",
          "type": "uint256"
        }
      ],
      "name": "calculateLPToken",
      "outputs": [
        {
          "internalType": "uint256",
          "name": "",
          "type": "uint256"
        }
      ],
      "stateMutability": "pure",
      "type": "function",
      "constant": true
    },
    {
      "inputs": [
        {
          "internalType": "address",
          "name": "fromToken",
          "type": "address"
        },
        {
          "internalType": "address",
          "name": "toToken",
          "type": "address"
        },
        {
          "internalType": "uint256",
          "name": "tokenX",
          "type": "uint256"
        }
      ],
      "name": "swap",
      "outputs": [],
      "stateMutability": "payable",
      "type": "function",
      "payable": true
    },
    {
      "inputs": [
        {
          "internalType": "address",
          "name": "fromToken",
          "type": "address"
        },
        {
          "internalType": "address",
          "name": "toToken",
          "type": "address"
        },
        {
          "internalType": "uint256",
          "name": "tokenX",
          "type": "uint256"
        }
      ],
      "name": "estSwap",
      "outputs": [
        {
          "internalType": "uint256",
          "name": "",
          "type": "uint256"
        }
      ],
      "stateMutability": "view",
      "type": "function",
      "constant": true
    },
    {
      "inputs": [
        {
          "internalType": "address",
          "name": "tokenA",
          "type": "address"
        },
        {
          "internalType": "address",
          "name": "tokenB",
          "type": "address"
        },
        {
          "internalType": "uint256",
          "name": "amount",
          "type": "uint256"
        }
      ],
      "name": "estFundPool",
      "outputs": [
        {
          "internalType": "uint256",
          "name": "amount2",
          "type": "uint256"
        },
        {
          "internalType": "uint256",
          "name": "share",
          "type": "uint256"
        }
      ],
      "stateMutability": "view",
      "type": "function",
      "constant": true
    },
    {
      "inputs": [
        {
          "internalType": "address",
          "name": "pool",
          "type": "address"
        },
        {
          "internalType": "uint256",
          "name": "amount",
          "type": "uint256"
        }
      ],
      "name": "estWithdrawFund",
      "outputs": [
        {
          "internalType": "uint256",
          "name": "amount1",
          "type": "uint256"
        },
        {
          "internalType": "uint256",
          "name": "amount2",
          "type": "uint256"
        },
        {
          "internalType": "address",
          "name": "token1",
          "type": "address"
        },
        {
          "internalType": "address",
          "name": "token2",
          "type": "address"
        }
      ],
      "stateMutability": "view",
      "type": "function",
      "constant": true
    }
  ],
  "bytecode": "0x608060405234801561001057600080fd5b5033600160006101000a81548173ffffffffffffffffffffffffffffffffffffffff021916908373ffffffffffffffffffffffffffffffffffffffff160217905550615b57806100616000396000f3fe608060405260043610620000f25760003560e01c8063c0806db6116200008b578063df791e501162000061578063df791e501462000361578063e1d2e3ee1462000381578063f7c8d22114620003c5578063ff41a2d214620003e557620000f2565b8063c0806db614620002b4578063d874c85a14620002fd578063dc869673146200034157620000f2565b806374c3b43311620000cd57806374c3b43314620001a25780637d93c52c14620001e6578063841bdb9e146200022b578063ac0ebe96146200027057620000f2565b806311cd682d14620000f757806341ba2805146200013b578063717939491462000182575b600080fd5b3480156200010457600080fd5b506200012360048036038101906200011d919062002e5c565b62000429565b60405162000132919062002ea9565b60405180910390f35b3480156200014857600080fd5b5062000167600480360381019062000161919062002ef7565b620004b1565b60405162000179949392919062002f4f565b60405180910390f35b620001a060048036038101906200019a919062002fe1565b620007ca565b005b348015620001af57600080fd5b50620001ce6004803603810190620001c891906200303d565b62000f02565b604051620001dd919062002ea9565b60405180910390f35b348015620001f357600080fd5b506200021260048036038101906200020c919062003099565b62000f45565b60405162000222929190620030f5565b60405180910390f35b3480156200023857600080fd5b5062000257600480360381019062000251919062003122565b620011a1565b6040516200026792919062003186565b60405180910390f35b3480156200027d57600080fd5b506200029c6004803603810190620002969190620031e4565b620011cc565b604051620002ab919062002ea9565b60405180910390f35b348015620002c157600080fd5b50620002e06004803603810190620002da919062002e5c565b62001252565b604051620002f49695949392919062003280565b60405180910390f35b3480156200030a57600080fd5b5062000329600480360381019062000323919062003122565b620012fb565b604051620003389190620032ed565b60405180910390f35b6200035f60048036038101906200035991906200330a565b620013ed565b005b6200037f600480360381019062000379919062003099565b62001bef565b005b3480156200038e57600080fd5b50620003ad6004803603810190620003a7919062003099565b62002329565b604051620003bc919062002ea9565b60405180910390f35b620003e36004803603810190620003dd919062002ef7565b62002600565b005b348015620003f257600080fd5b506200041160048036038101906200040b91906200303d565b62002c9d565b60405162000420919062002ea9565b60405180910390f35b60008173ffffffffffffffffffffffffffffffffffffffff166370a08231336040518263ffffffff1660e01b8152600401620004669190620032ed565b602060405180830381865afa15801562000484573d6000803e3d6000fd5b505050506040513d601f19601f82011682018060405250810190620004aa919062003393565b9050919050565b600080600080620004c28662002cc3565b62000504576040517f08c379a0000000000000000000000000000000000000000000000000000000008152600401620004fb9062003426565b60405180910390fd5b60008060008873ffffffffffffffffffffffffffffffffffffffff1673ffffffffffffffffffffffffffffffffffffffff16815260200190815260200160002060000160009054906101000a900473ffffffffffffffffffffffffffffffffffffffff16905060006200062b878373ffffffffffffffffffffffffffffffffffffffff166318160ddd6040518163ffffffff1660e01b8152600401602060405180830381865afa158015620005bd573d6000803e3d6000fd5b505050506040513d601f19601f82011682018060405250810190620005e3919062003393565b6000808c73ffffffffffffffffffffffffffffffffffffffff1673ffffffffffffffffffffffffffffffffffffffff1681526020019081526020016000206003015462002c9d565b90506000620006ee888473ffffffffffffffffffffffffffffffffffffffff166318160ddd6040518163ffffffff1660e01b8152600401602060405180830381865afa15801562000680573d6000803e3d6000fd5b505050506040513d601f19601f82011682018060405250810190620006a6919062003393565b6000808d73ffffffffffffffffffffffffffffffffffffffff1673ffffffffffffffffffffffffffffffffffffffff1681526020019081526020016000206004015462002c9d565b905081816000808c73ffffffffffffffffffffffffffffffffffffffff1673ffffffffffffffffffffffffffffffffffffffff16815260200190815260200160002060010160009054906101000a900473ffffffffffffffffffffffffffffffffffffffff166000808d73ffffffffffffffffffffffffffffffffffffffff1673ffffffffffffffffffffffffffffffffffffffff16815260200190815260200160002060020160009054906101000a900473ffffffffffffffffffffffffffffffffffffffff16965096509650965050505092959194509250565b6000620007d88484620012fb565b9050620007e58162002cc3565b62000827576040517f08c379a00000000000000000000000000000000000000000000000000000000081526004016200081e90620034be565b60405180910390fd5b600082116200086d576040517f08c379a0000000000000000000000000000000000000000000000000000000008152600401620008649062003556565b60405180910390fd5b60008060008373ffffffffffffffffffffffffffffffffffffffff1673ffffffffffffffffffffffffffffffffffffffff16815260200190815260200160002060010160009054906101000a900473ffffffffffffffffffffffffffffffffffffffff1673ffffffffffffffffffffffffffffffffffffffff168573ffffffffffffffffffffffffffffffffffffffff16141562000a5c5760008060008473ffffffffffffffffffffffffffffffffffffffff1673ffffffffffffffffffffffffffffffffffffffff16815260200190815260200160002060030154905060008060008573ffffffffffffffffffffffffffffffffffffffff1673ffffffffffffffffffffffffffffffffffffffff1681526020019081526020016000206004015490506200099e82828762000f02565b9250846000808673ffffffffffffffffffffffffffffffffffffffff1673ffffffffffffffffffffffffffffffffffffffff1681526020019081526020016000206003016000828254620009f39190620035a7565b92505081905550826000808673ffffffffffffffffffffffffffffffffffffffff1673ffffffffffffffffffffffffffffffffffffffff168152602001908152602001600020600401600082825462000a4d9190620035a7565b92505081905550505062000bae565b60008060008473ffffffffffffffffffffffffffffffffffffffff1673ffffffffffffffffffffffffffffffffffffffff16815260200190815260200160002060040154905060008060008573ffffffffffffffffffffffffffffffffffffffff1673ffffffffffffffffffffffffffffffffffffffff16815260200190815260200160002060030154905062000af582828762000f02565b9250846000808673ffffffffffffffffffffffffffffffffffffffff1673ffffffffffffffffffffffffffffffffffffffff168152602001908152602001600020600401600082825462000b4a9190620035a7565b92505081905550826000808673ffffffffffffffffffffffffffffffffffffffff1673ffffffffffffffffffffffffffffffffffffffff168152602001908152602001600020600301600082825462000ba49190620035a7565b9250508190555050505b60008060008473ffffffffffffffffffffffffffffffffffffffff1673ffffffffffffffffffffffffffffffffffffffff16815260200190815260200160002060000160009054906101000a900473ffffffffffffffffffffffffffffffffffffffff169050600062000d1a600086856000808973ffffffffffffffffffffffffffffffffffffffff1673ffffffffffffffffffffffffffffffffffffffff168152602001908152602001600020600301546000808a73ffffffffffffffffffffffffffffffffffffffff1673ffffffffffffffffffffffffffffffffffffffff168152602001908152602001600020600401548773ffffffffffffffffffffffffffffffffffffffff166318160ddd6040518163ffffffff1660e01b8152600401602060405180830381865afa15801562000cee573d6000803e3d6000fd5b505050506040513d601f19601f8201168201806040525081019062000d14919062003393565b620011cc565b90508173ffffffffffffffffffffffffffffffffffffffff166340c10f1933836040518363ffffffff1660e01b815260040162000d5992919062003604565b6020604051808303816000875af115801562000d79573d6000803e3d6000fd5b505050506040513d601f19601f8201168201806040525081019062000d9f919062003648565b62000de1576040517f08c379a000000000000000000000000000000000000000000000000000000000815260040162000dd890620036ca565b60405180910390fd5b600087905060008790508173ffffffffffffffffffffffffffffffffffffffff166323b872dd33308a6040518463ffffffff1660e01b815260040162000e2a93929190620036ec565b6020604051808303816000875af115801562000e4a573d6000803e3d6000fd5b505050506040513d601f19601f8201168201806040525081019062000e70919062003648565b508073ffffffffffffffffffffffffffffffffffffffff166323b872dd3330886040518463ffffffff1660e01b815260040162000eb093929190620036ec565b6020604051808303816000875af115801562000ed0573d6000803e3d6000fd5b505050506040513d601f19601f8201168201806040525081019062000ef6919062003648565b50505050505050505050565b6000808414801562000f145750600083145b62000f3a5783838362000f28919062003729565b62000f349190620037b9565b62000f3c565b815b90509392505050565b600080600062000f568686620012fb565b905062000f638162002cc3565b62000fa5576040517f08c379a000000000000000000000000000000000000000000000000000000000815260040162000f9c9062003426565b60405180910390fd5b6000806000808473ffffffffffffffffffffffffffffffffffffffff1673ffffffffffffffffffffffffffffffffffffffff16815260200190815260200160002060010160009054906101000a900473ffffffffffffffffffffffffffffffffffffffff1673ffffffffffffffffffffffffffffffffffffffff168873ffffffffffffffffffffffffffffffffffffffff161415620010cc576000808473ffffffffffffffffffffffffffffffffffffffff1673ffffffffffffffffffffffffffffffffffffffff1681526020019081526020016000206003015491506000808473ffffffffffffffffffffffffffffffffffffffff1673ffffffffffffffffffffffffffffffffffffffff16815260200190815260200160002060040154905062001155565b6000808473ffffffffffffffffffffffffffffffffffffffff1673ffffffffffffffffffffffffffffffffffffffff1681526020019081526020016000206004015491506000808473ffffffffffffffffffffffffffffffffffffffff1673ffffffffffffffffffffffffffffffffffffffff1681526020019081526020016000206003015490505b60006200116483838962000f02565b9050808784620011759190620035a7565b6127108962001185919062003729565b620011919190620037b9565b9550955050505050935093915050565b6000806000620011b28585620012fb565b9050620011bf8162002cc3565b8192509250509250929050565b6000866200122d576000848388620011e5919062003729565b620011f19190620037b9565b9050600084848862001204919062003729565b620012109190620037b9565b905080821162001221578162001223565b805b9250505062001248565b6200124585876200123f919062003729565b62002d1b565b90505b9695505050505050565b60006020528060005260406000206000915090508060000160009054906101000a900473ffffffffffffffffffffffffffffffffffffffff16908060010160009054906101000a900473ffffffffffffffffffffffffffffffffffffffff16908060020160009054906101000a900473ffffffffffffffffffffffffffffffffffffffff16908060030154908060040154908060050160009054906101000a900460ff16905086565b60008173ffffffffffffffffffffffffffffffffffffffff168373ffffffffffffffffffffffffffffffffffffffff1614156200136f576040517f08c379a0000000000000000000000000000000000000000000000000000000008152600401620013669062003841565b60405180910390fd5b6000808373ffffffffffffffffffffffffffffffffffffffff168573ffffffffffffffffffffffffffffffffffffffff1610620013ae578385620013b1565b84845b915091508181604051602001620013ca929190620038b3565b6040516020818303038152906040528051906020012060001c9250505092915050565b6000620013fb8585620012fb565b9050620014088162002cc3565b156200144b576040517f08c379a0000000000000000000000000000000000000000000000000000000008152600401620014429062003933565b60405180910390fd5b60008590506000859050848273ffffffffffffffffffffffffffffffffffffffff1663dd62ed3e33306040518363ffffffff1660e01b81526004016200149392919062003955565b602060405180830381865afa158015620014b1573d6000803e3d6000fd5b505050506040513d601f19601f82011682018060405250810190620014d7919062003393565b10156200151b576040517f08c379a00000000000000000000000000000000000000000000000000000000081526004016200151290620039f8565b60405180910390fd5b838173ffffffffffffffffffffffffffffffffffffffff1663dd62ed3e33306040518363ffffffff1660e01b81526004016200155992919062003955565b602060405180830381865afa15801562001577573d6000803e3d6000fd5b505050506040513d601f19601f820116820180604052508101906200159d919062003393565b1015620015e1576040517f08c379a0000000000000000000000000000000000000000000000000000000008152600401620015d890620039f8565b60405180910390fd5b8173ffffffffffffffffffffffffffffffffffffffff166323b872dd3330886040518463ffffffff1660e01b81526004016200162093929190620036ec565b6020604051808303816000875af115801562001640573d6000803e3d6000fd5b505050506040513d601f19601f8201168201806040525081019062001666919062003648565b620016a8576040517f08c379a00000000000000000000000000000000000000000000000000000000081526004016200169f90620036ca565b60405180910390fd5b8073ffffffffffffffffffffffffffffffffffffffff166323b872dd3330876040518463ffffffff1660e01b8152600401620016e793929190620036ec565b6020604051808303816000875af115801562001707573d6000803e3d6000fd5b505050506040513d601f19601f820116820180604052508101906200172d919062003648565b6200176f576040517f08c379a00000000000000000000000000000000000000000000000000000000081526004016200176690620036ca565b60405180910390fd5b60006200189f8373ffffffffffffffffffffffffffffffffffffffff166395d89b416040518163ffffffff1660e01b8152600401600060405180830381865afa158015620017c1573d6000803e3d6000fd5b505050506040513d6000823e3d601f19601f82011682018060405250810190620017ec919062003ba3565b6040518060400160405280600181526020017f2d000000000000000000000000000000000000000000000000000000000000008152508473ffffffffffffffffffffffffffffffffffffffff166395d89b416040518163ffffffff1660e01b8152600401600060405180830381865afa1580156200186e573d6000803e3d6000fd5b505050506040513d6000823e3d601f19601f8201168201806040525081019062001899919062003ba3565b62002da4565b6008604051620018af9062002dd5565b620018bc92919062003cea565b604051809103906000f080158015620018d9573d6000803e3d6000fd5b509050600062001961600188886000808773ffffffffffffffffffffffffffffffffffffffff166318160ddd6040518163ffffffff1660e01b8152600401602060405180830381865afa15801562001935573d6000803e3d6000fd5b505050506040513d601f19601f820116820180604052508101906200195b919062003393565b620011cc565b90506040518060c001604052808373ffffffffffffffffffffffffffffffffffffffff1681526020018a73ffffffffffffffffffffffffffffffffffffffff1681526020018973ffffffffffffffffffffffffffffffffffffffff168152602001888152602001878152602001600115158152506000808773ffffffffffffffffffffffffffffffffffffffff1673ffffffffffffffffffffffffffffffffffffffff16815260200190815260200160002060008201518160000160006101000a81548173ffffffffffffffffffffffffffffffffffffffff021916908373ffffffffffffffffffffffffffffffffffffffff16021790555060208201518160010160006101000a81548173ffffffffffffffffffffffffffffffffffffffff021916908373ffffffffffffffffffffffffffffffffffffffff16021790555060408201518160020160006101000a81548173ffffffffffffffffffffffffffffffffffffffff021916908373ffffffffffffffffffffffffffffffffffffffff160217905550606082015181600301556080820151816004015560a08201518160050160006101000a81548160ff0219169083151502179055509050508173ffffffffffffffffffffffffffffffffffffffff166340c10f1933836040518363ffffffff1660e01b815260040162001b5c92919062003604565b6020604051808303816000875af115801562001b7c573d6000803e3d6000fd5b505050506040513d601f19601f8201168201806040525081019062001ba2919062003648565b62001be4576040517f08c379a000000000000000000000000000000000000000000000000000000000815260040162001bdb90620036ca565b60405180910390fd5b505050505050505050565b600062001bfd8484620012fb565b905062001c0a8162002cc3565b62001c4c576040517f08c379a000000000000000000000000000000000000000000000000000000000815260040162001c439062003426565b60405180910390fd5b60008060008373ffffffffffffffffffffffffffffffffffffffff1673ffffffffffffffffffffffffffffffffffffffff168152602001908152602001600020600401546000808473ffffffffffffffffffffffffffffffffffffffff1673ffffffffffffffffffffffffffffffffffffffff1681526020019081526020016000206003015462001cde919062003729565b9050600085905060008590508173ffffffffffffffffffffffffffffffffffffffff1663dd62ed3e33306040518363ffffffff1660e01b815260040162001d2792919062003955565b602060405180830381865afa15801562001d45573d6000803e3d6000fd5b505050506040513d601f19601f8201168201806040525081019062001d6b919062003393565b85111562001db0576040517f08c379a000000000000000000000000000000000000000000000000000000000815260040162001da79062003d83565b60405180910390fd5b6000808873ffffffffffffffffffffffffffffffffffffffff166000808873ffffffffffffffffffffffffffffffffffffffff1673ffffffffffffffffffffffffffffffffffffffff16815260200190815260200160002060010160009054906101000a900473ffffffffffffffffffffffffffffffffffffffff1673ffffffffffffffffffffffffffffffffffffffff16141562001ed7576000808773ffffffffffffffffffffffffffffffffffffffff1673ffffffffffffffffffffffffffffffffffffffff1681526020019081526020016000206003015491506000808773ffffffffffffffffffffffffffffffffffffffff1673ffffffffffffffffffffffffffffffffffffffff16815260200190815260200160002060040154905062001f60565b6000808773ffffffffffffffffffffffffffffffffffffffff1673ffffffffffffffffffffffffffffffffffffffff1681526020019081526020016000206004015491506000808773ffffffffffffffffffffffffffffffffffffffff1673ffffffffffffffffffffffffffffffffffffffff1681526020019081526020016000206003015490505b6000878362001f709190620035a7565b8662001f7d9190620037b9565b8262001f8a919062003da5565b90508373ffffffffffffffffffffffffffffffffffffffff1663a9059cbb33836040518363ffffffff1660e01b815260040162001fc992919062003604565b6020604051808303816000875af115801562001fe9573d6000803e3d6000fd5b505050506040513d601f19601f820116820180604052508101906200200f919062003648565b62002051576040517f08c379a00000000000000000000000000000000000000000000000000000000081526004016200204890620036ca565b60405180910390fd5b8473ffffffffffffffffffffffffffffffffffffffff166323b872dd33308b6040518463ffffffff1660e01b81526004016200209093929190620036ec565b6020604051808303816000875af1158015620020b0573d6000803e3d6000fd5b505050506040513d601f19601f82011682018060405250810190620020d6919062003648565b62002118576040517f08c379a00000000000000000000000000000000000000000000000000000000081526004016200210f9062003e30565b60405180910390fd5b8973ffffffffffffffffffffffffffffffffffffffff166000808973ffffffffffffffffffffffffffffffffffffffff1673ffffffffffffffffffffffffffffffffffffffff16815260200190815260200160002060010160009054906101000a900473ffffffffffffffffffffffffffffffffffffffff1673ffffffffffffffffffffffffffffffffffffffff1614156200226857876000808973ffffffffffffffffffffffffffffffffffffffff1673ffffffffffffffffffffffffffffffffffffffff1681526020019081526020016000206003016000828254620022019190620035a7565b92505081905550806000808973ffffffffffffffffffffffffffffffffffffffff1673ffffffffffffffffffffffffffffffffffffffff16815260200190815260200160002060040160008282546200225b919062003da5565b925050819055506200231d565b876000808973ffffffffffffffffffffffffffffffffffffffff1673ffffffffffffffffffffffffffffffffffffffff1681526020019081526020016000206004016000828254620022bb9190620035a7565b92505081905550806000808973ffffffffffffffffffffffffffffffffffffffff1673ffffffffffffffffffffffffffffffffffffffff168152602001908152602001600020600301600082825462002315919062003da5565b925050819055505b50505050505050505050565b600080620023388585620012fb565b9050620023458162002cc3565b62002387576040517f08c379a00000000000000000000000000000000000000000000000000000000081526004016200237e9062003ea2565b60405180910390fd5b60008060008373ffffffffffffffffffffffffffffffffffffffff1673ffffffffffffffffffffffffffffffffffffffff168152602001908152602001600020600401546000808473ffffffffffffffffffffffffffffffffffffffff1673ffffffffffffffffffffffffffffffffffffffff1681526020019081526020016000206003015462002419919062003729565b90506000808773ffffffffffffffffffffffffffffffffffffffff166000808673ffffffffffffffffffffffffffffffffffffffff1673ffffffffffffffffffffffffffffffffffffffff16815260200190815260200160002060010160009054906101000a900473ffffffffffffffffffffffffffffffffffffffff1673ffffffffffffffffffffffffffffffffffffffff16141562002542576000808573ffffffffffffffffffffffffffffffffffffffff1673ffffffffffffffffffffffffffffffffffffffff1681526020019081526020016000206003015491506000808573ffffffffffffffffffffffffffffffffffffffff1673ffffffffffffffffffffffffffffffffffffffff168152602001908152602001600020600401549050620025cb565b6000808573ffffffffffffffffffffffffffffffffffffffff1673ffffffffffffffffffffffffffffffffffffffff1681526020019081526020016000206004015491506000808573ffffffffffffffffffffffffffffffffffffffff1673ffffffffffffffffffffffffffffffffffffffff1681526020019081526020016000206003015490505b8582620025d99190620035a7565b83620025e69190620037b9565b81620025f3919062003da5565b9450505050509392505050565b6200260b8262002cc3565b6200264d576040517f08c379a0000000000000000000000000000000000000000000000000000000008152600401620026449062003426565b60405180910390fd5b60008060008473ffffffffffffffffffffffffffffffffffffffff1673ffffffffffffffffffffffffffffffffffffffff16815260200190815260200160002060000160009054906101000a900473ffffffffffffffffffffffffffffffffffffffff169050818173ffffffffffffffffffffffffffffffffffffffff166370a08231336040518263ffffffff1660e01b8152600401620026ef9190620032ed565b602060405180830381865afa1580156200270d573d6000803e3d6000fd5b505050506040513d601f19601f8201168201806040525081019062002733919062003393565b101562002777576040517f08c379a00000000000000000000000000000000000000000000000000000000081526004016200276e9062003f14565b60405180910390fd5b600062002838838373ffffffffffffffffffffffffffffffffffffffff166318160ddd6040518163ffffffff1660e01b8152600401602060405180830381865afa158015620027ca573d6000803e3d6000fd5b505050506040513d601f19601f82011682018060405250810190620027f0919062003393565b6000808873ffffffffffffffffffffffffffffffffffffffff1673ffffffffffffffffffffffffffffffffffffffff1681526020019081526020016000206003015462002c9d565b90506000620028fb848473ffffffffffffffffffffffffffffffffffffffff166318160ddd6040518163ffffffff1660e01b8152600401602060405180830381865afa1580156200288d573d6000803e3d6000fd5b505050506040513d601f19601f82011682018060405250810190620028b3919062003393565b6000808973ffffffffffffffffffffffffffffffffffffffff1673ffffffffffffffffffffffffffffffffffffffff1681526020019081526020016000206004015462002c9d565b9050816000808773ffffffffffffffffffffffffffffffffffffffff1673ffffffffffffffffffffffffffffffffffffffff168152602001908152602001600020600301600082825462002950919062003da5565b92505081905550806000808773ffffffffffffffffffffffffffffffffffffffff1673ffffffffffffffffffffffffffffffffffffffff1681526020019081526020016000206004016000828254620029aa919062003da5565b9250508190555060008060008773ffffffffffffffffffffffffffffffffffffffff1673ffffffffffffffffffffffffffffffffffffffff16815260200190815260200160002060010160009054906101000a900473ffffffffffffffffffffffffffffffffffffffff16905060008060008873ffffffffffffffffffffffffffffffffffffffff1673ffffffffffffffffffffffffffffffffffffffff16815260200190815260200160002060020160009054906101000a900473ffffffffffffffffffffffffffffffffffffffff1690508173ffffffffffffffffffffffffffffffffffffffff1663a9059cbb33866040518363ffffffff1660e01b815260040162002aba92919062003604565b6020604051808303816000875af115801562002ada573d6000803e3d6000fd5b505050506040513d601f19601f8201168201806040525081019062002b00919062003648565b62002b42576040517f08c379a000000000000000000000000000000000000000000000000000000000815260040162002b3990620036ca565b60405180910390fd5b8073ffffffffffffffffffffffffffffffffffffffff1663a9059cbb33856040518363ffffffff1660e01b815260040162002b7f92919062003604565b6020604051808303816000875af115801562002b9f573d6000803e3d6000fd5b505050506040513d601f19601f8201168201806040525081019062002bc5919062003648565b62002c07576040517f08c379a000000000000000000000000000000000000000000000000000000000815260040162002bfe90620036ca565b60405180910390fd5b8473ffffffffffffffffffffffffffffffffffffffff16639dc29fac33886040518363ffffffff1660e01b815260040162002c4492919062003604565b6020604051808303816000875af115801562002c64573d6000803e3d6000fd5b505050506040513d601f19601f8201168201806040525081019062002c8a919062003648565b62002c9457600080fd5b50505050505050565b600082848362002cae919062003729565b62002cba9190620037b9565b90509392505050565b60008060008373ffffffffffffffffffffffffffffffffffffffff1673ffffffffffffffffffffffffffffffffffffffff16815260200190815260200160002060050160009054906101000a900460ff169050919050565b6000600382111562002d90578190506000600160028462002d3d9190620037b9565b62002d499190620035a7565b90505b8181101562002d8957809150600281828562002d699190620037b9565b62002d759190620035a7565b62002d819190620037b9565b905062002d4c565b5062002d9f565b6000821462002d9e57600190505b5b919050565b606083838360405160200162002dbd9392919062003f78565b60405160208183030381529060405290509392505050565b611b728062003fb083390190565b6000604051905090565b600080fd5b600080fd5b600073ffffffffffffffffffffffffffffffffffffffff82169050919050565b600062002e248262002df7565b9050919050565b62002e368162002e17565b811462002e4257600080fd5b50565b60008135905062002e568162002e2b565b92915050565b60006020828403121562002e755762002e7462002ded565b5b600062002e858482850162002e45565b91505092915050565b6000819050919050565b62002ea38162002e8e565b82525050565b600060208201905062002ec0600083018462002e98565b92915050565b62002ed18162002e8e565b811462002edd57600080fd5b50565b60008135905062002ef18162002ec6565b92915050565b6000806040838503121562002f115762002f1062002ded565b5b600062002f218582860162002e45565b925050602062002f348582860162002ee0565b9150509250929050565b62002f498162002e17565b82525050565b600060808201905062002f66600083018762002e98565b62002f75602083018662002e98565b62002f84604083018562002f3e565b62002f93606083018462002f3e565b95945050505050565b600062002fa98262002df7565b9050919050565b62002fbb8162002f9c565b811462002fc757600080fd5b50565b60008135905062002fdb8162002fb0565b92915050565b60008060006060848603121562002ffd5762002ffc62002ded565b5b60006200300d8682870162002fca565b9350506020620030208682870162002fca565b9250506040620030338682870162002ee0565b9150509250925092565b60008060006060848603121562003059576200305862002ded565b5b6000620030698682870162002ee0565b93505060206200307c8682870162002ee0565b92505060406200308f8682870162002ee0565b9150509250925092565b600080600060608486031215620030b557620030b462002ded565b5b6000620030c58682870162002e45565b9350506020620030d88682870162002e45565b9250506040620030eb8682870162002ee0565b9150509250925092565b60006040820190506200310c600083018562002e98565b6200311b602083018462002e98565b9392505050565b600080604083850312156200313c576200313b62002ded565b5b60006200314c8582860162002e45565b92505060206200315f8582860162002e45565b9150509250929050565b60008115159050919050565b620031808162003169565b82525050565b60006040820190506200319d600083018562003175565b620031ac602083018462002f3e565b9392505050565b620031be8162003169565b8114620031ca57600080fd5b50565b600081359050620031de81620031b3565b92915050565b60008060008060008060c0878903121562003204576200320362002ded565b5b60006200321489828a01620031cd565b96505060206200322789828a0162002ee0565b95505060406200323a89828a0162002ee0565b94505060606200324d89828a0162002ee0565b93505060806200326089828a0162002ee0565b92505060a06200327389828a0162002ee0565b9150509295509295509295565b600060c08201905062003297600083018962002f3e565b620032a6602083018862002f3e565b620032b5604083018762002f3e565b620032c4606083018662002e98565b620032d3608083018562002e98565b620032e260a083018462003175565b979650505050505050565b600060208201905062003304600083018462002f3e565b92915050565b6000806000806080858703121562003327576200332662002ded565b5b6000620033378782880162002fca565b94505060206200334a8782880162002fca565b93505060406200335d8782880162002ee0565b9250506060620033708782880162002ee0565b91505092959194509250565b6000815190506200338d8162002ec6565b92915050565b600060208284031215620033ac57620033ab62002ded565b5b6000620033bc848285016200337c565b91505092915050565b600082825260208201905092915050565b7f506f6f6c206973206e6f742065786973742e0000000000000000000000000000600082015250565b60006200340e601283620033c5565b91506200341b82620033d6565b602082019050919050565b600060208201905081810360008301526200344181620033ff565b9050919050565b7f506f6f6c206973206e6f742065786973742c20706c656173652063726561746560008201527f2061206e657720706f6f6c2e0000000000000000000000000000000000000000602082015250565b6000620034a6602c83620033c5565b9150620034b38262003448565b604082019050919050565b60006020820190508181036000830152620034d98162003497565b9050919050565b7f416d6f756e7420746f2066756e64206d7573742067726561746572207468616e60008201527f20302e0000000000000000000000000000000000000000000000000000000000602082015250565b60006200353e602383620033c5565b91506200354b82620034e0565b604082019050919050565b6000602082019050818103600083015262003571816200352f565b9050919050565b7f4e487b7100000000000000000000000000000000000000000000000000000000600052601160045260246000fd5b6000620035b48262002e8e565b9150620035c18362002e8e565b9250827fffffffffffffffffffffffffffffffffffffffffffffffffffffffffffffffff03821115620035f957620035f862003578565b5b828201905092915050565b60006040820190506200361b600083018562002f3e565b6200362a602083018462002e98565b9392505050565b6000815190506200364281620031b3565b92915050565b60006020828403121562003661576200366062002ded565b5b6000620036718482850162003631565b91505092915050565b7f5472616e73616374696f6e206661696c65642e00000000000000000000000000600082015250565b6000620036b2601383620033c5565b9150620036bf826200367a565b602082019050919050565b60006020820190508181036000830152620036e581620036a3565b9050919050565b600060608201905062003703600083018662002f3e565b62003712602083018562002f3e565b62003721604083018462002e98565b949350505050565b6000620037368262002e8e565b9150620037438362002e8e565b9250817fffffffffffffffffffffffffffffffffffffffffffffffffffffffffffffffff04831182151516156200377f576200377e62003578565b5b828202905092915050565b7f4e487b7100000000000000000000000000000000000000000000000000000000600052601260045260246000fd5b6000620037c68262002e8e565b9150620037d38362002e8e565b925082620037e657620037e56200378a565b5b828204905092915050565b7f496e76616c69642050616972206f6620546f6b656e0000000000000000000000600082015250565b600062003829601583620033c5565b91506200383682620037f1565b602082019050919050565b600060208201905081810360008301526200385c816200381a565b9050919050565b60008160601b9050919050565b60006200387d8262003863565b9050919050565b6000620038918262003870565b9050919050565b620038ad620038a78262002e17565b62003884565b82525050565b6000620038c1828562003898565b601482019150620038d3828462003898565b6014820191508190509392505050565b7f506f6f6c20616c72656164792065786973742e00000000000000000000000000600082015250565b60006200391b601383620033c5565b91506200392882620038e3565b602082019050919050565b600060208201905081810360008301526200394e816200390c565b9050919050565b60006040820190506200396c600083018562002f3e565b6200397b602083018462002f3e565b9392505050565b7f4e6f7420656e6f75676820746f6b656e2061726520616c6c6f77656420746f2060008201527f706572666f726d207468697320616374696f6e2e000000000000000000000000602082015250565b6000620039e0603483620033c5565b9150620039ed8262003982565b604082019050919050565b6000602082019050818103600083015262003a1381620039d1565b9050919050565b600080fd5b600080fd5b6000601f19601f8301169050919050565b7f4e487b7100000000000000000000000000000000000000000000000000000000600052604160045260246000fd5b62003a6f8262003a24565b810181811067ffffffffffffffff8211171562003a915762003a9062003a35565b5b80604052505050565b600062003aa662002de3565b905062003ab4828262003a64565b919050565b600067ffffffffffffffff82111562003ad75762003ad662003a35565b5b62003ae28262003a24565b9050602081019050919050565b60005b8381101562003b0f57808201518184015260208101905062003af2565b8381111562003b1f576000848401525b50505050565b600062003b3c62003b368462003ab9565b62003a9a565b90508281526020810184848401111562003b5b5762003b5a62003a1f565b5b62003b6884828562003aef565b509392505050565b600082601f83011262003b885762003b8762003a1a565b5b815162003b9a84826020860162003b25565b91505092915050565b60006020828403121562003bbc5762003bbb62002ded565b5b600082015167ffffffffffffffff81111562003bdd5762003bdc62002df2565b5b62003beb8482850162003b70565b91505092915050565b7f4c50540000000000000000000000000000000000000000000000000000000000600082015250565b600062003c2c600383620033c5565b915062003c398262003bf4565b602082019050919050565b600081519050919050565b600062003c5c8262003c44565b62003c688185620033c5565b935062003c7a81856020860162003aef565b62003c858162003a24565b840191505092915050565b6000819050919050565b600060ff82169050919050565b6000819050919050565b600062003cd262003ccc62003cc68462003c90565b62003ca7565b62003c9a565b9050919050565b62003ce48162003cb1565b82525050565b6000606082019050818103600083015262003d058162003c1d565b9050818103602083015262003d1b818562003c4f565b905062003d2c604083018462003cd9565b9392505050565b7f4e6f7420656e6f75676820746f6b656e00000000000000000000000000000000600082015250565b600062003d6b601083620033c5565b915062003d788262003d33565b602082019050919050565b6000602082019050818103600083015262003d9e8162003d5c565b9050919050565b600062003db28262002e8e565b915062003dbf8362002e8e565b92508282101562003dd55762003dd462003578565b5b828203905092915050565b7f5472616e73616374696f6e206661696c65640000000000000000000000000000600082015250565b600062003e18601283620033c5565b915062003e258262003de0565b602082019050919050565b6000602082019050818103600083015262003e4b8162003e09565b9050919050565b7f4c697175696469747920506f6f6c206e6f7420666f756e642e00000000000000600082015250565b600062003e8a601983620033c5565b915062003e978262003e52565b602082019050919050565b6000602082019050818103600083015262003ebd8162003e7b565b9050919050565b7f4e6f7420656e6f75676820616d6f756e74000000000000000000000000000000600082015250565b600062003efc601183620033c5565b915062003f098262003ec4565b602082019050919050565b6000602082019050818103600083015262003f2f8162003eed565b9050919050565b600081905092915050565b600062003f4e8262003c44565b62003f5a818562003f36565b935062003f6c81856020860162003aef565b80840191505092915050565b600062003f86828662003f41565b915062003f94828562003f41565b915062003fa2828462003f41565b915081905094935050505056fe60806040523480156200001157600080fd5b5060405162001b7238038062001b7283398181016040528101906200003791906200045d565b8282826000836000908051906020019062000054929190620001d2565b5082600190805190602001906200006d929190620001d2565b5081600260006101000a81548160ff021916908360ff1602179055508060038190555033600460006101000a81548173ffffffffffffffffffffffffffffffffffffffff021916908373ffffffffffffffffffffffffffffffffffffffff16021790555060035460056000600460009054906101000a900473ffffffffffffffffffffffffffffffffffffffff1673ffffffffffffffffffffffffffffffffffffffff1673ffffffffffffffffffffffffffffffffffffffff16815260200190815260200160002081905550600460009054906101000a900473ffffffffffffffffffffffffffffffffffffffff1673ffffffffffffffffffffffffffffffffffffffff16600073ffffffffffffffffffffffffffffffffffffffff167fddf252ad1be2c89b69c2b068fc378daa952ba7f163c4a11628f55a4df523b3ef600354604051620001bd919062000512565b60405180910390a35050505050505062000594565b828054620001e0906200055e565b90600052602060002090601f01602090048101928262000204576000855562000250565b82601f106200021f57805160ff191683800117855562000250565b8280016001018555821562000250579182015b828111156200024f57825182559160200191906001019062000232565b5b5090506200025f919062000263565b5090565b5b808211156200027e57600081600090555060010162000264565b5090565b6000604051905090565b600080fd5b600080fd5b600080fd5b600080fd5b6000601f19601f8301169050919050565b7f4e487b7100000000000000000000000000000000000000000000000000000000600052604160045260246000fd5b620002eb82620002a0565b810181811067ffffffffffffffff821117156200030d576200030c620002b1565b5b80604052505050565b60006200032262000282565b9050620003308282620002e0565b919050565b600067ffffffffffffffff821115620003535762000352620002b1565b5b6200035e82620002a0565b9050602081019050919050565b60005b838110156200038b5780820151818401526020810190506200036e565b838111156200039b576000848401525b50505050565b6000620003b8620003b28462000335565b62000316565b905082815260208101848484011115620003d757620003d66200029b565b5b620003e48482856200036b565b509392505050565b600082601f83011262000404576200040362000296565b5b815162000416848260208601620003a1565b91505092915050565b600060ff82169050919050565b62000437816200041f565b81146200044357600080fd5b50565b60008151905062000457816200042c565b92915050565b6000806000606084860312156200047957620004786200028c565b5b600084015167ffffffffffffffff8111156200049a576200049962000291565b5b620004a886828701620003ec565b935050602084015167ffffffffffffffff811115620004cc57620004cb62000291565b5b620004da86828701620003ec565b9250506040620004ed8682870162000446565b9150509250925092565b6000819050919050565b6200050c81620004f7565b82525050565b600060208201905062000529600083018462000501565b92915050565b7f4e487b7100000000000000000000000000000000000000000000000000000000600052602260045260246000fd5b600060028204905060018216806200057757607f821691505b602082108114156200058e576200058d6200052f565b5b50919050565b6115ce80620005a46000396000f3fe608060405234801561001057600080fd5b506004361061010b5760003560e01c806395d89b41116100a2578063b5931f7c11610071578063b5931f7c146102f6578063d05c78da14610326578063d5f3948814610356578063dd62ed3e14610374578063e6cb9013146103a45761010b565b806395d89b41146102485780639dc29fac14610266578063a293d1e814610296578063a9059cbb146102c65761010b565b8063313ce567116100de578063313ce567146101ac5780633eaaf86b146101ca57806340c10f19146101e857806370a08231146102185761010b565b806306fdde0314610110578063095ea7b31461012e57806318160ddd1461015e57806323b872dd1461017c575b600080fd5b6101186103d4565b6040516101259190610fe4565b60405180910390f35b6101486004803603810190610143919061109f565b610462565b60405161015591906110fa565b60405180910390f35b610166610554565b6040516101739190611124565b60405180910390f35b6101966004803603810190610191919061113f565b61055e565b6040516101a391906110fa565b60405180910390f35b6101b46107ee565b6040516101c191906111ae565b60405180910390f35b6101d2610801565b6040516101df9190611124565b60405180910390f35b61020260048036038101906101fd919061109f565b610807565b60405161020f91906110fa565b60405180910390f35b610232600480360381019061022d91906111c9565b610979565b60405161023f9190611124565b60405180910390f35b6102506109c2565b60405161025d9190610fe4565b60405180910390f35b610280600480360381019061027b919061109f565b610a50565b60405161028d91906110fa565b60405180910390f35b6102b060048036038101906102ab91906111f6565b610c75565b6040516102bd9190611124565b60405180910390f35b6102e060048036038101906102db919061109f565b610c98565b6040516102ed91906110fa565b60405180910390f35b610310600480360381019061030b91906111f6565b610e21565b60405161031d9190611124565b60405180910390f35b610340600480360381019061033b91906111f6565b610e43565b60405161034d9190611124565b60405180910390f35b61035e610e7b565b60405161036b9190611245565b60405180910390f35b61038e60048036038101906103899190611260565b610ea1565b60405161039b9190611124565b60405180910390f35b6103be60048036038101906103b991906111f6565b610f28565b6040516103cb9190611124565b60405180910390f35b600180546103e1906112cf565b80601f016020809104026020016040519081016040528092919081815260200182805461040d906112cf565b801561045a5780601f1061042f5761010080835404028352916020019161045a565b820191906000526020600020905b81548152906001019060200180831161043d57829003601f168201915b505050505081565b600081600660003373ffffffffffffffffffffffffffffffffffffffff1673ffffffffffffffffffffffffffffffffffffffff16815260200190815260200160002060008573ffffffffffffffffffffffffffffffffffffffff1673ffffffffffffffffffffffffffffffffffffffff168152602001908152602001600020819055508273ffffffffffffffffffffffffffffffffffffffff163373ffffffffffffffffffffffffffffffffffffffff167f8c5be1e5ebec7d5bd14f71427d1e84f3dd0314c0f7b2291e5b200ac8c7c3b925846040516105429190611124565b60405180910390a36001905092915050565b6000600354905090565b60006105a9600560008673ffffffffffffffffffffffffffffffffffffffff1673ffffffffffffffffffffffffffffffffffffffff1681526020019081526020016000205483610c75565b600560008673ffffffffffffffffffffffffffffffffffffffff1673ffffffffffffffffffffffffffffffffffffffff16815260200190815260200160002081905550610672600660008673ffffffffffffffffffffffffffffffffffffffff1673ffffffffffffffffffffffffffffffffffffffff16815260200190815260200160002060003373ffffffffffffffffffffffffffffffffffffffff1673ffffffffffffffffffffffffffffffffffffffff1681526020019081526020016000205483610c75565b600660008673ffffffffffffffffffffffffffffffffffffffff1673ffffffffffffffffffffffffffffffffffffffff16815260200190815260200160002060003373ffffffffffffffffffffffffffffffffffffffff1673ffffffffffffffffffffffffffffffffffffffff1681526020019081526020016000208190555061073b600560008573ffffffffffffffffffffffffffffffffffffffff1673ffffffffffffffffffffffffffffffffffffffff1681526020019081526020016000205483610f28565b600560008573ffffffffffffffffffffffffffffffffffffffff1673ffffffffffffffffffffffffffffffffffffffff168152602001908152602001600020819055508273ffffffffffffffffffffffffffffffffffffffff168473ffffffffffffffffffffffffffffffffffffffff167fddf252ad1be2c89b69c2b068fc378daa952ba7f163c4a11628f55a4df523b3ef846040516107db9190611124565b60405180910390a3600190509392505050565b600260009054906101000a900460ff1681565b60035481565b6000338073ffffffffffffffffffffffffffffffffffffffff16600460009054906101000a900473ffffffffffffffffffffffffffffffffffffffff1673ffffffffffffffffffffffffffffffffffffffff161461086457600080fd5b82600360008282546108769190611330565b925050819055506108c6600560008673ffffffffffffffffffffffffffffffffffffffff1673ffffffffffffffffffffffffffffffffffffffff1681526020019081526020016000205484610f28565b600560008673ffffffffffffffffffffffffffffffffffffffff1673ffffffffffffffffffffffffffffffffffffffff168152602001908152602001600020819055508373ffffffffffffffffffffffffffffffffffffffff163373ffffffffffffffffffffffffffffffffffffffff167fddf252ad1be2c89b69c2b068fc378daa952ba7f163c4a11628f55a4df523b3ef856040516109669190611124565b60405180910390a3600191505092915050565b6000600560008373ffffffffffffffffffffffffffffffffffffffff1673ffffffffffffffffffffffffffffffffffffffff168152602001908152602001600020549050919050565b600080546109cf906112cf565b80601f01602080910402602001604051908101604052809291908181526020018280546109fb906112cf565b8015610a485780601f10610a1d57610100808354040283529160200191610a48565b820191906000526020600020905b815481529060010190602001808311610a2b57829003601f168201915b505050505081565b6000338073ffffffffffffffffffffffffffffffffffffffff16600460009054906101000a900473ffffffffffffffffffffffffffffffffffffffff1673ffffffffffffffffffffffffffffffffffffffff1614610aad57600080fd5b600073ffffffffffffffffffffffffffffffffffffffff168473ffffffffffffffffffffffffffffffffffffffff161415610b1d576040517f08c379a0000000000000000000000000000000000000000000000000000000008152600401610b14906113f8565b60405180910390fd5b6000600560008673ffffffffffffffffffffffffffffffffffffffff1673ffffffffffffffffffffffffffffffffffffffff16815260200190815260200160002054905083811015610ba4576040517f08c379a0000000000000000000000000000000000000000000000000000000008152600401610b9b9061148a565b60405180910390fd5b610bae8185610c75565b600560008773ffffffffffffffffffffffffffffffffffffffff1673ffffffffffffffffffffffffffffffffffffffff16815260200190815260200160002081905550610bfd60035485610c75565b600381905550600073ffffffffffffffffffffffffffffffffffffffff168573ffffffffffffffffffffffffffffffffffffffff167fddf252ad1be2c89b69c2b068fc378daa952ba7f163c4a11628f55a4df523b3ef86604051610c619190611124565b60405180910390a360019250505092915050565b600082821115610c8457600080fd5b8183610c9091906114aa565b905092915050565b6000610ce3600560003373ffffffffffffffffffffffffffffffffffffffff1673ffffffffffffffffffffffffffffffffffffffff1681526020019081526020016000205483610c75565b600560003373ffffffffffffffffffffffffffffffffffffffff1673ffffffffffffffffffffffffffffffffffffffff16815260200190815260200160002081905550610d6f600560008573ffffffffffffffffffffffffffffffffffffffff1673ffffffffffffffffffffffffffffffffffffffff1681526020019081526020016000205483610f28565b600560008573ffffffffffffffffffffffffffffffffffffffff1673ffffffffffffffffffffffffffffffffffffffff168152602001908152602001600020819055508273ffffffffffffffffffffffffffffffffffffffff163373ffffffffffffffffffffffffffffffffffffffff167fddf252ad1be2c89b69c2b068fc378daa952ba7f163c4a11628f55a4df523b3ef84604051610e0f9190611124565b60405180910390a36001905092915050565b6000808211610e2f57600080fd5b8183610e3b919061150d565b905092915050565b60008183610e51919061153e565b90506000831480610e6c5750818382610e6a919061150d565b145b610e7557600080fd5b92915050565b600460009054906101000a900473ffffffffffffffffffffffffffffffffffffffff1681565b6000600660008473ffffffffffffffffffffffffffffffffffffffff1673ffffffffffffffffffffffffffffffffffffffff16815260200190815260200160002060008373ffffffffffffffffffffffffffffffffffffffff1673ffffffffffffffffffffffffffffffffffffffff16815260200190815260200160002054905092915050565b60008183610f369190611330565b905082811015610f4557600080fd5b92915050565b600081519050919050565b600082825260208201905092915050565b60005b83811015610f85578082015181840152602081019050610f6a565b83811115610f94576000848401525b50505050565b6000601f19601f8301169050919050565b6000610fb682610f4b565b610fc08185610f56565b9350610fd0818560208601610f67565b610fd981610f9a565b840191505092915050565b60006020820190508181036000830152610ffe8184610fab565b905092915050565b600080fd5b600073ffffffffffffffffffffffffffffffffffffffff82169050919050565b60006110368261100b565b9050919050565b6110468161102b565b811461105157600080fd5b50565b6000813590506110638161103d565b92915050565b6000819050919050565b61107c81611069565b811461108757600080fd5b50565b60008135905061109981611073565b92915050565b600080604083850312156110b6576110b5611006565b5b60006110c485828601611054565b92505060206110d58582860161108a565b9150509250929050565b60008115159050919050565b6110f4816110df565b82525050565b600060208201905061110f60008301846110eb565b92915050565b61111e81611069565b82525050565b60006020820190506111396000830184611115565b92915050565b60008060006060848603121561115857611157611006565b5b600061116686828701611054565b935050602061117786828701611054565b92505060406111888682870161108a565b9150509250925092565b600060ff82169050919050565b6111a881611192565b82525050565b60006020820190506111c3600083018461119f565b92915050565b6000602082840312156111df576111de611006565b5b60006111ed84828501611054565b91505092915050565b6000806040838503121561120d5761120c611006565b5b600061121b8582860161108a565b925050602061122c8582860161108a565b9150509250929050565b61123f8161102b565b82525050565b600060208201905061125a6000830184611236565b92915050565b6000806040838503121561127757611276611006565b5b600061128585828601611054565b925050602061129685828601611054565b9150509250929050565b7f4e487b7100000000000000000000000000000000000000000000000000000000600052602260045260246000fd5b600060028204905060018216806112e757607f821691505b602082108114156112fb576112fa6112a0565b5b50919050565b7f4e487b7100000000000000000000000000000000000000000000000000000000600052601160045260246000fd5b600061133b82611069565b915061134683611069565b9250827fffffffffffffffffffffffffffffffffffffffffffffffffffffffffffffffff0382111561137b5761137a611301565b5b828201905092915050565b7f45524332303a206275726e2066726f6d20746865207a65726f2061646472657360008201527f7300000000000000000000000000000000000000000000000000000000000000602082015250565b60006113e2602183610f56565b91506113ed82611386565b604082019050919050565b60006020820190508181036000830152611411816113d5565b9050919050565b7f45524332303a206275726e20616d6f756e7420657863656564732062616c616e60008201527f6365000000000000000000000000000000000000000000000000000000000000602082015250565b6000611474602283610f56565b915061147f82611418565b604082019050919050565b600060208201905081810360008301526114a381611467565b9050919050565b60006114b582611069565b91506114c083611069565b9250828210156114d3576114d2611301565b5b828203905092915050565b7f4e487b7100000000000000000000000000000000000000000000000000000000600052601260045260246000fd5b600061151882611069565b915061152383611069565b925082611533576115326114de565b5b828204905092915050565b600061154982611069565b915061155483611069565b9250817fffffffffffffffffffffffffffffffffffffffffffffffffffffffffffffffff048311821515161561158d5761158c611301565b5b82820290509291505056fea2646970667358221220bf234249bbffbe5e7fce86b71f7d23d06c8d48443b66199c5753204392bf9e6664736f6c634300080a0033a2646970667358221220f729a1434502f76594712227326027fe18a308036a0ecf11fdfde0ad2fd2147d64736f6c634300080a0033",
  "immutableReferences": {},
  "source": "//SPDX-License-Identifier:MIT\r\npragma solidity ^0.8.0;\r\n\r\nimport \"./token.sol\";\r\n\r\ncontract dex{\r\n    struct Pool{\r\n        address poolToken;\r\n        address token1;\r\n        address token2;\r\n        uint256 token1Balance;\r\n        uint256 token2Balance;                      \r\n        bool isAdded;\r\n    }\r\n\r\n    mapping(address => Pool) public liquidityPool;\r\n    address private owner;        \r\n\r\n    constructor(){                                                                          \r\n        owner = msg.sender;\r\n    }\r\n\r\n    function checkBalances(address token)public view returns(uint){\r\n        return ERC20Interface(token).balanceOf(msg.sender);\r\n    }\r\n\r\n    function isPoolExist(address tokenA, address tokenB)public view returns(bool,address){\r\n        address poolId = generatePoolId(tokenA,tokenB);\r\n        return (isPoolExist(poolId),poolId);\r\n    }\r\n    \r\n\r\n    function fundLiquidityPool(address payable token1, address payable token2, uint token1Amount) public payable{\r\n        address poolAddress = generatePoolId(token1,token2);\r\n        require(isPoolExist(poolAddress),\"Pool is not exist, please create a new pool.\");        \r\n        require(token1Amount > 0, \"Amount to fund must greater than 0.\");\r\n                \r\n        uint token2Amount;\r\n        if(token1 == liquidityPool[poolAddress].token1){\r\n            uint tokenABalance = liquidityPool[poolAddress].token1Balance;\r\n            uint tokenBBalance = liquidityPool[poolAddress].token2Balance;\r\n\r\n            token2Amount = computePrice(tokenABalance,tokenBBalance,token1Amount); \r\n                     \r\n            liquidityPool[poolAddress].token1Balance += token1Amount;                    \r\n            liquidityPool[poolAddress].token2Balance += token2Amount;   \r\n        }\r\n        else{\r\n            uint tokenABalance = liquidityPool[poolAddress].token2Balance;\r\n            uint tokenBBalance = liquidityPool[poolAddress].token1Balance;            \r\n\r\n            token2Amount = computePrice(tokenABalance,tokenBBalance,token1Amount);\r\n\r\n            liquidityPool[poolAddress].token2Balance += token1Amount;            \r\n            liquidityPool[poolAddress].token1Balance += token2Amount;\r\n        } \r\n\r\n        //Add liquidity\r\n        ERC20Interface poolToken = ERC20Interface(liquidityPool[poolAddress].poolToken);\r\n                \r\n        uint tokenReceived = calculateLPToken(false,token1Amount,token2Amount,liquidityPool[poolAddress].token1Balance,liquidityPool[poolAddress].token2Balance,poolToken.totalSupply());\r\n              \r\n        require(poolToken.mint(msg.sender,tokenReceived),\"Transaction failed.\");\r\n\r\n        ERC20Interface tokenA = ERC20Interface(token1);\r\n        ERC20Interface tokenB = ERC20Interface(token2);\r\n\r\n        tokenA.transferFrom(msg.sender, address(this),token1Amount);\r\n        tokenB.transferFrom(msg.sender, address(this),token2Amount);\r\n    }\r\n\r\n    function addLiquidityPool(address payable token1, address payable token2, uint token1Amount, uint token2Amount) public payable{\r\n        address poolAddress = generatePoolId(token1,token2);\r\n        require(!isPoolExist(poolAddress),\"Pool already exist.\");        \r\n        //need to call approve first\r\n        ERC20Interface tokenA = ERC20Interface(token1);\r\n        ERC20Interface tokenB = ERC20Interface(token2);\r\n\r\n        require(tokenA.allowance(msg.sender, address(this)) >= token1Amount,\"Not enough token are allowed to perform this action.\");        \r\n        require(tokenB.allowance(msg.sender,address(this)) >= token2Amount, \"Not enough token are allowed to perform this action.\");\r\n\r\n        //console.log(\"Progress\", \"Gained Approval\");\r\n        \r\n        require(tokenA.transferFrom(msg.sender,address(this),token1Amount),\"Transaction failed.\");\r\n        require(tokenB.transferFrom(msg.sender,address(this),token2Amount),\"Transaction failed.\");\r\n        //console.log(\"Progress\", \"Token Transfer completed\");\r\n\r\n        MintableToken poolToken = new MintableToken(\"LPT\",concat(tokenA.symbol(),\"-\",tokenB.symbol()),8);        \r\n        \r\n        uint tokenReceived = calculateLPToken(true,token1Amount,token2Amount,0,0,poolToken.totalSupply()); //By Default Pool is empty\r\n        liquidityPool[poolAddress] = Pool(address(poolToken),token1,token2,token1Amount,token2Amount,true);        \r\n        require(poolToken.mint(msg.sender,tokenReceived),\"Transaction failed.\");\r\n        \r\n    }\r\n\r\n    function convertLPTokenToToken(uint lpAmount, uint totalSupply, uint tokenReserve)public pure returns(uint){\r\n        return tokenReserve * lpAmount / totalSupply;\r\n    }\r\n\r\n    function withdrawFund(address pool, uint amount)public payable{ \r\n        require(isPoolExist(pool),\"Pool is not exist.\");\r\n        ERC20Interface poolToken = ERC20Interface(liquidityPool[pool].poolToken);\r\n        require(poolToken.balanceOf(msg.sender) >= amount,\"Not enough amount\");\r\n    \r\n        uint token1Received = convertLPTokenToToken(amount,poolToken.totalSupply(),liquidityPool[pool].token1Balance);\r\n        uint token2Received = convertLPTokenToToken(amount,poolToken.totalSupply(),liquidityPool[pool].token2Balance);        \r\n        \r\n        liquidityPool[pool].token1Balance -= token1Received;\r\n        liquidityPool[pool].token2Balance -= token2Received;  \r\n\r\n        ERC20Interface tokenA = ERC20Interface(liquidityPool[pool].token1);\r\n        ERC20Interface tokenB = ERC20Interface(liquidityPool[pool].token2);\r\n\r\n        require(tokenA.transfer(msg.sender,token1Received),\"Transaction failed.\");\r\n        require(tokenB.transfer(msg.sender,token2Received),\"Transaction failed.\");\r\n\r\n        require(poolToken.burn(msg.sender,amount));                           \r\n    }\r\n\r\n    function isPoolExist(address _address) private view returns(bool){        \r\n        return liquidityPool[_address].isAdded;        \r\n    }\r\n\r\n    //PURE FUNCTION\r\n    //Retrieve amount of y \r\n    function computePrice(uint256 x, uint256 y, uint256 amount) public pure returns(uint256){\r\n        return (x == 0 && y == 0 ) ? amount : amount * y / x;     \r\n    }\r\n\r\n    function generatePoolId(address tokenA, address tokenB) public pure returns (address){\r\n        require(tokenA != tokenB,\"Invalid Pair of Token\");\r\n        (address token0, address token1) = tokenA < tokenB ? (tokenA, tokenB) : (tokenB, tokenA);        \r\n        return address(uint160(uint256(keccak256(abi.encodePacked(token0, token1)))));  \r\n    }\r\n\r\n    function calculateLPToken(bool isInitiator, uint token1Amount, uint token2Amount, uint token1Reserve, uint token2Reserve, uint totalSupply)public pure returns(uint){\r\n        if(!isInitiator){\r\n            uint resultA = token1Amount * totalSupply / token1Reserve;\r\n            uint resultB = token2Amount * totalSupply / token2Reserve;\r\n            return resultA > resultB ? resultB : resultA;\r\n        }\r\n        else{\r\n            return sqrt(token1Amount * token2Amount);\r\n        }\r\n    }\r\n\r\n    function sqrt(uint y) internal pure returns (uint z) {\r\n        if (y > 3) {\r\n            z = y;\r\n            uint x = y / 2 + 1;\r\n            while (x < z) {\r\n                z = x;\r\n                x = (y / x + x) / 2;\r\n            }\r\n        } else if (y != 0) {\r\n            z = 1;\r\n        }\r\n    }\r\n\r\n    modifier onlyOwner(address sender){\r\n        require(sender == owner,\"Only owner able to execute this action.\");\r\n        _;\r\n    }\r\n\r\n    function swap(address fromToken, address toToken, uint256 tokenX) public payable{\r\n        address poolID = generatePoolId(fromToken, toToken);\r\n        require(isPoolExist(poolID),\"Pool is not exist.\");\r\n\r\n        //Step 2: Calculate K (here got no K value, we calculate manually)\r\n        uint k = liquidityPool[poolID].token1Balance * liquidityPool[poolID].token2Balance;\r\n\r\n        //Step 3: SWAP_X_to_Y        \r\n        ERC20Interface tokenFrom = ERC20Interface(fromToken);\r\n        ERC20Interface tokenTo = ERC20Interface(toToken);\r\n\r\n        require(tokenX <= tokenFrom.allowance(msg.sender,address(this)),\"Not enough token\");\r\n\r\n        //Step 3.1: Calculate different between y-(k/x)\r\n        uint balanceFrom;\r\n        uint balanceTo; \r\n        if(liquidityPool[poolID].token1 == fromToken){\r\n            balanceFrom = liquidityPool[poolID].token1Balance;\r\n            balanceTo = liquidityPool[poolID].token2Balance;\r\n        }\r\n        else{\r\n            balanceFrom = liquidityPool[poolID].token2Balance;\r\n            balanceTo = liquidityPool[poolID].token1Balance;\r\n        }        \r\n        uint difference = balanceTo - (k/(balanceFrom+tokenX));\r\n                \r\n        //Step 3.2: Transfer the amount of difference from pool to user account\r\n        require(tokenTo.transfer(msg.sender, difference),\"Transaction failed.\"); //transfer\r\n\r\n        //Step 3.3: Transfer amount of TokenX (fromToken) from user account to pool\r\n        require(tokenFrom.transferFrom(msg.sender, address(this), tokenX),\"Transaction failed\"); //transferfrom\r\n            \r\n\t    //Step 3.4: update pool's token value\r\n        if(liquidityPool[poolID].token1 == fromToken){\r\n            liquidityPool[poolID].token1Balance += tokenX; //plus because we add in the tokenX into Pool\r\n            liquidityPool[poolID].token2Balance -= difference; //minus because we already take the tokenY       \r\n        }\r\n        else{\r\n            liquidityPool[poolID].token2Balance += tokenX;\r\n            liquidityPool[poolID].token1Balance -= difference;     \r\n        }         \r\n    }\r\n\r\n    function estSwap(address fromToken,address toToken, uint256 tokenX)public view returns(uint){\r\n        address poolID = generatePoolId(fromToken, toToken);\r\n        require(isPoolExist(poolID),\"Liquidity Pool not found.\");\r\n        \r\n\r\n        uint k = liquidityPool[poolID].token1Balance * liquidityPool[poolID].token2Balance;\r\n\r\n        uint balanceFrom;\r\n        uint balanceTo; \r\n        if(liquidityPool[poolID].token1 == fromToken){\r\n            balanceFrom = liquidityPool[poolID].token1Balance;\r\n            balanceTo = liquidityPool[poolID].token2Balance;\r\n        }\r\n        else{\r\n            balanceFrom = liquidityPool[poolID].token2Balance;\r\n            balanceTo = liquidityPool[poolID].token1Balance;\r\n        }\r\n\r\n        return (balanceTo - (k/(balanceFrom+tokenX)));        \r\n    }\r\n\r\n    function estFundPool(address tokenA, address tokenB, uint amount)public view returns(uint amount2, uint share){\r\n        address poolAddress = generatePoolId(tokenA,tokenB);\r\n        require(isPoolExist(poolAddress),\"Pool is not exist.\");        \r\n\r\n        uint tokenABalance;\r\n        uint tokenBBalance;        \r\n        if(tokenA == liquidityPool[poolAddress].token1){\r\n            tokenABalance = liquidityPool[poolAddress].token1Balance;\r\n            tokenBBalance = liquidityPool[poolAddress].token2Balance;         \r\n        }\r\n        else{\r\n            tokenABalance = liquidityPool[poolAddress].token2Balance;\r\n            tokenBBalance = liquidityPool[poolAddress].token1Balance;            \r\n        }        \r\n        uint token2Amount = computePrice(tokenABalance,tokenBBalance,amount);  \r\n        return (token2Amount,(amount * 10000) / (tokenABalance + amount));\r\n        //Return Amount Need To import for B, share in percentage (0 stands for < 0.01%)\r\n    }\r\n\r\n    function estWithdrawFund(address pool, uint amount)public view returns(uint amount1,uint amount2,address token1,address token2){\r\n        require(isPoolExist(pool),\"Pool is not exist.\");\r\n        \r\n        ERC20Interface poolToken = ERC20Interface(liquidityPool[pool].poolToken);\r\n    \r\n        uint token1Received = convertLPTokenToToken(amount,poolToken.totalSupply(),liquidityPool[pool].token1Balance);\r\n        uint token2Received = convertLPTokenToToken(amount,poolToken.totalSupply(),liquidityPool[pool].token2Balance);        \r\n              \r\n        return (token1Received,token2Received,liquidityPool[pool].token1,liquidityPool[pool].token2);\r\n    }\r\n\r\n    function concat(string memory a, string memory b, string memory c)private pure returns(string memory){\r\n        return string(abi.encodePacked(a, b,c));\r\n    }    \r\n}\r\n",
  "sourcePath": "B:\\Degree Material\\Year 3 Sem 2\\Block Chain Application\\Assignment\\Dex Platform\\contracts\\dex.sol",
  "compiler": {
    "name": "solc",
    "version": "0.8.10+commit.fc410830.Emscripten.clang"
  },
  "schemaVersion": "3.4.3",
  "updatedAt": "2021-12-12T16:31:53.243Z",
  "networkType": "ethereum",
  "devdoc": {
    "kind": "dev",
    "methods": {},
    "version": 1
  },
  "userdoc": {
    "kind": "user",
    "methods": {},
    "version": 1
  }
}