{
  "contractName": "dex",
  "abi": [
    {
      "inputs": [],
      "stateMutability": "nonpayable",
      "type": "constructor"
    },
    {
      "inputs": [
        {
          "internalType": "address",
          "name": "",
          "type": "address"
        }
      ],
      "name": "liquidityPool",
      "outputs": [
        {
          "internalType": "address",
          "name": "poolToken",
          "type": "address"
        },
        {
          "internalType": "address",
          "name": "token1",
          "type": "address"
        },
        {
          "internalType": "address",
          "name": "token2",
          "type": "address"
        },
        {
          "internalType": "uint256",
          "name": "token1Balance",
          "type": "uint256"
        },
        {
          "internalType": "uint256",
          "name": "token2Balance",
          "type": "uint256"
        },
        {
          "internalType": "bool",
          "name": "isAdded",
          "type": "bool"
        }
      ],
      "stateMutability": "view",
      "type": "function",
      "constant": true
    },
    {
      "inputs": [
        {
          "internalType": "address",
          "name": "token",
          "type": "address"
        }
      ],
      "name": "checkBalances",
      "outputs": [
        {
          "internalType": "uint256",
          "name": "",
          "type": "uint256"
        }
      ],
      "stateMutability": "view",
      "type": "function",
      "constant": true
    },
    {
      "inputs": [
        {
          "internalType": "address payable",
          "name": "token1",
          "type": "address"
        },
        {
          "internalType": "address payable",
          "name": "token2",
          "type": "address"
        },
        {
          "internalType": "uint256",
          "name": "token1Amount",
          "type": "uint256"
        }
      ],
      "name": "fundLiquidityPool",
      "outputs": [],
      "stateMutability": "payable",
      "type": "function",
      "payable": true
    },
    {
      "inputs": [
        {
          "internalType": "address payable",
          "name": "token1",
          "type": "address"
        },
        {
          "internalType": "address payable",
          "name": "token2",
          "type": "address"
        },
        {
          "internalType": "uint256",
          "name": "token1Amount",
          "type": "uint256"
        },
        {
          "internalType": "uint256",
          "name": "token2Amount",
          "type": "uint256"
        }
      ],
      "name": "addLiquidityPool",
      "outputs": [],
      "stateMutability": "payable",
      "type": "function",
      "payable": true
    },
    {
      "inputs": [
        {
          "internalType": "uint256",
          "name": "lpAmount",
          "type": "uint256"
        },
        {
          "internalType": "uint256",
          "name": "totalSupply",
          "type": "uint256"
        },
        {
          "internalType": "uint256",
          "name": "tokenReserve",
          "type": "uint256"
        }
      ],
      "name": "convertLPTokenToToken",
      "outputs": [
        {
          "internalType": "uint256",
          "name": "",
          "type": "uint256"
        }
      ],
      "stateMutability": "pure",
      "type": "function",
      "constant": true
    },
    {
      "inputs": [
        {
          "internalType": "address",
          "name": "pool",
          "type": "address"
        },
        {
          "internalType": "uint256",
          "name": "amount",
          "type": "uint256"
        }
      ],
      "name": "withdrawFund",
      "outputs": [
        {
          "internalType": "uint256",
          "name": "",
          "type": "uint256"
        },
        {
          "internalType": "uint256",
          "name": "",
          "type": "uint256"
        }
      ],
      "stateMutability": "payable",
      "type": "function",
      "payable": true
    },
    {
      "inputs": [
        {
          "internalType": "address",
          "name": "tokenA",
          "type": "address"
        },
        {
          "internalType": "address",
          "name": "tokenB",
          "type": "address"
        }
      ],
      "name": "isPoolExist",
      "outputs": [
        {
          "internalType": "bool",
          "name": "",
          "type": "bool"
        },
        {
          "internalType": "address",
          "name": "",
          "type": "address"
        }
      ],
      "stateMutability": "view",
      "type": "function",
      "constant": true
    },
    {
      "inputs": [
        {
          "internalType": "uint256",
          "name": "x",
          "type": "uint256"
        },
        {
          "internalType": "uint256",
          "name": "y",
          "type": "uint256"
        },
        {
          "internalType": "uint256",
          "name": "amount",
          "type": "uint256"
        }
      ],
      "name": "computePrice",
      "outputs": [
        {
          "internalType": "uint256",
          "name": "",
          "type": "uint256"
        }
      ],
      "stateMutability": "pure",
      "type": "function",
      "constant": true
    },
    {
      "inputs": [
        {
          "internalType": "address",
          "name": "tokenA",
          "type": "address"
        },
        {
          "internalType": "address",
          "name": "tokenB",
          "type": "address"
        }
      ],
      "name": "generatePoolId",
      "outputs": [
        {
          "internalType": "address",
          "name": "",
          "type": "address"
        }
      ],
      "stateMutability": "pure",
      "type": "function",
      "constant": true
    },
    {
      "inputs": [
        {
          "internalType": "uint256",
          "name": "tokenAmount",
          "type": "uint256"
        },
        {
          "internalType": "uint256",
          "name": "poolAmount",
          "type": "uint256"
        },
        {
          "internalType": "uint256",
          "name": "accumulatedInterest",
          "type": "uint256"
        }
      ],
      "name": "calculateInterest",
      "outputs": [
        {
          "internalType": "uint256",
          "name": "",
          "type": "uint256"
        }
      ],
      "stateMutability": "pure",
      "type": "function",
      "constant": true
    },
    {
      "inputs": [
        {
          "internalType": "bool",
          "name": "isInitiator",
          "type": "bool"
        },
        {
          "internalType": "uint256",
          "name": "token1Amount",
          "type": "uint256"
        },
        {
          "internalType": "uint256",
          "name": "token2Amount",
          "type": "uint256"
        },
        {
          "internalType": "uint256",
          "name": "token1Reserve",
          "type": "uint256"
        },
        {
          "internalType": "uint256",
          "name": "token2Reserve",
          "type": "uint256"
        },
        {
          "internalType": "uint256",
          "name": "totalSupply",
          "type": "uint256"
        }
      ],
      "name": "calculateLPToken",
      "outputs": [
        {
          "internalType": "uint256",
          "name": "",
          "type": "uint256"
        }
      ],
      "stateMutability": "pure",
      "type": "function",
      "constant": true
    },
    {
      "inputs": [
        {
          "internalType": "address",
          "name": "fromToken",
          "type": "address"
        },
        {
          "internalType": "address",
          "name": "toToken",
          "type": "address"
        },
        {
          "internalType": "uint256",
          "name": "tokenX",
          "type": "uint256"
        }
      ],
      "name": "swap",
      "outputs": [],
      "stateMutability": "payable",
      "type": "function",
      "payable": true
    },
    {
      "inputs": [
        {
          "internalType": "address",
          "name": "fromToken",
          "type": "address"
        },
        {
          "internalType": "address",
          "name": "toToken",
          "type": "address"
        },
        {
          "internalType": "uint256",
          "name": "tokenX",
          "type": "uint256"
        }
      ],
      "name": "estSwap",
      "outputs": [
        {
          "internalType": "uint256",
          "name": "",
          "type": "uint256"
        }
      ],
      "stateMutability": "view",
      "type": "function",
      "constant": true
    },
    {
      "inputs": [
        {
          "internalType": "address",
          "name": "tokenA",
          "type": "address"
        },
        {
          "internalType": "address",
          "name": "tokenB",
          "type": "address"
        },
        {
          "internalType": "uint256",
          "name": "amount",
          "type": "uint256"
        }
      ],
      "name": "estFundPool",
      "outputs": [
        {
          "internalType": "uint256",
          "name": "amount2",
          "type": "uint256"
        },
        {
          "internalType": "uint256",
          "name": "share",
          "type": "uint256"
        }
      ],
      "stateMutability": "view",
      "type": "function",
      "constant": true
    },
    {
      "inputs": [
        {
          "internalType": "address",
          "name": "pool",
          "type": "address"
        },
        {
          "internalType": "uint256",
          "name": "amount",
          "type": "uint256"
        }
      ],
      "name": "estWithdrawFund",
      "outputs": [
        {
          "internalType": "uint256",
          "name": "amount1",
          "type": "uint256"
        },
        {
          "internalType": "uint256",
          "name": "amount2",
          "type": "uint256"
        },
        {
          "internalType": "address",
          "name": "token1",
          "type": "address"
        },
        {
          "internalType": "address",
          "name": "token2",
          "type": "address"
        }
      ],
      "stateMutability": "view",
      "type": "function",
      "constant": true
    }
  ],
  "bytecode": "0x608060405234801561001057600080fd5b5033600160006101000a81548173ffffffffffffffffffffffffffffffffffffffff021916908373ffffffffffffffffffffffffffffffffffffffff160217905550615ca0806100616000396000f3fe608060405260043610620000fe5760003560e01c8063ac0ebe961162000097578063df791e501162000061578063df791e5014620003b1578063e1d2e3ee14620003d1578063f7c8d2211462000415578063ff41a2d2146200044c57620000fe565b8063ac0ebe9614620002c0578063c0806db61462000304578063d874c85a146200034d578063dc869673146200039157620000fe565b80637179394911620000d95780637179394914620001d257806374c3b43314620001f25780637d93c52c1462000236578063841bdb9e146200027b57620000fe565b806305e1bd8c146200010357806311cd682d146200014757806341ba2805146200018b575b600080fd5b3480156200011057600080fd5b506200012f600480360381019062000129919062002e2c565b62000490565b6040516200013e919062002e99565b60405180910390f35b3480156200015457600080fd5b506200017360048036038101906200016d919062002f1b565b620004b6565b60405162000182919062002e99565b60405180910390f35b3480156200019857600080fd5b50620001b76004803603810190620001b1919062002f4d565b6200053e565b604051620001c9949392919062002fa5565b60405180910390f35b620001f06004803603810190620001ea919062003037565b62000857565b005b348015620001ff57600080fd5b506200021e600480360381019062000218919062002e2c565b62001001565b6040516200022d919062002e99565b60405180910390f35b3480156200024357600080fd5b506200026260048036038101906200025c919062003093565b62001047565b60405162000272929190620030ef565b60405180910390f35b3480156200028857600080fd5b50620002a76004803603810190620002a191906200311c565b62001315565b604051620002b792919062003180565b60405180910390f35b348015620002cd57600080fd5b50620002ec6004803603810190620002e69190620031de565b620013b2565b604051620002fb919062002e99565b60405180910390f35b3480156200031157600080fd5b506200033060048036038101906200032a919062002f1b565b62001438565b60405162000344969594939291906200327a565b60405180910390f35b3480156200035a57600080fd5b506200037960048036038101906200037391906200311c565b620014e1565b604051620003889190620032e7565b60405180910390f35b620003af6004803603810190620003a9919062003304565b62001561565b005b620003cf6004803603810190620003c9919062003093565b62001e19565b005b348015620003de57600080fd5b50620003fd6004803603810190620003f7919062003093565b62002316565b6040516200040c919062002e99565b60405180910390f35b6200043360048036038101906200042d919062002f4d565b62002507565b60405162000443929190620030ef565b60405180910390f35b3480156200045957600080fd5b5062000478600480360381019062000472919062002e2c565b62002b63565b60405162000487919062002e99565b60405180910390f35b6000828285620004a19190620033a5565b620004ad919062003435565b90509392505050565b60008173ffffffffffffffffffffffffffffffffffffffff166370a08231336040518263ffffffff1660e01b8152600401620004f39190620032e7565b602060405180830381865afa15801562000511573d6000803e3d6000fd5b505050506040513d601f19601f8201168201806040525081019062000537919062003484565b9050919050565b6000806000806200054f8662002b89565b62000591576040517f08c379a0000000000000000000000000000000000000000000000000000000008152600401620005889062003517565b60405180910390fd5b60008060008873ffffffffffffffffffffffffffffffffffffffff1673ffffffffffffffffffffffffffffffffffffffff16815260200190815260200160002060000160009054906101000a900473ffffffffffffffffffffffffffffffffffffffff1690506000620006b8878373ffffffffffffffffffffffffffffffffffffffff166318160ddd6040518163ffffffff1660e01b8152600401602060405180830381865afa1580156200064a573d6000803e3d6000fd5b505050506040513d601f19601f8201168201806040525081019062000670919062003484565b6000808c73ffffffffffffffffffffffffffffffffffffffff1673ffffffffffffffffffffffffffffffffffffffff1681526020019081526020016000206003015462002b63565b905060006200077b888473ffffffffffffffffffffffffffffffffffffffff166318160ddd6040518163ffffffff1660e01b8152600401602060405180830381865afa1580156200070d573d6000803e3d6000fd5b505050506040513d601f19601f8201168201806040525081019062000733919062003484565b6000808d73ffffffffffffffffffffffffffffffffffffffff1673ffffffffffffffffffffffffffffffffffffffff1681526020019081526020016000206004015462002b63565b905081816000808c73ffffffffffffffffffffffffffffffffffffffff1673ffffffffffffffffffffffffffffffffffffffff16815260200190815260200160002060010160009054906101000a900473ffffffffffffffffffffffffffffffffffffffff166000808d73ffffffffffffffffffffffffffffffffffffffff1673ffffffffffffffffffffffffffffffffffffffff16815260200190815260200160002060020160009054906101000a900473ffffffffffffffffffffffffffffffffffffffff16965096509650965050505092959194509250565b8173ffffffffffffffffffffffffffffffffffffffff168373ffffffffffffffffffffffffffffffffffffffff161415620008c9576040517f08c379a0000000000000000000000000000000000000000000000000000000008152600401620008c09062003589565b60405180910390fd5b6000620008d78484620014e1565b9050620008e48162002b89565b62000926576040517f08c379a00000000000000000000000000000000000000000000000000000000081526004016200091d9062003621565b60405180910390fd5b600082116200096c576040517f08c379a00000000000000000000000000000000000000000000000000000000081526004016200096390620036b9565b60405180910390fd5b60008060008373ffffffffffffffffffffffffffffffffffffffff1673ffffffffffffffffffffffffffffffffffffffff16815260200190815260200160002060010160009054906101000a900473ffffffffffffffffffffffffffffffffffffffff1673ffffffffffffffffffffffffffffffffffffffff168573ffffffffffffffffffffffffffffffffffffffff16141562000b5b5760008060008473ffffffffffffffffffffffffffffffffffffffff1673ffffffffffffffffffffffffffffffffffffffff16815260200190815260200160002060030154905060008060008573ffffffffffffffffffffffffffffffffffffffff1673ffffffffffffffffffffffffffffffffffffffff16815260200190815260200160002060040154905062000a9d82828762001001565b9250846000808673ffffffffffffffffffffffffffffffffffffffff1673ffffffffffffffffffffffffffffffffffffffff168152602001908152602001600020600301600082825462000af29190620036db565b92505081905550826000808673ffffffffffffffffffffffffffffffffffffffff1673ffffffffffffffffffffffffffffffffffffffff168152602001908152602001600020600401600082825462000b4c9190620036db565b92505081905550505062000cad565b60008060008473ffffffffffffffffffffffffffffffffffffffff1673ffffffffffffffffffffffffffffffffffffffff16815260200190815260200160002060040154905060008060008573ffffffffffffffffffffffffffffffffffffffff1673ffffffffffffffffffffffffffffffffffffffff16815260200190815260200160002060030154905062000bf482828762001001565b9250846000808673ffffffffffffffffffffffffffffffffffffffff1673ffffffffffffffffffffffffffffffffffffffff168152602001908152602001600020600401600082825462000c499190620036db565b92505081905550826000808673ffffffffffffffffffffffffffffffffffffffff1673ffffffffffffffffffffffffffffffffffffffff168152602001908152602001600020600301600082825462000ca39190620036db565b9250508190555050505b60008060008473ffffffffffffffffffffffffffffffffffffffff1673ffffffffffffffffffffffffffffffffffffffff16815260200190815260200160002060000160009054906101000a900473ffffffffffffffffffffffffffffffffffffffff169050600062000e19600086856000808973ffffffffffffffffffffffffffffffffffffffff1673ffffffffffffffffffffffffffffffffffffffff168152602001908152602001600020600301546000808a73ffffffffffffffffffffffffffffffffffffffff1673ffffffffffffffffffffffffffffffffffffffff168152602001908152602001600020600401548773ffffffffffffffffffffffffffffffffffffffff166318160ddd6040518163ffffffff1660e01b8152600401602060405180830381865afa15801562000ded573d6000803e3d6000fd5b505050506040513d601f19601f8201168201806040525081019062000e13919062003484565b620013b2565b90508173ffffffffffffffffffffffffffffffffffffffff166340c10f1933836040518363ffffffff1660e01b815260040162000e5892919062003738565b6020604051808303816000875af115801562000e78573d6000803e3d6000fd5b505050506040513d601f19601f8201168201806040525081019062000e9e91906200377c565b62000ee0576040517f08c379a000000000000000000000000000000000000000000000000000000000815260040162000ed790620037fe565b60405180910390fd5b600087905060008790508173ffffffffffffffffffffffffffffffffffffffff166323b872dd33308a6040518463ffffffff1660e01b815260040162000f299392919062003820565b6020604051808303816000875af115801562000f49573d6000803e3d6000fd5b505050506040513d601f19601f8201168201806040525081019062000f6f91906200377c565b508073ffffffffffffffffffffffffffffffffffffffff166323b872dd3330886040518463ffffffff1660e01b815260040162000faf9392919062003820565b6020604051808303816000875af115801562000fcf573d6000803e3d6000fd5b505050506040513d601f19601f8201168201806040525081019062000ff591906200377c565b50505050505050505050565b60008084148015620010135750600083145b15620010225781905062001040565b838383620010319190620033a5565b6200103d919062003435565b90505b9392505050565b6000808373ffffffffffffffffffffffffffffffffffffffff168573ffffffffffffffffffffffffffffffffffffffff161415620010bc576040517f08c379a0000000000000000000000000000000000000000000000000000000008152600401620010b390620038ad565b60405180910390fd5b6000620010ca8686620014e1565b9050620010d78162002b89565b62001119576040517f08c379a000000000000000000000000000000000000000000000000000000000815260040162001110906200391f565b60405180910390fd5b6000806000808473ffffffffffffffffffffffffffffffffffffffff1673ffffffffffffffffffffffffffffffffffffffff16815260200190815260200160002060010160009054906101000a900473ffffffffffffffffffffffffffffffffffffffff1673ffffffffffffffffffffffffffffffffffffffff168873ffffffffffffffffffffffffffffffffffffffff16141562001240576000808473ffffffffffffffffffffffffffffffffffffffff1673ffffffffffffffffffffffffffffffffffffffff1681526020019081526020016000206003015491506000808473ffffffffffffffffffffffffffffffffffffffff1673ffffffffffffffffffffffffffffffffffffffff168152602001908152602001600020600401549050620012c9565b6000808473ffffffffffffffffffffffffffffffffffffffff1673ffffffffffffffffffffffffffffffffffffffff1681526020019081526020016000206004015491506000808473ffffffffffffffffffffffffffffffffffffffff1673ffffffffffffffffffffffffffffffffffffffff1681526020019081526020016000206003015490505b6000620012d883838962001001565b9050808784620012e99190620036db565b61271089620012f99190620033a5565b62001305919062003435565b9550955050505050935093915050565b6000808273ffffffffffffffffffffffffffffffffffffffff168473ffffffffffffffffffffffffffffffffffffffff1614156200138a576040517f08c379a0000000000000000000000000000000000000000000000000000000008152600401620013819062003991565b60405180910390fd5b6000620013988585620014e1565b9050620013a58162002b89565b8192509250509250929050565b60008662001413576000848388620013cb9190620033a5565b620013d7919062003435565b90506000848488620013ea9190620033a5565b620013f6919062003435565b905080821162001407578162001409565b805b925050506200142e565b6200142b8587620014259190620033a5565b62002d15565b90505b9695505050505050565b60006020528060005260406000206000915090508060000160009054906101000a900473ffffffffffffffffffffffffffffffffffffffff16908060010160009054906101000a900473ffffffffffffffffffffffffffffffffffffffff16908060020160009054906101000a900473ffffffffffffffffffffffffffffffffffffffff16908060030154908060040154908060050160009054906101000a900460ff16905086565b60008060008373ffffffffffffffffffffffffffffffffffffffff168573ffffffffffffffffffffffffffffffffffffffff16106200152257838562001525565b84845b9150915081816040516020016200153e92919062003a03565b6040516020818303038152906040528051906020012060001c9250505092915050565b8273ffffffffffffffffffffffffffffffffffffffff168473ffffffffffffffffffffffffffffffffffffffff161415620015d3576040517f08c379a0000000000000000000000000000000000000000000000000000000008152600401620015ca9062003a83565b60405180910390fd5b6000620015e18585620014e1565b90506000808273ffffffffffffffffffffffffffffffffffffffff1673ffffffffffffffffffffffffffffffffffffffff16815260200190815260200160002060050160009054906101000a900460ff161562001675576040517f08c379a00000000000000000000000000000000000000000000000000000000081526004016200166c9062003af5565b60405180910390fd5b60008590506000859050848273ffffffffffffffffffffffffffffffffffffffff1663dd62ed3e33306040518363ffffffff1660e01b8152600401620016bd92919062003b17565b602060405180830381865afa158015620016db573d6000803e3d6000fd5b505050506040513d601f19601f8201168201806040525081019062001701919062003484565b101562001745576040517f08c379a00000000000000000000000000000000000000000000000000000000081526004016200173c9062003bba565b60405180910390fd5b838173ffffffffffffffffffffffffffffffffffffffff1663dd62ed3e33306040518363ffffffff1660e01b81526004016200178392919062003b17565b602060405180830381865afa158015620017a1573d6000803e3d6000fd5b505050506040513d601f19601f82011682018060405250810190620017c7919062003484565b10156200180b576040517f08c379a0000000000000000000000000000000000000000000000000000000008152600401620018029062003bba565b60405180910390fd5b8173ffffffffffffffffffffffffffffffffffffffff166323b872dd3330886040518463ffffffff1660e01b81526004016200184a9392919062003820565b6020604051808303816000875af11580156200186a573d6000803e3d6000fd5b505050506040513d601f19601f820116820180604052508101906200189091906200377c565b620018d2576040517f08c379a0000000000000000000000000000000000000000000000000000000008152600401620018c990620037fe565b60405180910390fd5b8073ffffffffffffffffffffffffffffffffffffffff166323b872dd3330876040518463ffffffff1660e01b8152600401620019119392919062003820565b6020604051808303816000875af115801562001931573d6000803e3d6000fd5b505050506040513d601f19601f820116820180604052508101906200195791906200377c565b62001999576040517f08c379a00000000000000000000000000000000000000000000000000000000081526004016200199090620037fe565b60405180910390fd5b600062001ac98373ffffffffffffffffffffffffffffffffffffffff166395d89b416040518163ffffffff1660e01b8152600401600060405180830381865afa158015620019eb573d6000803e3d6000fd5b505050506040513d6000823e3d601f19601f8201168201806040525081019062001a16919062003d65565b6040518060400160405280600181526020017f2d000000000000000000000000000000000000000000000000000000000000008152508473ffffffffffffffffffffffffffffffffffffffff166395d89b416040518163ffffffff1660e01b8152600401600060405180830381865afa15801562001a98573d6000803e3d6000fd5b505050506040513d6000823e3d601f19601f8201168201806040525081019062001ac3919062003d65565b62002d9e565b600860405162001ad99062002dcf565b62001ae692919062003eac565b604051809103906000f08015801562001b03573d6000803e3d6000fd5b509050600062001b8b600188886000808773ffffffffffffffffffffffffffffffffffffffff166318160ddd6040518163ffffffff1660e01b8152600401602060405180830381865afa15801562001b5f573d6000803e3d6000fd5b505050506040513d601f19601f8201168201806040525081019062001b85919062003484565b620013b2565b90506040518060c001604052808373ffffffffffffffffffffffffffffffffffffffff1681526020018a73ffffffffffffffffffffffffffffffffffffffff1681526020018973ffffffffffffffffffffffffffffffffffffffff168152602001888152602001878152602001600115158152506000808773ffffffffffffffffffffffffffffffffffffffff1673ffffffffffffffffffffffffffffffffffffffff16815260200190815260200160002060008201518160000160006101000a81548173ffffffffffffffffffffffffffffffffffffffff021916908373ffffffffffffffffffffffffffffffffffffffff16021790555060208201518160010160006101000a81548173ffffffffffffffffffffffffffffffffffffffff021916908373ffffffffffffffffffffffffffffffffffffffff16021790555060408201518160020160006101000a81548173ffffffffffffffffffffffffffffffffffffffff021916908373ffffffffffffffffffffffffffffffffffffffff160217905550606082015181600301556080820151816004015560a08201518160050160006101000a81548160ff0219169083151502179055509050508173ffffffffffffffffffffffffffffffffffffffff166340c10f1933836040518363ffffffff1660e01b815260040162001d8692919062003738565b6020604051808303816000875af115801562001da6573d6000803e3d6000fd5b505050506040513d601f19601f8201168201806040525081019062001dcc91906200377c565b62001e0e576040517f08c379a000000000000000000000000000000000000000000000000000000000815260040162001e0590620037fe565b60405180910390fd5b505050505050505050565b600062001e278484620014e1565b90506000808273ffffffffffffffffffffffffffffffffffffffff1673ffffffffffffffffffffffffffffffffffffffff16815260200190815260200160002060050160009054906101000a900460ff1662001eba576040517f08c379a000000000000000000000000000000000000000000000000000000000815260040162001eb19062003f45565b60405180910390fd5b60008060008373ffffffffffffffffffffffffffffffffffffffff1673ffffffffffffffffffffffffffffffffffffffff168152602001908152602001600020600401546000808473ffffffffffffffffffffffffffffffffffffffff1673ffffffffffffffffffffffffffffffffffffffff1681526020019081526020016000206003015462001f4c9190620033a5565b9050600085905060008590508173ffffffffffffffffffffffffffffffffffffffff1663dd62ed3e33306040518363ffffffff1660e01b815260040162001f9592919062003b17565b602060405180830381865afa15801562001fb3573d6000803e3d6000fd5b505050506040513d601f19601f8201168201806040525081019062001fd9919062003484565b8511156200201e576040517f08c379a0000000000000000000000000000000000000000000000000000000008152600401620020159062003fb7565b60405180910390fd5b6000856000808773ffffffffffffffffffffffffffffffffffffffff1673ffffffffffffffffffffffffffffffffffffffff168152602001908152602001600020600301546200206f9190620036db565b846200207c919062003435565b6000808773ffffffffffffffffffffffffffffffffffffffff1673ffffffffffffffffffffffffffffffffffffffff16815260200190815260200160002060040154620020ca919062003fd9565b90508173ffffffffffffffffffffffffffffffffffffffff1663a9059cbb33836040518363ffffffff1660e01b81526004016200210992919062003738565b6020604051808303816000875af115801562002129573d6000803e3d6000fd5b505050506040513d601f19601f820116820180604052508101906200214f91906200377c565b62002191576040517f08c379a00000000000000000000000000000000000000000000000000000000081526004016200218890620037fe565b60405180910390fd5b8273ffffffffffffffffffffffffffffffffffffffff166323b872dd3330896040518463ffffffff1660e01b8152600401620021d09392919062003820565b6020604051808303816000875af1158015620021f0573d6000803e3d6000fd5b505050506040513d601f19601f820116820180604052508101906200221691906200377c565b62002258576040517f08c379a00000000000000000000000000000000000000000000000000000000081526004016200224f9062004064565b60405180910390fd5b856000808773ffffffffffffffffffffffffffffffffffffffff1673ffffffffffffffffffffffffffffffffffffffff1681526020019081526020016000206003016000828254620022ab9190620036db565b92505081905550806000808773ffffffffffffffffffffffffffffffffffffffff1673ffffffffffffffffffffffffffffffffffffffff168152602001908152602001600020600401600082825462002305919062003fd9565b925050819055505050505050505050565b600080620023258585620014e1565b90506000808273ffffffffffffffffffffffffffffffffffffffff1673ffffffffffffffffffffffffffffffffffffffff16815260200190815260200160002060050160009054906101000a900460ff16620023b8576040517f08c379a0000000000000000000000000000000000000000000000000000000008152600401620023af9062003f45565b60405180910390fd5b60008060008373ffffffffffffffffffffffffffffffffffffffff1673ffffffffffffffffffffffffffffffffffffffff168152602001908152602001600020600401546000808473ffffffffffffffffffffffffffffffffffffffff1673ffffffffffffffffffffffffffffffffffffffff168152602001908152602001600020600301546200244a9190620033a5565b90506000846000808573ffffffffffffffffffffffffffffffffffffffff1673ffffffffffffffffffffffffffffffffffffffff168152602001908152602001600020600301546200249d9190620036db565b82620024aa919062003435565b6000808573ffffffffffffffffffffffffffffffffffffffff1673ffffffffffffffffffffffffffffffffffffffff16815260200190815260200160002060040154620024f8919062003fd9565b90508093505050509392505050565b60008060008060008673ffffffffffffffffffffffffffffffffffffffff1673ffffffffffffffffffffffffffffffffffffffff16815260200190815260200160002060000160009054906101000a900473ffffffffffffffffffffffffffffffffffffffff169050838173ffffffffffffffffffffffffffffffffffffffff166370a08231336040518263ffffffff1660e01b8152600401620025ac9190620032e7565b602060405180830381865afa158015620025ca573d6000803e3d6000fd5b505050506040513d601f19601f82011682018060405250810190620025f0919062003484565b101562002634576040517f08c379a00000000000000000000000000000000000000000000000000000000081526004016200262b90620040d6565b60405180910390fd5b6000620026f5858373ffffffffffffffffffffffffffffffffffffffff166318160ddd6040518163ffffffff1660e01b8152600401602060405180830381865afa15801562002687573d6000803e3d6000fd5b505050506040513d601f19601f82011682018060405250810190620026ad919062003484565b6000808a73ffffffffffffffffffffffffffffffffffffffff1673ffffffffffffffffffffffffffffffffffffffff1681526020019081526020016000206003015462002b63565b90506000620027b8868473ffffffffffffffffffffffffffffffffffffffff166318160ddd6040518163ffffffff1660e01b8152600401602060405180830381865afa1580156200274a573d6000803e3d6000fd5b505050506040513d601f19601f8201168201806040525081019062002770919062003484565b6000808b73ffffffffffffffffffffffffffffffffffffffff1673ffffffffffffffffffffffffffffffffffffffff1681526020019081526020016000206004015462002b63565b9050816000808973ffffffffffffffffffffffffffffffffffffffff1673ffffffffffffffffffffffffffffffffffffffff16815260200190815260200160002060030160008282546200280d919062003fd9565b92505081905550806000808973ffffffffffffffffffffffffffffffffffffffff1673ffffffffffffffffffffffffffffffffffffffff168152602001908152602001600020600401600082825462002867919062003fd9565b9250508190555060008060008973ffffffffffffffffffffffffffffffffffffffff1673ffffffffffffffffffffffffffffffffffffffff16815260200190815260200160002060010160009054906101000a900473ffffffffffffffffffffffffffffffffffffffff16905060008060008a73ffffffffffffffffffffffffffffffffffffffff1673ffffffffffffffffffffffffffffffffffffffff16815260200190815260200160002060020160009054906101000a900473ffffffffffffffffffffffffffffffffffffffff1690508173ffffffffffffffffffffffffffffffffffffffff1663a9059cbb33866040518363ffffffff1660e01b81526004016200297792919062003738565b6020604051808303816000875af115801562002997573d6000803e3d6000fd5b505050506040513d601f19601f82011682018060405250810190620029bd91906200377c565b620029ff576040517f08c379a0000000000000000000000000000000000000000000000000000000008152600401620029f690620037fe565b60405180910390fd5b8073ffffffffffffffffffffffffffffffffffffffff1663a9059cbb33856040518363ffffffff1660e01b815260040162002a3c92919062003738565b6020604051808303816000875af115801562002a5c573d6000803e3d6000fd5b505050506040513d601f19601f8201168201806040525081019062002a8291906200377c565b62002ac4576040517f08c379a000000000000000000000000000000000000000000000000000000000815260040162002abb90620037fe565b60405180910390fd5b8473ffffffffffffffffffffffffffffffffffffffff16639dc29fac338a6040518363ffffffff1660e01b815260040162002b0192919062003738565b6020604051808303816000875af115801562002b21573d6000803e3d6000fd5b505050506040513d601f19601f8201168201806040525081019062002b4791906200377c565b62002b5157600080fd5b83839650965050505050509250929050565b600082848362002b749190620033a5565b62002b80919062003435565b90509392505050565b6000806000808473ffffffffffffffffffffffffffffffffffffffff1673ffffffffffffffffffffffffffffffffffffffff1681526020019081526020016000206040518060c00160405290816000820160009054906101000a900473ffffffffffffffffffffffffffffffffffffffff1673ffffffffffffffffffffffffffffffffffffffff1673ffffffffffffffffffffffffffffffffffffffff1681526020016001820160009054906101000a900473ffffffffffffffffffffffffffffffffffffffff1673ffffffffffffffffffffffffffffffffffffffff1673ffffffffffffffffffffffffffffffffffffffff1681526020016002820160009054906101000a900473ffffffffffffffffffffffffffffffffffffffff1673ffffffffffffffffffffffffffffffffffffffff1673ffffffffffffffffffffffffffffffffffffffff16815260200160038201548152602001600482015481526020016005820160009054906101000a900460ff16151515158152505090508060a00151915050919050565b6000600382111562002d8a578190506000600160028462002d37919062003435565b62002d439190620036db565b90505b8181101562002d8357809150600281828562002d63919062003435565b62002d6f9190620036db565b62002d7b919062003435565b905062002d46565b5062002d99565b6000821462002d9857600190505b5b919050565b606083838360405160200162002db7939291906200413a565b60405160208183030381529060405290509392505050565b611af9806200417283390190565b6000604051905090565b600080fd5b600080fd5b6000819050919050565b62002e068162002df1565b811462002e1257600080fd5b50565b60008135905062002e268162002dfb565b92915050565b60008060006060848603121562002e485762002e4762002de7565b5b600062002e588682870162002e15565b935050602062002e6b8682870162002e15565b925050604062002e7e8682870162002e15565b9150509250925092565b62002e938162002df1565b82525050565b600060208201905062002eb0600083018462002e88565b92915050565b600073ffffffffffffffffffffffffffffffffffffffff82169050919050565b600062002ee38262002eb6565b9050919050565b62002ef58162002ed6565b811462002f0157600080fd5b50565b60008135905062002f158162002eea565b92915050565b60006020828403121562002f345762002f3362002de7565b5b600062002f448482850162002f04565b91505092915050565b6000806040838503121562002f675762002f6662002de7565b5b600062002f778582860162002f04565b925050602062002f8a8582860162002e15565b9150509250929050565b62002f9f8162002ed6565b82525050565b600060808201905062002fbc600083018762002e88565b62002fcb602083018662002e88565b62002fda604083018562002f94565b62002fe9606083018462002f94565b95945050505050565b600062002fff8262002eb6565b9050919050565b620030118162002ff2565b81146200301d57600080fd5b50565b600081359050620030318162003006565b92915050565b60008060006060848603121562003053576200305262002de7565b5b6000620030638682870162003020565b9350506020620030768682870162003020565b9250506040620030898682870162002e15565b9150509250925092565b600080600060608486031215620030af57620030ae62002de7565b5b6000620030bf8682870162002f04565b9350506020620030d28682870162002f04565b9250506040620030e58682870162002e15565b9150509250925092565b600060408201905062003106600083018562002e88565b62003115602083018462002e88565b9392505050565b6000806040838503121562003136576200313562002de7565b5b6000620031468582860162002f04565b9250506020620031598582860162002f04565b9150509250929050565b60008115159050919050565b6200317a8162003163565b82525050565b60006040820190506200319760008301856200316f565b620031a6602083018462002f94565b9392505050565b620031b88162003163565b8114620031c457600080fd5b50565b600081359050620031d881620031ad565b92915050565b60008060008060008060c08789031215620031fe57620031fd62002de7565b5b60006200320e89828a01620031c7565b96505060206200322189828a0162002e15565b95505060406200323489828a0162002e15565b94505060606200324789828a0162002e15565b93505060806200325a89828a0162002e15565b92505060a06200326d89828a0162002e15565b9150509295509295509295565b600060c08201905062003291600083018962002f94565b620032a0602083018862002f94565b620032af604083018762002f94565b620032be606083018662002e88565b620032cd608083018562002e88565b620032dc60a08301846200316f565b979650505050505050565b6000602082019050620032fe600083018462002f94565b92915050565b6000806000806080858703121562003321576200332062002de7565b5b6000620033318782880162003020565b9450506020620033448782880162003020565b9350506040620033578782880162002e15565b92505060606200336a8782880162002e15565b91505092959194509250565b7f4e487b7100000000000000000000000000000000000000000000000000000000600052601160045260246000fd5b6000620033b28262002df1565b9150620033bf8362002df1565b9250817fffffffffffffffffffffffffffffffffffffffffffffffffffffffffffffffff0483118215151615620033fb57620033fa62003376565b5b828202905092915050565b7f4e487b7100000000000000000000000000000000000000000000000000000000600052601260045260246000fd5b6000620034428262002df1565b91506200344f8362002df1565b92508262003462576200346162003406565b5b828204905092915050565b6000815190506200347e8162002dfb565b92915050565b6000602082840312156200349d576200349c62002de7565b5b6000620034ad848285016200346d565b91505092915050565b600082825260208201905092915050565b7f496e76616c696420506f6f6c2e00000000000000000000000000000000000000600082015250565b6000620034ff600d83620034b6565b91506200350c82620034c7565b602082019050919050565b600060208201905081810360008301526200353281620034f0565b9050919050565b7f496e76616c696420706f6f6c0000000000000000000000000000000000000000600082015250565b600062003571600c83620034b6565b91506200357e8262003539565b602082019050919050565b60006020820190508181036000830152620035a48162003562565b9050919050565b7f506f6f6c206973206e6f742065786973742c20706c656173652063726561746560008201527f2061206e657720706f6f6c2e0000000000000000000000000000000000000000602082015250565b600062003609602c83620034b6565b91506200361682620035ab565b604082019050919050565b600060208201905081810360008301526200363c81620035fa565b9050919050565b7f416d6f756e7420746f2066756e64206d7573742067726561746572207468616e60008201527f20302e0000000000000000000000000000000000000000000000000000000000602082015250565b6000620036a1602383620034b6565b9150620036ae8262003643565b604082019050919050565b60006020820190508181036000830152620036d48162003692565b9050919050565b6000620036e88262002df1565b9150620036f58362002df1565b9250827fffffffffffffffffffffffffffffffffffffffffffffffffffffffffffffffff038211156200372d576200372c62003376565b5b828201905092915050565b60006040820190506200374f600083018562002f94565b6200375e602083018462002e88565b9392505050565b6000815190506200377681620031ad565b92915050565b60006020828403121562003795576200379462002de7565b5b6000620037a58482850162003765565b91505092915050565b7f5472616e73616374696f6e206661696c65642e00000000000000000000000000600082015250565b6000620037e6601383620034b6565b9150620037f382620037ae565b602082019050919050565b600060208201905081810360008301526200381981620037d7565b9050919050565b600060608201905062003837600083018662002f94565b62003846602083018562002f94565b62003855604083018462002e88565b949350505050565b7f496e76616c696420506f6f6c0000000000000000000000000000000000000000600082015250565b600062003895600c83620034b6565b9150620038a2826200385d565b602082019050919050565b60006020820190508181036000830152620038c88162003886565b9050919050565b7f506f6f6c206973206e6f742065786973742e0000000000000000000000000000600082015250565b600062003907601283620034b6565b91506200391482620038cf565b602082019050919050565b600060208201905081810360008301526200393a81620038f8565b9050919050565b7f496e76616c696420546f6b656e20506169720000000000000000000000000000600082015250565b600062003979601283620034b6565b9150620039868262003941565b602082019050919050565b60006020820190508181036000830152620039ac816200396a565b9050919050565b60008160601b9050919050565b6000620039cd82620039b3565b9050919050565b6000620039e182620039c0565b9050919050565b620039fd620039f78262002ed6565b620039d4565b82525050565b600062003a118285620039e8565b60148201915062003a238284620039e8565b6014820191508190509392505050565b7f496e76616c6964206c697175696469747920706f6f6c2e000000000000000000600082015250565b600062003a6b601783620034b6565b915062003a788262003a33565b602082019050919050565b6000602082019050818103600083015262003a9e8162003a5c565b9050919050565b7f506f6f6c20616c72656164792065786973740000000000000000000000000000600082015250565b600062003add601283620034b6565b915062003aea8262003aa5565b602082019050919050565b6000602082019050818103600083015262003b108162003ace565b9050919050565b600060408201905062003b2e600083018562002f94565b62003b3d602083018462002f94565b9392505050565b7f4e6f7420656e6f75676820746f6b656e2061726520616c6c6f77656420746f2060008201527f706572666f726d207468697320616374696f6e2e000000000000000000000000602082015250565b600062003ba2603483620034b6565b915062003baf8262003b44565b604082019050919050565b6000602082019050818103600083015262003bd58162003b93565b9050919050565b600080fd5b600080fd5b6000601f19601f8301169050919050565b7f4e487b7100000000000000000000000000000000000000000000000000000000600052604160045260246000fd5b62003c318262003be6565b810181811067ffffffffffffffff8211171562003c535762003c5262003bf7565b5b80604052505050565b600062003c6862002ddd565b905062003c76828262003c26565b919050565b600067ffffffffffffffff82111562003c995762003c9862003bf7565b5b62003ca48262003be6565b9050602081019050919050565b60005b8381101562003cd157808201518184015260208101905062003cb4565b8381111562003ce1576000848401525b50505050565b600062003cfe62003cf88462003c7b565b62003c5c565b90508281526020810184848401111562003d1d5762003d1c62003be1565b5b62003d2a84828562003cb1565b509392505050565b600082601f83011262003d4a5762003d4962003bdc565b5b815162003d5c84826020860162003ce7565b91505092915050565b60006020828403121562003d7e5762003d7d62002de7565b5b600082015167ffffffffffffffff81111562003d9f5762003d9e62002dec565b5b62003dad8482850162003d32565b91505092915050565b7f4c50540000000000000000000000000000000000000000000000000000000000600082015250565b600062003dee600383620034b6565b915062003dfb8262003db6565b602082019050919050565b600081519050919050565b600062003e1e8262003e06565b62003e2a8185620034b6565b935062003e3c81856020860162003cb1565b62003e478162003be6565b840191505092915050565b6000819050919050565b600060ff82169050919050565b6000819050919050565b600062003e9462003e8e62003e888462003e52565b62003e69565b62003e5c565b9050919050565b62003ea68162003e73565b82525050565b6000606082019050818103600083015262003ec78162003ddf565b9050818103602083015262003edd818562003e11565b905062003eee604083018462003e9b565b9392505050565b7f4c697175696469747920506f6f6c206e6f7420666f756e642e00000000000000600082015250565b600062003f2d601983620034b6565b915062003f3a8262003ef5565b602082019050919050565b6000602082019050818103600083015262003f608162003f1e565b9050919050565b7f4e6f7420656e6f75676820746f6b656e00000000000000000000000000000000600082015250565b600062003f9f601083620034b6565b915062003fac8262003f67565b602082019050919050565b6000602082019050818103600083015262003fd28162003f90565b9050919050565b600062003fe68262002df1565b915062003ff38362002df1565b92508282101562004009576200400862003376565b5b828203905092915050565b7f5472616e73616374696f6e206661696c65640000000000000000000000000000600082015250565b60006200404c601283620034b6565b9150620040598262004014565b602082019050919050565b600060208201905081810360008301526200407f816200403d565b9050919050565b7f4e6f7420656e6f75676820616d6f756e74000000000000000000000000000000600082015250565b6000620040be601183620034b6565b9150620040cb8262004086565b602082019050919050565b60006020820190508181036000830152620040f181620040af565b9050919050565b600081905092915050565b6000620041108262003e06565b6200411c8185620040f8565b93506200412e81856020860162003cb1565b80840191505092915050565b600062004148828662004103565b915062004156828562004103565b915062004164828462004103565b915081905094935050505056fe60806040523480156200001157600080fd5b5060405162001af938038062001af983398181016040528101906200003791906200045d565b8282826000836000908051906020019062000054929190620001d2565b5082600190805190602001906200006d929190620001d2565b5081600260006101000a81548160ff021916908360ff1602179055508060038190555033600460006101000a81548173ffffffffffffffffffffffffffffffffffffffff021916908373ffffffffffffffffffffffffffffffffffffffff16021790555060035460056000600460009054906101000a900473ffffffffffffffffffffffffffffffffffffffff1673ffffffffffffffffffffffffffffffffffffffff1673ffffffffffffffffffffffffffffffffffffffff16815260200190815260200160002081905550600460009054906101000a900473ffffffffffffffffffffffffffffffffffffffff1673ffffffffffffffffffffffffffffffffffffffff16600073ffffffffffffffffffffffffffffffffffffffff167fddf252ad1be2c89b69c2b068fc378daa952ba7f163c4a11628f55a4df523b3ef600354604051620001bd919062000512565b60405180910390a35050505050505062000594565b828054620001e0906200055e565b90600052602060002090601f01602090048101928262000204576000855562000250565b82601f106200021f57805160ff191683800117855562000250565b8280016001018555821562000250579182015b828111156200024f57825182559160200191906001019062000232565b5b5090506200025f919062000263565b5090565b5b808211156200027e57600081600090555060010162000264565b5090565b6000604051905090565b600080fd5b600080fd5b600080fd5b600080fd5b6000601f19601f8301169050919050565b7f4e487b7100000000000000000000000000000000000000000000000000000000600052604160045260246000fd5b620002eb82620002a0565b810181811067ffffffffffffffff821117156200030d576200030c620002b1565b5b80604052505050565b60006200032262000282565b9050620003308282620002e0565b919050565b600067ffffffffffffffff821115620003535762000352620002b1565b5b6200035e82620002a0565b9050602081019050919050565b60005b838110156200038b5780820151818401526020810190506200036e565b838111156200039b576000848401525b50505050565b6000620003b8620003b28462000335565b62000316565b905082815260208101848484011115620003d757620003d66200029b565b5b620003e48482856200036b565b509392505050565b600082601f83011262000404576200040362000296565b5b815162000416848260208601620003a1565b91505092915050565b600060ff82169050919050565b62000437816200041f565b81146200044357600080fd5b50565b60008151905062000457816200042c565b92915050565b6000806000606084860312156200047957620004786200028c565b5b600084015167ffffffffffffffff8111156200049a576200049962000291565b5b620004a886828701620003ec565b935050602084015167ffffffffffffffff811115620004cc57620004cb62000291565b5b620004da86828701620003ec565b9250506040620004ed8682870162000446565b9150509250925092565b6000819050919050565b6200050c81620004f7565b82525050565b600060208201905062000529600083018462000501565b92915050565b7f4e487b7100000000000000000000000000000000000000000000000000000000600052602260045260246000fd5b600060028204905060018216806200057757607f821691505b602082108114156200058e576200058d6200052f565b5b50919050565b61155580620005a46000396000f3fe608060405234801561001057600080fd5b50600436106101005760003560e01c806395d89b4111610097578063b5931f7c11610066578063b5931f7c146102eb578063d05c78da1461031b578063dd62ed3e1461034b578063e6cb90131461037b57610100565b806395d89b411461023d5780639dc29fac1461025b578063a293d1e81461028b578063a9059cbb146102bb57610100565b8063313ce567116100d3578063313ce567146101a15780633eaaf86b146101bf57806340c10f19146101dd57806370a082311461020d57610100565b806306fdde0314610105578063095ea7b31461012357806318160ddd1461015357806323b872dd14610171575b600080fd5b61010d6103ab565b60405161011a9190610f95565b60405180910390f35b61013d60048036038101906101389190611050565b610439565b60405161014a91906110ab565b60405180910390f35b61015b61052b565b60405161016891906110d5565b60405180910390f35b61018b600480360381019061018691906110f0565b610535565b60405161019891906110ab565b60405180910390f35b6101a96107c5565b6040516101b6919061115f565b60405180910390f35b6101c76107d8565b6040516101d491906110d5565b60405180910390f35b6101f760048036038101906101f29190611050565b6107de565b60405161020491906110ab565b60405180910390f35b6102276004803603810190610222919061117a565b610950565b60405161023491906110d5565b60405180910390f35b610245610999565b6040516102529190610f95565b60405180910390f35b61027560048036038101906102709190611050565b610a27565b60405161028291906110ab565b60405180910390f35b6102a560048036038101906102a091906111a7565b610c4c565b6040516102b291906110d5565b60405180910390f35b6102d560048036038101906102d09190611050565b610c6f565b6040516102e291906110ab565b60405180910390f35b610305600480360381019061030091906111a7565b610df8565b60405161031291906110d5565b60405180910390f35b610335600480360381019061033091906111a7565b610e1a565b60405161034291906110d5565b60405180910390f35b610365600480360381019061036091906111e7565b610e52565b60405161037291906110d5565b60405180910390f35b610395600480360381019061039091906111a7565b610ed9565b6040516103a291906110d5565b60405180910390f35b600180546103b890611256565b80601f01602080910402602001604051908101604052809291908181526020018280546103e490611256565b80156104315780601f1061040657610100808354040283529160200191610431565b820191906000526020600020905b81548152906001019060200180831161041457829003601f168201915b505050505081565b600081600660003373ffffffffffffffffffffffffffffffffffffffff1673ffffffffffffffffffffffffffffffffffffffff16815260200190815260200160002060008573ffffffffffffffffffffffffffffffffffffffff1673ffffffffffffffffffffffffffffffffffffffff168152602001908152602001600020819055508273ffffffffffffffffffffffffffffffffffffffff163373ffffffffffffffffffffffffffffffffffffffff167f8c5be1e5ebec7d5bd14f71427d1e84f3dd0314c0f7b2291e5b200ac8c7c3b9258460405161051991906110d5565b60405180910390a36001905092915050565b6000600354905090565b6000610580600560008673ffffffffffffffffffffffffffffffffffffffff1673ffffffffffffffffffffffffffffffffffffffff1681526020019081526020016000205483610c4c565b600560008673ffffffffffffffffffffffffffffffffffffffff1673ffffffffffffffffffffffffffffffffffffffff16815260200190815260200160002081905550610649600660008673ffffffffffffffffffffffffffffffffffffffff1673ffffffffffffffffffffffffffffffffffffffff16815260200190815260200160002060003373ffffffffffffffffffffffffffffffffffffffff1673ffffffffffffffffffffffffffffffffffffffff1681526020019081526020016000205483610c4c565b600660008673ffffffffffffffffffffffffffffffffffffffff1673ffffffffffffffffffffffffffffffffffffffff16815260200190815260200160002060003373ffffffffffffffffffffffffffffffffffffffff1673ffffffffffffffffffffffffffffffffffffffff16815260200190815260200160002081905550610712600560008573ffffffffffffffffffffffffffffffffffffffff1673ffffffffffffffffffffffffffffffffffffffff1681526020019081526020016000205483610ed9565b600560008573ffffffffffffffffffffffffffffffffffffffff1673ffffffffffffffffffffffffffffffffffffffff168152602001908152602001600020819055508273ffffffffffffffffffffffffffffffffffffffff168473ffffffffffffffffffffffffffffffffffffffff167fddf252ad1be2c89b69c2b068fc378daa952ba7f163c4a11628f55a4df523b3ef846040516107b291906110d5565b60405180910390a3600190509392505050565b600260009054906101000a900460ff1681565b60035481565b6000338073ffffffffffffffffffffffffffffffffffffffff16600460009054906101000a900473ffffffffffffffffffffffffffffffffffffffff1673ffffffffffffffffffffffffffffffffffffffff161461083b57600080fd5b826003600082825461084d91906112b7565b9250508190555061089d600560008673ffffffffffffffffffffffffffffffffffffffff1673ffffffffffffffffffffffffffffffffffffffff1681526020019081526020016000205484610ed9565b600560008673ffffffffffffffffffffffffffffffffffffffff1673ffffffffffffffffffffffffffffffffffffffff168152602001908152602001600020819055508373ffffffffffffffffffffffffffffffffffffffff163373ffffffffffffffffffffffffffffffffffffffff167fddf252ad1be2c89b69c2b068fc378daa952ba7f163c4a11628f55a4df523b3ef8560405161093d91906110d5565b60405180910390a3600191505092915050565b6000600560008373ffffffffffffffffffffffffffffffffffffffff1673ffffffffffffffffffffffffffffffffffffffff168152602001908152602001600020549050919050565b600080546109a690611256565b80601f01602080910402602001604051908101604052809291908181526020018280546109d290611256565b8015610a1f5780601f106109f457610100808354040283529160200191610a1f565b820191906000526020600020905b815481529060010190602001808311610a0257829003601f168201915b505050505081565b6000338073ffffffffffffffffffffffffffffffffffffffff16600460009054906101000a900473ffffffffffffffffffffffffffffffffffffffff1673ffffffffffffffffffffffffffffffffffffffff1614610a8457600080fd5b600073ffffffffffffffffffffffffffffffffffffffff168473ffffffffffffffffffffffffffffffffffffffff161415610af4576040517f08c379a0000000000000000000000000000000000000000000000000000000008152600401610aeb9061137f565b60405180910390fd5b6000600560008673ffffffffffffffffffffffffffffffffffffffff1673ffffffffffffffffffffffffffffffffffffffff16815260200190815260200160002054905083811015610b7b576040517f08c379a0000000000000000000000000000000000000000000000000000000008152600401610b7290611411565b60405180910390fd5b610b858185610c4c565b600560008773ffffffffffffffffffffffffffffffffffffffff1673ffffffffffffffffffffffffffffffffffffffff16815260200190815260200160002081905550610bd460035485610c4c565b600381905550600073ffffffffffffffffffffffffffffffffffffffff168573ffffffffffffffffffffffffffffffffffffffff167fddf252ad1be2c89b69c2b068fc378daa952ba7f163c4a11628f55a4df523b3ef86604051610c3891906110d5565b60405180910390a360019250505092915050565b600082821115610c5b57600080fd5b8183610c679190611431565b905092915050565b6000610cba600560003373ffffffffffffffffffffffffffffffffffffffff1673ffffffffffffffffffffffffffffffffffffffff1681526020019081526020016000205483610c4c565b600560003373ffffffffffffffffffffffffffffffffffffffff1673ffffffffffffffffffffffffffffffffffffffff16815260200190815260200160002081905550610d46600560008573ffffffffffffffffffffffffffffffffffffffff1673ffffffffffffffffffffffffffffffffffffffff1681526020019081526020016000205483610ed9565b600560008573ffffffffffffffffffffffffffffffffffffffff1673ffffffffffffffffffffffffffffffffffffffff168152602001908152602001600020819055508273ffffffffffffffffffffffffffffffffffffffff163373ffffffffffffffffffffffffffffffffffffffff167fddf252ad1be2c89b69c2b068fc378daa952ba7f163c4a11628f55a4df523b3ef84604051610de691906110d5565b60405180910390a36001905092915050565b6000808211610e0657600080fd5b8183610e129190611494565b905092915050565b60008183610e2891906114c5565b90506000831480610e435750818382610e419190611494565b145b610e4c57600080fd5b92915050565b6000600660008473ffffffffffffffffffffffffffffffffffffffff1673ffffffffffffffffffffffffffffffffffffffff16815260200190815260200160002060008373ffffffffffffffffffffffffffffffffffffffff1673ffffffffffffffffffffffffffffffffffffffff16815260200190815260200160002054905092915050565b60008183610ee791906112b7565b905082811015610ef657600080fd5b92915050565b600081519050919050565b600082825260208201905092915050565b60005b83811015610f36578082015181840152602081019050610f1b565b83811115610f45576000848401525b50505050565b6000601f19601f8301169050919050565b6000610f6782610efc565b610f718185610f07565b9350610f81818560208601610f18565b610f8a81610f4b565b840191505092915050565b60006020820190508181036000830152610faf8184610f5c565b905092915050565b600080fd5b600073ffffffffffffffffffffffffffffffffffffffff82169050919050565b6000610fe782610fbc565b9050919050565b610ff781610fdc565b811461100257600080fd5b50565b60008135905061101481610fee565b92915050565b6000819050919050565b61102d8161101a565b811461103857600080fd5b50565b60008135905061104a81611024565b92915050565b6000806040838503121561106757611066610fb7565b5b600061107585828601611005565b92505060206110868582860161103b565b9150509250929050565b60008115159050919050565b6110a581611090565b82525050565b60006020820190506110c0600083018461109c565b92915050565b6110cf8161101a565b82525050565b60006020820190506110ea60008301846110c6565b92915050565b60008060006060848603121561110957611108610fb7565b5b600061111786828701611005565b935050602061112886828701611005565b92505060406111398682870161103b565b9150509250925092565b600060ff82169050919050565b61115981611143565b82525050565b60006020820190506111746000830184611150565b92915050565b6000602082840312156111905761118f610fb7565b5b600061119e84828501611005565b91505092915050565b600080604083850312156111be576111bd610fb7565b5b60006111cc8582860161103b565b92505060206111dd8582860161103b565b9150509250929050565b600080604083850312156111fe576111fd610fb7565b5b600061120c85828601611005565b925050602061121d85828601611005565b9150509250929050565b7f4e487b7100000000000000000000000000000000000000000000000000000000600052602260045260246000fd5b6000600282049050600182168061126e57607f821691505b6020821081141561128257611281611227565b5b50919050565b7f4e487b7100000000000000000000000000000000000000000000000000000000600052601160045260246000fd5b60006112c28261101a565b91506112cd8361101a565b9250827fffffffffffffffffffffffffffffffffffffffffffffffffffffffffffffffff0382111561130257611301611288565b5b828201905092915050565b7f45524332303a206275726e2066726f6d20746865207a65726f2061646472657360008201527f7300000000000000000000000000000000000000000000000000000000000000602082015250565b6000611369602183610f07565b91506113748261130d565b604082019050919050565b600060208201905081810360008301526113988161135c565b9050919050565b7f45524332303a206275726e20616d6f756e7420657863656564732062616c616e60008201527f6365000000000000000000000000000000000000000000000000000000000000602082015250565b60006113fb602283610f07565b91506114068261139f565b604082019050919050565b6000602082019050818103600083015261142a816113ee565b9050919050565b600061143c8261101a565b91506114478361101a565b92508282101561145a57611459611288565b5b828203905092915050565b7f4e487b7100000000000000000000000000000000000000000000000000000000600052601260045260246000fd5b600061149f8261101a565b91506114aa8361101a565b9250826114ba576114b9611465565b5b828204905092915050565b60006114d08261101a565b91506114db8361101a565b9250817fffffffffffffffffffffffffffffffffffffffffffffffffffffffffffffffff048311821515161561151457611513611288565b5b82820290509291505056fea26469706673582212205bcc85e670f793b72093c1d1ae580b1f9e04c9aec846c969e8a6ed82ac7bf4be64736f6c634300080a0033a264697066735822122055557c1a124148d9aee2eda3126e117781dcbf155639c0fd393488e646565d5064736f6c634300080a0033",
  "immutableReferences": {},
  "source": "//SPDX-License-Identifier:MIT\r\npragma solidity ^0.8.0;\r\n\r\nimport \"./token.sol\";\r\n//import \"hardhat/console.sol\";\r\n\r\ncontract dex{\r\n    struct Pool{\r\n        address poolToken;\r\n        address token1;\r\n        address token2;\r\n        uint256 token1Balance;\r\n        uint256 token2Balance;                      \r\n        bool isAdded;\r\n    }\r\n\r\n    mapping(address => Pool) public liquidityPool;\r\n    address private owner;        \r\n\r\n    constructor(){                                                                          \r\n        owner = msg.sender;\r\n    }\r\n\r\n    function checkBalances(address token)public view returns(uint){\r\n        return ERC20Interface(token).balanceOf(msg.sender);\r\n    }\r\n\r\n    function isPoolExist(address tokenA, address tokenB)public view returns(bool,address){\r\n        require(tokenA != tokenB,\"Invalid Token Pair\");\r\n        address poolId = generatePoolId(tokenA,tokenB);\r\n        return (isPoolExist(poolId),poolId);\r\n    }\r\n    //END\r\n\r\n    function fundLiquidityPool(address payable token1, address payable token2, uint token1Amount) public payable{\r\n        require(token1 != token2,\"Invalid pool\");    \r\n        address poolAddress = generatePoolId(token1,token2);\r\n        require(isPoolExist(poolAddress),\"Pool is not exist, please create a new pool.\");        \r\n        require(token1Amount > 0, \"Amount to fund must greater than 0.\");\r\n                \r\n        uint token2Amount;\r\n        if(token1 == liquidityPool[poolAddress].token1){\r\n            uint tokenABalance = liquidityPool[poolAddress].token1Balance;\r\n            uint tokenBBalance = liquidityPool[poolAddress].token2Balance;\r\n\r\n            token2Amount = computePrice(tokenABalance,tokenBBalance,token1Amount); \r\n                     \r\n            liquidityPool[poolAddress].token1Balance += token1Amount;                    \r\n            liquidityPool[poolAddress].token2Balance += token2Amount;   \r\n        }\r\n        else{\r\n            uint tokenABalance = liquidityPool[poolAddress].token2Balance;\r\n            uint tokenBBalance = liquidityPool[poolAddress].token1Balance;            \r\n\r\n            token2Amount = computePrice(tokenABalance,tokenBBalance,token1Amount);\r\n\r\n            liquidityPool[poolAddress].token2Balance += token1Amount;            \r\n            liquidityPool[poolAddress].token1Balance += token2Amount;\r\n        } \r\n\r\n        //Add liquidity\r\n        ERC20Interface poolToken = ERC20Interface(liquidityPool[poolAddress].poolToken);\r\n                \r\n        uint tokenReceived = calculateLPToken(false,token1Amount,token2Amount,liquidityPool[poolAddress].token1Balance,liquidityPool[poolAddress].token2Balance,poolToken.totalSupply());\r\n              \r\n        require(poolToken.mint(msg.sender,tokenReceived),\"Transaction failed.\");\r\n\r\n        ERC20Interface tokenA = ERC20Interface(token1);\r\n        ERC20Interface tokenB = ERC20Interface(token2);\r\n\r\n        tokenA.transferFrom(msg.sender, address(this),token1Amount);\r\n        tokenB.transferFrom(msg.sender, address(this),token2Amount);\r\n    }\r\n\r\n    function addLiquidityPool(address payable token1, address payable token2, uint token1Amount, uint token2Amount) public payable{\r\n        require(token1 != token2,\"Invalid liquidity pool.\");\r\n        address poolAddress = generatePoolId(token1,token2);\r\n\r\n        require(!liquidityPool[poolAddress].isAdded,\"Pool already exist\");\r\n        //need to call approve first\r\n        ERC20Interface tokenA = ERC20Interface(token1);\r\n        ERC20Interface tokenB = ERC20Interface(token2);\r\n\r\n        require(tokenA.allowance(msg.sender, address(this)) >= token1Amount,\"Not enough token are allowed to perform this action.\");        \r\n        require(tokenB.allowance(msg.sender,address(this)) >= token2Amount, \"Not enough token are allowed to perform this action.\");\r\n\r\n        //console.log(\"Progress\", \"Gained Approval\");\r\n        \r\n        require(tokenA.transferFrom(msg.sender,address(this),token1Amount),\"Transaction failed.\");\r\n        require(tokenB.transferFrom(msg.sender,address(this),token2Amount),\"Transaction failed.\");\r\n        //console.log(\"Progress\", \"Token Transfer completed\");\r\n\r\n        MintableToken poolToken = new MintableToken(\"LPT\",concat(tokenA.symbol(),\"-\",tokenB.symbol()),8);        \r\n        \r\n        uint tokenReceived = calculateLPToken(true,token1Amount,token2Amount,0,0,poolToken.totalSupply()); //By Default Pool is empty\r\n        liquidityPool[poolAddress] = Pool(address(poolToken),token1,token2,token1Amount,token2Amount,true);        \r\n        require(poolToken.mint(msg.sender,tokenReceived),\"Transaction failed.\");\r\n        \r\n    }\r\n\r\n    function convertLPTokenToToken(uint lpAmount, uint totalSupply, uint tokenReserve)public pure returns(uint){\r\n        return tokenReserve * lpAmount / totalSupply;\r\n    }\r\n\r\n    function withdrawFund(address pool, uint amount)public payable returns(uint,uint){   \r\n        ERC20Interface poolToken = ERC20Interface(liquidityPool[pool].poolToken);\r\n        require(poolToken.balanceOf(msg.sender) >= amount,\"Not enough amount\");\r\n    \r\n        uint token1Received = convertLPTokenToToken(amount,poolToken.totalSupply(),liquidityPool[pool].token1Balance);\r\n        uint token2Received = convertLPTokenToToken(amount,poolToken.totalSupply(),liquidityPool[pool].token2Balance);        \r\n\r\n        liquidityPool[pool].token1Balance -= token1Received;\r\n        liquidityPool[pool].token2Balance -= token2Received;  \r\n\r\n        ERC20Interface tokenA = ERC20Interface(liquidityPool[pool].token1);\r\n        ERC20Interface tokenB = ERC20Interface(liquidityPool[pool].token2);\r\n\r\n        require(tokenA.transfer(msg.sender,token1Received),\"Transaction failed.\");\r\n        require(tokenB.transfer(msg.sender,token2Received),\"Transaction failed.\");\r\n\r\n        require(poolToken.burn(msg.sender,amount));                \r\n        return (token1Received,token2Received);       \r\n    }\r\n\r\n    function isPoolExist(address _address) private view returns(bool){\r\n        Pool memory pool = liquidityPool[_address];\r\n        return pool.isAdded;        \r\n    }\r\n\r\n    //PURE FUNCTION\r\n    //Retrieve amount of y \r\n    function computePrice(uint256 x, uint256 y, uint256 amount) public pure returns(uint256){\r\n        if(x == 0 && y == 0){   \r\n            return amount;\r\n        }\r\n        else{\r\n            return amount * y / x;     \r\n        }        \r\n    }\r\n\r\n    function generatePoolId(address tokenA, address tokenB) public pure returns (address){\r\n        (address token0, address token1) = tokenA < tokenB ? (tokenA, tokenB) : (tokenB, tokenA);        \r\n        return address(uint160(uint256(keccak256(abi.encodePacked(token0, token1)))));  \r\n    }\r\n\r\n    \r\n    function calculateInterest(uint tokenAmount,uint poolAmount,uint accumulatedInterest)public pure returns(uint){\r\n        return tokenAmount * accumulatedInterest / poolAmount;        \r\n    }\r\n\r\n    function calculateLPToken(bool isInitiator, uint token1Amount, uint token2Amount, uint token1Reserve, uint token2Reserve, uint totalSupply)public pure returns(uint){\r\n        if(!isInitiator){\r\n            uint resultA = token1Amount * totalSupply / token1Reserve;\r\n            uint resultB = token2Amount * totalSupply / token2Reserve;\r\n            return resultA > resultB ? resultB : resultA;\r\n        }\r\n        else{\r\n            return sqrt(token1Amount * token2Amount);\r\n        }\r\n    }\r\n\r\n    function sqrt(uint y) internal pure returns (uint z) {\r\n        if (y > 3) {\r\n            z = y;\r\n            uint x = y / 2 + 1;\r\n            while (x < z) {\r\n                z = x;\r\n                x = (y / x + x) / 2;\r\n            }\r\n        } else if (y != 0) {\r\n            z = 1;\r\n        }\r\n    }\r\n\r\n    modifier onlyOwner(address sender){\r\n        require(sender == owner,\"Only owner able to execute this action.\");\r\n        _;\r\n    }\r\n\r\n    function swap(address fromToken, address toToken, uint256 tokenX) public payable{\r\n        //Step 1: Select pool\r\n        address poolID = generatePoolId(fromToken, toToken);\r\n        require(liquidityPool[poolID].isAdded,\"Liquidity Pool not found.\");\r\n\r\n        //Step 2: Calculate K (here got no K value, we calculate manually)\r\n        uint k = liquidityPool[poolID].token1Balance * liquidityPool[poolID].token2Balance;\r\n\r\n        //Step 3: SWAP_X_to_Y        \r\n        ERC20Interface tokenFrom = ERC20Interface(fromToken);\r\n        ERC20Interface tokenTo = ERC20Interface(toToken);\r\n\r\n        require(tokenX <= tokenFrom.allowance(msg.sender,address(this)),\"Not enough token\");\r\n\r\n        //Step 3.1: Calculate different between y-(k/x)\r\n        uint difference = liquidityPool[poolID].token2Balance - (k/(liquidityPool[poolID].token1Balance+tokenX));\r\n                \r\n        //Step 3.2: Transfer the amount of difference from pool to user account\r\n        require(tokenTo.transfer(msg.sender, difference),\"Transaction failed.\"); //transfer\r\n\r\n        //Step 3.3: Transfer amount of TokenX (fromToken) from user account to pool\r\n        require(tokenFrom.transferFrom(msg.sender, address(this), tokenX),\"Transaction failed\"); //transferfrom\r\n            \r\n\t    //Step 3.4: update pool's token value\r\n        liquidityPool[poolID].token1Balance += tokenX; //plus because we add in the tokenX into Pool\r\n        liquidityPool[poolID].token2Balance -= difference; //minus because we already take the tokenY        \r\n    }\r\n\r\n    function estSwap(address fromToken,address toToken, uint256 tokenX)public view returns(uint){\r\n        address poolID = generatePoolId(fromToken, toToken);\r\n        require(liquidityPool[poolID].isAdded,\"Liquidity Pool not found.\");\r\n        \r\n        uint k = liquidityPool[poolID].token1Balance * liquidityPool[poolID].token2Balance;\r\n                \r\n        uint difference = liquidityPool[poolID].token2Balance - (k/(liquidityPool[poolID].token1Balance+tokenX));\r\n        return difference;\r\n    }\r\n\r\n    function estFundPool(address tokenA, address tokenB, uint amount)public view returns(uint amount2, uint share){\r\n        require(tokenA != tokenB,\"Invalid Pool\");\r\n        address poolAddress = generatePoolId(tokenA,tokenB);\r\n        require(isPoolExist(poolAddress),\"Pool is not exist.\");        \r\n\r\n        uint tokenABalance;\r\n        uint tokenBBalance;        \r\n        if(tokenA == liquidityPool[poolAddress].token1){\r\n            tokenABalance = liquidityPool[poolAddress].token1Balance;\r\n            tokenBBalance = liquidityPool[poolAddress].token2Balance;         \r\n        }\r\n        else{\r\n            tokenABalance = liquidityPool[poolAddress].token2Balance;\r\n            tokenBBalance = liquidityPool[poolAddress].token1Balance;            \r\n        }        \r\n        uint token2Amount = computePrice(tokenABalance,tokenBBalance,amount);  \r\n        return (token2Amount,(amount * 10000) / (tokenABalance + amount));\r\n        //Return Amount Need To import for B, share in percentage (0 stands for < 0.01%)\r\n    }\r\n\r\n    function estWithdrawFund(address pool, uint amount)public view returns(uint amount1,uint amount2,address token1,address token2){\r\n        require(isPoolExist(pool),\"Invalid Pool.\");\r\n        \r\n        ERC20Interface poolToken = ERC20Interface(liquidityPool[pool].poolToken);\r\n    \r\n        uint token1Received = convertLPTokenToToken(amount,poolToken.totalSupply(),liquidityPool[pool].token1Balance);\r\n        uint token2Received = convertLPTokenToToken(amount,poolToken.totalSupply(),liquidityPool[pool].token2Balance);        \r\n              \r\n        return (token1Received,token2Received,liquidityPool[pool].token1,liquidityPool[pool].token2);\r\n    }\r\n\r\n    function concat(string memory a, string memory b, string memory c)private pure returns(string memory){\r\n        return string(abi.encodePacked(a, b,c));\r\n    }    \r\n}\r\n",
  "sourcePath": "B:\\Degree Material\\Year 3 Sem 2\\Block Chain Application\\Assignment\\Dex Platform\\contracts\\dex.sol",
  "compiler": {
    "name": "solc",
    "version": "0.8.10+commit.fc410830.Emscripten.clang"
  },
  "schemaVersion": "3.4.3",
  "updatedAt": "2021-12-09T12:58:26.159Z",
  "networkType": "ethereum",
  "devdoc": {
    "kind": "dev",
    "methods": {},
    "version": 1
  },
  "userdoc": {
    "kind": "user",
    "methods": {},
    "version": 1
  }
}