{
  "contractName": "dex",
  "abi": [
    {
      "inputs": [],
      "stateMutability": "nonpayable",
      "type": "constructor"
    },
    {
      "inputs": [
        {
          "internalType": "address",
          "name": "",
          "type": "address"
        }
      ],
      "name": "liquidityPool",
      "outputs": [
        {
          "internalType": "address",
          "name": "poolToken",
          "type": "address"
        },
        {
          "internalType": "address",
          "name": "token1",
          "type": "address"
        },
        {
          "internalType": "address",
          "name": "token2",
          "type": "address"
        },
        {
          "internalType": "uint256",
          "name": "token1Balance",
          "type": "uint256"
        },
        {
          "internalType": "uint256",
          "name": "token2Balance",
          "type": "uint256"
        },
        {
          "internalType": "bool",
          "name": "isAdded",
          "type": "bool"
        }
      ],
      "stateMutability": "view",
      "type": "function",
      "constant": true
    },
    {
      "inputs": [
        {
          "internalType": "address",
          "name": "token",
          "type": "address"
        },
        {
          "internalType": "uint256",
          "name": "amount",
          "type": "uint256"
        }
      ],
      "name": "checkBalances",
      "outputs": [
        {
          "internalType": "bool",
          "name": "",
          "type": "bool"
        }
      ],
      "stateMutability": "view",
      "type": "function",
      "constant": true
    },
    {
      "inputs": [
        {
          "internalType": "address",
          "name": "pool",
          "type": "address"
        }
      ],
      "name": "getLPTokenAddress",
      "outputs": [
        {
          "internalType": "address",
          "name": "",
          "type": "address"
        }
      ],
      "stateMutability": "view",
      "type": "function",
      "constant": true
    },
    {
      "inputs": [
        {
          "internalType": "address payable",
          "name": "token1",
          "type": "address"
        },
        {
          "internalType": "address payable",
          "name": "token2",
          "type": "address"
        },
        {
          "internalType": "uint256",
          "name": "token1Amount",
          "type": "uint256"
        }
      ],
      "name": "fundLiquidityPool",
      "outputs": [
        {
          "internalType": "address",
          "name": "",
          "type": "address"
        }
      ],
      "stateMutability": "payable",
      "type": "function",
      "payable": true
    },
    {
      "inputs": [
        {
          "internalType": "address payable",
          "name": "token1",
          "type": "address"
        },
        {
          "internalType": "address payable",
          "name": "token2",
          "type": "address"
        },
        {
          "internalType": "uint256",
          "name": "token1Amount",
          "type": "uint256"
        },
        {
          "internalType": "uint256",
          "name": "token2Amount",
          "type": "uint256"
        }
      ],
      "name": "addLiquidityPool",
      "outputs": [
        {
          "internalType": "address",
          "name": "",
          "type": "address"
        },
        {
          "internalType": "address",
          "name": "",
          "type": "address"
        }
      ],
      "stateMutability": "payable",
      "type": "function",
      "payable": true
    },
    {
      "inputs": [
        {
          "internalType": "uint256",
          "name": "lpAmount",
          "type": "uint256"
        },
        {
          "internalType": "uint256",
          "name": "totalSupply",
          "type": "uint256"
        },
        {
          "internalType": "uint256",
          "name": "tokenReserve",
          "type": "uint256"
        }
      ],
      "name": "convertLPTokenToToken",
      "outputs": [
        {
          "internalType": "uint256",
          "name": "",
          "type": "uint256"
        }
      ],
      "stateMutability": "pure",
      "type": "function",
      "constant": true
    },
    {
      "inputs": [
        {
          "internalType": "address",
          "name": "pool",
          "type": "address"
        },
        {
          "internalType": "uint256",
          "name": "amount",
          "type": "uint256"
        }
      ],
      "name": "withdrawFund",
      "outputs": [
        {
          "internalType": "uint256",
          "name": "",
          "type": "uint256"
        },
        {
          "internalType": "uint256",
          "name": "",
          "type": "uint256"
        }
      ],
      "stateMutability": "payable",
      "type": "function",
      "payable": true
    },
    {
      "inputs": [
        {
          "internalType": "address",
          "name": "tokenA",
          "type": "address"
        },
        {
          "internalType": "address",
          "name": "tokenB",
          "type": "address"
        }
      ],
      "name": "isPoolExist",
      "outputs": [
        {
          "internalType": "bool",
          "name": "",
          "type": "bool"
        },
        {
          "internalType": "address",
          "name": "",
          "type": "address"
        }
      ],
      "stateMutability": "view",
      "type": "function",
      "constant": true
    },
    {
      "inputs": [
        {
          "internalType": "uint256",
          "name": "x",
          "type": "uint256"
        },
        {
          "internalType": "uint256",
          "name": "y",
          "type": "uint256"
        },
        {
          "internalType": "uint256",
          "name": "amount",
          "type": "uint256"
        }
      ],
      "name": "computePrice",
      "outputs": [
        {
          "internalType": "uint256",
          "name": "",
          "type": "uint256"
        }
      ],
      "stateMutability": "pure",
      "type": "function",
      "constant": true
    },
    {
      "inputs": [
        {
          "internalType": "address",
          "name": "tokenA",
          "type": "address"
        },
        {
          "internalType": "address",
          "name": "tokenB",
          "type": "address"
        }
      ],
      "name": "generatePoolId",
      "outputs": [
        {
          "internalType": "address",
          "name": "",
          "type": "address"
        }
      ],
      "stateMutability": "pure",
      "type": "function",
      "constant": true
    },
    {
      "inputs": [
        {
          "internalType": "uint256",
          "name": "tokenAmount",
          "type": "uint256"
        },
        {
          "internalType": "uint256",
          "name": "poolAmount",
          "type": "uint256"
        },
        {
          "internalType": "uint256",
          "name": "accumulatedInterest",
          "type": "uint256"
        }
      ],
      "name": "calculateInterest",
      "outputs": [
        {
          "internalType": "uint256",
          "name": "",
          "type": "uint256"
        }
      ],
      "stateMutability": "pure",
      "type": "function",
      "constant": true
    },
    {
      "inputs": [
        {
          "internalType": "bool",
          "name": "isInitiator",
          "type": "bool"
        },
        {
          "internalType": "uint256",
          "name": "token1Amount",
          "type": "uint256"
        },
        {
          "internalType": "uint256",
          "name": "token2Amount",
          "type": "uint256"
        },
        {
          "internalType": "uint256",
          "name": "token1Reserve",
          "type": "uint256"
        },
        {
          "internalType": "uint256",
          "name": "token2Reserve",
          "type": "uint256"
        },
        {
          "internalType": "uint256",
          "name": "totalSupply",
          "type": "uint256"
        }
      ],
      "name": "calculateLPToken",
      "outputs": [
        {
          "internalType": "uint256",
          "name": "",
          "type": "uint256"
        }
      ],
      "stateMutability": "pure",
      "type": "function",
      "constant": true
    },
    {
      "inputs": [
        {
          "internalType": "address",
          "name": "fromToken",
          "type": "address"
        },
        {
          "internalType": "address",
          "name": "toToken",
          "type": "address"
        },
        {
          "internalType": "uint256",
          "name": "tokenX",
          "type": "uint256"
        }
      ],
      "name": "swap",
      "outputs": [],
      "stateMutability": "payable",
      "type": "function",
      "payable": true
    },
    {
      "inputs": [
        {
          "internalType": "address",
          "name": "fromToken",
          "type": "address"
        },
        {
          "internalType": "address",
          "name": "toToken",
          "type": "address"
        },
        {
          "internalType": "uint256",
          "name": "tokenX",
          "type": "uint256"
        }
      ],
      "name": "estSwap",
      "outputs": [
        {
          "internalType": "uint256",
          "name": "",
          "type": "uint256"
        }
      ],
      "stateMutability": "view",
      "type": "function",
      "constant": true
    },
    {
      "inputs": [
        {
          "internalType": "address",
          "name": "tokenA",
          "type": "address"
        },
        {
          "internalType": "address",
          "name": "tokenB",
          "type": "address"
        },
        {
          "internalType": "uint256",
          "name": "amount",
          "type": "uint256"
        }
      ],
      "name": "estFundPool",
      "outputs": [
        {
          "internalType": "uint256",
          "name": "amount2",
          "type": "uint256"
        },
        {
          "internalType": "address",
          "name": "token2",
          "type": "address"
        },
        {
          "internalType": "uint256",
          "name": "share",
          "type": "uint256"
        }
      ],
      "stateMutability": "view",
      "type": "function",
      "constant": true
    },
    {
      "inputs": [
        {
          "internalType": "address",
          "name": "pool",
          "type": "address"
        },
        {
          "internalType": "uint256",
          "name": "amount",
          "type": "uint256"
        }
      ],
      "name": "estWithdrawFund",
      "outputs": [
        {
          "internalType": "uint256",
          "name": "amount1",
          "type": "uint256"
        },
        {
          "internalType": "uint256",
          "name": "amount2",
          "type": "uint256"
        },
        {
          "internalType": "address",
          "name": "token1",
          "type": "address"
        },
        {
          "internalType": "address",
          "name": "token2",
          "type": "address"
        }
      ],
      "stateMutability": "view",
      "type": "function",
      "constant": true
    }
  ],
  "bytecode": "0x608060405234801561001057600080fd5b5033600160006101000a81548173ffffffffffffffffffffffffffffffffffffffff021916908373ffffffffffffffffffffffffffffffffffffffff160217905550615d3b806100616000396000f3fe6080604052600436106200010a5760003560e01c8063c0806db61162000097578063e1d2e3ee1162000061578063e1d2e3ee146200040b578063e5e2496e146200044f578063f7c8d2211462000493578063ff41a2d214620004ca576200010a565b8063c0806db61462000327578063d874c85a1462000370578063dc86967314620003b4578063df791e5014620003eb576200010a565b806374c3b43311620000d957806374c3b43314620002145780637d93c52c1462000258578063841bdb9e146200029e578063ac0ebe9614620002e3576200010a565b806305e1bd8c146200010f57806341ba280514620001535780634939ea4d146200019a5780637179394914620001de575b600080fd5b3480156200011c57600080fd5b506200013b600480360381019062000135919062002f05565b6200050e565b6040516200014a919062002f72565b60405180910390f35b3480156200016057600080fd5b506200017f600480360381019062000179919062002ff4565b62000534565b6040516200019194939291906200304c565b60405180910390f35b348015620001a757600080fd5b50620001c66004803603810190620001c0919062003099565b6200084d565b604051620001d59190620030cb565b60405180910390f35b620001fc6004803603810190620001f691906200312d565b62000a27565b6040516200020b9190620030cb565b60405180910390f35b3480156200022157600080fd5b506200024060048036038101906200023a919062002f05565b62000f98565b6040516200024f919062002f72565b60405180910390f35b3480156200026557600080fd5b506200028460048036038101906200027e919062003189565b62000fde565b6040516200029593929190620031e5565b60405180910390f35b348015620002ab57600080fd5b50620002ca6004803603810190620002c4919062003222565b62001356565b604051620002da92919062003286565b60405180910390f35b348015620002f057600080fd5b506200030f6004803603810190620003099190620032e4565b620013f3565b6040516200031e919062002f72565b60405180910390f35b3480156200033457600080fd5b506200035360048036038101906200034d919062003099565b62001479565b604051620003679695949392919062003380565b60405180910390f35b3480156200037d57600080fd5b506200039c600480360381019062000396919062003222565b62001522565b604051620003ab9190620030cb565b60405180910390f35b620003d26004803603810190620003cc9190620033ed565b620015a2565b604051620003e29291906200345f565b60405180910390f35b62000409600480360381019062000403919062003189565b62001e66565b005b3480156200041857600080fd5b5062000437600480360381019062000431919062003189565b62002363565b60405162000446919062002f72565b60405180910390f35b3480156200045c57600080fd5b506200047b600480360381019062000475919062002ff4565b62002554565b6040516200048a91906200348c565b60405180910390f35b620004b16004803603810190620004ab919062002ff4565b620025e0565b604051620004c1929190620034a9565b60405180910390f35b348015620004d757600080fd5b50620004f66004803603810190620004f0919062002f05565b62002c3c565b60405162000505919062002f72565b60405180910390f35b60008282856200051f919062003505565b6200052b919062003595565b90509392505050565b600080600080620005458662002c62565b62000587576040517f08c379a00000000000000000000000000000000000000000000000000000000081526004016200057e906200362e565b60405180910390fd5b60008060008873ffffffffffffffffffffffffffffffffffffffff1673ffffffffffffffffffffffffffffffffffffffff16815260200190815260200160002060000160009054906101000a900473ffffffffffffffffffffffffffffffffffffffff1690506000620006ae878373ffffffffffffffffffffffffffffffffffffffff166318160ddd6040518163ffffffff1660e01b8152600401602060405180830381865afa15801562000640573d6000803e3d6000fd5b505050506040513d601f19601f8201168201806040525081019062000666919062003667565b6000808c73ffffffffffffffffffffffffffffffffffffffff1673ffffffffffffffffffffffffffffffffffffffff1681526020019081526020016000206003015462002c3c565b9050600062000771888473ffffffffffffffffffffffffffffffffffffffff166318160ddd6040518163ffffffff1660e01b8152600401602060405180830381865afa15801562000703573d6000803e3d6000fd5b505050506040513d601f19601f8201168201806040525081019062000729919062003667565b6000808d73ffffffffffffffffffffffffffffffffffffffff1673ffffffffffffffffffffffffffffffffffffffff1681526020019081526020016000206004015462002c3c565b905081816000808c73ffffffffffffffffffffffffffffffffffffffff1673ffffffffffffffffffffffffffffffffffffffff16815260200190815260200160002060010160009054906101000a900473ffffffffffffffffffffffffffffffffffffffff166000808d73ffffffffffffffffffffffffffffffffffffffff1673ffffffffffffffffffffffffffffffffffffffff16815260200190815260200160002060020160009054906101000a900473ffffffffffffffffffffffffffffffffffffffff16965096509650965050505092959194509250565b60006200085a8262002c62565b6200089c576040517f08c379a00000000000000000000000000000000000000000000000000000000081526004016200089390620036e9565b60405180910390fd5b60008060008473ffffffffffffffffffffffffffffffffffffffff1673ffffffffffffffffffffffffffffffffffffffff1681526020019081526020016000206040518060c00160405290816000820160009054906101000a900473ffffffffffffffffffffffffffffffffffffffff1673ffffffffffffffffffffffffffffffffffffffff1673ffffffffffffffffffffffffffffffffffffffff1681526020016001820160009054906101000a900473ffffffffffffffffffffffffffffffffffffffff1673ffffffffffffffffffffffffffffffffffffffff1673ffffffffffffffffffffffffffffffffffffffff1681526020016002820160009054906101000a900473ffffffffffffffffffffffffffffffffffffffff1673ffffffffffffffffffffffffffffffffffffffff1673ffffffffffffffffffffffffffffffffffffffff16815260200160038201548152602001600482015481526020016005820160009054906101000a900460ff16151515158152505090508060000151915050919050565b60008273ffffffffffffffffffffffffffffffffffffffff168473ffffffffffffffffffffffffffffffffffffffff16141562000a9b576040517f08c379a000000000000000000000000000000000000000000000000000000000815260040162000a92906200375b565b60405180910390fd5b600062000aa9858562001522565b905062000ab68162002c62565b62000af8576040517f08c379a000000000000000000000000000000000000000000000000000000000815260040162000aef90620037f3565b60405180910390fd5b600062000b896000808473ffffffffffffffffffffffffffffffffffffffff1673ffffffffffffffffffffffffffffffffffffffff168152602001908152602001600020600301546000808573ffffffffffffffffffffffffffffffffffffffff1673ffffffffffffffffffffffffffffffffffffffff168152602001908152602001600020600401548662000f98565b9050806000808473ffffffffffffffffffffffffffffffffffffffff1673ffffffffffffffffffffffffffffffffffffffff168152602001908152602001600020600401600082825462000bde919062003815565b92505081905550836000808473ffffffffffffffffffffffffffffffffffffffff1673ffffffffffffffffffffffffffffffffffffffff168152602001908152602001600020600301600082825462000c38919062003815565b9250508190555060008060008473ffffffffffffffffffffffffffffffffffffffff1673ffffffffffffffffffffffffffffffffffffffff16815260200190815260200160002060000160009054906101000a900473ffffffffffffffffffffffffffffffffffffffff169050600062000dab600087856000808973ffffffffffffffffffffffffffffffffffffffff1673ffffffffffffffffffffffffffffffffffffffff168152602001908152602001600020600301546000808a73ffffffffffffffffffffffffffffffffffffffff1673ffffffffffffffffffffffffffffffffffffffff168152602001908152602001600020600401548773ffffffffffffffffffffffffffffffffffffffff166318160ddd6040518163ffffffff1660e01b8152600401602060405180830381865afa15801562000d7f573d6000803e3d6000fd5b505050506040513d601f19601f8201168201806040525081019062000da5919062003667565b620013f3565b90508173ffffffffffffffffffffffffffffffffffffffff166340c10f1933836040518363ffffffff1660e01b815260040162000dea92919062003872565b6020604051808303816000875af115801562000e0a573d6000803e3d6000fd5b505050506040513d601f19601f8201168201806040525081019062000e309190620038b6565b62000e72576040517f08c379a000000000000000000000000000000000000000000000000000000000815260040162000e699062003938565b60405180910390fd5b600088905060008890508173ffffffffffffffffffffffffffffffffffffffff166323b872dd33308b6040518463ffffffff1660e01b815260040162000ebb939291906200395a565b6020604051808303816000875af115801562000edb573d6000803e3d6000fd5b505050506040513d601f19601f8201168201806040525081019062000f019190620038b6565b508073ffffffffffffffffffffffffffffffffffffffff166323b872dd3330886040518463ffffffff1660e01b815260040162000f41939291906200395a565b6020604051808303816000875af115801562000f61573d6000803e3d6000fd5b505050506040513d601f19601f8201168201806040525081019062000f879190620038b6565b508596505050505050509392505050565b6000808414801562000faa5750600083145b1562000fb95781905062000fd7565b82848362000fc8919062003505565b62000fd4919062003595565b90505b9392505050565b60008060008473ffffffffffffffffffffffffffffffffffffffff168673ffffffffffffffffffffffffffffffffffffffff16141562001055576040517f08c379a00000000000000000000000000000000000000000000000000000000081526004016200104c90620036e9565b60405180910390fd5b600062001063878762001522565b9050620010708162002c62565b620010b2576040517f08c379a0000000000000000000000000000000000000000000000000000000008152600401620010a990620039e7565b60405180910390fd5b6000620011436000808473ffffffffffffffffffffffffffffffffffffffff1673ffffffffffffffffffffffffffffffffffffffff168152602001908152602001600020600301546000808573ffffffffffffffffffffffffffffffffffffffff1673ffffffffffffffffffffffffffffffffffffffff168152602001908152602001600020600401548862000f98565b905060008060008473ffffffffffffffffffffffffffffffffffffffff1673ffffffffffffffffffffffffffffffffffffffff16815260200190815260200160002060000160009054906101000a900473ffffffffffffffffffffffffffffffffffffffff1690506000620012b1600089856000808973ffffffffffffffffffffffffffffffffffffffff1673ffffffffffffffffffffffffffffffffffffffff168152602001908152602001600020600301546000808a73ffffffffffffffffffffffffffffffffffffffff1673ffffffffffffffffffffffffffffffffffffffff168152602001908152602001600020600401548773ffffffffffffffffffffffffffffffffffffffff166318160ddd6040518163ffffffff1660e01b8152600401602060405180830381865afa15801562001285573d6000803e3d6000fd5b505050506040513d601f19601f82011682018060405250810190620012ab919062003667565b620013f3565b905082898373ffffffffffffffffffffffffffffffffffffffff166318160ddd6040518163ffffffff1660e01b8152600401602060405180830381865afa15801562001301573d6000803e3d6000fd5b505050506040513d601f19601f8201168201806040525081019062001327919062003667565b6103e88462001337919062003505565b62001343919062003595565b9650965096505050505093509350939050565b6000808273ffffffffffffffffffffffffffffffffffffffff168473ffffffffffffffffffffffffffffffffffffffff161415620013cb576040517f08c379a0000000000000000000000000000000000000000000000000000000008152600401620013c29062003a59565b60405180910390fd5b6000620013d9858562001522565b9050620013e68162002c62565b8192509250509250929050565b600086620014545760008483886200140c919062003505565b62001418919062003595565b905060008484886200142b919062003505565b62001437919062003595565b90508082116200144857816200144a565b805b925050506200146f565b6200146c858762001466919062003505565b62002dee565b90505b9695505050505050565b60006020528060005260406000206000915090508060000160009054906101000a900473ffffffffffffffffffffffffffffffffffffffff16908060010160009054906101000a900473ffffffffffffffffffffffffffffffffffffffff16908060020160009054906101000a900473ffffffffffffffffffffffffffffffffffffffff16908060030154908060040154908060050160009054906101000a900460ff16905086565b60008060008373ffffffffffffffffffffffffffffffffffffffff168573ffffffffffffffffffffffffffffffffffffffff16106200156357838562001566565b84845b9150915081816040516020016200157f92919062003acb565b6040516020818303038152906040528051906020012060001c9250505092915050565b6000808473ffffffffffffffffffffffffffffffffffffffff168673ffffffffffffffffffffffffffffffffffffffff16141562001617576040517f08c379a00000000000000000000000000000000000000000000000000000000081526004016200160e9062003b4b565b60405180910390fd5b600062001625878762001522565b90506000808273ffffffffffffffffffffffffffffffffffffffff1673ffffffffffffffffffffffffffffffffffffffff16815260200190815260200160002060050160009054906101000a900460ff1615620016b9576040517f08c379a0000000000000000000000000000000000000000000000000000000008152600401620016b09062003bbd565b60405180910390fd5b60008790506000879050868273ffffffffffffffffffffffffffffffffffffffff1663dd62ed3e33306040518363ffffffff1660e01b8152600401620017019291906200345f565b602060405180830381865afa1580156200171f573d6000803e3d6000fd5b505050506040513d601f19601f8201168201806040525081019062001745919062003667565b101562001789576040517f08c379a0000000000000000000000000000000000000000000000000000000008152600401620017809062003c55565b60405180910390fd5b858173ffffffffffffffffffffffffffffffffffffffff1663dd62ed3e33306040518363ffffffff1660e01b8152600401620017c79291906200345f565b602060405180830381865afa158015620017e5573d6000803e3d6000fd5b505050506040513d601f19601f820116820180604052508101906200180b919062003667565b10156200184f576040517f08c379a0000000000000000000000000000000000000000000000000000000008152600401620018469062003c55565b60405180910390fd5b8173ffffffffffffffffffffffffffffffffffffffff166323b872dd33308a6040518463ffffffff1660e01b81526004016200188e939291906200395a565b6020604051808303816000875af1158015620018ae573d6000803e3d6000fd5b505050506040513d601f19601f82011682018060405250810190620018d49190620038b6565b62001916576040517f08c379a00000000000000000000000000000000000000000000000000000000081526004016200190d9062003938565b60405180910390fd5b8073ffffffffffffffffffffffffffffffffffffffff166323b872dd3330896040518463ffffffff1660e01b815260040162001955939291906200395a565b6020604051808303816000875af115801562001975573d6000803e3d6000fd5b505050506040513d601f19601f820116820180604052508101906200199b9190620038b6565b620019dd576040517f08c379a0000000000000000000000000000000000000000000000000000000008152600401620019d49062003938565b60405180910390fd5b600062001b0d8373ffffffffffffffffffffffffffffffffffffffff166395d89b416040518163ffffffff1660e01b8152600401600060405180830381865afa15801562001a2f573d6000803e3d6000fd5b505050506040513d6000823e3d601f19601f8201168201806040525081019062001a5a919062003e00565b6040518060400160405280600181526020017f2d000000000000000000000000000000000000000000000000000000000000008152508473ffffffffffffffffffffffffffffffffffffffff166395d89b416040518163ffffffff1660e01b8152600401600060405180830381865afa15801562001adc573d6000803e3d6000fd5b505050506040513d6000823e3d601f19601f8201168201806040525081019062001b07919062003e00565b62002e77565b600860405162001b1d9062002ea8565b62001b2a92919062003f47565b604051809103906000f08015801562001b47573d6000803e3d6000fd5b509050600062001bcf60018a8a6000808773ffffffffffffffffffffffffffffffffffffffff166318160ddd6040518163ffffffff1660e01b8152600401602060405180830381865afa15801562001ba3573d6000803e3d6000fd5b505050506040513d601f19601f8201168201806040525081019062001bc9919062003667565b620013f3565b90506040518060c001604052808373ffffffffffffffffffffffffffffffffffffffff1681526020018c73ffffffffffffffffffffffffffffffffffffffff1681526020018b73ffffffffffffffffffffffffffffffffffffffff1681526020018a8152602001898152602001600115158152506000808773ffffffffffffffffffffffffffffffffffffffff1673ffffffffffffffffffffffffffffffffffffffff16815260200190815260200160002060008201518160000160006101000a81548173ffffffffffffffffffffffffffffffffffffffff021916908373ffffffffffffffffffffffffffffffffffffffff16021790555060208201518160010160006101000a81548173ffffffffffffffffffffffffffffffffffffffff021916908373ffffffffffffffffffffffffffffffffffffffff16021790555060408201518160020160006101000a81548173ffffffffffffffffffffffffffffffffffffffff021916908373ffffffffffffffffffffffffffffffffffffffff160217905550606082015181600301556080820151816004015560a08201518160050160006101000a81548160ff0219169083151502179055509050508173ffffffffffffffffffffffffffffffffffffffff166340c10f1933836040518363ffffffff1660e01b815260040162001dca92919062003872565b6020604051808303816000875af115801562001dea573d6000803e3d6000fd5b505050506040513d601f19601f8201168201806040525081019062001e109190620038b6565b62001e52576040517f08c379a000000000000000000000000000000000000000000000000000000000815260040162001e499062003938565b60405180910390fd5b848296509650505050505094509492505050565b600062001e74848462001522565b90506000808273ffffffffffffffffffffffffffffffffffffffff1673ffffffffffffffffffffffffffffffffffffffff16815260200190815260200160002060050160009054906101000a900460ff1662001f07576040517f08c379a000000000000000000000000000000000000000000000000000000000815260040162001efe9062003fe0565b60405180910390fd5b60008060008373ffffffffffffffffffffffffffffffffffffffff1673ffffffffffffffffffffffffffffffffffffffff168152602001908152602001600020600401546000808473ffffffffffffffffffffffffffffffffffffffff1673ffffffffffffffffffffffffffffffffffffffff1681526020019081526020016000206003015462001f99919062003505565b9050600085905060008590508173ffffffffffffffffffffffffffffffffffffffff1663dd62ed3e33306040518363ffffffff1660e01b815260040162001fe29291906200345f565b602060405180830381865afa15801562002000573d6000803e3d6000fd5b505050506040513d601f19601f8201168201806040525081019062002026919062003667565b8511156200206b576040517f08c379a0000000000000000000000000000000000000000000000000000000008152600401620020629062004052565b60405180910390fd5b6000856000808773ffffffffffffffffffffffffffffffffffffffff1673ffffffffffffffffffffffffffffffffffffffff16815260200190815260200160002060030154620020bc919062003815565b84620020c9919062003595565b6000808773ffffffffffffffffffffffffffffffffffffffff1673ffffffffffffffffffffffffffffffffffffffff1681526020019081526020016000206004015462002117919062004074565b90508173ffffffffffffffffffffffffffffffffffffffff1663a9059cbb33836040518363ffffffff1660e01b81526004016200215692919062003872565b6020604051808303816000875af115801562002176573d6000803e3d6000fd5b505050506040513d601f19601f820116820180604052508101906200219c9190620038b6565b620021de576040517f08c379a0000000000000000000000000000000000000000000000000000000008152600401620021d59062003938565b60405180910390fd5b8273ffffffffffffffffffffffffffffffffffffffff166323b872dd3330896040518463ffffffff1660e01b81526004016200221d939291906200395a565b6020604051808303816000875af11580156200223d573d6000803e3d6000fd5b505050506040513d601f19601f82011682018060405250810190620022639190620038b6565b620022a5576040517f08c379a00000000000000000000000000000000000000000000000000000000081526004016200229c90620040ff565b60405180910390fd5b856000808773ffffffffffffffffffffffffffffffffffffffff1673ffffffffffffffffffffffffffffffffffffffff1681526020019081526020016000206003016000828254620022f8919062003815565b92505081905550806000808773ffffffffffffffffffffffffffffffffffffffff1673ffffffffffffffffffffffffffffffffffffffff168152602001908152602001600020600401600082825462002352919062004074565b925050819055505050505050505050565b60008062002372858562001522565b90506000808273ffffffffffffffffffffffffffffffffffffffff1673ffffffffffffffffffffffffffffffffffffffff16815260200190815260200160002060050160009054906101000a900460ff1662002405576040517f08c379a0000000000000000000000000000000000000000000000000000000008152600401620023fc9062003fe0565b60405180910390fd5b60008060008373ffffffffffffffffffffffffffffffffffffffff1673ffffffffffffffffffffffffffffffffffffffff168152602001908152602001600020600401546000808473ffffffffffffffffffffffffffffffffffffffff1673ffffffffffffffffffffffffffffffffffffffff1681526020019081526020016000206003015462002497919062003505565b90506000846000808573ffffffffffffffffffffffffffffffffffffffff1673ffffffffffffffffffffffffffffffffffffffff16815260200190815260200160002060030154620024ea919062003815565b82620024f7919062003595565b6000808573ffffffffffffffffffffffffffffffffffffffff1673ffffffffffffffffffffffffffffffffffffffff1681526020019081526020016000206004015462002545919062004074565b90508093505050509392505050565b6000818373ffffffffffffffffffffffffffffffffffffffff166370a08231336040518263ffffffff1660e01b8152600401620025929190620030cb565b602060405180830381865afa158015620025b0573d6000803e3d6000fd5b505050506040513d601f19601f82011682018060405250810190620025d6919062003667565b1015905092915050565b60008060008060008673ffffffffffffffffffffffffffffffffffffffff1673ffffffffffffffffffffffffffffffffffffffff16815260200190815260200160002060000160009054906101000a900473ffffffffffffffffffffffffffffffffffffffff169050838173ffffffffffffffffffffffffffffffffffffffff166370a08231336040518263ffffffff1660e01b8152600401620026859190620030cb565b602060405180830381865afa158015620026a3573d6000803e3d6000fd5b505050506040513d601f19601f82011682018060405250810190620026c9919062003667565b10156200270d576040517f08c379a0000000000000000000000000000000000000000000000000000000008152600401620027049062004171565b60405180910390fd5b6000620027ce858373ffffffffffffffffffffffffffffffffffffffff166318160ddd6040518163ffffffff1660e01b8152600401602060405180830381865afa15801562002760573d6000803e3d6000fd5b505050506040513d601f19601f8201168201806040525081019062002786919062003667565b6000808a73ffffffffffffffffffffffffffffffffffffffff1673ffffffffffffffffffffffffffffffffffffffff1681526020019081526020016000206003015462002c3c565b9050600062002891868473ffffffffffffffffffffffffffffffffffffffff166318160ddd6040518163ffffffff1660e01b8152600401602060405180830381865afa15801562002823573d6000803e3d6000fd5b505050506040513d601f19601f8201168201806040525081019062002849919062003667565b6000808b73ffffffffffffffffffffffffffffffffffffffff1673ffffffffffffffffffffffffffffffffffffffff1681526020019081526020016000206004015462002c3c565b9050816000808973ffffffffffffffffffffffffffffffffffffffff1673ffffffffffffffffffffffffffffffffffffffff1681526020019081526020016000206003016000828254620028e6919062004074565b92505081905550806000808973ffffffffffffffffffffffffffffffffffffffff1673ffffffffffffffffffffffffffffffffffffffff168152602001908152602001600020600401600082825462002940919062004074565b9250508190555060008060008973ffffffffffffffffffffffffffffffffffffffff1673ffffffffffffffffffffffffffffffffffffffff16815260200190815260200160002060010160009054906101000a900473ffffffffffffffffffffffffffffffffffffffff16905060008060008a73ffffffffffffffffffffffffffffffffffffffff1673ffffffffffffffffffffffffffffffffffffffff16815260200190815260200160002060020160009054906101000a900473ffffffffffffffffffffffffffffffffffffffff1690508173ffffffffffffffffffffffffffffffffffffffff1663a9059cbb33866040518363ffffffff1660e01b815260040162002a5092919062003872565b6020604051808303816000875af115801562002a70573d6000803e3d6000fd5b505050506040513d601f19601f8201168201806040525081019062002a969190620038b6565b62002ad8576040517f08c379a000000000000000000000000000000000000000000000000000000000815260040162002acf9062003938565b60405180910390fd5b8073ffffffffffffffffffffffffffffffffffffffff1663a9059cbb33856040518363ffffffff1660e01b815260040162002b1592919062003872565b6020604051808303816000875af115801562002b35573d6000803e3d6000fd5b505050506040513d601f19601f8201168201806040525081019062002b5b9190620038b6565b62002b9d576040517f08c379a000000000000000000000000000000000000000000000000000000000815260040162002b949062003938565b60405180910390fd5b8473ffffffffffffffffffffffffffffffffffffffff16639dc29fac338a6040518363ffffffff1660e01b815260040162002bda92919062003872565b6020604051808303816000875af115801562002bfa573d6000803e3d6000fd5b505050506040513d601f19601f8201168201806040525081019062002c209190620038b6565b62002c2a57600080fd5b83839650965050505050509250929050565b600082848362002c4d919062003505565b62002c59919062003595565b90509392505050565b6000806000808473ffffffffffffffffffffffffffffffffffffffff1673ffffffffffffffffffffffffffffffffffffffff1681526020019081526020016000206040518060c00160405290816000820160009054906101000a900473ffffffffffffffffffffffffffffffffffffffff1673ffffffffffffffffffffffffffffffffffffffff1673ffffffffffffffffffffffffffffffffffffffff1681526020016001820160009054906101000a900473ffffffffffffffffffffffffffffffffffffffff1673ffffffffffffffffffffffffffffffffffffffff1673ffffffffffffffffffffffffffffffffffffffff1681526020016002820160009054906101000a900473ffffffffffffffffffffffffffffffffffffffff1673ffffffffffffffffffffffffffffffffffffffff1673ffffffffffffffffffffffffffffffffffffffff16815260200160038201548152602001600482015481526020016005820160009054906101000a900460ff16151515158152505090508060a00151915050919050565b6000600382111562002e63578190506000600160028462002e10919062003595565b62002e1c919062003815565b90505b8181101562002e5c57809150600281828562002e3c919062003595565b62002e48919062003815565b62002e54919062003595565b905062002e1f565b5062002e72565b6000821462002e7157600190505b5b919050565b606083838360405160200162002e9093929190620041d5565b60405160208183030381529060405290509392505050565b611af9806200420d83390190565b6000604051905090565b600080fd5b600080fd5b6000819050919050565b62002edf8162002eca565b811462002eeb57600080fd5b50565b60008135905062002eff8162002ed4565b92915050565b60008060006060848603121562002f215762002f2062002ec0565b5b600062002f318682870162002eee565b935050602062002f448682870162002eee565b925050604062002f578682870162002eee565b9150509250925092565b62002f6c8162002eca565b82525050565b600060208201905062002f89600083018462002f61565b92915050565b600073ffffffffffffffffffffffffffffffffffffffff82169050919050565b600062002fbc8262002f8f565b9050919050565b62002fce8162002faf565b811462002fda57600080fd5b50565b60008135905062002fee8162002fc3565b92915050565b600080604083850312156200300e576200300d62002ec0565b5b60006200301e8582860162002fdd565b9250506020620030318582860162002eee565b9150509250929050565b620030468162002faf565b82525050565b600060808201905062003063600083018762002f61565b62003072602083018662002f61565b6200308160408301856200303b565b6200309060608301846200303b565b95945050505050565b600060208284031215620030b257620030b162002ec0565b5b6000620030c28482850162002fdd565b91505092915050565b6000602082019050620030e260008301846200303b565b92915050565b6000620030f58262002f8f565b9050919050565b6200310781620030e8565b81146200311357600080fd5b50565b6000813590506200312781620030fc565b92915050565b60008060006060848603121562003149576200314862002ec0565b5b6000620031598682870162003116565b93505060206200316c8682870162003116565b92505060406200317f8682870162002eee565b9150509250925092565b600080600060608486031215620031a557620031a462002ec0565b5b6000620031b58682870162002fdd565b9350506020620031c88682870162002fdd565b9250506040620031db8682870162002eee565b9150509250925092565b6000606082019050620031fc600083018662002f61565b6200320b60208301856200303b565b6200321a604083018462002f61565b949350505050565b600080604083850312156200323c576200323b62002ec0565b5b60006200324c8582860162002fdd565b92505060206200325f8582860162002fdd565b9150509250929050565b60008115159050919050565b620032808162003269565b82525050565b60006040820190506200329d600083018562003275565b620032ac60208301846200303b565b9392505050565b620032be8162003269565b8114620032ca57600080fd5b50565b600081359050620032de81620032b3565b92915050565b60008060008060008060c0878903121562003304576200330362002ec0565b5b60006200331489828a01620032cd565b96505060206200332789828a0162002eee565b95505060406200333a89828a0162002eee565b94505060606200334d89828a0162002eee565b93505060806200336089828a0162002eee565b92505060a06200337389828a0162002eee565b9150509295509295509295565b600060c0820190506200339760008301896200303b565b620033a660208301886200303b565b620033b560408301876200303b565b620033c4606083018662002f61565b620033d3608083018562002f61565b620033e260a083018462003275565b979650505050505050565b600080600080608085870312156200340a576200340962002ec0565b5b60006200341a8782880162003116565b94505060206200342d8782880162003116565b9350506040620034408782880162002eee565b9250506060620034538782880162002eee565b91505092959194509250565b60006040820190506200347660008301856200303b565b6200348560208301846200303b565b9392505050565b6000602082019050620034a3600083018462003275565b92915050565b6000604082019050620034c0600083018562002f61565b620034cf602083018462002f61565b9392505050565b7f4e487b7100000000000000000000000000000000000000000000000000000000600052601160045260246000fd5b6000620035128262002eca565b91506200351f8362002eca565b9250817fffffffffffffffffffffffffffffffffffffffffffffffffffffffffffffffff04831182151516156200355b576200355a620034d6565b5b828202905092915050565b7f4e487b7100000000000000000000000000000000000000000000000000000000600052601260045260246000fd5b6000620035a28262002eca565b9150620035af8362002eca565b925082620035c257620035c162003566565b5b828204905092915050565b600082825260208201905092915050565b7f496e76616c696420506f6f6c2e00000000000000000000000000000000000000600082015250565b600062003616600d83620035cd565b91506200362382620035de565b602082019050919050565b60006020820190508181036000830152620036498162003607565b9050919050565b600081519050620036618162002ed4565b92915050565b60006020828403121562003680576200367f62002ec0565b5b6000620036908482850162003650565b91505092915050565b7f496e76616c696420506f6f6c0000000000000000000000000000000000000000600082015250565b6000620036d1600c83620035cd565b9150620036de8262003699565b602082019050919050565b600060208201905081810360008301526200370481620036c2565b9050919050565b7f496e76616c696420706f6f6c0000000000000000000000000000000000000000600082015250565b600062003743600c83620035cd565b915062003750826200370b565b602082019050919050565b60006020820190508181036000830152620037768162003734565b9050919050565b7f506f6f6c206973206e6f742065786973742c20706c656173652063726561746560008201527f2061206e657720706f6f6c2e0000000000000000000000000000000000000000602082015250565b6000620037db602c83620035cd565b9150620037e8826200377d565b604082019050919050565b600060208201905081810360008301526200380e81620037cc565b9050919050565b6000620038228262002eca565b91506200382f8362002eca565b9250827fffffffffffffffffffffffffffffffffffffffffffffffffffffffffffffffff03821115620038675762003866620034d6565b5b828201905092915050565b60006040820190506200388960008301856200303b565b62003898602083018462002f61565b9392505050565b600081519050620038b081620032b3565b92915050565b600060208284031215620038cf57620038ce62002ec0565b5b6000620038df848285016200389f565b91505092915050565b7f5472616e73616374696f6e206661696c65642e00000000000000000000000000600082015250565b600062003920601383620035cd565b91506200392d82620038e8565b602082019050919050565b60006020820190508181036000830152620039538162003911565b9050919050565b60006060820190506200397160008301866200303b565b6200398060208301856200303b565b6200398f604083018462002f61565b949350505050565b7f506f6f6c206973206e6f742065786973742e0000000000000000000000000000600082015250565b6000620039cf601283620035cd565b9150620039dc8262003997565b602082019050919050565b6000602082019050818103600083015262003a0281620039c0565b9050919050565b7f496e76616c696420546f6b656e20506169720000000000000000000000000000600082015250565b600062003a41601283620035cd565b915062003a4e8262003a09565b602082019050919050565b6000602082019050818103600083015262003a748162003a32565b9050919050565b60008160601b9050919050565b600062003a958262003a7b565b9050919050565b600062003aa98262003a88565b9050919050565b62003ac562003abf8262002faf565b62003a9c565b82525050565b600062003ad9828562003ab0565b60148201915062003aeb828462003ab0565b6014820191508190509392505050565b7f496e76616c6964206c697175696469747920706f6f6c2e000000000000000000600082015250565b600062003b33601783620035cd565b915062003b408262003afb565b602082019050919050565b6000602082019050818103600083015262003b668162003b24565b9050919050565b7f506f6f6c20616c72656164792065786973740000000000000000000000000000600082015250565b600062003ba5601283620035cd565b915062003bb28262003b6d565b602082019050919050565b6000602082019050818103600083015262003bd88162003b96565b9050919050565b7f4e6f7420656e6f75676820746f6b656e2061726520616c6c6f77656420746f2060008201527f706572666f726d207468697320616374696f6e2e000000000000000000000000602082015250565b600062003c3d603483620035cd565b915062003c4a8262003bdf565b604082019050919050565b6000602082019050818103600083015262003c708162003c2e565b9050919050565b600080fd5b600080fd5b6000601f19601f8301169050919050565b7f4e487b7100000000000000000000000000000000000000000000000000000000600052604160045260246000fd5b62003ccc8262003c81565b810181811067ffffffffffffffff8211171562003cee5762003ced62003c92565b5b80604052505050565b600062003d0362002eb6565b905062003d11828262003cc1565b919050565b600067ffffffffffffffff82111562003d345762003d3362003c92565b5b62003d3f8262003c81565b9050602081019050919050565b60005b8381101562003d6c57808201518184015260208101905062003d4f565b8381111562003d7c576000848401525b50505050565b600062003d9962003d938462003d16565b62003cf7565b90508281526020810184848401111562003db85762003db762003c7c565b5b62003dc584828562003d4c565b509392505050565b600082601f83011262003de55762003de462003c77565b5b815162003df784826020860162003d82565b91505092915050565b60006020828403121562003e195762003e1862002ec0565b5b600082015167ffffffffffffffff81111562003e3a5762003e3962002ec5565b5b62003e488482850162003dcd565b91505092915050565b7f4c50540000000000000000000000000000000000000000000000000000000000600082015250565b600062003e89600383620035cd565b915062003e968262003e51565b602082019050919050565b600081519050919050565b600062003eb98262003ea1565b62003ec58185620035cd565b935062003ed781856020860162003d4c565b62003ee28162003c81565b840191505092915050565b6000819050919050565b600060ff82169050919050565b6000819050919050565b600062003f2f62003f2962003f238462003eed565b62003f04565b62003ef7565b9050919050565b62003f418162003f0e565b82525050565b6000606082019050818103600083015262003f628162003e7a565b9050818103602083015262003f78818562003eac565b905062003f89604083018462003f36565b9392505050565b7f4c697175696469747920506f6f6c206e6f7420666f756e642e00000000000000600082015250565b600062003fc8601983620035cd565b915062003fd58262003f90565b602082019050919050565b6000602082019050818103600083015262003ffb8162003fb9565b9050919050565b7f4e6f7420656e6f75676820746f6b656e00000000000000000000000000000000600082015250565b60006200403a601083620035cd565b9150620040478262004002565b602082019050919050565b600060208201905081810360008301526200406d816200402b565b9050919050565b6000620040818262002eca565b91506200408e8362002eca565b925082821015620040a457620040a3620034d6565b5b828203905092915050565b7f5472616e73616374696f6e206661696c65640000000000000000000000000000600082015250565b6000620040e7601283620035cd565b9150620040f482620040af565b602082019050919050565b600060208201905081810360008301526200411a81620040d8565b9050919050565b7f4e6f7420656e6f75676820616d6f756e74000000000000000000000000000000600082015250565b600062004159601183620035cd565b9150620041668262004121565b602082019050919050565b600060208201905081810360008301526200418c816200414a565b9050919050565b600081905092915050565b6000620041ab8262003ea1565b620041b7818562004193565b9350620041c981856020860162003d4c565b80840191505092915050565b6000620041e382866200419e565b9150620041f182856200419e565b9150620041ff82846200419e565b915081905094935050505056fe60806040523480156200001157600080fd5b5060405162001af938038062001af983398181016040528101906200003791906200045d565b8282826000836000908051906020019062000054929190620001d2565b5082600190805190602001906200006d929190620001d2565b5081600260006101000a81548160ff021916908360ff1602179055508060038190555033600460006101000a81548173ffffffffffffffffffffffffffffffffffffffff021916908373ffffffffffffffffffffffffffffffffffffffff16021790555060035460056000600460009054906101000a900473ffffffffffffffffffffffffffffffffffffffff1673ffffffffffffffffffffffffffffffffffffffff1673ffffffffffffffffffffffffffffffffffffffff16815260200190815260200160002081905550600460009054906101000a900473ffffffffffffffffffffffffffffffffffffffff1673ffffffffffffffffffffffffffffffffffffffff16600073ffffffffffffffffffffffffffffffffffffffff167fddf252ad1be2c89b69c2b068fc378daa952ba7f163c4a11628f55a4df523b3ef600354604051620001bd919062000512565b60405180910390a35050505050505062000594565b828054620001e0906200055e565b90600052602060002090601f01602090048101928262000204576000855562000250565b82601f106200021f57805160ff191683800117855562000250565b8280016001018555821562000250579182015b828111156200024f57825182559160200191906001019062000232565b5b5090506200025f919062000263565b5090565b5b808211156200027e57600081600090555060010162000264565b5090565b6000604051905090565b600080fd5b600080fd5b600080fd5b600080fd5b6000601f19601f8301169050919050565b7f4e487b7100000000000000000000000000000000000000000000000000000000600052604160045260246000fd5b620002eb82620002a0565b810181811067ffffffffffffffff821117156200030d576200030c620002b1565b5b80604052505050565b60006200032262000282565b9050620003308282620002e0565b919050565b600067ffffffffffffffff821115620003535762000352620002b1565b5b6200035e82620002a0565b9050602081019050919050565b60005b838110156200038b5780820151818401526020810190506200036e565b838111156200039b576000848401525b50505050565b6000620003b8620003b28462000335565b62000316565b905082815260208101848484011115620003d757620003d66200029b565b5b620003e48482856200036b565b509392505050565b600082601f83011262000404576200040362000296565b5b815162000416848260208601620003a1565b91505092915050565b600060ff82169050919050565b62000437816200041f565b81146200044357600080fd5b50565b60008151905062000457816200042c565b92915050565b6000806000606084860312156200047957620004786200028c565b5b600084015167ffffffffffffffff8111156200049a576200049962000291565b5b620004a886828701620003ec565b935050602084015167ffffffffffffffff811115620004cc57620004cb62000291565b5b620004da86828701620003ec565b9250506040620004ed8682870162000446565b9150509250925092565b6000819050919050565b6200050c81620004f7565b82525050565b600060208201905062000529600083018462000501565b92915050565b7f4e487b7100000000000000000000000000000000000000000000000000000000600052602260045260246000fd5b600060028204905060018216806200057757607f821691505b602082108114156200058e576200058d6200052f565b5b50919050565b61155580620005a46000396000f3fe608060405234801561001057600080fd5b50600436106101005760003560e01c806395d89b4111610097578063b5931f7c11610066578063b5931f7c146102eb578063d05c78da1461031b578063dd62ed3e1461034b578063e6cb90131461037b57610100565b806395d89b411461023d5780639dc29fac1461025b578063a293d1e81461028b578063a9059cbb146102bb57610100565b8063313ce567116100d3578063313ce567146101a15780633eaaf86b146101bf57806340c10f19146101dd57806370a082311461020d57610100565b806306fdde0314610105578063095ea7b31461012357806318160ddd1461015357806323b872dd14610171575b600080fd5b61010d6103ab565b60405161011a9190610f95565b60405180910390f35b61013d60048036038101906101389190611050565b610439565b60405161014a91906110ab565b60405180910390f35b61015b61052b565b60405161016891906110d5565b60405180910390f35b61018b600480360381019061018691906110f0565b610535565b60405161019891906110ab565b60405180910390f35b6101a96107c5565b6040516101b6919061115f565b60405180910390f35b6101c76107d8565b6040516101d491906110d5565b60405180910390f35b6101f760048036038101906101f29190611050565b6107de565b60405161020491906110ab565b60405180910390f35b6102276004803603810190610222919061117a565b610950565b60405161023491906110d5565b60405180910390f35b610245610999565b6040516102529190610f95565b60405180910390f35b61027560048036038101906102709190611050565b610a27565b60405161028291906110ab565b60405180910390f35b6102a560048036038101906102a091906111a7565b610c4c565b6040516102b291906110d5565b60405180910390f35b6102d560048036038101906102d09190611050565b610c6f565b6040516102e291906110ab565b60405180910390f35b610305600480360381019061030091906111a7565b610df8565b60405161031291906110d5565b60405180910390f35b610335600480360381019061033091906111a7565b610e1a565b60405161034291906110d5565b60405180910390f35b610365600480360381019061036091906111e7565b610e52565b60405161037291906110d5565b60405180910390f35b610395600480360381019061039091906111a7565b610ed9565b6040516103a291906110d5565b60405180910390f35b600180546103b890611256565b80601f01602080910402602001604051908101604052809291908181526020018280546103e490611256565b80156104315780601f1061040657610100808354040283529160200191610431565b820191906000526020600020905b81548152906001019060200180831161041457829003601f168201915b505050505081565b600081600660003373ffffffffffffffffffffffffffffffffffffffff1673ffffffffffffffffffffffffffffffffffffffff16815260200190815260200160002060008573ffffffffffffffffffffffffffffffffffffffff1673ffffffffffffffffffffffffffffffffffffffff168152602001908152602001600020819055508273ffffffffffffffffffffffffffffffffffffffff163373ffffffffffffffffffffffffffffffffffffffff167f8c5be1e5ebec7d5bd14f71427d1e84f3dd0314c0f7b2291e5b200ac8c7c3b9258460405161051991906110d5565b60405180910390a36001905092915050565b6000600354905090565b6000610580600560008673ffffffffffffffffffffffffffffffffffffffff1673ffffffffffffffffffffffffffffffffffffffff1681526020019081526020016000205483610c4c565b600560008673ffffffffffffffffffffffffffffffffffffffff1673ffffffffffffffffffffffffffffffffffffffff16815260200190815260200160002081905550610649600660008673ffffffffffffffffffffffffffffffffffffffff1673ffffffffffffffffffffffffffffffffffffffff16815260200190815260200160002060003373ffffffffffffffffffffffffffffffffffffffff1673ffffffffffffffffffffffffffffffffffffffff1681526020019081526020016000205483610c4c565b600660008673ffffffffffffffffffffffffffffffffffffffff1673ffffffffffffffffffffffffffffffffffffffff16815260200190815260200160002060003373ffffffffffffffffffffffffffffffffffffffff1673ffffffffffffffffffffffffffffffffffffffff16815260200190815260200160002081905550610712600560008573ffffffffffffffffffffffffffffffffffffffff1673ffffffffffffffffffffffffffffffffffffffff1681526020019081526020016000205483610ed9565b600560008573ffffffffffffffffffffffffffffffffffffffff1673ffffffffffffffffffffffffffffffffffffffff168152602001908152602001600020819055508273ffffffffffffffffffffffffffffffffffffffff168473ffffffffffffffffffffffffffffffffffffffff167fddf252ad1be2c89b69c2b068fc378daa952ba7f163c4a11628f55a4df523b3ef846040516107b291906110d5565b60405180910390a3600190509392505050565b600260009054906101000a900460ff1681565b60035481565b6000338073ffffffffffffffffffffffffffffffffffffffff16600460009054906101000a900473ffffffffffffffffffffffffffffffffffffffff1673ffffffffffffffffffffffffffffffffffffffff161461083b57600080fd5b826003600082825461084d91906112b7565b9250508190555061089d600560008673ffffffffffffffffffffffffffffffffffffffff1673ffffffffffffffffffffffffffffffffffffffff1681526020019081526020016000205484610ed9565b600560008673ffffffffffffffffffffffffffffffffffffffff1673ffffffffffffffffffffffffffffffffffffffff168152602001908152602001600020819055508373ffffffffffffffffffffffffffffffffffffffff163373ffffffffffffffffffffffffffffffffffffffff167fddf252ad1be2c89b69c2b068fc378daa952ba7f163c4a11628f55a4df523b3ef8560405161093d91906110d5565b60405180910390a3600191505092915050565b6000600560008373ffffffffffffffffffffffffffffffffffffffff1673ffffffffffffffffffffffffffffffffffffffff168152602001908152602001600020549050919050565b600080546109a690611256565b80601f01602080910402602001604051908101604052809291908181526020018280546109d290611256565b8015610a1f5780601f106109f457610100808354040283529160200191610a1f565b820191906000526020600020905b815481529060010190602001808311610a0257829003601f168201915b505050505081565b6000338073ffffffffffffffffffffffffffffffffffffffff16600460009054906101000a900473ffffffffffffffffffffffffffffffffffffffff1673ffffffffffffffffffffffffffffffffffffffff1614610a8457600080fd5b600073ffffffffffffffffffffffffffffffffffffffff168473ffffffffffffffffffffffffffffffffffffffff161415610af4576040517f08c379a0000000000000000000000000000000000000000000000000000000008152600401610aeb9061137f565b60405180910390fd5b6000600560008673ffffffffffffffffffffffffffffffffffffffff1673ffffffffffffffffffffffffffffffffffffffff16815260200190815260200160002054905083811015610b7b576040517f08c379a0000000000000000000000000000000000000000000000000000000008152600401610b7290611411565b60405180910390fd5b610b858185610c4c565b600560008773ffffffffffffffffffffffffffffffffffffffff1673ffffffffffffffffffffffffffffffffffffffff16815260200190815260200160002081905550610bd460035485610c4c565b600381905550600073ffffffffffffffffffffffffffffffffffffffff168573ffffffffffffffffffffffffffffffffffffffff167fddf252ad1be2c89b69c2b068fc378daa952ba7f163c4a11628f55a4df523b3ef86604051610c3891906110d5565b60405180910390a360019250505092915050565b600082821115610c5b57600080fd5b8183610c679190611431565b905092915050565b6000610cba600560003373ffffffffffffffffffffffffffffffffffffffff1673ffffffffffffffffffffffffffffffffffffffff1681526020019081526020016000205483610c4c565b600560003373ffffffffffffffffffffffffffffffffffffffff1673ffffffffffffffffffffffffffffffffffffffff16815260200190815260200160002081905550610d46600560008573ffffffffffffffffffffffffffffffffffffffff1673ffffffffffffffffffffffffffffffffffffffff1681526020019081526020016000205483610ed9565b600560008573ffffffffffffffffffffffffffffffffffffffff1673ffffffffffffffffffffffffffffffffffffffff168152602001908152602001600020819055508273ffffffffffffffffffffffffffffffffffffffff163373ffffffffffffffffffffffffffffffffffffffff167fddf252ad1be2c89b69c2b068fc378daa952ba7f163c4a11628f55a4df523b3ef84604051610de691906110d5565b60405180910390a36001905092915050565b6000808211610e0657600080fd5b8183610e129190611494565b905092915050565b60008183610e2891906114c5565b90506000831480610e435750818382610e419190611494565b145b610e4c57600080fd5b92915050565b6000600660008473ffffffffffffffffffffffffffffffffffffffff1673ffffffffffffffffffffffffffffffffffffffff16815260200190815260200160002060008373ffffffffffffffffffffffffffffffffffffffff1673ffffffffffffffffffffffffffffffffffffffff16815260200190815260200160002054905092915050565b60008183610ee791906112b7565b905082811015610ef657600080fd5b92915050565b600081519050919050565b600082825260208201905092915050565b60005b83811015610f36578082015181840152602081019050610f1b565b83811115610f45576000848401525b50505050565b6000601f19601f8301169050919050565b6000610f6782610efc565b610f718185610f07565b9350610f81818560208601610f18565b610f8a81610f4b565b840191505092915050565b60006020820190508181036000830152610faf8184610f5c565b905092915050565b600080fd5b600073ffffffffffffffffffffffffffffffffffffffff82169050919050565b6000610fe782610fbc565b9050919050565b610ff781610fdc565b811461100257600080fd5b50565b60008135905061101481610fee565b92915050565b6000819050919050565b61102d8161101a565b811461103857600080fd5b50565b60008135905061104a81611024565b92915050565b6000806040838503121561106757611066610fb7565b5b600061107585828601611005565b92505060206110868582860161103b565b9150509250929050565b60008115159050919050565b6110a581611090565b82525050565b60006020820190506110c0600083018461109c565b92915050565b6110cf8161101a565b82525050565b60006020820190506110ea60008301846110c6565b92915050565b60008060006060848603121561110957611108610fb7565b5b600061111786828701611005565b935050602061112886828701611005565b92505060406111398682870161103b565b9150509250925092565b600060ff82169050919050565b61115981611143565b82525050565b60006020820190506111746000830184611150565b92915050565b6000602082840312156111905761118f610fb7565b5b600061119e84828501611005565b91505092915050565b600080604083850312156111be576111bd610fb7565b5b60006111cc8582860161103b565b92505060206111dd8582860161103b565b9150509250929050565b600080604083850312156111fe576111fd610fb7565b5b600061120c85828601611005565b925050602061121d85828601611005565b9150509250929050565b7f4e487b7100000000000000000000000000000000000000000000000000000000600052602260045260246000fd5b6000600282049050600182168061126e57607f821691505b6020821081141561128257611281611227565b5b50919050565b7f4e487b7100000000000000000000000000000000000000000000000000000000600052601160045260246000fd5b60006112c28261101a565b91506112cd8361101a565b9250827fffffffffffffffffffffffffffffffffffffffffffffffffffffffffffffffff0382111561130257611301611288565b5b828201905092915050565b7f45524332303a206275726e2066726f6d20746865207a65726f2061646472657360008201527f7300000000000000000000000000000000000000000000000000000000000000602082015250565b6000611369602183610f07565b91506113748261130d565b604082019050919050565b600060208201905081810360008301526113988161135c565b9050919050565b7f45524332303a206275726e20616d6f756e7420657863656564732062616c616e60008201527f6365000000000000000000000000000000000000000000000000000000000000602082015250565b60006113fb602283610f07565b91506114068261139f565b604082019050919050565b6000602082019050818103600083015261142a816113ee565b9050919050565b600061143c8261101a565b91506114478361101a565b92508282101561145a57611459611288565b5b828203905092915050565b7f4e487b7100000000000000000000000000000000000000000000000000000000600052601260045260246000fd5b600061149f8261101a565b91506114aa8361101a565b9250826114ba576114b9611465565b5b828204905092915050565b60006114d08261101a565b91506114db8361101a565b9250817fffffffffffffffffffffffffffffffffffffffffffffffffffffffffffffffff048311821515161561151457611513611288565b5b82820290509291505056fea26469706673582212205bcc85e670f793b72093c1d1ae580b1f9e04c9aec846c969e8a6ed82ac7bf4be64736f6c634300080a0033a2646970667358221220a0339f1573ddb386ddad34795252cb5c9f219239d7c032c82a07b4441f6a69e764736f6c634300080a0033",
  "immutableReferences": {},
  "source": "//SPDX-License-Identifier:MIT\r\npragma solidity ^0.8.0;\r\n\r\nimport \"./token.sol\";\r\n//import \"hardhat/console.sol\";\r\n\r\ncontract dex{\r\n    struct Pool{\r\n        address poolToken;\r\n        address token1;\r\n        address token2;\r\n        uint256 token1Balance;\r\n        uint256 token2Balance;                      \r\n        bool isAdded;\r\n    }\r\n\r\n    mapping(address => Pool) public liquidityPool;\r\n    address private owner;        \r\n\r\n    constructor(){                                                                          \r\n        owner = msg.sender;\r\n    }\r\n\r\n    function checkBalances(address token, uint amount)public view returns(bool){\r\n        return ERC20Interface(token).balanceOf(msg.sender) >= amount;\r\n    }\r\n\r\n    function isPoolExist(address tokenA, address tokenB)public view returns(bool,address){\r\n        require(tokenA != tokenB,\"Invalid Token Pair\");\r\n        address poolId = generatePoolId(tokenA,tokenB);\r\n        return (isPoolExist(poolId),poolId);\r\n    }\r\n\r\n    //END\r\n\r\n    //Or Connect To Token Contract Via FrontEnd\r\n    function getLPTokenAddress(address pool)public view returns(address) {\r\n        require(isPoolExist(pool),\"Invalid Pool\");\r\n        Pool memory poolSelected = liquidityPool[pool];\r\n        return poolSelected.poolToken;        \r\n    }\r\n    \r\n    function fundLiquidityPool(address payable token1, address payable token2, uint token1Amount) public payable returns(address){\r\n        require(token1 != token2,\"Invalid pool\");    \r\n        address poolAddress = generatePoolId(token1,token2);\r\n        require(isPoolExist(poolAddress),\"Pool is not exist, please create a new pool.\");        \r\n        \r\n        uint token2Amount = computePrice(liquidityPool[poolAddress].token1Balance,liquidityPool[poolAddress].token2Balance,token1Amount);  \r\n\r\n        liquidityPool[poolAddress].token2Balance += token2Amount;\r\n        liquidityPool[poolAddress].token1Balance += token1Amount;\r\n\r\n        //Add liquidity\r\n        ERC20Interface poolToken = ERC20Interface(liquidityPool[poolAddress].poolToken);\r\n        \r\n        uint tokenReceived = calculateLPToken(false,token1Amount,token2Amount,liquidityPool[poolAddress].token1Balance,liquidityPool[poolAddress].token2Balance,poolToken.totalSupply());\r\n              \r\n        require(poolToken.mint(msg.sender,tokenReceived),\"Transaction failed.\");\r\n        //require(poolToken.transfer(msg.sender,tokenReceived),\"Transaction failed.\");\r\n\r\n        ERC20Interface tokenA = ERC20Interface(token1);\r\n        ERC20Interface tokenB = ERC20Interface(token2);\r\n\r\n        tokenA.transferFrom(msg.sender, address(this),token1Amount);\r\n        tokenB.transferFrom(msg.sender, address(this),token2Amount);\r\n        return poolAddress;\r\n    }\r\n\r\n    function addLiquidityPool(address payable token1, address payable token2, uint token1Amount, uint token2Amount) public payable returns(address,address){\r\n        require(token1 != token2,\"Invalid liquidity pool.\");\r\n        address poolAddress = generatePoolId(token1,token2);\r\n\r\n        require(!liquidityPool[poolAddress].isAdded,\"Pool already exist\");\r\n        //need to call approve first\r\n        ERC20Interface tokenA = ERC20Interface(token1);\r\n        ERC20Interface tokenB = ERC20Interface(token2);\r\n\r\n        require(tokenA.allowance(msg.sender, address(this)) >= token1Amount,\"Not enough token are allowed to perform this action.\");        \r\n        require(tokenB.allowance(msg.sender,address(this)) >= token2Amount, \"Not enough token are allowed to perform this action.\");\r\n\r\n        //console.log(\"Progress\", \"Gained Approval\");\r\n        \r\n        require(tokenA.transferFrom(msg.sender,address(this),token1Amount),\"Transaction failed.\");\r\n        require(tokenB.transferFrom(msg.sender,address(this),token2Amount),\"Transaction failed.\");\r\n        //console.log(\"Progress\", \"Token Transfer completed\");\r\n\r\n        MintableToken poolToken = new MintableToken(\"LPT\",concat(tokenA.symbol(),\"-\",tokenB.symbol()),8);        \r\n        \r\n        uint tokenReceived = calculateLPToken(true,token1Amount,token2Amount,0,0,poolToken.totalSupply()); //By Default Pool is empty\r\n        liquidityPool[poolAddress] = Pool(address(poolToken),token1,token2,token1Amount,token2Amount,true);        \r\n        require(poolToken.mint(msg.sender,tokenReceived),\"Transaction failed.\");\r\n        \r\n        //console.log(\"Progress\", \"Liquidity Pool created.\");\r\n        return (poolAddress,address(poolToken));\r\n    }\r\n\r\n    function convertLPTokenToToken(uint lpAmount, uint totalSupply, uint tokenReserve)public pure returns(uint){\r\n        return tokenReserve * lpAmount / totalSupply;\r\n    }\r\n\r\n    function withdrawFund(address pool, uint amount)public payable returns(uint,uint){   \r\n        ERC20Interface poolToken = ERC20Interface(liquidityPool[pool].poolToken);\r\n        require(poolToken.balanceOf(msg.sender) >= amount,\"Not enough amount\");\r\n    \r\n        uint token1Received = convertLPTokenToToken(amount,poolToken.totalSupply(),liquidityPool[pool].token1Balance);\r\n        uint token2Received = convertLPTokenToToken(amount,poolToken.totalSupply(),liquidityPool[pool].token2Balance);        \r\n\r\n        liquidityPool[pool].token1Balance -= token1Received;\r\n        liquidityPool[pool].token2Balance -= token2Received;  \r\n\r\n        ERC20Interface tokenA = ERC20Interface(liquidityPool[pool].token1);\r\n        ERC20Interface tokenB = ERC20Interface(liquidityPool[pool].token2);\r\n\r\n        require(tokenA.transfer(msg.sender,token1Received),\"Transaction failed.\");\r\n        require(tokenB.transfer(msg.sender,token2Received),\"Transaction failed.\");\r\n\r\n        require(poolToken.burn(msg.sender,amount));                \r\n        return (token1Received,token2Received);       \r\n    }\r\n\r\n    function isPoolExist(address _address) private view returns(bool){\r\n        Pool memory pool = liquidityPool[_address];\r\n        return pool.isAdded;        \r\n    }\r\n\r\n    //PURE FUNCTION\r\n    //Retrieve amount of y \r\n    function computePrice(uint256 x, uint256 y, uint256 amount) public pure returns(uint256){\r\n        if(x == 0 && y == 0){   \r\n            return amount;\r\n        }\r\n        else{\r\n            return amount * x / y;     \r\n        }        \r\n    }\r\n\r\n    function generatePoolId(address tokenA, address tokenB) public pure returns (address){\r\n        (address token0, address token1) = tokenA < tokenB ? (tokenA, tokenB) : (tokenB, tokenA);        \r\n        return address(uint160(uint256(keccak256(abi.encodePacked(token0, token1)))));  \r\n    }\r\n\r\n    \r\n    function calculateInterest(uint tokenAmount,uint poolAmount,uint accumulatedInterest)public pure returns(uint){\r\n        return tokenAmount * accumulatedInterest / poolAmount;        \r\n    }\r\n\r\n    function calculateLPToken(bool isInitiator, uint token1Amount, uint token2Amount, uint token1Reserve, uint token2Reserve, uint totalSupply)public pure returns(uint){\r\n        if(!isInitiator){\r\n            uint resultA = token1Amount * totalSupply / token1Reserve;\r\n            uint resultB = token2Amount * totalSupply / token2Reserve;\r\n            return resultA > resultB ? resultB : resultA;\r\n        }\r\n        else{\r\n            return sqrt(token1Amount * token2Amount);\r\n        }\r\n    }\r\n\r\n    function sqrt(uint y) internal pure returns (uint z) {\r\n        if (y > 3) {\r\n            z = y;\r\n            uint x = y / 2 + 1;\r\n            while (x < z) {\r\n                z = x;\r\n                x = (y / x + x) / 2;\r\n            }\r\n        } else if (y != 0) {\r\n            z = 1;\r\n        }\r\n    }\r\n\r\n    modifier onlyOwner(address sender){\r\n        require(sender == owner,\"Only owner able to execute this action.\");\r\n        _;\r\n    }\r\n\r\n    function swap(address fromToken, address toToken, uint256 tokenX) public payable{\r\n        //Step 1: Select pool\r\n        address poolID = generatePoolId(fromToken, toToken);\r\n        require(liquidityPool[poolID].isAdded,\"Liquidity Pool not found.\");\r\n\r\n        //Step 2: Calculate K (here got no K value, we calculate manually)\r\n        uint k = liquidityPool[poolID].token1Balance * liquidityPool[poolID].token2Balance;\r\n\r\n        //Step 3: SWAP_X_to_Y        \r\n        ERC20Interface tokenFrom = ERC20Interface(fromToken);\r\n        ERC20Interface tokenTo = ERC20Interface(toToken);\r\n\r\n        require(tokenX <= tokenFrom.allowance(msg.sender,address(this)),\"Not enough token\");\r\n\r\n        //Step 3.1: Calculate different between y-(k/x)\r\n        uint difference = liquidityPool[poolID].token2Balance - (k/(liquidityPool[poolID].token1Balance+tokenX));\r\n                \r\n        //Step 3.2: Transfer the amount of difference from pool to user account\r\n        require(tokenTo.transfer(msg.sender, difference),\"Transaction failed.\"); //transfer\r\n\r\n        //Step 3.3: Transfer amount of TokenX (fromToken) from user account to pool\r\n        require(tokenFrom.transferFrom(msg.sender, address(this), tokenX),\"Transaction failed\"); //transferfrom\r\n            \r\n\t    //Step 3.4: update pool's token value\r\n        liquidityPool[poolID].token1Balance += tokenX; //plus because we add in the tokenX into Pool\r\n        liquidityPool[poolID].token2Balance -= difference; //minus because we already take the tokenY        \r\n    }\r\n\r\n    function estSwap(address fromToken,address toToken, uint256 tokenX)public view returns(uint){\r\n        address poolID = generatePoolId(fromToken, toToken);\r\n        require(liquidityPool[poolID].isAdded,\"Liquidity Pool not found.\");\r\n        \r\n        uint k = liquidityPool[poolID].token1Balance * liquidityPool[poolID].token2Balance;\r\n                \r\n        uint difference = liquidityPool[poolID].token2Balance - (k/(liquidityPool[poolID].token1Balance+tokenX));\r\n        return difference;\r\n    }\r\n\r\n    function estFundPool(address tokenA, address tokenB, uint amount)public view returns(uint amount2,address token2, uint share){\r\n        require(tokenA != tokenB,\"Invalid Pool\");\r\n        address poolAddress = generatePoolId(tokenA,tokenB);\r\n        require(isPoolExist(poolAddress),\"Pool is not exist.\");        \r\n        \r\n        uint token2Amount = computePrice(liquidityPool[poolAddress].token1Balance,liquidityPool[poolAddress].token2Balance,amount);  \r\n\r\n        ERC20Interface poolToken = ERC20Interface(liquidityPool[poolAddress].poolToken);\r\n        uint tokenReceived = calculateLPToken(false,amount,token2Amount,liquidityPool[poolAddress].token1Balance,liquidityPool[poolAddress].token2Balance,poolToken.totalSupply());\r\n\r\n        return (token2Amount,tokenB,tokenReceived * 1000 / poolToken.totalSupply());\r\n        //Return Amount Need To import for B, Address of B, And share in percentage (0 stands for < 0.01%)\r\n    }\r\n\r\n    function estWithdrawFund(address pool, uint amount)public view returns(uint amount1,uint amount2,address token1,address token2){\r\n        require(isPoolExist(pool),\"Invalid Pool.\");\r\n        \r\n        ERC20Interface poolToken = ERC20Interface(liquidityPool[pool].poolToken);\r\n    \r\n        uint token1Received = convertLPTokenToToken(amount,poolToken.totalSupply(),liquidityPool[pool].token1Balance);\r\n        uint token2Received = convertLPTokenToToken(amount,poolToken.totalSupply(),liquidityPool[pool].token2Balance);        \r\n              \r\n        return (token1Received,token2Received,liquidityPool[pool].token1,liquidityPool[pool].token2);\r\n    }\r\n\r\n    function concat(string memory a, string memory b, string memory c)private pure returns(string memory){\r\n        return string(abi.encodePacked(a, b,c));\r\n    }    \r\n}\r\n",
  "sourcePath": "B:\\Degree Material\\Year 3 Sem 2\\Block Chain Application\\Assignment\\Dex Platform\\contracts\\dex.sol",
  "compiler": {
    "name": "solc",
    "version": "0.8.10+commit.fc410830.Emscripten.clang"
  },
  "schemaVersion": "3.4.3",
  "updatedAt": "2021-12-09T04:15:52.839Z",
  "networkType": "ethereum",
  "devdoc": {
    "kind": "dev",
    "methods": {},
    "version": 1
  },
  "userdoc": {
    "kind": "user",
    "methods": {},
    "version": 1
  }
}