{
  "contractName": "Token",
  "abi": [
    {
      "inputs": [
        {
          "internalType": "string",
          "name": "_symbol",
          "type": "string"
        },
        {
          "internalType": "string",
          "name": "_name",
          "type": "string"
        },
        {
          "internalType": "uint8",
          "name": "_decimal",
          "type": "uint8"
        },
        {
          "internalType": "uint256",
          "name": "_total",
          "type": "uint256"
        }
      ],
      "stateMutability": "nonpayable",
      "type": "constructor"
    },
    {
      "anonymous": false,
      "inputs": [
        {
          "indexed": true,
          "internalType": "address",
          "name": "tokenOwner",
          "type": "address"
        },
        {
          "indexed": true,
          "internalType": "address",
          "name": "spender",
          "type": "address"
        },
        {
          "indexed": false,
          "internalType": "uint256",
          "name": "tokens",
          "type": "uint256"
        }
      ],
      "name": "Approval",
      "type": "event"
    },
    {
      "anonymous": false,
      "inputs": [
        {
          "indexed": true,
          "internalType": "address",
          "name": "from",
          "type": "address"
        },
        {
          "indexed": true,
          "internalType": "address",
          "name": "to",
          "type": "address"
        },
        {
          "indexed": false,
          "internalType": "uint256",
          "name": "tokens",
          "type": "uint256"
        }
      ],
      "name": "Transfer",
      "type": "event"
    },
    {
      "inputs": [],
      "name": "_totalSupply",
      "outputs": [
        {
          "internalType": "uint256",
          "name": "",
          "type": "uint256"
        }
      ],
      "stateMutability": "view",
      "type": "function"
    },
    {
      "inputs": [],
      "name": "decimals",
      "outputs": [
        {
          "internalType": "uint8",
          "name": "",
          "type": "uint8"
        }
      ],
      "stateMutability": "view",
      "type": "function"
    },
    {
      "inputs": [],
      "name": "name",
      "outputs": [
        {
          "internalType": "string",
          "name": "",
          "type": "string"
        }
      ],
      "stateMutability": "view",
      "type": "function"
    },
    {
      "inputs": [
        {
          "internalType": "uint256",
          "name": "a",
          "type": "uint256"
        },
        {
          "internalType": "uint256",
          "name": "b",
          "type": "uint256"
        }
      ],
      "name": "safeAdd",
      "outputs": [
        {
          "internalType": "uint256",
          "name": "c",
          "type": "uint256"
        }
      ],
      "stateMutability": "pure",
      "type": "function"
    },
    {
      "inputs": [
        {
          "internalType": "uint256",
          "name": "a",
          "type": "uint256"
        },
        {
          "internalType": "uint256",
          "name": "b",
          "type": "uint256"
        }
      ],
      "name": "safeDiv",
      "outputs": [
        {
          "internalType": "uint256",
          "name": "c",
          "type": "uint256"
        }
      ],
      "stateMutability": "pure",
      "type": "function"
    },
    {
      "inputs": [
        {
          "internalType": "uint256",
          "name": "a",
          "type": "uint256"
        },
        {
          "internalType": "uint256",
          "name": "b",
          "type": "uint256"
        }
      ],
      "name": "safeMul",
      "outputs": [
        {
          "internalType": "uint256",
          "name": "c",
          "type": "uint256"
        }
      ],
      "stateMutability": "pure",
      "type": "function"
    },
    {
      "inputs": [
        {
          "internalType": "uint256",
          "name": "a",
          "type": "uint256"
        },
        {
          "internalType": "uint256",
          "name": "b",
          "type": "uint256"
        }
      ],
      "name": "safeSub",
      "outputs": [
        {
          "internalType": "uint256",
          "name": "c",
          "type": "uint256"
        }
      ],
      "stateMutability": "pure",
      "type": "function"
    },
    {
      "inputs": [],
      "name": "symbol",
      "outputs": [
        {
          "internalType": "string",
          "name": "",
          "type": "string"
        }
      ],
      "stateMutability": "view",
      "type": "function"
    },
    {
      "inputs": [],
      "name": "totalSupply",
      "outputs": [
        {
          "internalType": "uint256",
          "name": "",
          "type": "uint256"
        }
      ],
      "stateMutability": "view",
      "type": "function"
    },
    {
      "inputs": [
        {
          "internalType": "address",
          "name": "tokenOwner",
          "type": "address"
        }
      ],
      "name": "balanceOf",
      "outputs": [
        {
          "internalType": "uint256",
          "name": "",
          "type": "uint256"
        }
      ],
      "stateMutability": "view",
      "type": "function"
    },
    {
      "inputs": [
        {
          "internalType": "address",
          "name": "to",
          "type": "address"
        },
        {
          "internalType": "uint256",
          "name": "tokens",
          "type": "uint256"
        }
      ],
      "name": "transfer",
      "outputs": [
        {
          "internalType": "bool",
          "name": "",
          "type": "bool"
        }
      ],
      "stateMutability": "nonpayable",
      "type": "function"
    },
    {
      "inputs": [
        {
          "internalType": "address",
          "name": "spender",
          "type": "address"
        },
        {
          "internalType": "uint256",
          "name": "tokens",
          "type": "uint256"
        }
      ],
      "name": "approve",
      "outputs": [
        {
          "internalType": "bool",
          "name": "",
          "type": "bool"
        }
      ],
      "stateMutability": "nonpayable",
      "type": "function"
    },
    {
      "inputs": [
        {
          "internalType": "address",
          "name": "from",
          "type": "address"
        },
        {
          "internalType": "address",
          "name": "to",
          "type": "address"
        },
        {
          "internalType": "uint256",
          "name": "tokens",
          "type": "uint256"
        }
      ],
      "name": "transferFrom",
      "outputs": [
        {
          "internalType": "bool",
          "name": "",
          "type": "bool"
        }
      ],
      "stateMutability": "nonpayable",
      "type": "function"
    },
    {
      "inputs": [
        {
          "internalType": "address",
          "name": "tokenOwner",
          "type": "address"
        },
        {
          "internalType": "address",
          "name": "spender",
          "type": "address"
        }
      ],
      "name": "allowance",
      "outputs": [
        {
          "internalType": "uint256",
          "name": "",
          "type": "uint256"
        }
      ],
      "stateMutability": "view",
      "type": "function"
    },
    {
      "inputs": [
        {
          "internalType": "address",
          "name": "account",
          "type": "address"
        },
        {
          "internalType": "uint256",
          "name": "amount",
          "type": "uint256"
        }
      ],
      "name": "burn",
      "outputs": [
        {
          "internalType": "bool",
          "name": "",
          "type": "bool"
        }
      ],
      "stateMutability": "nonpayable",
      "type": "function"
    },
    {
      "inputs": [
        {
          "internalType": "address",
          "name": "",
          "type": "address"
        },
        {
          "internalType": "uint256",
          "name": "",
          "type": "uint256"
        }
      ],
      "name": "mint",
      "outputs": [
        {
          "internalType": "bool",
          "name": "",
          "type": "bool"
        }
      ],
      "stateMutability": "nonpayable",
      "type": "function"
    }
  ],
  "bytecode": "0x60806040523480156200001157600080fd5b5060405162001adb38038062001adb833981810160405281019062000037919062000490565b83600090805190602001906200004f929190620001ca565b50826001908051906020019062000068929190620001ca565b5081600260006101000a81548160ff021916908360ff1602179055508060038190555033600460006101000a81548173ffffffffffffffffffffffffffffffffffffffff021916908373ffffffffffffffffffffffffffffffffffffffff16021790555060035460056000600460009054906101000a900473ffffffffffffffffffffffffffffffffffffffff1673ffffffffffffffffffffffffffffffffffffffff1673ffffffffffffffffffffffffffffffffffffffff16815260200190815260200160002081905550600460009054906101000a900473ffffffffffffffffffffffffffffffffffffffff1673ffffffffffffffffffffffffffffffffffffffff16600073ffffffffffffffffffffffffffffffffffffffff167fddf252ad1be2c89b69c2b068fc378daa952ba7f163c4a11628f55a4df523b3ef600354604051620001b8919062000551565b60405180910390a350505050620005d3565b828054620001d8906200059d565b90600052602060002090601f016020900481019282620001fc576000855562000248565b82601f106200021757805160ff191683800117855562000248565b8280016001018555821562000248579182015b82811115620002475782518255916020019190600101906200022a565b5b5090506200025791906200025b565b5090565b5b80821115620002765760008160009055506001016200025c565b5090565b6000604051905090565b600080fd5b600080fd5b600080fd5b600080fd5b6000601f19601f8301169050919050565b7f4e487b7100000000000000000000000000000000000000000000000000000000600052604160045260246000fd5b620002e38262000298565b810181811067ffffffffffffffff82111715620003055762000304620002a9565b5b80604052505050565b60006200031a6200027a565b9050620003288282620002d8565b919050565b600067ffffffffffffffff8211156200034b576200034a620002a9565b5b620003568262000298565b9050602081019050919050565b60005b838110156200038357808201518184015260208101905062000366565b8381111562000393576000848401525b50505050565b6000620003b0620003aa846200032d565b6200030e565b905082815260208101848484011115620003cf57620003ce62000293565b5b620003dc84828562000363565b509392505050565b600082601f830112620003fc57620003fb6200028e565b5b81516200040e84826020860162000399565b91505092915050565b600060ff82169050919050565b6200042f8162000417565b81146200043b57600080fd5b50565b6000815190506200044f8162000424565b92915050565b6000819050919050565b6200046a8162000455565b81146200047657600080fd5b50565b6000815190506200048a816200045f565b92915050565b60008060008060808587031215620004ad57620004ac62000284565b5b600085015167ffffffffffffffff811115620004ce57620004cd62000289565b5b620004dc87828801620003e4565b945050602085015167ffffffffffffffff8111156200050057620004ff62000289565b5b6200050e87828801620003e4565b935050604062000521878288016200043e565b9250506060620005348782880162000479565b91505092959194509250565b6200054b8162000455565b82525050565b600060208201905062000568600083018462000540565b92915050565b7f4e487b7100000000000000000000000000000000000000000000000000000000600052602260045260246000fd5b60006002820490506001821680620005b657607f821691505b60208210811415620005cd57620005cc6200056e565b5b50919050565b6114f880620005e36000396000f3fe608060405234801561001057600080fd5b50600436106101005760003560e01c806395d89b4111610097578063b5931f7c11610066578063b5931f7c146102eb578063d05c78da1461031b578063dd62ed3e1461034b578063e6cb90131461037b57610100565b806395d89b411461023d5780639dc29fac1461025b578063a293d1e81461028b578063a9059cbb146102bb57610100565b8063313ce567116100d3578063313ce567146101a15780633eaaf86b146101bf57806340c10f19146101dd57806370a082311461020d57610100565b806306fdde0314610105578063095ea7b31461012357806318160ddd1461015357806323b872dd14610171575b600080fd5b61010d6103ab565b60405161011a9190610ecc565b60405180910390f35b61013d60048036038101906101389190610f87565b610439565b60405161014a9190610fe2565b60405180910390f35b61015b61052b565b604051610168919061100c565b60405180910390f35b61018b60048036038101906101869190611027565b610535565b6040516101989190610fe2565b60405180910390f35b6101a96107c5565b6040516101b69190611096565b60405180910390f35b6101c76107d8565b6040516101d4919061100c565b60405180910390f35b6101f760048036038101906101f29190610f87565b6107de565b6040516102049190610fe2565b60405180910390f35b610227600480360381019061022291906110b1565b610887565b604051610234919061100c565b60405180910390f35b6102456108d0565b6040516102529190610ecc565b60405180910390f35b61027560048036038101906102709190610f87565b61095e565b6040516102829190610fe2565b60405180910390f35b6102a560048036038101906102a091906110de565b610b83565b6040516102b2919061100c565b60405180910390f35b6102d560048036038101906102d09190610f87565b610ba6565b6040516102e29190610fe2565b60405180910390f35b610305600480360381019061030091906110de565b610d2f565b604051610312919061100c565b60405180910390f35b610335600480360381019061033091906110de565b610d51565b604051610342919061100c565b60405180910390f35b6103656004803603810190610360919061111e565b610d89565b604051610372919061100c565b60405180910390f35b610395600480360381019061039091906110de565b610e10565b6040516103a2919061100c565b60405180910390f35b600180546103b89061118d565b80601f01602080910402602001604051908101604052809291908181526020018280546103e49061118d565b80156104315780601f1061040657610100808354040283529160200191610431565b820191906000526020600020905b81548152906001019060200180831161041457829003601f168201915b505050505081565b600081600660003373ffffffffffffffffffffffffffffffffffffffff1673ffffffffffffffffffffffffffffffffffffffff16815260200190815260200160002060008573ffffffffffffffffffffffffffffffffffffffff1673ffffffffffffffffffffffffffffffffffffffff168152602001908152602001600020819055508273ffffffffffffffffffffffffffffffffffffffff163373ffffffffffffffffffffffffffffffffffffffff167f8c5be1e5ebec7d5bd14f71427d1e84f3dd0314c0f7b2291e5b200ac8c7c3b92584604051610519919061100c565b60405180910390a36001905092915050565b6000600354905090565b6000610580600560008673ffffffffffffffffffffffffffffffffffffffff1673ffffffffffffffffffffffffffffffffffffffff1681526020019081526020016000205483610b83565b600560008673ffffffffffffffffffffffffffffffffffffffff1673ffffffffffffffffffffffffffffffffffffffff16815260200190815260200160002081905550610649600660008673ffffffffffffffffffffffffffffffffffffffff1673ffffffffffffffffffffffffffffffffffffffff16815260200190815260200160002060003373ffffffffffffffffffffffffffffffffffffffff1673ffffffffffffffffffffffffffffffffffffffff1681526020019081526020016000205483610b83565b600660008673ffffffffffffffffffffffffffffffffffffffff1673ffffffffffffffffffffffffffffffffffffffff16815260200190815260200160002060003373ffffffffffffffffffffffffffffffffffffffff1673ffffffffffffffffffffffffffffffffffffffff16815260200190815260200160002081905550610712600560008573ffffffffffffffffffffffffffffffffffffffff1673ffffffffffffffffffffffffffffffffffffffff1681526020019081526020016000205483610e10565b600560008573ffffffffffffffffffffffffffffffffffffffff1673ffffffffffffffffffffffffffffffffffffffff168152602001908152602001600020819055508273ffffffffffffffffffffffffffffffffffffffff168473ffffffffffffffffffffffffffffffffffffffff167fddf252ad1be2c89b69c2b068fc378daa952ba7f163c4a11628f55a4df523b3ef846040516107b2919061100c565b60405180910390a3600190509392505050565b600260009054906101000a900460ff1681565b60035481565b6000338073ffffffffffffffffffffffffffffffffffffffff16600460009054906101000a900473ffffffffffffffffffffffffffffffffffffffff1673ffffffffffffffffffffffffffffffffffffffff161461083b57600080fd5b600061087c576040517f08c379a00000000000000000000000000000000000000000000000000000000081526004016108739061120b565b60405180910390fd5b600091505092915050565b6000600560008373ffffffffffffffffffffffffffffffffffffffff1673ffffffffffffffffffffffffffffffffffffffff168152602001908152602001600020549050919050565b600080546108dd9061118d565b80601f01602080910402602001604051908101604052809291908181526020018280546109099061118d565b80156109565780601f1061092b57610100808354040283529160200191610956565b820191906000526020600020905b81548152906001019060200180831161093957829003601f168201915b505050505081565b6000338073ffffffffffffffffffffffffffffffffffffffff16600460009054906101000a900473ffffffffffffffffffffffffffffffffffffffff1673ffffffffffffffffffffffffffffffffffffffff16146109bb57600080fd5b600073ffffffffffffffffffffffffffffffffffffffff168473ffffffffffffffffffffffffffffffffffffffff161415610a2b576040517f08c379a0000000000000000000000000000000000000000000000000000000008152600401610a229061129d565b60405180910390fd5b6000600560008673ffffffffffffffffffffffffffffffffffffffff1673ffffffffffffffffffffffffffffffffffffffff16815260200190815260200160002054905083811015610ab2576040517f08c379a0000000000000000000000000000000000000000000000000000000008152600401610aa99061132f565b60405180910390fd5b610abc8185610b83565b600560008773ffffffffffffffffffffffffffffffffffffffff1673ffffffffffffffffffffffffffffffffffffffff16815260200190815260200160002081905550610b0b60035485610b83565b600381905550600073ffffffffffffffffffffffffffffffffffffffff168573ffffffffffffffffffffffffffffffffffffffff167fddf252ad1be2c89b69c2b068fc378daa952ba7f163c4a11628f55a4df523b3ef86604051610b6f919061100c565b60405180910390a360019250505092915050565b600082821115610b9257600080fd5b8183610b9e919061137e565b905092915050565b6000610bf1600560003373ffffffffffffffffffffffffffffffffffffffff1673ffffffffffffffffffffffffffffffffffffffff1681526020019081526020016000205483610b83565b600560003373ffffffffffffffffffffffffffffffffffffffff1673ffffffffffffffffffffffffffffffffffffffff16815260200190815260200160002081905550610c7d600560008573ffffffffffffffffffffffffffffffffffffffff1673ffffffffffffffffffffffffffffffffffffffff1681526020019081526020016000205483610e10565b600560008573ffffffffffffffffffffffffffffffffffffffff1673ffffffffffffffffffffffffffffffffffffffff168152602001908152602001600020819055508273ffffffffffffffffffffffffffffffffffffffff163373ffffffffffffffffffffffffffffffffffffffff167fddf252ad1be2c89b69c2b068fc378daa952ba7f163c4a11628f55a4df523b3ef84604051610d1d919061100c565b60405180910390a36001905092915050565b6000808211610d3d57600080fd5b8183610d4991906113e1565b905092915050565b60008183610d5f9190611412565b90506000831480610d7a5750818382610d7891906113e1565b145b610d8357600080fd5b92915050565b6000600660008473ffffffffffffffffffffffffffffffffffffffff1673ffffffffffffffffffffffffffffffffffffffff16815260200190815260200160002060008373ffffffffffffffffffffffffffffffffffffffff1673ffffffffffffffffffffffffffffffffffffffff16815260200190815260200160002054905092915050565b60008183610e1e919061146c565b905082811015610e2d57600080fd5b92915050565b600081519050919050565b600082825260208201905092915050565b60005b83811015610e6d578082015181840152602081019050610e52565b83811115610e7c576000848401525b50505050565b6000601f19601f8301169050919050565b6000610e9e82610e33565b610ea88185610e3e565b9350610eb8818560208601610e4f565b610ec181610e82565b840191505092915050565b60006020820190508181036000830152610ee68184610e93565b905092915050565b600080fd5b600073ffffffffffffffffffffffffffffffffffffffff82169050919050565b6000610f1e82610ef3565b9050919050565b610f2e81610f13565b8114610f3957600080fd5b50565b600081359050610f4b81610f25565b92915050565b6000819050919050565b610f6481610f51565b8114610f6f57600080fd5b50565b600081359050610f8181610f5b565b92915050565b60008060408385031215610f9e57610f9d610eee565b5b6000610fac85828601610f3c565b9250506020610fbd85828601610f72565b9150509250929050565b60008115159050919050565b610fdc81610fc7565b82525050565b6000602082019050610ff76000830184610fd3565b92915050565b61100681610f51565b82525050565b60006020820190506110216000830184610ffd565b92915050565b6000806000606084860312156110405761103f610eee565b5b600061104e86828701610f3c565b935050602061105f86828701610f3c565b925050604061107086828701610f72565b9150509250925092565b600060ff82169050919050565b6110908161107a565b82525050565b60006020820190506110ab6000830184611087565b92915050565b6000602082840312156110c7576110c6610eee565b5b60006110d584828501610f3c565b91505092915050565b600080604083850312156110f5576110f4610eee565b5b600061110385828601610f72565b925050602061111485828601610f72565b9150509250929050565b6000806040838503121561113557611134610eee565b5b600061114385828601610f3c565b925050602061115485828601610f3c565b9150509250929050565b7f4e487b7100000000000000000000000000000000000000000000000000000000600052602260045260246000fd5b600060028204905060018216806111a557607f821691505b602082108114156111b9576111b861115e565b5b50919050565b7f5468697320746f6b656e206973206e6f74206d696e7461626c652e0000000000600082015250565b60006111f5601b83610e3e565b9150611200826111bf565b602082019050919050565b60006020820190508181036000830152611224816111e8565b9050919050565b7f45524332303a206275726e2066726f6d20746865207a65726f2061646472657360008201527f7300000000000000000000000000000000000000000000000000000000000000602082015250565b6000611287602183610e3e565b91506112928261122b565b604082019050919050565b600060208201905081810360008301526112b68161127a565b9050919050565b7f45524332303a206275726e20616d6f756e7420657863656564732062616c616e60008201527f6365000000000000000000000000000000000000000000000000000000000000602082015250565b6000611319602283610e3e565b9150611324826112bd565b604082019050919050565b600060208201905081810360008301526113488161130c565b9050919050565b7f4e487b7100000000000000000000000000000000000000000000000000000000600052601160045260246000fd5b600061138982610f51565b915061139483610f51565b9250828210156113a7576113a661134f565b5b828203905092915050565b7f4e487b7100000000000000000000000000000000000000000000000000000000600052601260045260246000fd5b60006113ec82610f51565b91506113f783610f51565b925082611407576114066113b2565b5b828204905092915050565b600061141d82610f51565b915061142883610f51565b9250817fffffffffffffffffffffffffffffffffffffffffffffffffffffffffffffffff04831182151516156114615761146061134f565b5b828202905092915050565b600061147782610f51565b915061148283610f51565b9250827fffffffffffffffffffffffffffffffffffffffffffffffffffffffffffffffff038211156114b7576114b661134f565b5b82820190509291505056fea264697066735822122044179164e598c11ebb0d87cda52d0967fcc6af2641a4978d96aab72c3cdbbfb764736f6c634300080a0033",
  "immutableReferences": {},
  "source": "//SPDX-License-Identifier:MIT\r\npragma solidity ^0.8.0;\r\n\r\n//Safe Math Interface\r\n \r\ncontract SafeMath {\r\n \r\n    function safeAdd(uint a, uint b) public pure returns (uint c) {\r\n        c = a + b;\r\n        require(c >= a);\r\n    }\r\n \r\n    function safeSub(uint a, uint b) public pure returns (uint c) {\r\n        require(b <= a);\r\n        c = a - b;\r\n    }\r\n \r\n    function safeMul(uint a, uint b) public pure returns (uint c) {\r\n        c = a * b;\r\n        require(a == 0 || c / a == b);\r\n    }\r\n \r\n    function safeDiv(uint a, uint b) public pure returns (uint c) {\r\n        require(b > 0);\r\n        c = a / b;\r\n    }\r\n}\r\n \r\n \r\n//ERC Token Standard #20 Interface\r\n \r\ninterface ERC20Interface {\r\n    function totalSupply() external view returns (uint);    \r\n    function balanceOf(address tokenOwner) external view returns (uint balance);\r\n    function allowance(address tokenOwner, address spender) external view returns (uint remaining);\r\n    function transfer(address to, uint tokens) external returns (bool success);\r\n    function approve(address spender, uint tokens) external returns (bool success);\r\n    function transferFrom(address from, address to, uint tokens) external returns (bool success);\r\n    function symbol() external view returns(string memory);\r\n    function name() external view returns(string memory);\r\n    function decimals() external view returns (uint8);\r\n    function burn(address account, uint amount) external returns(bool success);\r\n    function mint(address to, uint amount) external returns(bool success);\r\n\r\n    event Transfer(address indexed from, address indexed to, uint tokens);\r\n    event Approval(address indexed tokenOwner, address indexed spender, uint tokens);\r\n}\r\n \r\n// //Contract function to receive approval and execute function in one call\r\n \r\n// contract ApproveAndCallFallBack {\r\n//     function receiveApproval(address from, uint256 tokens, address token, bytes memory data) public;\r\n// }\r\n \r\n//Actual token contract\r\n \r\ncontract Token is ERC20Interface, SafeMath {\r\n    string public symbol;\r\n    string public  name;\r\n    uint8 public decimals;\r\n    uint public _totalSupply;\r\n \r\n    address deployer;\r\n\r\n    mapping(address => uint) balances;\r\n    mapping(address => mapping(address => uint)) allowed;\r\n    \r\n    constructor(string memory _symbol, string memory _name, uint8 _decimal, uint _total) {\r\n        symbol = _symbol;\r\n        name = _name;\r\n        decimals = _decimal;\r\n        _totalSupply = _total;\r\n        deployer = msg.sender;        \r\n        balances[deployer] = _totalSupply;\r\n        emit Transfer(address(0), deployer, _totalSupply);\r\n    }\r\n \r\n    function totalSupply() public view override returns (uint) {\r\n        return _totalSupply; \r\n    }\r\n \r\n    function balanceOf(address tokenOwner) public view override returns (uint) {\r\n        return balances[tokenOwner];\r\n    }\r\n \r\n    function transfer(address to, uint tokens) public override returns (bool) {\r\n        balances[msg.sender] = safeSub(balances[msg.sender], tokens);        \r\n        balances[to] = safeAdd(balances[to], tokens);\r\n        emit Transfer(msg.sender, to, tokens);\r\n        return true;\r\n    }\r\n \r\n    function approve(address spender, uint tokens) public override returns (bool) {\r\n        allowed[msg.sender][spender] = tokens;\r\n        emit Approval(msg.sender, spender, tokens);\r\n        return true;\r\n    }\r\n \r\n    function transferFrom(address from, address to, uint tokens) public override returns (bool) {\r\n        balances[from] = safeSub(balances[from], tokens);\r\n        allowed[from][msg.sender] = safeSub(allowed[from][msg.sender], tokens);\r\n        balances[to] = safeAdd(balances[to], tokens);\r\n        emit Transfer(from, to, tokens);\r\n        return true;\r\n    }\r\n \r\n    function allowance(address tokenOwner, address spender) public view override returns (uint) {\r\n        return allowed[tokenOwner][spender];\r\n    }\r\n\r\n    //Reference: https://github.com/OpenZeppelin/openzeppelin-contracts/blob/master/contracts/token/ERC20/ERC20.sol\r\n    function burn(address account, uint amount)public override isOwner(msg.sender) returns(bool){\r\n        require(account != address(0), \"ERC20: burn from the zero address\");\r\n        \r\n        uint256 accountBalance = balances[account];\r\n        require(accountBalance >= amount, \"ERC20: burn amount exceeds balance\");\r\n        balances[account] = safeSub(accountBalance, amount);\r\n        _totalSupply = safeSub(_totalSupply,amount);\r\n\r\n        emit Transfer(account, address(0), amount);\r\n        return true;\r\n    }\r\n\r\n    function mint(address, uint)public override virtual isOwner(msg.sender) returns(bool){\r\n        require(false,\"This token is not mintable.\");\r\n        return false;\r\n    }\r\n\r\n    modifier isOwner(address account){\r\n        require(deployer == account);\r\n        _;\r\n    }\r\n    // function approveAndCall(address spender, uint tokens, bytes memory data) public virtual returns (bool) {\r\n    //     allowed[msg.sender][spender] = tokens;\r\n    //     emit Approval(msg.sender, spender, tokens);\r\n    //     ApproveAndCallFallBack(spender).receiveApproval(msg.sender, tokens, this, data);\r\n    //     return true;\r\n    // }\r\n}\r\n\r\ncontract MintableToken is Token{\r\n    constructor(string memory _symbol, string memory _name, uint8 _decimal) Token(_symbol,_name,_decimal,0){        \r\n    }   \r\n\r\n    function mint(address to, uint amount)public override isOwner(msg.sender) returns(bool){\r\n        _totalSupply += amount;        \r\n        balances[to] = safeAdd(balances[to], amount);\r\n        emit Transfer(msg.sender, to, amount);\r\n        return true;\r\n    }\r\n}",
  "sourcePath": "B:\\Degree Material\\Year 3 Sem 2\\Block Chain Application\\Assignment\\Dex Platform\\contracts\\Token.sol",
  "compiler": {
    "name": "solc",
    "version": "0.8.10+commit.fc410830.Emscripten.clang"
  },
  "schemaVersion": "3.4.3",
  "updatedAt": "2021-12-10T16:59:19.555Z",
  "networkType": "ethereum",
  "devdoc": {
    "kind": "dev",
    "methods": {},
    "version": 1
  },
  "userdoc": {
    "kind": "user",
    "methods": {},
    "version": 1
  }
}