{
  "contractName": "Token",
  "abi": [
    {
      "inputs": [
        {
          "internalType": "string",
          "name": "_symbol",
          "type": "string"
        },
        {
          "internalType": "string",
          "name": "_name",
          "type": "string"
        },
        {
          "internalType": "uint8",
          "name": "_decimal",
          "type": "uint8"
        },
        {
          "internalType": "uint256",
          "name": "_total",
          "type": "uint256"
        }
      ],
      "stateMutability": "nonpayable",
      "type": "constructor"
    },
    {
      "anonymous": false,
      "inputs": [
        {
          "indexed": true,
          "internalType": "address",
          "name": "tokenOwner",
          "type": "address"
        },
        {
          "indexed": true,
          "internalType": "address",
          "name": "spender",
          "type": "address"
        },
        {
          "indexed": false,
          "internalType": "uint256",
          "name": "tokens",
          "type": "uint256"
        }
      ],
      "name": "Approval",
      "type": "event"
    },
    {
      "anonymous": false,
      "inputs": [
        {
          "indexed": true,
          "internalType": "address",
          "name": "from",
          "type": "address"
        },
        {
          "indexed": true,
          "internalType": "address",
          "name": "to",
          "type": "address"
        },
        {
          "indexed": false,
          "internalType": "uint256",
          "name": "tokens",
          "type": "uint256"
        }
      ],
      "name": "Transfer",
      "type": "event"
    },
    {
      "inputs": [],
      "name": "_totalSupply",
      "outputs": [
        {
          "internalType": "uint256",
          "name": "",
          "type": "uint256"
        }
      ],
      "stateMutability": "view",
      "type": "function",
      "constant": true
    },
    {
      "inputs": [],
      "name": "decimals",
      "outputs": [
        {
          "internalType": "uint8",
          "name": "",
          "type": "uint8"
        }
      ],
      "stateMutability": "view",
      "type": "function",
      "constant": true
    },
    {
      "inputs": [],
      "name": "deployer",
      "outputs": [
        {
          "internalType": "address",
          "name": "",
          "type": "address"
        }
      ],
      "stateMutability": "view",
      "type": "function",
      "constant": true
    },
    {
      "inputs": [],
      "name": "name",
      "outputs": [
        {
          "internalType": "string",
          "name": "",
          "type": "string"
        }
      ],
      "stateMutability": "view",
      "type": "function",
      "constant": true
    },
    {
      "inputs": [
        {
          "internalType": "uint256",
          "name": "a",
          "type": "uint256"
        },
        {
          "internalType": "uint256",
          "name": "b",
          "type": "uint256"
        }
      ],
      "name": "safeAdd",
      "outputs": [
        {
          "internalType": "uint256",
          "name": "c",
          "type": "uint256"
        }
      ],
      "stateMutability": "pure",
      "type": "function",
      "constant": true
    },
    {
      "inputs": [
        {
          "internalType": "uint256",
          "name": "a",
          "type": "uint256"
        },
        {
          "internalType": "uint256",
          "name": "b",
          "type": "uint256"
        }
      ],
      "name": "safeDiv",
      "outputs": [
        {
          "internalType": "uint256",
          "name": "c",
          "type": "uint256"
        }
      ],
      "stateMutability": "pure",
      "type": "function",
      "constant": true
    },
    {
      "inputs": [
        {
          "internalType": "uint256",
          "name": "a",
          "type": "uint256"
        },
        {
          "internalType": "uint256",
          "name": "b",
          "type": "uint256"
        }
      ],
      "name": "safeMul",
      "outputs": [
        {
          "internalType": "uint256",
          "name": "c",
          "type": "uint256"
        }
      ],
      "stateMutability": "pure",
      "type": "function",
      "constant": true
    },
    {
      "inputs": [
        {
          "internalType": "uint256",
          "name": "a",
          "type": "uint256"
        },
        {
          "internalType": "uint256",
          "name": "b",
          "type": "uint256"
        }
      ],
      "name": "safeSub",
      "outputs": [
        {
          "internalType": "uint256",
          "name": "c",
          "type": "uint256"
        }
      ],
      "stateMutability": "pure",
      "type": "function",
      "constant": true
    },
    {
      "inputs": [],
      "name": "symbol",
      "outputs": [
        {
          "internalType": "string",
          "name": "",
          "type": "string"
        }
      ],
      "stateMutability": "view",
      "type": "function",
      "constant": true
    },
    {
      "inputs": [],
      "name": "totalSupply",
      "outputs": [
        {
          "internalType": "uint256",
          "name": "",
          "type": "uint256"
        }
      ],
      "stateMutability": "view",
      "type": "function",
      "constant": true
    },
    {
      "inputs": [
        {
          "internalType": "address",
          "name": "tokenOwner",
          "type": "address"
        }
      ],
      "name": "balanceOf",
      "outputs": [
        {
          "internalType": "uint256",
          "name": "",
          "type": "uint256"
        }
      ],
      "stateMutability": "view",
      "type": "function",
      "constant": true
    },
    {
      "inputs": [
        {
          "internalType": "address",
          "name": "to",
          "type": "address"
        },
        {
          "internalType": "uint256",
          "name": "tokens",
          "type": "uint256"
        }
      ],
      "name": "transfer",
      "outputs": [
        {
          "internalType": "bool",
          "name": "",
          "type": "bool"
        }
      ],
      "stateMutability": "nonpayable",
      "type": "function"
    },
    {
      "inputs": [
        {
          "internalType": "address",
          "name": "spender",
          "type": "address"
        },
        {
          "internalType": "uint256",
          "name": "tokens",
          "type": "uint256"
        }
      ],
      "name": "approve",
      "outputs": [
        {
          "internalType": "bool",
          "name": "",
          "type": "bool"
        }
      ],
      "stateMutability": "nonpayable",
      "type": "function"
    },
    {
      "inputs": [
        {
          "internalType": "address",
          "name": "from",
          "type": "address"
        },
        {
          "internalType": "address",
          "name": "to",
          "type": "address"
        },
        {
          "internalType": "uint256",
          "name": "tokens",
          "type": "uint256"
        }
      ],
      "name": "transferFrom",
      "outputs": [
        {
          "internalType": "bool",
          "name": "",
          "type": "bool"
        }
      ],
      "stateMutability": "nonpayable",
      "type": "function"
    },
    {
      "inputs": [
        {
          "internalType": "address",
          "name": "tokenOwner",
          "type": "address"
        },
        {
          "internalType": "address",
          "name": "spender",
          "type": "address"
        }
      ],
      "name": "allowance",
      "outputs": [
        {
          "internalType": "uint256",
          "name": "",
          "type": "uint256"
        }
      ],
      "stateMutability": "view",
      "type": "function",
      "constant": true
    },
    {
      "inputs": [
        {
          "internalType": "address",
          "name": "account",
          "type": "address"
        },
        {
          "internalType": "uint256",
          "name": "amount",
          "type": "uint256"
        }
      ],
      "name": "burn",
      "outputs": [
        {
          "internalType": "bool",
          "name": "",
          "type": "bool"
        }
      ],
      "stateMutability": "nonpayable",
      "type": "function"
    },
    {
      "inputs": [
        {
          "internalType": "address",
          "name": "",
          "type": "address"
        },
        {
          "internalType": "uint256",
          "name": "",
          "type": "uint256"
        }
      ],
      "name": "mint",
      "outputs": [
        {
          "internalType": "bool",
          "name": "",
          "type": "bool"
        }
      ],
      "stateMutability": "nonpayable",
      "type": "function"
    }
  ],
  "bytecode": "0x60806040523480156200001157600080fd5b5060405162001b5438038062001b54833981810160405281019062000037919062000490565b83600090805190602001906200004f929190620001ca565b50826001908051906020019062000068929190620001ca565b5081600260006101000a81548160ff021916908360ff1602179055508060038190555033600460006101000a81548173ffffffffffffffffffffffffffffffffffffffff021916908373ffffffffffffffffffffffffffffffffffffffff16021790555060035460056000600460009054906101000a900473ffffffffffffffffffffffffffffffffffffffff1673ffffffffffffffffffffffffffffffffffffffff1673ffffffffffffffffffffffffffffffffffffffff16815260200190815260200160002081905550600460009054906101000a900473ffffffffffffffffffffffffffffffffffffffff1673ffffffffffffffffffffffffffffffffffffffff16600073ffffffffffffffffffffffffffffffffffffffff167fddf252ad1be2c89b69c2b068fc378daa952ba7f163c4a11628f55a4df523b3ef600354604051620001b8919062000551565b60405180910390a350505050620005d3565b828054620001d8906200059d565b90600052602060002090601f016020900481019282620001fc576000855562000248565b82601f106200021757805160ff191683800117855562000248565b8280016001018555821562000248579182015b82811115620002475782518255916020019190600101906200022a565b5b5090506200025791906200025b565b5090565b5b80821115620002765760008160009055506001016200025c565b5090565b6000604051905090565b600080fd5b600080fd5b600080fd5b600080fd5b6000601f19601f8301169050919050565b7f4e487b7100000000000000000000000000000000000000000000000000000000600052604160045260246000fd5b620002e38262000298565b810181811067ffffffffffffffff82111715620003055762000304620002a9565b5b80604052505050565b60006200031a6200027a565b9050620003288282620002d8565b919050565b600067ffffffffffffffff8211156200034b576200034a620002a9565b5b620003568262000298565b9050602081019050919050565b60005b838110156200038357808201518184015260208101905062000366565b8381111562000393576000848401525b50505050565b6000620003b0620003aa846200032d565b6200030e565b905082815260208101848484011115620003cf57620003ce62000293565b5b620003dc84828562000363565b509392505050565b600082601f830112620003fc57620003fb6200028e565b5b81516200040e84826020860162000399565b91505092915050565b600060ff82169050919050565b6200042f8162000417565b81146200043b57600080fd5b50565b6000815190506200044f8162000424565b92915050565b6000819050919050565b6200046a8162000455565b81146200047657600080fd5b50565b6000815190506200048a816200045f565b92915050565b60008060008060808587031215620004ad57620004ac62000284565b5b600085015167ffffffffffffffff811115620004ce57620004cd62000289565b5b620004dc87828801620003e4565b945050602085015167ffffffffffffffff8111156200050057620004ff62000289565b5b6200050e87828801620003e4565b935050604062000521878288016200043e565b9250506060620005348782880162000479565b91505092959194509250565b6200054b8162000455565b82525050565b600060208201905062000568600083018462000540565b92915050565b7f4e487b7100000000000000000000000000000000000000000000000000000000600052602260045260246000fd5b60006002820490506001821680620005b657607f821691505b60208210811415620005cd57620005cc6200056e565b5b50919050565b61157180620005e36000396000f3fe608060405234801561001057600080fd5b506004361061010b5760003560e01c806395d89b41116100a2578063b5931f7c11610071578063b5931f7c146102f6578063d05c78da14610326578063d5f3948814610356578063dd62ed3e14610374578063e6cb9013146103a45761010b565b806395d89b41146102485780639dc29fac14610266578063a293d1e814610296578063a9059cbb146102c65761010b565b8063313ce567116100de578063313ce567146101ac5780633eaaf86b146101ca57806340c10f19146101e857806370a08231146102185761010b565b806306fdde0314610110578063095ea7b31461012e57806318160ddd1461015e57806323b872dd1461017c575b600080fd5b6101186103d4565b6040516101259190610f1b565b60405180910390f35b61014860048036038101906101439190610fd6565b610462565b6040516101559190611031565b60405180910390f35b610166610554565b604051610173919061105b565b60405180910390f35b61019660048036038101906101919190611076565b61055e565b6040516101a39190611031565b60405180910390f35b6101b46107ee565b6040516101c191906110e5565b60405180910390f35b6101d2610801565b6040516101df919061105b565b60405180910390f35b61020260048036038101906101fd9190610fd6565b610807565b60405161020f9190611031565b60405180910390f35b610232600480360381019061022d9190611100565b6108b0565b60405161023f919061105b565b60405180910390f35b6102506108f9565b60405161025d9190610f1b565b60405180910390f35b610280600480360381019061027b9190610fd6565b610987565b60405161028d9190611031565b60405180910390f35b6102b060048036038101906102ab919061112d565b610bac565b6040516102bd919061105b565b60405180910390f35b6102e060048036038101906102db9190610fd6565b610bcf565b6040516102ed9190611031565b60405180910390f35b610310600480360381019061030b919061112d565b610d58565b60405161031d919061105b565b60405180910390f35b610340600480360381019061033b919061112d565b610d7a565b60405161034d919061105b565b60405180910390f35b61035e610db2565b60405161036b919061117c565b60405180910390f35b61038e60048036038101906103899190611197565b610dd8565b60405161039b919061105b565b60405180910390f35b6103be60048036038101906103b9919061112d565b610e5f565b6040516103cb919061105b565b60405180910390f35b600180546103e190611206565b80601f016020809104026020016040519081016040528092919081815260200182805461040d90611206565b801561045a5780601f1061042f5761010080835404028352916020019161045a565b820191906000526020600020905b81548152906001019060200180831161043d57829003601f168201915b505050505081565b600081600660003373ffffffffffffffffffffffffffffffffffffffff1673ffffffffffffffffffffffffffffffffffffffff16815260200190815260200160002060008573ffffffffffffffffffffffffffffffffffffffff1673ffffffffffffffffffffffffffffffffffffffff168152602001908152602001600020819055508273ffffffffffffffffffffffffffffffffffffffff163373ffffffffffffffffffffffffffffffffffffffff167f8c5be1e5ebec7d5bd14f71427d1e84f3dd0314c0f7b2291e5b200ac8c7c3b92584604051610542919061105b565b60405180910390a36001905092915050565b6000600354905090565b60006105a9600560008673ffffffffffffffffffffffffffffffffffffffff1673ffffffffffffffffffffffffffffffffffffffff1681526020019081526020016000205483610bac565b600560008673ffffffffffffffffffffffffffffffffffffffff1673ffffffffffffffffffffffffffffffffffffffff16815260200190815260200160002081905550610672600660008673ffffffffffffffffffffffffffffffffffffffff1673ffffffffffffffffffffffffffffffffffffffff16815260200190815260200160002060003373ffffffffffffffffffffffffffffffffffffffff1673ffffffffffffffffffffffffffffffffffffffff1681526020019081526020016000205483610bac565b600660008673ffffffffffffffffffffffffffffffffffffffff1673ffffffffffffffffffffffffffffffffffffffff16815260200190815260200160002060003373ffffffffffffffffffffffffffffffffffffffff1673ffffffffffffffffffffffffffffffffffffffff1681526020019081526020016000208190555061073b600560008573ffffffffffffffffffffffffffffffffffffffff1673ffffffffffffffffffffffffffffffffffffffff1681526020019081526020016000205483610e5f565b600560008573ffffffffffffffffffffffffffffffffffffffff1673ffffffffffffffffffffffffffffffffffffffff168152602001908152602001600020819055508273ffffffffffffffffffffffffffffffffffffffff168473ffffffffffffffffffffffffffffffffffffffff167fddf252ad1be2c89b69c2b068fc378daa952ba7f163c4a11628f55a4df523b3ef846040516107db919061105b565b60405180910390a3600190509392505050565b600260009054906101000a900460ff1681565b60035481565b6000338073ffffffffffffffffffffffffffffffffffffffff16600460009054906101000a900473ffffffffffffffffffffffffffffffffffffffff1673ffffffffffffffffffffffffffffffffffffffff161461086457600080fd5b60006108a5576040517f08c379a000000000000000000000000000000000000000000000000000000000815260040161089c90611284565b60405180910390fd5b600091505092915050565b6000600560008373ffffffffffffffffffffffffffffffffffffffff1673ffffffffffffffffffffffffffffffffffffffff168152602001908152602001600020549050919050565b6000805461090690611206565b80601f016020809104026020016040519081016040528092919081815260200182805461093290611206565b801561097f5780601f106109545761010080835404028352916020019161097f565b820191906000526020600020905b81548152906001019060200180831161096257829003601f168201915b505050505081565b6000338073ffffffffffffffffffffffffffffffffffffffff16600460009054906101000a900473ffffffffffffffffffffffffffffffffffffffff1673ffffffffffffffffffffffffffffffffffffffff16146109e457600080fd5b600073ffffffffffffffffffffffffffffffffffffffff168473ffffffffffffffffffffffffffffffffffffffff161415610a54576040517f08c379a0000000000000000000000000000000000000000000000000000000008152600401610a4b90611316565b60405180910390fd5b6000600560008673ffffffffffffffffffffffffffffffffffffffff1673ffffffffffffffffffffffffffffffffffffffff16815260200190815260200160002054905083811015610adb576040517f08c379a0000000000000000000000000000000000000000000000000000000008152600401610ad2906113a8565b60405180910390fd5b610ae58185610bac565b600560008773ffffffffffffffffffffffffffffffffffffffff1673ffffffffffffffffffffffffffffffffffffffff16815260200190815260200160002081905550610b3460035485610bac565b600381905550600073ffffffffffffffffffffffffffffffffffffffff168573ffffffffffffffffffffffffffffffffffffffff167fddf252ad1be2c89b69c2b068fc378daa952ba7f163c4a11628f55a4df523b3ef86604051610b98919061105b565b60405180910390a360019250505092915050565b600082821115610bbb57600080fd5b8183610bc791906113f7565b905092915050565b6000610c1a600560003373ffffffffffffffffffffffffffffffffffffffff1673ffffffffffffffffffffffffffffffffffffffff1681526020019081526020016000205483610bac565b600560003373ffffffffffffffffffffffffffffffffffffffff1673ffffffffffffffffffffffffffffffffffffffff16815260200190815260200160002081905550610ca6600560008573ffffffffffffffffffffffffffffffffffffffff1673ffffffffffffffffffffffffffffffffffffffff1681526020019081526020016000205483610e5f565b600560008573ffffffffffffffffffffffffffffffffffffffff1673ffffffffffffffffffffffffffffffffffffffff168152602001908152602001600020819055508273ffffffffffffffffffffffffffffffffffffffff163373ffffffffffffffffffffffffffffffffffffffff167fddf252ad1be2c89b69c2b068fc378daa952ba7f163c4a11628f55a4df523b3ef84604051610d46919061105b565b60405180910390a36001905092915050565b6000808211610d6657600080fd5b8183610d72919061145a565b905092915050565b60008183610d88919061148b565b90506000831480610da35750818382610da1919061145a565b145b610dac57600080fd5b92915050565b600460009054906101000a900473ffffffffffffffffffffffffffffffffffffffff1681565b6000600660008473ffffffffffffffffffffffffffffffffffffffff1673ffffffffffffffffffffffffffffffffffffffff16815260200190815260200160002060008373ffffffffffffffffffffffffffffffffffffffff1673ffffffffffffffffffffffffffffffffffffffff16815260200190815260200160002054905092915050565b60008183610e6d91906114e5565b905082811015610e7c57600080fd5b92915050565b600081519050919050565b600082825260208201905092915050565b60005b83811015610ebc578082015181840152602081019050610ea1565b83811115610ecb576000848401525b50505050565b6000601f19601f8301169050919050565b6000610eed82610e82565b610ef78185610e8d565b9350610f07818560208601610e9e565b610f1081610ed1565b840191505092915050565b60006020820190508181036000830152610f358184610ee2565b905092915050565b600080fd5b600073ffffffffffffffffffffffffffffffffffffffff82169050919050565b6000610f6d82610f42565b9050919050565b610f7d81610f62565b8114610f8857600080fd5b50565b600081359050610f9a81610f74565b92915050565b6000819050919050565b610fb381610fa0565b8114610fbe57600080fd5b50565b600081359050610fd081610faa565b92915050565b60008060408385031215610fed57610fec610f3d565b5b6000610ffb85828601610f8b565b925050602061100c85828601610fc1565b9150509250929050565b60008115159050919050565b61102b81611016565b82525050565b60006020820190506110466000830184611022565b92915050565b61105581610fa0565b82525050565b6000602082019050611070600083018461104c565b92915050565b60008060006060848603121561108f5761108e610f3d565b5b600061109d86828701610f8b565b93505060206110ae86828701610f8b565b92505060406110bf86828701610fc1565b9150509250925092565b600060ff82169050919050565b6110df816110c9565b82525050565b60006020820190506110fa60008301846110d6565b92915050565b60006020828403121561111657611115610f3d565b5b600061112484828501610f8b565b91505092915050565b6000806040838503121561114457611143610f3d565b5b600061115285828601610fc1565b925050602061116385828601610fc1565b9150509250929050565b61117681610f62565b82525050565b6000602082019050611191600083018461116d565b92915050565b600080604083850312156111ae576111ad610f3d565b5b60006111bc85828601610f8b565b92505060206111cd85828601610f8b565b9150509250929050565b7f4e487b7100000000000000000000000000000000000000000000000000000000600052602260045260246000fd5b6000600282049050600182168061121e57607f821691505b60208210811415611232576112316111d7565b5b50919050565b7f5468697320746f6b656e206973206e6f74206d696e7461626c652e0000000000600082015250565b600061126e601b83610e8d565b915061127982611238565b602082019050919050565b6000602082019050818103600083015261129d81611261565b9050919050565b7f45524332303a206275726e2066726f6d20746865207a65726f2061646472657360008201527f7300000000000000000000000000000000000000000000000000000000000000602082015250565b6000611300602183610e8d565b915061130b826112a4565b604082019050919050565b6000602082019050818103600083015261132f816112f3565b9050919050565b7f45524332303a206275726e20616d6f756e7420657863656564732062616c616e60008201527f6365000000000000000000000000000000000000000000000000000000000000602082015250565b6000611392602283610e8d565b915061139d82611336565b604082019050919050565b600060208201905081810360008301526113c181611385565b9050919050565b7f4e487b7100000000000000000000000000000000000000000000000000000000600052601160045260246000fd5b600061140282610fa0565b915061140d83610fa0565b9250828210156114205761141f6113c8565b5b828203905092915050565b7f4e487b7100000000000000000000000000000000000000000000000000000000600052601260045260246000fd5b600061146582610fa0565b915061147083610fa0565b9250826114805761147f61142b565b5b828204905092915050565b600061149682610fa0565b91506114a183610fa0565b9250817fffffffffffffffffffffffffffffffffffffffffffffffffffffffffffffffff04831182151516156114da576114d96113c8565b5b828202905092915050565b60006114f082610fa0565b91506114fb83610fa0565b9250827fffffffffffffffffffffffffffffffffffffffffffffffffffffffffffffffff038211156115305761152f6113c8565b5b82820190509291505056fea2646970667358221220824fe1f200315571de2f2c43db94c87034265e28b9d3cd2b90331d0ac9910bc964736f6c634300080a0033",
  "immutableReferences": {},
  "source": "//SPDX-License-Identifier:MIT\r\npragma solidity ^0.8.0;\r\n\r\n//Safe Math Interface\r\n \r\ncontract SafeMath {\r\n \r\n    function safeAdd(uint a, uint b) public pure returns (uint c) {\r\n        c = a + b;\r\n        require(c >= a);\r\n    }\r\n \r\n    function safeSub(uint a, uint b) public pure returns (uint c) {\r\n        require(b <= a);\r\n        c = a - b;\r\n    }\r\n \r\n    function safeMul(uint a, uint b) public pure returns (uint c) {\r\n        c = a * b;\r\n        require(a == 0 || c / a == b);\r\n    }\r\n \r\n    function safeDiv(uint a, uint b) public pure returns (uint c) {\r\n        require(b > 0);\r\n        c = a / b;\r\n    }\r\n}\r\n \r\n \r\n//ERC Token Standard #20 Interface\r\n \r\ninterface ERC20Interface {\r\n    function totalSupply() external view returns (uint);    \r\n    function balanceOf(address tokenOwner) external view returns (uint balance);\r\n    function allowance(address tokenOwner, address spender) external view returns (uint remaining);\r\n    function transfer(address to, uint tokens) external returns (bool success);\r\n    function approve(address spender, uint tokens) external returns (bool success);\r\n    function transferFrom(address from, address to, uint tokens) external returns (bool success);\r\n    function symbol() external view returns(string memory);\r\n    function name() external view returns(string memory);\r\n    function decimals() external view returns (uint8);\r\n    function burn(address account, uint amount) external returns(bool success);\r\n    function mint(address to, uint amount) external returns(bool success);\r\n\r\n    event Transfer(address indexed from, address indexed to, uint tokens);\r\n    event Approval(address indexed tokenOwner, address indexed spender, uint tokens);\r\n}\r\n \r\n// //Contract function to receive approval and execute function in one call\r\n \r\n// contract ApproveAndCallFallBack {\r\n//     function receiveApproval(address from, uint256 tokens, address token, bytes memory data) public;\r\n// }\r\n \r\n//Actual token contract\r\n \r\ncontract Token is ERC20Interface, SafeMath {\r\n    string public symbol;\r\n    string public  name;\r\n    uint8 public decimals;\r\n    uint public _totalSupply;\r\n \r\n    address public deployer;\r\n\r\n    mapping(address => uint) balances;\r\n    mapping(address => mapping(address => uint)) allowed;\r\n    \r\n    constructor(string memory _symbol, string memory _name, uint8 _decimal, uint _total) {\r\n        symbol = _symbol;\r\n        name = _name;\r\n        decimals = _decimal;\r\n        _totalSupply = _total;\r\n        deployer = msg.sender;        \r\n        balances[deployer] = _totalSupply;\r\n        emit Transfer(address(0), deployer, _totalSupply);\r\n    }\r\n \r\n    function totalSupply() public view override returns (uint) {\r\n        return _totalSupply; \r\n    }\r\n \r\n    function balanceOf(address tokenOwner) public view override returns (uint) {\r\n        return balances[tokenOwner];\r\n    }\r\n \r\n    function transfer(address to, uint tokens) public override returns (bool) {\r\n        balances[msg.sender] = safeSub(balances[msg.sender], tokens);        \r\n        balances[to] = safeAdd(balances[to], tokens);\r\n        emit Transfer(msg.sender, to, tokens);\r\n        return true;\r\n    }\r\n \r\n    function approve(address spender, uint tokens) public override returns (bool) {\r\n        allowed[msg.sender][spender] = tokens;\r\n        emit Approval(msg.sender, spender, tokens);\r\n        return true;\r\n    }\r\n \r\n    function transferFrom(address from, address to, uint tokens) public override returns (bool) {\r\n        balances[from] = safeSub(balances[from], tokens);\r\n        allowed[from][msg.sender] = safeSub(allowed[from][msg.sender], tokens);\r\n        balances[to] = safeAdd(balances[to], tokens);\r\n        emit Transfer(from, to, tokens);\r\n        return true;\r\n    }\r\n \r\n    function allowance(address tokenOwner, address spender) public view override returns (uint) {\r\n        return allowed[tokenOwner][spender];\r\n    }\r\n\r\n    //Reference: https://github.com/OpenZeppelin/openzeppelin-contracts/blob/master/contracts/token/ERC20/ERC20.sol\r\n    function burn(address account, uint amount)public override isOwner(msg.sender) returns(bool){\r\n        require(account != address(0), \"ERC20: burn from the zero address\");\r\n        \r\n        uint256 accountBalance = balances[account];\r\n        require(accountBalance >= amount, \"ERC20: burn amount exceeds balance\");\r\n        balances[account] = safeSub(accountBalance, amount);\r\n        _totalSupply = safeSub(_totalSupply,amount);\r\n\r\n        emit Transfer(account, address(0), amount);\r\n        return true;\r\n    }\r\n\r\n    function mint(address, uint)public override virtual isOwner(msg.sender) returns(bool){\r\n        require(false,\"This token is not mintable.\");\r\n        return false;\r\n    }\r\n\r\n    modifier isOwner(address account){\r\n        require(deployer == account);\r\n        _;\r\n    }\r\n    // function approveAndCall(address spender, uint tokens, bytes memory data) public virtual returns (bool) {\r\n    //     allowed[msg.sender][spender] = tokens;\r\n    //     emit Approval(msg.sender, spender, tokens);\r\n    //     ApproveAndCallFallBack(spender).receiveApproval(msg.sender, tokens, this, data);\r\n    //     return true;\r\n    // }\r\n}\r\n\r\ncontract MintableToken is Token{\r\n    constructor(string memory _symbol, string memory _name, uint8 _decimal) Token(_symbol,_name,_decimal,0){        \r\n    }   \r\n\r\n    function mint(address to, uint amount)public override isOwner(msg.sender) returns(bool){\r\n        _totalSupply += amount;        \r\n        balances[to] = safeAdd(balances[to], amount);\r\n        emit Transfer(msg.sender, to, amount);\r\n        return true;\r\n    }\r\n}",
  "sourcePath": "B:\\Degree Material\\Year 3 Sem 2\\Block Chain Application\\Assignment\\Dex Platform\\contracts\\token.sol",
  "compiler": {
    "name": "solc",
    "version": "0.8.10+commit.fc410830.Emscripten.clang"
  },
  "schemaVersion": "3.4.3",
  "updatedAt": "2021-12-12T16:31:53.273Z",
  "networkType": "ethereum",
  "devdoc": {
    "kind": "dev",
    "methods": {},
    "version": 1
  },
  "userdoc": {
    "kind": "user",
    "methods": {},
    "version": 1
  }
}